{
  "_format": "hh-sol-artifact-1",
  "contractName": "AccessManagerSepolia",
  "sourceName": "contracts/Sepolia/users/AccessManagerSepolia.sol",
  "abi": [
    {
      "inputs": [
        {
          "internalType": "address",
          "name": "_owner",
          "type": "address"
        }
      ],
      "stateMutability": "nonpayable",
      "type": "constructor"
    },
    {
      "inputs": [],
      "name": "AccessControlBadConfirmation",
      "type": "error"
    },
    {
      "inputs": [
        {
          "internalType": "uint48",
          "name": "schedule",
          "type": "uint48"
        }
      ],
      "name": "AccessControlEnforcedDefaultAdminDelay",
      "type": "error"
    },
    {
      "inputs": [],
      "name": "AccessControlEnforcedDefaultAdminRules",
      "type": "error"
    },
    {
      "inputs": [
        {
          "internalType": "address",
          "name": "defaultAdmin",
          "type": "address"
        }
      ],
      "name": "AccessControlInvalidDefaultAdmin",
      "type": "error"
    },
    {
      "inputs": [
        {
          "internalType": "address",
          "name": "account",
          "type": "address"
        },
        {
          "internalType": "bytes32",
          "name": "neededRole",
          "type": "bytes32"
        }
      ],
      "name": "AccessControlUnauthorizedAccount",
      "type": "error"
    },
    {
      "inputs": [
        {
          "internalType": "uint8",
          "name": "bits",
          "type": "uint8"
        },
        {
          "internalType": "uint256",
          "name": "value",
          "type": "uint256"
        }
      ],
      "name": "SafeCastOverflowedUintDowncast",
      "type": "error"
    },
    {
      "inputs": [
        {
          "internalType": "address",
          "name": "caller",
          "type": "address"
        }
      ],
      "name": "UnauthorizedAccess",
      "type": "error"
    },
    {
      "anonymous": false,
      "inputs": [],
      "name": "DefaultAdminDelayChangeCanceled",
      "type": "event"
    },
    {
      "anonymous": false,
      "inputs": [
        {
          "indexed": false,
          "internalType": "uint48",
          "name": "newDelay",
          "type": "uint48"
        },
        {
          "indexed": false,
          "internalType": "uint48",
          "name": "effectSchedule",
          "type": "uint48"
        }
      ],
      "name": "DefaultAdminDelayChangeScheduled",
      "type": "event"
    },
    {
      "anonymous": false,
      "inputs": [],
      "name": "DefaultAdminTransferCanceled",
      "type": "event"
    },
    {
      "anonymous": false,
      "inputs": [
        {
          "indexed": true,
          "internalType": "address",
          "name": "newAdmin",
          "type": "address"
        },
        {
          "indexed": false,
          "internalType": "uint48",
          "name": "acceptSchedule",
          "type": "uint48"
        }
      ],
      "name": "DefaultAdminTransferScheduled",
      "type": "event"
    },
    {
      "anonymous": false,
      "inputs": [
        {
          "indexed": true,
          "internalType": "bytes32",
          "name": "role",
          "type": "bytes32"
        },
        {
          "indexed": true,
          "internalType": "bytes32",
          "name": "previousAdminRole",
          "type": "bytes32"
        },
        {
          "indexed": true,
          "internalType": "bytes32",
          "name": "newAdminRole",
          "type": "bytes32"
        }
      ],
      "name": "RoleAdminChanged",
      "type": "event"
    },
    {
      "anonymous": false,
      "inputs": [
        {
          "indexed": true,
          "internalType": "bytes32",
          "name": "role",
          "type": "bytes32"
        },
        {
          "indexed": true,
          "internalType": "address",
          "name": "account",
          "type": "address"
        },
        {
          "indexed": true,
          "internalType": "address",
          "name": "sender",
          "type": "address"
        }
      ],
      "name": "RoleGranted",
      "type": "event"
    },
    {
      "anonymous": false,
      "inputs": [
        {
          "indexed": true,
          "internalType": "bytes32",
          "name": "role",
          "type": "bytes32"
        },
        {
          "indexed": true,
          "internalType": "address",
          "name": "account",
          "type": "address"
        },
        {
          "indexed": true,
          "internalType": "address",
          "name": "sender",
          "type": "address"
        }
      ],
      "name": "RoleRevoked",
      "type": "event"
    },
    {
      "inputs": [],
      "name": "DEFAULT_ADMIN_ROLE",
      "outputs": [
        {
          "internalType": "bytes32",
          "name": "",
          "type": "bytes32"
        }
      ],
      "stateMutability": "view",
      "type": "function"
    },
    {
      "inputs": [],
      "name": "OWNER_ROLE",
      "outputs": [
        {
          "internalType": "bytes32",
          "name": "",
          "type": "bytes32"
        }
      ],
      "stateMutability": "view",
      "type": "function"
    },
    {
      "inputs": [],
      "name": "acceptDefaultAdminTransfer",
      "outputs": [],
      "stateMutability": "nonpayable",
      "type": "function"
    },
    {
      "inputs": [
        {
          "internalType": "address",
          "name": "newAdmin",
          "type": "address"
        }
      ],
      "name": "beginDefaultAdminTransfer",
      "outputs": [],
      "stateMutability": "nonpayable",
      "type": "function"
    },
    {
      "inputs": [],
      "name": "cancelDefaultAdminTransfer",
      "outputs": [],
      "stateMutability": "nonpayable",
      "type": "function"
    },
    {
      "inputs": [
        {
          "internalType": "uint48",
          "name": "newDelay",
          "type": "uint48"
        }
      ],
      "name": "changeDefaultAdminDelay",
      "outputs": [],
      "stateMutability": "nonpayable",
      "type": "function"
    },
    {
      "inputs": [],
      "name": "defaultAdmin",
      "outputs": [
        {
          "internalType": "address",
          "name": "",
          "type": "address"
        }
      ],
      "stateMutability": "view",
      "type": "function"
    },
    {
      "inputs": [],
      "name": "defaultAdminDelay",
      "outputs": [
        {
          "internalType": "uint48",
          "name": "",
          "type": "uint48"
        }
      ],
      "stateMutability": "view",
      "type": "function"
    },
    {
      "inputs": [],
      "name": "defaultAdminDelayIncreaseWait",
      "outputs": [
        {
          "internalType": "uint48",
          "name": "",
          "type": "uint48"
        }
      ],
      "stateMutability": "view",
      "type": "function"
    },
    {
      "inputs": [
        {
          "internalType": "bytes32",
          "name": "role",
          "type": "bytes32"
        }
      ],
      "name": "getRoleAdmin",
      "outputs": [
        {
          "internalType": "bytes32",
          "name": "",
          "type": "bytes32"
        }
      ],
      "stateMutability": "view",
      "type": "function"
    },
    {
      "inputs": [
        {
          "internalType": "address",
          "name": "_newOwner",
          "type": "address"
        }
      ],
      "name": "grantOwnerRole",
      "outputs": [],
      "stateMutability": "nonpayable",
      "type": "function"
    },
    {
      "inputs": [
        {
          "internalType": "bytes32",
          "name": "role",
          "type": "bytes32"
        },
        {
          "internalType": "address",
          "name": "account",
          "type": "address"
        }
      ],
      "name": "grantRole",
      "outputs": [],
      "stateMutability": "nonpayable",
      "type": "function"
    },
    {
      "inputs": [
        {
          "internalType": "bytes32",
          "name": "role",
          "type": "bytes32"
        },
        {
          "internalType": "address",
          "name": "account",
          "type": "address"
        }
      ],
      "name": "hasRole",
      "outputs": [
        {
          "internalType": "bool",
          "name": "",
          "type": "bool"
        }
      ],
      "stateMutability": "view",
      "type": "function"
    },
    {
      "inputs": [],
      "name": "owner",
      "outputs": [
        {
          "internalType": "address",
          "name": "",
          "type": "address"
        }
      ],
      "stateMutability": "view",
      "type": "function"
    },
    {
      "inputs": [],
      "name": "pendingDefaultAdmin",
      "outputs": [
        {
          "internalType": "address",
          "name": "newAdmin",
          "type": "address"
        },
        {
          "internalType": "uint48",
          "name": "schedule",
          "type": "uint48"
        }
      ],
      "stateMutability": "view",
      "type": "function"
    },
    {
      "inputs": [],
      "name": "pendingDefaultAdminDelay",
      "outputs": [
        {
          "internalType": "uint48",
          "name": "newDelay",
          "type": "uint48"
        },
        {
          "internalType": "uint48",
          "name": "schedule",
          "type": "uint48"
        }
      ],
      "stateMutability": "view",
      "type": "function"
    },
    {
      "inputs": [
        {
          "internalType": "bytes32",
          "name": "role",
          "type": "bytes32"
        },
        {
          "internalType": "address",
          "name": "account",
          "type": "address"
        }
      ],
      "name": "renounceRole",
      "outputs": [],
      "stateMutability": "nonpayable",
      "type": "function"
    },
    {
      "inputs": [
        {
          "internalType": "address",
          "name": "_oldOwner",
          "type": "address"
        }
      ],
      "name": "revokeOwnerRole",
      "outputs": [],
      "stateMutability": "nonpayable",
      "type": "function"
    },
    {
      "inputs": [
        {
          "internalType": "bytes32",
          "name": "role",
          "type": "bytes32"
        },
        {
          "internalType": "address",
          "name": "account",
          "type": "address"
        }
      ],
      "name": "revokeRole",
      "outputs": [],
      "stateMutability": "nonpayable",
      "type": "function"
    },
    {
      "inputs": [],
      "name": "rollbackDefaultAdminDelay",
      "outputs": [],
      "stateMutability": "nonpayable",
      "type": "function"
    },
    {
      "inputs": [
        {
          "internalType": "bytes4",
          "name": "interfaceId",
          "type": "bytes4"
        }
      ],
      "name": "supportsInterface",
      "outputs": [
        {
          "internalType": "bool",
          "name": "",
          "type": "bool"
        }
      ],
      "stateMutability": "view",
      "type": "function"
    }
  ],
  "bytecode": "0x60806040523480156200001157600080fd5b506040516200102b3803806200102b8339810160408190526200003491620001ec565b6203f48033806200005f57604051636116401160e11b81526000600482015260240160405180910390fd5b600180546001600160d01b0316600160d01b65ffffffffffff8516021790556200008b600082620000c8565b505050620000c07fb19546dff01e856fb3f010c267a7b1c60363cf8a4664e21cc89c26224620214e82620000c860201b60201c565b50506200021e565b60008262000129576000620000e56002546001600160a01b031690565b6001600160a01b0316146200010d57604051631fe1e13d60e11b815260040160405180910390fd5b600280546001600160a01b0319166001600160a01b0384161790555b6200013583836200013e565b90505b92915050565b6000828152602081815260408083206001600160a01b038516845290915281205460ff16620001e3576000838152602081815260408083206001600160a01b03861684529091529020805460ff191660011790556200019a3390565b6001600160a01b0316826001600160a01b0316847f2f8788117e7eff1d82e926ec794901d17c78024a50270940304540a733656f0d60405160405180910390a450600162000138565b50600062000138565b600060208284031215620001ff57600080fd5b81516001600160a01b03811681146200021757600080fd5b9392505050565b610dfd806200022e6000396000f3fe608060405234801561001057600080fd5b50600436106101375760003560e01c80638da5cb5b116100b8578063cc8463c81161007c578063cc8463c81461029c578063cefc1429146102a4578063cf6eefb7146102ac578063d547741f146102da578063d602b9fd146102ed578063e58378bb146102f557600080fd5b80638da5cb5b1461023f57806391d14854146102475780639c5bdeb41461025a578063a1eda53c1461026d578063a217fddf1461029457600080fd5b806336568abe116100ff57806336568abe146101ce578063397a8bab146101e1578063634e93da146101f4578063649a5ec71461020757806384ef8ffc1461021a57600080fd5b806301ffc9a71461013c578063022d63fb146101645780630aa6220b14610180578063248a9ca31461018a5780632f2ff15d146101bb575b600080fd5b61014f61014a366004610c9e565b61031c565b60405190151581526020015b60405180910390f35b620697805b60405165ffffffffffff909116815260200161015b565b610188610347565b005b6101ad610198366004610cc8565b60009081526020819052604090206001015490565b60405190815260200161015b565b6101886101c9366004610cfd565b61035d565b6101886101dc366004610cfd565b610389565b6101886101ef366004610d29565b610435565b610188610202366004610d29565b610495565b610188610215366004610d44565b6104a9565b6002546001600160a01b03165b6040516001600160a01b03909116815260200161015b565b6102276104bd565b61014f610255366004610cfd565b6104d6565b610188610268366004610d29565b6104ff565b61027561053e565b6040805165ffffffffffff93841681529290911660208301520161015b565b6101ad600081565b610169610592565b6101886105f1565b6102b4610631565b604080516001600160a01b03909316835265ffffffffffff90911660208301520161015b565b6101886102e8366004610cfd565b610652565b61018861067a565b6101ad7fb19546dff01e856fb3f010c267a7b1c60363cf8a4664e21cc89c26224620214e81565b60006001600160e01b031982166318a4c3c360e11b148061034157506103418261068d565b92915050565b6000610352816106c2565b61035a6106cc565b50565b8161037b57604051631fe1e13d60e11b815260040160405180910390fd5b61038582826106d9565b5050565b811580156103a457506002546001600160a01b038281169116145b1561042b576000806103b4610631565b90925090506001600160a01b0382161515806103d6575065ffffffffffff8116155b806103e957504265ffffffffffff821610155b15610416576040516319ca5ebb60e01b815265ffffffffffff821660048201526024015b60405180910390fd5b50506001805465ffffffffffff60a01b191690555b6103858282610704565b6104406000336104d6565b61046b57335b604051633733be5960e21b81526001600160a01b03909116600482015260240161040d565b6103857fb19546dff01e856fb3f010c267a7b1c60363cf8a4664e21cc89c26224620214e8261073c565b60006104a0816106c2565b610385826107ab565b60006104b4816106c2565b6103858261081e565b60006104d16002546001600160a01b031690565b905090565b6000918252602082815260408084206001600160a01b0393909316845291905290205460ff1690565b61050a6000336104d6565b6105145733610446565b6103857fb19546dff01e856fb3f010c267a7b1c60363cf8a4664e21cc89c26224620214e8261088e565b600254600090600160d01b900465ffffffffffff16801515801561056a57504265ffffffffffff821610155b6105765760008061058a565b600254600160a01b900465ffffffffffff16815b915091509091565b600254600090600160d01b900465ffffffffffff1680151580156105bd57504265ffffffffffff8216105b6105d857600154600160d01b900465ffffffffffff166105eb565b600254600160a01b900465ffffffffffff165b91505090565b60006105fb610631565b509050336001600160a01b0382161461062957604051636116401160e11b815233600482015260240161040d565b61035a6108cb565b6001546001600160a01b03811691600160a01b90910465ffffffffffff1690565b8161067057604051631fe1e13d60e11b815260040160405180910390fd5b6103858282610964565b6000610685816106c2565b61035a610989565b60006001600160e01b03198216637965db0b60e01b148061034157506301ffc9a760e01b6001600160e01b0319831614610341565b61035a8133610994565b6106d76000806109cd565b565b6000828152602081905260409020600101546106f4816106c2565b6106fe838361073c565b50505050565b6001600160a01b038116331461072d5760405163334bd91960e11b815260040160405180910390fd5b610737828261088e565b505050565b60008261079a5760006107576002546001600160a01b031690565b6001600160a01b03161461077e57604051631fe1e13d60e11b815260040160405180910390fd5b600280546001600160a01b0319166001600160a01b0384161790555b6107a48383610a8d565b9392505050565b60006107b5610592565b6107be42610b1f565b6107c89190610d82565b90506107d48282610b56565b60405165ffffffffffff821681526001600160a01b038316907f3377dc44241e779dd06afab5b788a35ca5f3b778836e2990bdb26a2a4b2e5ed69060200160405180910390a25050565b600061082982610bd5565b61083242610b1f565b61083c9190610d82565b905061084882826109cd565b6040805165ffffffffffff8085168252831660208201527ff1038c18cf84a56e432fdbfaf746924b7ea511dfe03a6506a0ceba4888788d9b910160405180910390a15050565b6000821580156108ab57506002546001600160a01b038381169116145b156108c157600280546001600160a01b03191690555b6107a48383610c1d565b6000806108d6610631565b915091506108eb8165ffffffffffff16151590565b15806108ff57504265ffffffffffff821610155b15610927576040516319ca5ebb60e01b815265ffffffffffff8216600482015260240161040d565b610943600061093e6002546001600160a01b031690565b61088e565b5061094f60008361073c565b5050600180546001600160d01b031916905550565b60008281526020819052604090206001015461097f816106c2565b6106fe838361088e565b6106d7600080610b56565b61099e82826104d6565b6103855760405163e2517d3f60e01b81526001600160a01b03821660048201526024810183905260440161040d565b600254600160d01b900465ffffffffffff168015610a50574265ffffffffffff82161015610a2657600254600180546001600160d01b0316600160a01b90920465ffffffffffff16600160d01b02919091179055610a50565b6040517f2b1fa2edafe6f7b9e97c1a9e0c3660e645beb2dcaa2d45bdbf9beaf5472e1ec590600090a15b50600280546001600160a01b0316600160a01b65ffffffffffff948516026001600160d01b031617600160d01b9290931691909102919091179055565b6000610a9983836104d6565b610b17576000838152602081815260408083206001600160a01b03861684529091529020805460ff19166001179055610acf3390565b6001600160a01b0316826001600160a01b0316847f2f8788117e7eff1d82e926ec794901d17c78024a50270940304540a733656f0d60405160405180910390a4506001610341565b506000610341565b600065ffffffffffff821115610b52576040516306dfcc6560e41b8152603060048201526024810183905260440161040d565b5090565b6000610b60610631565b6001805465ffffffffffff8616600160a01b026001600160d01b03199091166001600160a01b038816171790559150610ba290508165ffffffffffff16151590565b15610737576040517f8886ebfc4259abdbc16601dd8fb5678e54878f47b3c34836cfc51154a960510990600090a1505050565b600080610be0610592565b90508065ffffffffffff168365ffffffffffff1611610c0857610c038382610da8565b6107a4565b6107a465ffffffffffff841662069780610c88565b6000610c2983836104d6565b15610b17576000838152602081815260408083206001600160a01b0386168085529252808320805460ff1916905551339286917ff6391f5c32d9c69d2a47ea670b442974b53935d1edc7fd64eb21e047a839171b9190a4506001610341565b6000818310610c9757816107a4565b5090919050565b600060208284031215610cb057600080fd5b81356001600160e01b0319811681146107a457600080fd5b600060208284031215610cda57600080fd5b5035919050565b80356001600160a01b0381168114610cf857600080fd5b919050565b60008060408385031215610d1057600080fd5b82359150610d2060208401610ce1565b90509250929050565b600060208284031215610d3b57600080fd5b6107a482610ce1565b600060208284031215610d5657600080fd5b813565ffffffffffff811681146107a457600080fd5b634e487b7160e01b600052601160045260246000fd5b65ffffffffffff818116838216019080821115610da157610da1610d6c565b5092915050565b65ffffffffffff828116828216039080821115610da157610da1610d6c56fea26469706673582212209b8f403508bae6f3ef1bd322e9fd52a22f2fc97db7863779d7186933c5c2036b64736f6c63430008170033",
  "linkReferences": {},
  "deployedLinkReferences": {}
}