{
  "address": "0x124AE849075ff729Ffdf49a49519777206F6fF64",
  "abi": [
    {
      "inputs": [],
      "stateMutability": "nonpayable",
      "type": "constructor"
    },
    {
      "inputs": [],
      "name": "AccessControlBadConfirmation",
      "type": "error"
    },
    {
      "inputs": [
        {
          "internalType": "uint48",
          "name": "schedule",
          "type": "uint48"
        }
      ],
      "name": "AccessControlEnforcedDefaultAdminDelay",
      "type": "error"
    },
    {
      "inputs": [],
      "name": "AccessControlEnforcedDefaultAdminRules",
      "type": "error"
    },
    {
      "inputs": [
        {
          "internalType": "address",
          "name": "defaultAdmin",
          "type": "address"
        }
      ],
      "name": "AccessControlInvalidDefaultAdmin",
      "type": "error"
    },
    {
      "inputs": [
        {
          "internalType": "address",
          "name": "account",
          "type": "address"
        },
        {
          "internalType": "bytes32",
          "name": "neededRole",
          "type": "bytes32"
        }
      ],
      "name": "AccessControlUnauthorizedAccount",
      "type": "error"
    },
    {
      "inputs": [
        {
          "internalType": "uint8",
          "name": "bits",
          "type": "uint8"
        },
        {
          "internalType": "uint256",
          "name": "value",
          "type": "uint256"
        }
      ],
      "name": "SafeCastOverflowedUintDowncast",
      "type": "error"
    },
    {
      "anonymous": false,
      "inputs": [],
      "name": "DefaultAdminDelayChangeCanceled",
      "type": "event"
    },
    {
      "anonymous": false,
      "inputs": [
        {
          "indexed": false,
          "internalType": "uint48",
          "name": "newDelay",
          "type": "uint48"
        },
        {
          "indexed": false,
          "internalType": "uint48",
          "name": "effectSchedule",
          "type": "uint48"
        }
      ],
      "name": "DefaultAdminDelayChangeScheduled",
      "type": "event"
    },
    {
      "anonymous": false,
      "inputs": [],
      "name": "DefaultAdminTransferCanceled",
      "type": "event"
    },
    {
      "anonymous": false,
      "inputs": [
        {
          "indexed": true,
          "internalType": "address",
          "name": "newAdmin",
          "type": "address"
        },
        {
          "indexed": false,
          "internalType": "uint48",
          "name": "acceptSchedule",
          "type": "uint48"
        }
      ],
      "name": "DefaultAdminTransferScheduled",
      "type": "event"
    },
    {
      "anonymous": false,
      "inputs": [
        {
          "indexed": true,
          "internalType": "bytes32",
          "name": "role",
          "type": "bytes32"
        },
        {
          "indexed": true,
          "internalType": "bytes32",
          "name": "previousAdminRole",
          "type": "bytes32"
        },
        {
          "indexed": true,
          "internalType": "bytes32",
          "name": "newAdminRole",
          "type": "bytes32"
        }
      ],
      "name": "RoleAdminChanged",
      "type": "event"
    },
    {
      "anonymous": false,
      "inputs": [
        {
          "indexed": true,
          "internalType": "bytes32",
          "name": "role",
          "type": "bytes32"
        },
        {
          "indexed": true,
          "internalType": "address",
          "name": "account",
          "type": "address"
        },
        {
          "indexed": true,
          "internalType": "address",
          "name": "sender",
          "type": "address"
        }
      ],
      "name": "RoleGranted",
      "type": "event"
    },
    {
      "anonymous": false,
      "inputs": [
        {
          "indexed": true,
          "internalType": "bytes32",
          "name": "role",
          "type": "bytes32"
        },
        {
          "indexed": true,
          "internalType": "address",
          "name": "account",
          "type": "address"
        },
        {
          "indexed": true,
          "internalType": "address",
          "name": "sender",
          "type": "address"
        }
      ],
      "name": "RoleRevoked",
      "type": "event"
    },
    {
      "inputs": [],
      "name": "ADMIN_ROLE",
      "outputs": [
        {
          "internalType": "bytes32",
          "name": "",
          "type": "bytes32"
        }
      ],
      "stateMutability": "view",
      "type": "function"
    },
    {
      "inputs": [],
      "name": "CREDIT_SCORE_OFFICER_ROLE",
      "outputs": [
        {
          "internalType": "bytes32",
          "name": "",
          "type": "bytes32"
        }
      ],
      "stateMutability": "view",
      "type": "function"
    },
    {
      "inputs": [],
      "name": "DEFAULT_ADMIN_ROLE",
      "outputs": [
        {
          "internalType": "bytes32",
          "name": "",
          "type": "bytes32"
        }
      ],
      "stateMutability": "view",
      "type": "function"
    },
    {
      "inputs": [],
      "name": "LOAN_PUBLISHER_ROLE",
      "outputs": [
        {
          "internalType": "bytes32",
          "name": "",
          "type": "bytes32"
        }
      ],
      "stateMutability": "view",
      "type": "function"
    },
    {
      "inputs": [],
      "name": "MINTER_ROLE",
      "outputs": [
        {
          "internalType": "bytes32",
          "name": "",
          "type": "bytes32"
        }
      ],
      "stateMutability": "view",
      "type": "function"
    },
    {
      "inputs": [],
      "name": "acceptDefaultAdminTransfer",
      "outputs": [],
      "stateMutability": "nonpayable",
      "type": "function"
    },
    {
      "inputs": [
        {
          "internalType": "address",
          "name": "newAdmin",
          "type": "address"
        }
      ],
      "name": "beginDefaultAdminTransfer",
      "outputs": [],
      "stateMutability": "nonpayable",
      "type": "function"
    },
    {
      "inputs": [],
      "name": "cancelDefaultAdminTransfer",
      "outputs": [],
      "stateMutability": "nonpayable",
      "type": "function"
    },
    {
      "inputs": [
        {
          "internalType": "uint48",
          "name": "newDelay",
          "type": "uint48"
        }
      ],
      "name": "changeDefaultAdminDelay",
      "outputs": [],
      "stateMutability": "nonpayable",
      "type": "function"
    },
    {
      "inputs": [],
      "name": "defaultAdmin",
      "outputs": [
        {
          "internalType": "address",
          "name": "",
          "type": "address"
        }
      ],
      "stateMutability": "view",
      "type": "function"
    },
    {
      "inputs": [],
      "name": "defaultAdminDelay",
      "outputs": [
        {
          "internalType": "uint48",
          "name": "",
          "type": "uint48"
        }
      ],
      "stateMutability": "view",
      "type": "function"
    },
    {
      "inputs": [],
      "name": "defaultAdminDelayIncreaseWait",
      "outputs": [
        {
          "internalType": "uint48",
          "name": "",
          "type": "uint48"
        }
      ],
      "stateMutability": "view",
      "type": "function"
    },
    {
      "inputs": [
        {
          "internalType": "bytes32",
          "name": "role",
          "type": "bytes32"
        }
      ],
      "name": "getRoleAdmin",
      "outputs": [
        {
          "internalType": "bytes32",
          "name": "",
          "type": "bytes32"
        }
      ],
      "stateMutability": "view",
      "type": "function"
    },
    {
      "inputs": [
        {
          "internalType": "bytes32",
          "name": "role",
          "type": "bytes32"
        },
        {
          "internalType": "address",
          "name": "account",
          "type": "address"
        }
      ],
      "name": "grantRole",
      "outputs": [],
      "stateMutability": "nonpayable",
      "type": "function"
    },
    {
      "inputs": [
        {
          "internalType": "bytes32",
          "name": "role",
          "type": "bytes32"
        },
        {
          "internalType": "address",
          "name": "account",
          "type": "address"
        }
      ],
      "name": "hasRole",
      "outputs": [
        {
          "internalType": "bool",
          "name": "",
          "type": "bool"
        }
      ],
      "stateMutability": "view",
      "type": "function"
    },
    {
      "inputs": [],
      "name": "owner",
      "outputs": [
        {
          "internalType": "address",
          "name": "",
          "type": "address"
        }
      ],
      "stateMutability": "view",
      "type": "function"
    },
    {
      "inputs": [],
      "name": "pendingDefaultAdmin",
      "outputs": [
        {
          "internalType": "address",
          "name": "newAdmin",
          "type": "address"
        },
        {
          "internalType": "uint48",
          "name": "schedule",
          "type": "uint48"
        }
      ],
      "stateMutability": "view",
      "type": "function"
    },
    {
      "inputs": [],
      "name": "pendingDefaultAdminDelay",
      "outputs": [
        {
          "internalType": "uint48",
          "name": "newDelay",
          "type": "uint48"
        },
        {
          "internalType": "uint48",
          "name": "schedule",
          "type": "uint48"
        }
      ],
      "stateMutability": "view",
      "type": "function"
    },
    {
      "inputs": [
        {
          "internalType": "bytes32",
          "name": "role",
          "type": "bytes32"
        },
        {
          "internalType": "address",
          "name": "account",
          "type": "address"
        }
      ],
      "name": "renounceRole",
      "outputs": [],
      "stateMutability": "nonpayable",
      "type": "function"
    },
    {
      "inputs": [
        {
          "internalType": "bytes32",
          "name": "role",
          "type": "bytes32"
        },
        {
          "internalType": "address",
          "name": "account",
          "type": "address"
        }
      ],
      "name": "revokeRole",
      "outputs": [],
      "stateMutability": "nonpayable",
      "type": "function"
    },
    {
      "inputs": [],
      "name": "rollbackDefaultAdminDelay",
      "outputs": [],
      "stateMutability": "nonpayable",
      "type": "function"
    },
    {
      "inputs": [
        {
          "internalType": "bytes4",
          "name": "interfaceId",
          "type": "bytes4"
        }
      ],
      "name": "supportsInterface",
      "outputs": [
        {
          "internalType": "bool",
          "name": "",
          "type": "bool"
        }
      ],
      "stateMutability": "view",
      "type": "function"
    }
  ],
  "transactionHash": "0x1d4be1d3a26ae23fecad90a2868eb7687e669dcb67df68c648702c8cdc75bad5",
  "args": [],
  "numDeployments": 1,
  "solcInputHash": "864a5f5c932fc35835f8dc35b7bce186",
  "bytecode": "0x608060405234801561001057600080fd5b506203f480338061003b57604051636116401160e11b81526000600482015260240160405180910390fd5b600180546001600160d01b0316600160d01b65ffffffffffff85160217905561006560008261006d565b505050610188565b6000826100cb5760006100886002546001600160a01b031690565b6001600160a01b0316146100af57604051631fe1e13d60e11b815260040160405180910390fd5b600280546001600160a01b0319166001600160a01b0384161790555b6100d583836100de565b90505b92915050565b6000828152602081815260408083206001600160a01b038516845290915281205460ff16610180576000838152602081815260408083206001600160a01b03861684529091529020805460ff191660011790556101383390565b6001600160a01b0316826001600160a01b0316847f2f8788117e7eff1d82e926ec794901d17c78024a50270940304540a733656f0d60405160405180910390a45060016100d8565b5060006100d8565b610db8806101976000396000f3fe608060405234801561001057600080fd5b50600436106101425760003560e01c80638da5cb5b116100b8578063cc8463c81161007c578063cc8463c8146102f6578063cefc1429146102fe578063cf6eefb714610306578063d539139314610334578063d547741f1461035b578063d602b9fd1461036e57600080fd5b80638da5cb5b1461028557806391d148541461028d57806395a525e8146102a0578063a1eda53c146102c7578063a217fddf146102ee57600080fd5b80632f2ff15d1161010a5780632f2ff15d146101ed57806336568abe14610200578063634e93da14610213578063649a5ec71461022657806375b238fc1461023957806384ef8ffc1461026057600080fd5b806301ffc9a714610147578063022d63fb1461016f57806302da74841461018b5780630aa6220b146101c0578063248a9ca3146101ca575b600080fd5b61015a610155366004610c59565b610376565b60405190151581526020015b60405180910390f35b620697805b60405165ffffffffffff9091168152602001610166565b6101b27f39c77d9939c25ecc449153d5a0f9430fc2a42f6c32ef28b87fb6b1118277197381565b604051908152602001610166565b6101c86103a1565b005b6101b26101d8366004610c83565b60009081526020819052604090206001015490565b6101c86101fb366004610cb8565b6103b7565b6101c861020e366004610cb8565b6103e3565b6101c8610221366004610ce4565b61048f565b6101c8610234366004610cff565b6104a3565b6101b27fa49807205ce4d355092ef5a8a18f56e8913cf4a201fbe287825b095693c2177581565b6002546001600160a01b03165b6040516001600160a01b039091168152602001610166565b61026d6104b7565b61015a61029b366004610cb8565b6104d0565b6101b27fad68326f8888db4a16a1a0e2398b724e80fab86f81bd4f24970ba52a88642f1081565b6102cf6104f9565b6040805165ffffffffffff938416815292909116602083015201610166565b6101b2600081565b61017461054d565b6101c86105ac565b61030e6105ec565b604080516001600160a01b03909316835265ffffffffffff909116602083015201610166565b6101b27f9f2df0fed2c77648de5860a4cc508cd0818c85b8b8a1ab4ceeef8d981c8956a681565b6101c8610369366004610cb8565b61060d565b6101c8610635565b60006001600160e01b031982166318a4c3c360e11b148061039b575061039b82610648565b92915050565b60006103ac8161067d565b6103b4610687565b50565b816103d557604051631fe1e13d60e11b815260040160405180910390fd5b6103df8282610694565b5050565b811580156103fe57506002546001600160a01b038281169116145b156104855760008061040e6105ec565b90925090506001600160a01b038216151580610430575065ffffffffffff8116155b8061044357504265ffffffffffff821610155b15610470576040516319ca5ebb60e01b815265ffffffffffff821660048201526024015b60405180910390fd5b50506001805465ffffffffffff60a01b191690555b6103df82826106bf565b600061049a8161067d565b6103df826106f7565b60006104ae8161067d565b6103df8261076a565b60006104cb6002546001600160a01b031690565b905090565b6000918252602082815260408084206001600160a01b0393909316845291905290205460ff1690565b600254600090600160d01b900465ffffffffffff16801515801561052557504265ffffffffffff821610155b61053157600080610545565b600254600160a01b900465ffffffffffff16815b915091509091565b600254600090600160d01b900465ffffffffffff16801515801561057857504265ffffffffffff8216105b61059357600154600160d01b900465ffffffffffff166105a6565b600254600160a01b900465ffffffffffff165b91505090565b60006105b66105ec565b509050336001600160a01b038216146105e457604051636116401160e11b8152336004820152602401610467565b6103b46107da565b6001546001600160a01b03811691600160a01b90910465ffffffffffff1690565b8161062b57604051631fe1e13d60e11b815260040160405180910390fd5b6103df8282610873565b60006106408161067d565b6103b4610898565b60006001600160e01b03198216637965db0b60e01b148061039b57506301ffc9a760e01b6001600160e01b031983161461039b565b6103b481336108a3565b6106926000806108dc565b565b6000828152602081905260409020600101546106af8161067d565b6106b9838361099c565b50505050565b6001600160a01b03811633146106e85760405163334bd91960e11b815260040160405180910390fd5b6106f28282610a0b565b505050565b600061070161054d565b61070a42610a48565b6107149190610d3d565b90506107208282610a7f565b60405165ffffffffffff821681526001600160a01b038316907f3377dc44241e779dd06afab5b788a35ca5f3b778836e2990bdb26a2a4b2e5ed69060200160405180910390a25050565b600061077582610afe565b61077e42610a48565b6107889190610d3d565b905061079482826108dc565b6040805165ffffffffffff8085168252831660208201527ff1038c18cf84a56e432fdbfaf746924b7ea511dfe03a6506a0ceba4888788d9b910160405180910390a15050565b6000806107e56105ec565b915091506107fa8165ffffffffffff16151590565b158061080e57504265ffffffffffff821610155b15610836576040516319ca5ebb60e01b815265ffffffffffff82166004820152602401610467565b610852600061084d6002546001600160a01b031690565b610a0b565b5061085e60008361099c565b5050600180546001600160d01b031916905550565b60008281526020819052604090206001015461088e8161067d565b6106b98383610a0b565b610692600080610a7f565b6108ad82826104d0565b6103df5760405163e2517d3f60e01b81526001600160a01b038216600482015260248101839052604401610467565b600254600160d01b900465ffffffffffff16801561095f574265ffffffffffff8216101561093557600254600180546001600160d01b0316600160a01b90920465ffffffffffff16600160d01b0291909117905561095f565b6040517f2b1fa2edafe6f7b9e97c1a9e0c3660e645beb2dcaa2d45bdbf9beaf5472e1ec590600090a15b50600280546001600160a01b0316600160a01b65ffffffffffff948516026001600160d01b031617600160d01b9290931691909102919091179055565b6000826109fa5760006109b76002546001600160a01b031690565b6001600160a01b0316146109de57604051631fe1e13d60e11b815260040160405180910390fd5b600280546001600160a01b0319166001600160a01b0384161790555b610a048383610b46565b9392505050565b600082158015610a2857506002546001600160a01b038381169116145b15610a3e57600280546001600160a01b03191690555b610a048383610bd8565b600065ffffffffffff821115610a7b576040516306dfcc6560e41b81526030600482015260248101839052604401610467565b5090565b6000610a896105ec565b6001805465ffffffffffff8616600160a01b026001600160d01b03199091166001600160a01b038816171790559150610acb90508165ffffffffffff16151590565b156106f2576040517f8886ebfc4259abdbc16601dd8fb5678e54878f47b3c34836cfc51154a960510990600090a1505050565b600080610b0961054d565b90508065ffffffffffff168365ffffffffffff1611610b3157610b2c8382610d63565b610a04565b610a0465ffffffffffff841662069780610c43565b6000610b5283836104d0565b610bd0576000838152602081815260408083206001600160a01b03861684529091529020805460ff19166001179055610b883390565b6001600160a01b0316826001600160a01b0316847f2f8788117e7eff1d82e926ec794901d17c78024a50270940304540a733656f0d60405160405180910390a450600161039b565b50600061039b565b6000610be483836104d0565b15610bd0576000838152602081815260408083206001600160a01b0386168085529252808320805460ff1916905551339286917ff6391f5c32d9c69d2a47ea670b442974b53935d1edc7fd64eb21e047a839171b9190a450600161039b565b6000818310610c525781610a04565b5090919050565b600060208284031215610c6b57600080fd5b81356001600160e01b031981168114610a0457600080fd5b600060208284031215610c9557600080fd5b5035919050565b80356001600160a01b0381168114610cb357600080fd5b919050565b60008060408385031215610ccb57600080fd5b82359150610cdb60208401610c9c565b90509250929050565b600060208284031215610cf657600080fd5b610a0482610c9c565b600060208284031215610d1157600080fd5b813565ffffffffffff81168114610a0457600080fd5b634e487b7160e01b600052601160045260246000fd5b65ffffffffffff818116838216019080821115610d5c57610d5c610d27565b5092915050565b65ffffffffffff828116828216039080821115610d5c57610d5c610d2756fea26469706673582212205b175523cea28558ce65a3f8306a4e11f1c4e8302f9f45675d9f5d221ae96cef64736f6c63430008170033",
  "devdoc": {
    "author": "GhoSafe Protocol",
    "errors": {
      "AccessControlBadConfirmation()": [
        {
          "details": "The caller of a function is not the expected one. NOTE: Don't confuse with {AccessControlUnauthorizedAccount}."
        }
      ],
      "AccessControlEnforcedDefaultAdminDelay(uint48)": [
        {
          "details": "The delay for transferring the default admin delay is enforced and the operation must wait until `schedule`. NOTE: `schedule` can be 0 indicating there's no transfer scheduled."
        }
      ],
      "AccessControlEnforcedDefaultAdminRules()": [
        {
          "details": "At least one of the following rules was violated: - The `DEFAULT_ADMIN_ROLE` must only be managed by itself. - The `DEFAULT_ADMIN_ROLE` must only be held by one account at the time. - Any `DEFAULT_ADMIN_ROLE` transfer must be in two delayed steps."
        }
      ],
      "AccessControlInvalidDefaultAdmin(address)": [
        {
          "details": "The new default admin is not a valid default admin."
        }
      ],
      "AccessControlUnauthorizedAccount(address,bytes32)": [
        {
          "details": "The `account` is missing a role."
        }
      ],
      "SafeCastOverflowedUintDowncast(uint8,uint256)": [
        {
          "details": "Value doesn't fit in an uint of `bits` size."
        }
      ]
    },
    "events": {
      "DefaultAdminDelayChangeCanceled()": {
        "details": "Emitted when a {pendingDefaultAdminDelay} is reset if its schedule didn't pass."
      },
      "DefaultAdminDelayChangeScheduled(uint48,uint48)": {
        "details": "Emitted when a {defaultAdminDelay} change is started, setting `newDelay` as the next delay to be applied between default admin transfer after `effectSchedule` has passed."
      },
      "DefaultAdminTransferCanceled()": {
        "details": "Emitted when a {pendingDefaultAdmin} is reset if it was never accepted, regardless of its schedule."
      },
      "DefaultAdminTransferScheduled(address,uint48)": {
        "details": "Emitted when a {defaultAdmin} transfer is started, setting `newAdmin` as the next address to become the {defaultAdmin} by calling {acceptDefaultAdminTransfer} only after `acceptSchedule` passes."
      },
      "RoleAdminChanged(bytes32,bytes32,bytes32)": {
        "details": "Emitted when `newAdminRole` is set as ``role``'s admin role, replacing `previousAdminRole` `DEFAULT_ADMIN_ROLE` is the starting admin for all roles, despite {RoleAdminChanged} not being emitted signaling this."
      },
      "RoleGranted(bytes32,address,address)": {
        "details": "Emitted when `account` is granted `role`. `sender` is the account that originated the contract call, an admin role bearer except when using {AccessControl-_setupRole}."
      },
      "RoleRevoked(bytes32,address,address)": {
        "details": "Emitted when `account` is revoked `role`. `sender` is the account that originated the contract call:   - if using `revokeRole`, it is the admin role bearer   - if using `renounceRole`, it is the role bearer (i.e. `account`)"
      }
    },
    "kind": "dev",
    "methods": {
      "acceptDefaultAdminTransfer()": {
        "details": "Completes a {defaultAdmin} transfer previously started with {beginDefaultAdminTransfer}. After calling the function: - `DEFAULT_ADMIN_ROLE` should be granted to the caller. - `DEFAULT_ADMIN_ROLE` should be revoked from the previous holder. - {pendingDefaultAdmin} should be reset to zero values. Requirements: - Only can be called by the {pendingDefaultAdmin}'s `newAdmin`. - The {pendingDefaultAdmin}'s `acceptSchedule` should've passed."
      },
      "beginDefaultAdminTransfer(address)": {
        "details": "Starts a {defaultAdmin} transfer by setting a {pendingDefaultAdmin} scheduled for acceptance after the current timestamp plus a {defaultAdminDelay}. Requirements: - Only can be called by the current {defaultAdmin}. Emits a DefaultAdminRoleChangeStarted event."
      },
      "cancelDefaultAdminTransfer()": {
        "details": "Cancels a {defaultAdmin} transfer previously started with {beginDefaultAdminTransfer}. A {pendingDefaultAdmin} not yet accepted can also be cancelled with this function. Requirements: - Only can be called by the current {defaultAdmin}. May emit a DefaultAdminTransferCanceled event."
      },
      "changeDefaultAdminDelay(uint48)": {
        "details": "Initiates a {defaultAdminDelay} update by setting a {pendingDefaultAdminDelay} scheduled for getting into effect after the current timestamp plus a {defaultAdminDelay}. This function guarantees that any call to {beginDefaultAdminTransfer} done between the timestamp this method is called and the {pendingDefaultAdminDelay} effect schedule will use the current {defaultAdminDelay} set before calling. The {pendingDefaultAdminDelay}'s effect schedule is defined in a way that waiting until the schedule and then calling {beginDefaultAdminTransfer} with the new delay will take at least the same as another {defaultAdmin} complete transfer (including acceptance). The schedule is designed for two scenarios: - When the delay is changed for a larger one the schedule is `block.timestamp + newDelay` capped by {defaultAdminDelayIncreaseWait}. - When the delay is changed for a shorter one, the schedule is `block.timestamp + (current delay - new delay)`. A {pendingDefaultAdminDelay} that never got into effect will be canceled in favor of a new scheduled change. Requirements: - Only can be called by the current {defaultAdmin}. Emits a DefaultAdminDelayChangeScheduled event and may emit a DefaultAdminDelayChangeCanceled event."
      },
      "constructor": {
        "details": "Constructor for the GhoSafeAccessManagerSepolia contract. Here the `DEFAULT_ADMIN_ROLE` is granted to the contract deployer. The security delay for the change of admin role is set to 3 days."
      },
      "defaultAdmin()": {
        "details": "Returns the address of the current `DEFAULT_ADMIN_ROLE` holder."
      },
      "defaultAdminDelay()": {
        "details": "Returns the delay required to schedule the acceptance of a {defaultAdmin} transfer started. This delay will be added to the current timestamp when calling {beginDefaultAdminTransfer} to set the acceptance schedule. NOTE: If a delay change has been scheduled, it will take effect as soon as the schedule passes, making this function returns the new delay. See {changeDefaultAdminDelay}."
      },
      "defaultAdminDelayIncreaseWait()": {
        "details": "Maximum time in seconds for an increase to {defaultAdminDelay} (that is scheduled using {changeDefaultAdminDelay}) to take effect. Default to 5 days. When the {defaultAdminDelay} is scheduled to be increased, it goes into effect after the new delay has passed with the purpose of giving enough time for reverting any accidental change (i.e. using milliseconds instead of seconds) that may lock the contract. However, to avoid excessive schedules, the wait is capped by this function and it can be overrode for a custom {defaultAdminDelay} increase scheduling. IMPORTANT: Make sure to add a reasonable amount of time while overriding this value, otherwise, there's a risk of setting a high new delay that goes into effect almost immediately without the possibility of human intervention in the case of an input error (eg. set milliseconds instead of seconds)."
      },
      "getRoleAdmin(bytes32)": {
        "details": "Returns the admin role that controls `role`. See {grantRole} and {revokeRole}. To change a role's admin, use {_setRoleAdmin}."
      },
      "grantRole(bytes32,address)": {
        "details": "See {AccessControl-grantRole}. Reverts for `DEFAULT_ADMIN_ROLE`."
      },
      "hasRole(bytes32,address)": {
        "details": "Returns `true` if `account` has been granted `role`."
      },
      "owner()": {
        "details": "See {IERC5313-owner}."
      },
      "pendingDefaultAdmin()": {
        "details": "Returns a tuple of a `newAdmin` and an accept schedule. After the `schedule` passes, the `newAdmin` will be able to accept the {defaultAdmin} role by calling {acceptDefaultAdminTransfer}, completing the role transfer. A zero value only in `acceptSchedule` indicates no pending admin transfer. NOTE: A zero address `newAdmin` means that {defaultAdmin} is being renounced."
      },
      "pendingDefaultAdminDelay()": {
        "details": "Returns a tuple of `newDelay` and an effect schedule. After the `schedule` passes, the `newDelay` will get into effect immediately for every new {defaultAdmin} transfer started with {beginDefaultAdminTransfer}. A zero value only in `effectSchedule` indicates no pending delay change. NOTE: A zero value only for `newDelay` means that the next {defaultAdminDelay} will be zero after the effect schedule."
      },
      "renounceRole(bytes32,address)": {
        "details": "See {AccessControl-renounceRole}. For the `DEFAULT_ADMIN_ROLE`, it only allows renouncing in two steps by first calling {beginDefaultAdminTransfer} to the `address(0)`, so it's required that the {pendingDefaultAdmin} schedule has also passed when calling this function. After its execution, it will not be possible to call `onlyRole(DEFAULT_ADMIN_ROLE)` functions. NOTE: Renouncing `DEFAULT_ADMIN_ROLE` will leave the contract without a {defaultAdmin}, thereby disabling any functionality that is only available for it, and the possibility of reassigning a non-administrated role."
      },
      "revokeRole(bytes32,address)": {
        "details": "See {AccessControl-revokeRole}. Reverts for `DEFAULT_ADMIN_ROLE`."
      },
      "rollbackDefaultAdminDelay()": {
        "details": "Cancels a scheduled {defaultAdminDelay} change. Requirements: - Only can be called by the current {defaultAdmin}. May emit a DefaultAdminDelayChangeCanceled event."
      },
      "supportsInterface(bytes4)": {
        "details": "See {IERC165-supportsInterface}."
      }
    },
    "title": "GhoSafeAccessManagerSepolia Contract",
    "version": 1
  },
  "userdoc": {
    "kind": "user",
    "methods": {
      "ADMIN_ROLE()": {
        "notice": "Role identifiers for GhoSafe Protocol."
      }
    },
    "notice": "Contract for managing access control to GhoSafe Protocol.",
    "version": 1
  },
  "storageLayout": {
    "storage": [
      {
        "astId": 1822,
        "contract": "contracts/Sepolia/protocol/GhoSafeAccessManagerSepolia.sol:GhoSafeAccessManagerSepolia",
        "label": "_roles",
        "offset": 0,
        "slot": "0",
        "type": "t_mapping(t_bytes32,t_struct(RoleData)1817_storage)"
      },
      {
        "astId": 2196,
        "contract": "contracts/Sepolia/protocol/GhoSafeAccessManagerSepolia.sol:GhoSafeAccessManagerSepolia",
        "label": "_pendingDefaultAdmin",
        "offset": 0,
        "slot": "1",
        "type": "t_address"
      },
      {
        "astId": 2198,
        "contract": "contracts/Sepolia/protocol/GhoSafeAccessManagerSepolia.sol:GhoSafeAccessManagerSepolia",
        "label": "_pendingDefaultAdminSchedule",
        "offset": 20,
        "slot": "1",
        "type": "t_uint48"
      },
      {
        "astId": 2200,
        "contract": "contracts/Sepolia/protocol/GhoSafeAccessManagerSepolia.sol:GhoSafeAccessManagerSepolia",
        "label": "_currentDelay",
        "offset": 26,
        "slot": "1",
        "type": "t_uint48"
      },
      {
        "astId": 2202,
        "contract": "contracts/Sepolia/protocol/GhoSafeAccessManagerSepolia.sol:GhoSafeAccessManagerSepolia",
        "label": "_currentDefaultAdmin",
        "offset": 0,
        "slot": "2",
        "type": "t_address"
      },
      {
        "astId": 2204,
        "contract": "contracts/Sepolia/protocol/GhoSafeAccessManagerSepolia.sol:GhoSafeAccessManagerSepolia",
        "label": "_pendingDelay",
        "offset": 20,
        "slot": "2",
        "type": "t_uint48"
      },
      {
        "astId": 2206,
        "contract": "contracts/Sepolia/protocol/GhoSafeAccessManagerSepolia.sol:GhoSafeAccessManagerSepolia",
        "label": "_pendingDelaySchedule",
        "offset": 26,
        "slot": "2",
        "type": "t_uint48"
      }
    ],
    "types": {
      "t_address": {
        "encoding": "inplace",
        "label": "address",
        "numberOfBytes": "20"
      },
      "t_bool": {
        "encoding": "inplace",
        "label": "bool",
        "numberOfBytes": "1"
      },
      "t_bytes32": {
        "encoding": "inplace",
        "label": "bytes32",
        "numberOfBytes": "32"
      },
      "t_mapping(t_address,t_bool)": {
        "encoding": "mapping",
        "key": "t_address",
        "label": "mapping(address => bool)",
        "numberOfBytes": "32",
        "value": "t_bool"
      },
      "t_mapping(t_bytes32,t_struct(RoleData)1817_storage)": {
        "encoding": "mapping",
        "key": "t_bytes32",
        "label": "mapping(bytes32 => struct AccessControl.RoleData)",
        "numberOfBytes": "32",
        "value": "t_struct(RoleData)1817_storage"
      },
      "t_struct(RoleData)1817_storage": {
        "encoding": "inplace",
        "label": "struct AccessControl.RoleData",
        "members": [
          {
            "astId": 1814,
            "contract": "contracts/Sepolia/protocol/GhoSafeAccessManagerSepolia.sol:GhoSafeAccessManagerSepolia",
            "label": "hasRole",
            "offset": 0,
            "slot": "0",
            "type": "t_mapping(t_address,t_bool)"
          },
          {
            "astId": 1816,
            "contract": "contracts/Sepolia/protocol/GhoSafeAccessManagerSepolia.sol:GhoSafeAccessManagerSepolia",
            "label": "adminRole",
            "offset": 0,
            "slot": "1",
            "type": "t_bytes32"
          }
        ],
        "numberOfBytes": "64"
      },
      "t_uint48": {
        "encoding": "inplace",
        "label": "uint48",
        "numberOfBytes": "6"
      }
    }
  }
}