{
  "address": "0x8E3cDEA3e6e439a49c7958d0bB76254E786b5266",
  "abi": [
    {
      "inputs": [
        {
          "internalType": "contract IGhoSafeAccessManagerSepolia",
          "name": "_accessManager",
          "type": "address"
        }
      ],
      "stateMutability": "nonpayable",
      "type": "constructor"
    },
    {
      "inputs": [
        {
          "internalType": "address",
          "name": "caller",
          "type": "address"
        }
      ],
      "name": "UnauthorizedAccess",
      "type": "error"
    },
    {
      "anonymous": false,
      "inputs": [
        {
          "indexed": true,
          "internalType": "uint256",
          "name": "loanId",
          "type": "uint256"
        },
        {
          "indexed": false,
          "internalType": "uint256",
          "name": "maxLoanAmount",
          "type": "uint256"
        },
        {
          "indexed": false,
          "internalType": "uint256",
          "name": "maxDuration",
          "type": "uint256"
        },
        {
          "indexed": false,
          "internalType": "uint256",
          "name": "interestRate",
          "type": "uint256"
        },
        {
          "indexed": false,
          "internalType": "address",
          "name": "safeAddress",
          "type": "address"
        },
        {
          "indexed": false,
          "internalType": "address",
          "name": "loanManagerAddress",
          "type": "address"
        }
      ],
      "name": "LoanAdvertisementPublished",
      "type": "event"
    },
    {
      "anonymous": false,
      "inputs": [
        {
          "indexed": true,
          "internalType": "uint256",
          "name": "loanId",
          "type": "uint256"
        },
        {
          "indexed": false,
          "internalType": "uint256",
          "name": "maxLoanAmount",
          "type": "uint256"
        },
        {
          "indexed": false,
          "internalType": "uint256",
          "name": "maxDuration",
          "type": "uint256"
        },
        {
          "indexed": false,
          "internalType": "uint256",
          "name": "interestRate",
          "type": "uint256"
        },
        {
          "indexed": false,
          "internalType": "bool",
          "name": "isAvailable",
          "type": "bool"
        }
      ],
      "name": "LoanAdvertisementUpdated",
      "type": "event"
    },
    {
      "inputs": [
        {
          "internalType": "uint256",
          "name": "_loanId",
          "type": "uint256"
        }
      ],
      "name": "getLoanAdvertisementData",
      "outputs": [
        {
          "components": [
            {
              "internalType": "uint256",
              "name": "timestampLastUpdate",
              "type": "uint256"
            },
            {
              "internalType": "uint256",
              "name": "maxLoanAmount",
              "type": "uint256"
            },
            {
              "internalType": "uint256",
              "name": "maxDuration",
              "type": "uint256"
            },
            {
              "internalType": "uint256",
              "name": "interestRate",
              "type": "uint256"
            },
            {
              "internalType": "address",
              "name": "safeAddress",
              "type": "address"
            },
            {
              "internalType": "address",
              "name": "loanManagerAddress",
              "type": "address"
            },
            {
              "internalType": "bool",
              "name": "isAvailable",
              "type": "bool"
            }
          ],
          "internalType": "struct IGhoSafeLoanAdvertisementBookSepolia.LoanAdvertisement",
          "name": "loanAdvertisementData",
          "type": "tuple"
        }
      ],
      "stateMutability": "view",
      "type": "function"
    },
    {
      "inputs": [
        {
          "internalType": "uint256",
          "name": "_maxLoanAmount",
          "type": "uint256"
        },
        {
          "internalType": "uint256",
          "name": "_maxDuration",
          "type": "uint256"
        },
        {
          "internalType": "uint256",
          "name": "_interestRate",
          "type": "uint256"
        },
        {
          "internalType": "address",
          "name": "_safeAddress",
          "type": "address"
        },
        {
          "internalType": "address",
          "name": "_loanManagerAddress",
          "type": "address"
        }
      ],
      "name": "publishLoanAdvertisement",
      "outputs": [
        {
          "internalType": "uint256",
          "name": "loanId",
          "type": "uint256"
        }
      ],
      "stateMutability": "nonpayable",
      "type": "function"
    },
    {
      "inputs": [
        {
          "internalType": "uint256",
          "name": "_loanId",
          "type": "uint256"
        },
        {
          "internalType": "uint256",
          "name": "_maxLoanAmount",
          "type": "uint256"
        },
        {
          "internalType": "uint256",
          "name": "_maxDuration",
          "type": "uint256"
        },
        {
          "internalType": "uint256",
          "name": "_interestRate",
          "type": "uint256"
        },
        {
          "internalType": "bool",
          "name": "_isAvailable",
          "type": "bool"
        }
      ],
      "name": "updateLoanAdvertisementData",
      "outputs": [],
      "stateMutability": "nonpayable",
      "type": "function"
    }
  ],
  "transactionHash": "0x947b3906823cebfc78d58c839251b9b1c7116071ca49ec5c4dc55c7f5cfa00f3",
  "args": [
    "0x124AE849075ff729Ffdf49a49519777206F6fF64"
  ],
  "numDeployments": 1,
  "solcInputHash": "864a5f5c932fc35835f8dc35b7bce186",
  "bytecode": "0x60a060405234801561001057600080fd5b5060405161069838038061069883398101604081905261002f91610040565b6001600160a01b0316608052610070565b60006020828403121561005257600080fd5b81516001600160a01b038116811461006957600080fd5b9392505050565b60805161060d61008b6000396000610138015261060d6000f3fe608060405234801561001057600080fd5b50600436106100415760003560e01c80635df0d03b146100465780637f6634a71461006c578063a409dc3a146100e5575b600080fd5b6100596100543660046104c5565b6100fa565b6040519081526020015b60405180910390f35b61007f61007a366004610515565b61030f565b6040516100639190600060e08201905082518252602083015160208301526040830151604083015260608301516060830152608083015160018060a01b0380821660808501528060a08601511660a0850152505060c0830151151560c083015292915050565b6100f86100f336600461053f565b6103da565b005b604051632474521560e21b81527f39c77d9939c25ecc449153d5a0f9430fc2a42f6c32ef28b87fb6b1118277197360048201523360248201526000907f00000000000000000000000000000000000000000000000000000000000000006001600160a01b0316906391d1485490604401602060405180830381865afa158015610187573d6000803e3d6000fd5b505050506040513d601f19601f820116820180604052508101906101ab919061058c565b6101cf57604051633733be5960e21b81523360048201526024015b60405180910390fd5b6001600081546101de906105b0565b91829055506040805160e08101825242815260208082018a81528284018a8152606084018a81526001600160a01b03808b16608087019081528a821660a08801908152600160c0890181815260008c815298899052978a902098518955955195880195909555925160028701559051600386015590516004850180549183166001600160a01b031990921691909117905590516005909301805492511515600160a01b026001600160a81b031990931693909116929092171790555190915081907f2017fd1968096426872a530204d1f89f7297d29cb4cabe7a7569245f3ab61729906102fe9089908990899089908990948552602085019390935260408401919091526001600160a01b03908116606084015216608082015260a00190565b60405180910390a295945050505050565b6103636040518060e001604052806000815260200160008152602001600081526020016000815260200160006001600160a01b0316815260200160006001600160a01b031681526020016000151581525090565b5060009081526020818152604091829020825160e081018452815481526001820154928101929092526002810154928201929092526003820154606082015260048201546001600160a01b03908116608083015260059092015491821660a0820152600160a01b90910460ff16151560c082015290565b6000858152602081905260409020600501546001600160a01b0316331461041657604051633733be5960e21b81523360048201526024016101c6565b600085815260208181526040918290204281556001810187905560028101869055600381018590556005018054841515600160a01b810260ff60a01b199092169190911790915582518781529182018690528183018590526060820152905186917fdf23ce90070cd1e1c6efcbc6c6c1e7df02e687b2cc7609ab45b3c6412a527ebb919081900360800190a25050505050565b80356001600160a01b03811681146104c057600080fd5b919050565b600080600080600060a086880312156104dd57600080fd5b8535945060208601359350604086013592506104fb606087016104a9565b9150610509608087016104a9565b90509295509295909350565b60006020828403121561052757600080fd5b5035919050565b801515811461053c57600080fd5b50565b600080600080600060a0868803121561055757600080fd5b85359450602086013593506040860135925060608601359150608086013561057e8161052e565b809150509295509295909350565b60006020828403121561059e57600080fd5b81516105a98161052e565b9392505050565b6000600182016105d057634e487b7160e01b600052601160045260246000fd5b506001019056fea26469706673582212205594eda234a875f648fd9ef1fe5386132941f0ac0cfb59cf1f863527d2406e1864736f6c63430008170033",
  "devdoc": {
    "author": "GhoSafe Protocol",
    "events": {
      "LoanAdvertisementPublished(uint256,uint256,uint256,uint256,address,address)": {
        "params": {
          "interestRate": "The interest rate (in basis points)",
          "loanId": "The ID of the loan advertisement.",
          "loanManagerAddress": "The address of the loan manager contract.*",
          "maxDuration": "The maximum loan duration (in seconds)",
          "maxLoanAmount": "The maximum loan amount (in Gho tokens)",
          "safeAddress": "The address of the GhoSafe contract."
        }
      },
      "LoanAdvertisementUpdated(uint256,uint256,uint256,uint256,bool)": {
        "params": {
          "interestRate": "The interest rate (in basis points)",
          "isAvailable": "The availability of the loan advertisement.*",
          "loanId": "The ID of the loan advertisement.",
          "maxDuration": "The maximum loan duration (in seconds)",
          "maxLoanAmount": "The maximum loan amount (in Gho tokens)"
        }
      }
    },
    "kind": "dev",
    "methods": {
      "constructor": {
        "params": {
          "_accessManager": "The address of the access manager contract."
        }
      },
      "getLoanAdvertisementData(uint256)": {
        "params": {
          "_loanId": "The ID of the loan advertisement."
        },
        "returns": {
          "loanAdvertisementData": "The loan advertisement data.*"
        }
      },
      "publishLoanAdvertisement(uint256,uint256,uint256,address,address)": {
        "params": {
          "_interestRate": "The interest rate (in basis points)",
          "_loanManagerAddress": "The address of the loan manager contract.",
          "_maxDuration": "The maximum loan duration (in seconds)",
          "_maxLoanAmount": "The maximum loan amount (in Gho tokens)",
          "_safeAddress": "The address of the GhoSafe contract."
        },
        "returns": {
          "loanId": "The ID of the loan advertisement.*"
        }
      },
      "updateLoanAdvertisementData(uint256,uint256,uint256,uint256,bool)": {
        "params": {
          "_interestRate": "The interest rate (in basis points)",
          "_isAvailable": "The availability of the loan advertisement.*",
          "_loanId": "The ID of the loan advertisement.",
          "_maxDuration": "The maximum loan duration (in seconds)",
          "_maxLoanAmount": "The maximum loan amount (in Gho tokens)"
        }
      }
    },
    "stateVariables": {
      "ACCESS_MANAGER": {
        "details": "Access manager contract."
      },
      "loanAdvertisements": {
        "details": "Mapping from loanId to loan advertisement data."
      },
      "loanAdvertisementsCount": {
        "details": "Counter for loan advertisements."
      }
    },
    "title": "GhoSafeLoanAdvertisementBookSepolia Contract",
    "version": 1
  },
  "userdoc": {
    "errors": {
      "UnauthorizedAccess(address)": [
        {
          "notice": "Not authorized Caller error"
        }
      ]
    },
    "events": {
      "LoanAdvertisementPublished(uint256,uint256,uint256,uint256,address,address)": {
        "notice": "Event emitted when a new loan advertisement is published."
      },
      "LoanAdvertisementUpdated(uint256,uint256,uint256,uint256,bool)": {
        "notice": "Event emitted when a loan advertisement is updated."
      }
    },
    "kind": "user",
    "methods": {
      "constructor": {
        "notice": "Initializes the contract."
      },
      "getLoanAdvertisementData(uint256)": {
        "notice": "Retrieves the loan advertisement data of a specific loan advertisement."
      },
      "publishLoanAdvertisement(uint256,uint256,uint256,address,address)": {
        "notice": "Function to publish a new loan advertisement"
      },
      "updateLoanAdvertisementData(uint256,uint256,uint256,uint256,bool)": {
        "notice": "Function to update the availability of a loan advertisement"
      }
    },
    "notice": "Contract for publishing loan advertisements.",
    "version": 1
  },
  "storageLayout": {
    "storage": [
      {
        "astId": 8929,
        "contract": "contracts/Sepolia/protocol/GhoSafeLoanAdvertisementBookSepolia.sol:GhoSafeLoanAdvertisementBookSepolia",
        "label": "loanAdvertisements",
        "offset": 0,
        "slot": "0",
        "type": "t_mapping(t_uint256,t_struct(LoanAdvertisement)7642_storage)"
      },
      {
        "astId": 8932,
        "contract": "contracts/Sepolia/protocol/GhoSafeLoanAdvertisementBookSepolia.sol:GhoSafeLoanAdvertisementBookSepolia",
        "label": "loanAdvertisementsCount",
        "offset": 0,
        "slot": "1",
        "type": "t_uint256"
      }
    ],
    "types": {
      "t_address": {
        "encoding": "inplace",
        "label": "address",
        "numberOfBytes": "20"
      },
      "t_bool": {
        "encoding": "inplace",
        "label": "bool",
        "numberOfBytes": "1"
      },
      "t_mapping(t_uint256,t_struct(LoanAdvertisement)7642_storage)": {
        "encoding": "mapping",
        "key": "t_uint256",
        "label": "mapping(uint256 => struct IGhoSafeLoanAdvertisementBookSepolia.LoanAdvertisement)",
        "numberOfBytes": "32",
        "value": "t_struct(LoanAdvertisement)7642_storage"
      },
      "t_struct(LoanAdvertisement)7642_storage": {
        "encoding": "inplace",
        "label": "struct IGhoSafeLoanAdvertisementBookSepolia.LoanAdvertisement",
        "members": [
          {
            "astId": 7629,
            "contract": "contracts/Sepolia/protocol/GhoSafeLoanAdvertisementBookSepolia.sol:GhoSafeLoanAdvertisementBookSepolia",
            "label": "timestampLastUpdate",
            "offset": 0,
            "slot": "0",
            "type": "t_uint256"
          },
          {
            "astId": 7631,
            "contract": "contracts/Sepolia/protocol/GhoSafeLoanAdvertisementBookSepolia.sol:GhoSafeLoanAdvertisementBookSepolia",
            "label": "maxLoanAmount",
            "offset": 0,
            "slot": "1",
            "type": "t_uint256"
          },
          {
            "astId": 7633,
            "contract": "contracts/Sepolia/protocol/GhoSafeLoanAdvertisementBookSepolia.sol:GhoSafeLoanAdvertisementBookSepolia",
            "label": "maxDuration",
            "offset": 0,
            "slot": "2",
            "type": "t_uint256"
          },
          {
            "astId": 7635,
            "contract": "contracts/Sepolia/protocol/GhoSafeLoanAdvertisementBookSepolia.sol:GhoSafeLoanAdvertisementBookSepolia",
            "label": "interestRate",
            "offset": 0,
            "slot": "3",
            "type": "t_uint256"
          },
          {
            "astId": 7637,
            "contract": "contracts/Sepolia/protocol/GhoSafeLoanAdvertisementBookSepolia.sol:GhoSafeLoanAdvertisementBookSepolia",
            "label": "safeAddress",
            "offset": 0,
            "slot": "4",
            "type": "t_address"
          },
          {
            "astId": 7639,
            "contract": "contracts/Sepolia/protocol/GhoSafeLoanAdvertisementBookSepolia.sol:GhoSafeLoanAdvertisementBookSepolia",
            "label": "loanManagerAddress",
            "offset": 0,
            "slot": "5",
            "type": "t_address"
          },
          {
            "astId": 7641,
            "contract": "contracts/Sepolia/protocol/GhoSafeLoanAdvertisementBookSepolia.sol:GhoSafeLoanAdvertisementBookSepolia",
            "label": "isAvailable",
            "offset": 20,
            "slot": "5",
            "type": "t_bool"
          }
        ],
        "numberOfBytes": "192"
      },
      "t_uint256": {
        "encoding": "inplace",
        "label": "uint256",
        "numberOfBytes": "32"
      }
    }
  }
}