{
  "_format": "hh-sol-artifact-1",
  "contractName": "LoanSafeSepolia",
  "sourceName": "contracts/Sepolia/users/LoanSafeSepolia.sol",
  "abi": [
    {
      "inputs": [
        {
          "internalType": "contract IAccessManagerSepolia",
          "name": "_accessManager",
          "type": "address"
        }
      ],
      "stateMutability": "nonpayable",
      "type": "constructor"
    },
    {
      "inputs": [
        {
          "internalType": "address",
          "name": "target",
          "type": "address"
        }
      ],
      "name": "AddressEmptyCode",
      "type": "error"
    },
    {
      "inputs": [
        {
          "internalType": "address",
          "name": "account",
          "type": "address"
        }
      ],
      "name": "AddressInsufficientBalance",
      "type": "error"
    },
    {
      "inputs": [],
      "name": "FailedInnerCall",
      "type": "error"
    },
    {
      "inputs": [
        {
          "internalType": "address",
          "name": "token",
          "type": "address"
        }
      ],
      "name": "SafeERC20FailedOperation",
      "type": "error"
    },
    {
      "inputs": [
        {
          "internalType": "address",
          "name": "caller",
          "type": "address"
        }
      ],
      "name": "UnauthorizedAccess",
      "type": "error"
    },
    {
      "anonymous": false,
      "inputs": [
        {
          "indexed": true,
          "internalType": "uint256",
          "name": "loanId",
          "type": "uint256"
        },
        {
          "indexed": false,
          "internalType": "uint256",
          "name": "startTimestamp",
          "type": "uint256"
        }
      ],
      "name": "LoanStarted",
      "type": "event"
    },
    {
      "inputs": [],
      "name": "USER_ACCESS_MANAGER",
      "outputs": [
        {
          "internalType": "contract IAccessManagerSepolia",
          "name": "",
          "type": "address"
        }
      ],
      "stateMutability": "view",
      "type": "function"
    },
    {
      "inputs": [],
      "name": "USER_LOAN_MANAGER",
      "outputs": [
        {
          "internalType": "contract ILoanManagerSepolia",
          "name": "",
          "type": "address"
        }
      ],
      "stateMutability": "view",
      "type": "function"
    },
    {
      "inputs": [
        {
          "internalType": "uint256",
          "name": "_loanId",
          "type": "uint256"
        }
      ],
      "name": "checkLoanCollateral",
      "outputs": [
        {
          "internalType": "bool",
          "name": "isValid",
          "type": "bool"
        }
      ],
      "stateMutability": "view",
      "type": "function"
    },
    {
      "inputs": [
        {
          "internalType": "address",
          "name": "",
          "type": "address"
        },
        {
          "internalType": "address",
          "name": "",
          "type": "address"
        },
        {
          "internalType": "uint256",
          "name": "",
          "type": "uint256"
        },
        {
          "internalType": "bytes",
          "name": "",
          "type": "bytes"
        }
      ],
      "name": "onERC721Received",
      "outputs": [
        {
          "internalType": "bytes4",
          "name": "",
          "type": "bytes4"
        }
      ],
      "stateMutability": "pure",
      "type": "function"
    },
    {
      "inputs": [
        {
          "internalType": "uint256",
          "name": "_loanId",
          "type": "uint256"
        },
        {
          "internalType": "address",
          "name": "_receiver",
          "type": "address"
        }
      ],
      "name": "seizeCollateral",
      "outputs": [],
      "stateMutability": "nonpayable",
      "type": "function"
    },
    {
      "inputs": [
        {
          "internalType": "uint256",
          "name": "_loanId",
          "type": "uint256"
        }
      ],
      "name": "sendBackCollateral",
      "outputs": [],
      "stateMutability": "nonpayable",
      "type": "function"
    }
  ],
  "bytecode": "0x60c060405234801561001057600080fd5b50604051610bd0380380610bd083398101604081905261002f91610044565b6001600160a01b03166080523360a052610074565b60006020828403121561005657600080fd5b81516001600160a01b038116811461006d57600080fd5b9392505050565b60805160a051610b156100bb6000396000818160e1015281816101780152818161031d0152818161037b015281816104c4015261051d015260006101330152610b156000f3fe608060405234801561001057600080fd5b50600436106100625760003560e01c806301b7053b14610067578063150b7a021461008f5780631e7046db146100c75780637a091063146100dc578063ac9cf4db1461011b578063e2fff8291461012e575b600080fd5b61007a610075366004610837565b610155565b60405190151581526020015b60405180910390f35b6100ae61009d366004610865565b630a85bd0160e11b95945050505050565b6040516001600160e01b03199091168152602001610086565b6100da6100d5366004610837565b610312565b005b6101037f000000000000000000000000000000000000000000000000000000000000000081565b6040516001600160a01b039091168152602001610086565b6100da610129366004610904565b6104b9565b6101037f000000000000000000000000000000000000000000000000000000000000000081565b60405163622fe39f60e01b81526004810182905260009081906001600160a01b037f0000000000000000000000000000000000000000000000000000000000000000169063622fe39f9060240161018060405180830381865afa1580156101c0573d6000803e3d6000fd5b505050506040513d601f19601f820116820180604052508101906101e491906109a4565b90508061016001511561030c57610120810151151560000361028e5761010081015160c08201516040516331a9108f60e11b8152600481019190915230916001600160a01b031690636352211e90602401602060405180830381865afa158015610252573d6000803e3d6000fd5b505050506040513d601f19601f820116820180604052508101906102769190610a5f565b6001600160a01b03160361028957600191505b61030c565b60c08101516101008201516040516370a0823160e01b81523060048201526001600160a01b03909116906370a0823190602401602060405180830381865afa1580156102de573d6000803e3d6000fd5b505050506040513d601f19601f820116820180604052508101906103029190610a7c565b1061030c57600191505b50919050565b336001600160a01b037f0000000000000000000000000000000000000000000000000000000000000000161461036257604051633733be5960e21b81523360048201526024015b60405180910390fd5b60405163622fe39f60e01b8152600481018290526000907f00000000000000000000000000000000000000000000000000000000000000006001600160a01b03169063622fe39f9060240161018060405180830381865afa1580156103cb573d6000803e3d6000fd5b505050506040513d601f19601f820116820180604052508101906103ef91906109a4565b9050806101600151156104b55761012081015115156000036104895761010081015161014082015160c0830151604051632142170760e11b81523060048201526001600160a01b03928316602482015260448101919091529116906342842e0e90606401600060405180830381600087803b15801561046d57600080fd5b505af1158015610481573d6000803e3d6000fd5b505050505050565b6104b58161014001518260c001518361010001516001600160a01b03166106519092919063ffffffff16565b5050565b336001600160a01b037f0000000000000000000000000000000000000000000000000000000000000000161461050457604051633733be5960e21b8152336004820152602401610359565b60405163622fe39f60e01b8152600481018390526000907f00000000000000000000000000000000000000000000000000000000000000006001600160a01b03169063622fe39f9060240161018060405180830381865afa15801561056d573d6000803e3d6000fd5b505050506040513d601f19601f8201168201806040525081019061059191906109a4565b905080610160015161064c5761012081015115156000036106255761010081015160c0820151604051632142170760e11b81523060048201526001600160a01b03858116602483015260448201929092529116906342842e0e90606401600060405180830381600087803b15801561060857600080fd5b505af115801561061c573d6000803e3d6000fd5b50505050505050565b61064c828260c001518361010001516001600160a01b03166106519092919063ffffffff16565b505050565b604080516001600160a01b03848116602483015260448083018590528351808403909101815260649092019092526020810180516001600160e01b031663a9059cbb60e01b17905261064c918591906000906106af908416836106fd565b905080516000141580156106d45750808060200190518101906106d29190610a95565b155b1561064c57604051635274afe760e01b81526001600160a01b0384166004820152602401610359565b606061070b83836000610712565b9392505050565b6060814710156107375760405163cd78605960e01b8152306004820152602401610359565b600080856001600160a01b031684866040516107539190610ab0565b60006040518083038185875af1925050503d8060008114610790576040519150601f19603f3d011682016040523d82523d6000602084013e610795565b606091505b50915091506107a58683836107af565b9695505050505050565b6060826107c4576107bf8261080b565b61070b565b81511580156107db57506001600160a01b0384163b155b1561080457604051639996b31560e01b81526001600160a01b0385166004820152602401610359565b508061070b565b80511561081b5780518082602001fd5b604051630a12f52160e11b815260040160405180910390fd5b50565b60006020828403121561084957600080fd5b5035919050565b6001600160a01b038116811461083457600080fd5b60008060008060006080868803121561087d57600080fd5b853561088881610850565b9450602086013561089881610850565b935060408601359250606086013567ffffffffffffffff808211156108bc57600080fd5b818801915088601f8301126108d057600080fd5b8135818111156108df57600080fd5b8960208285010111156108f157600080fd5b9699959850939650602001949392505050565b6000806040838503121561091757600080fd5b82359150602083013561092981610850565b809150509250929050565b604051610180810167ffffffffffffffff8111828210171561096657634e487b7160e01b600052604160045260246000fd5b60405290565b805167ffffffffffffffff8116811461098457600080fd5b919050565b805161098481610850565b8051801515811461098457600080fd5b600061018082840312156109b757600080fd5b6109bf610934565b825181526020830151602082015260408301516040820152606083015160608201526080830151608082015260a083015160a082015260c083015160c0820152610a0b60e0840161096c565b60e0820152610100610a1e818501610989565b90820152610120610a30848201610994565b90820152610140610a42848201610989565b90820152610160610a54848201610994565b908201529392505050565b600060208284031215610a7157600080fd5b815161070b81610850565b600060208284031215610a8e57600080fd5b5051919050565b600060208284031215610aa757600080fd5b61070b82610994565b6000825160005b81811015610ad15760208186018101518583015201610ab7565b50600092019182525091905056fea2646970667358221220aa70664b8ab5ca180e0fb9ea927e1933a53b36014fd486230e61c5924fe7adb064736f6c63430008170033",
  "linkReferences": {},
  "deployedLinkReferences": {}
}