{
  "_format": "hh-sol-artifact-1",
  "contractName": "LoanManagerSepolia",
  "sourceName": "contracts/Sepolia/users/LoanManagerSepolia.sol",
  "abi": [
    {
      "inputs": [
        {
          "internalType": "contract IAccessManagerSepolia",
          "name": "_accessManager",
          "type": "address"
        },
        {
          "internalType": "address",
          "name": "_mailbox",
          "type": "address"
        },
        {
          "internalType": "address",
          "name": "_loanAdvertisementBook",
          "type": "address"
        },
        {
          "internalType": "address",
          "name": "_router",
          "type": "address"
        },
        {
          "internalType": "address",
          "name": "_link",
          "type": "address"
        }
      ],
      "stateMutability": "nonpayable",
      "type": "constructor"
    },
    {
      "inputs": [
        {
          "internalType": "address",
          "name": "target",
          "type": "address"
        }
      ],
      "name": "AddressEmptyCode",
      "type": "error"
    },
    {
      "inputs": [
        {
          "internalType": "address",
          "name": "account",
          "type": "address"
        }
      ],
      "name": "AddressInsufficientBalance",
      "type": "error"
    },
    {
      "inputs": [
        {
          "internalType": "uint256",
          "name": "loanId",
          "type": "uint256"
        }
      ],
      "name": "CollateralNotDeposited",
      "type": "error"
    },
    {
      "inputs": [],
      "name": "FailedInnerCall",
      "type": "error"
    },
    {
      "inputs": [
        {
          "internalType": "uint256",
          "name": "loanId",
          "type": "uint256"
        }
      ],
      "name": "LoanAlreadyBorrowed",
      "type": "error"
    },
    {
      "inputs": [
        {
          "internalType": "uint256",
          "name": "loanId",
          "type": "uint256"
        }
      ],
      "name": "LoanNotActive",
      "type": "error"
    },
    {
      "inputs": [
        {
          "internalType": "uint256",
          "name": "loanId",
          "type": "uint256"
        }
      ],
      "name": "LoanStillActive",
      "type": "error"
    },
    {
      "inputs": [
        {
          "internalType": "address",
          "name": "sender",
          "type": "address"
        }
      ],
      "name": "OnlyOwnerCanCall",
      "type": "error"
    },
    {
      "inputs": [
        {
          "internalType": "address",
          "name": "token",
          "type": "address"
        }
      ],
      "name": "SafeERC20FailedOperation",
      "type": "error"
    },
    {
      "inputs": [
        {
          "internalType": "address",
          "name": "caller",
          "type": "address"
        }
      ],
      "name": "UnauthorizedAccess",
      "type": "error"
    },
    {
      "inputs": [
        {
          "internalType": "address",
          "name": "caller",
          "type": "address"
        },
        {
          "internalType": "address",
          "name": "borrower",
          "type": "address"
        }
      ],
      "name": "WrongBorrower",
      "type": "error"
    },
    {
      "anonymous": false,
      "inputs": [
        {
          "indexed": true,
          "internalType": "uint256",
          "name": "loanId",
          "type": "uint256"
        },
        {
          "indexed": true,
          "internalType": "address",
          "name": "borrower",
          "type": "address"
        },
        {
          "indexed": false,
          "internalType": "uint256",
          "name": "duration",
          "type": "uint256"
        },
        {
          "indexed": false,
          "internalType": "uint256",
          "name": "interestRate",
          "type": "uint256"
        },
        {
          "indexed": false,
          "internalType": "uint256",
          "name": "loanAmount",
          "type": "uint256"
        },
        {
          "indexed": false,
          "internalType": "uint64",
          "name": "collateralChainId",
          "type": "uint64"
        },
        {
          "indexed": false,
          "internalType": "address",
          "name": "collateralAddress",
          "type": "address"
        },
        {
          "indexed": false,
          "internalType": "uint256",
          "name": "collateralAmountOrId",
          "type": "uint256"
        },
        {
          "indexed": false,
          "internalType": "bool",
          "name": "collateralType",
          "type": "bool"
        }
      ],
      "name": "CrosschainLoanBorrowedInit",
      "type": "event"
    },
    {
      "anonymous": false,
      "inputs": [
        {
          "indexed": false,
          "internalType": "uint256",
          "name": "loanAdvertisementId",
          "type": "uint256"
        },
        {
          "indexed": false,
          "internalType": "uint256",
          "name": "maxLoanDuration",
          "type": "uint256"
        },
        {
          "indexed": false,
          "internalType": "uint256",
          "name": "maxLoanAmount",
          "type": "uint256"
        },
        {
          "indexed": false,
          "internalType": "uint256",
          "name": "interestRate",
          "type": "uint256"
        }
      ],
      "name": "LoanAdvertisementPublished",
      "type": "event"
    },
    {
      "anonymous": false,
      "inputs": [
        {
          "indexed": false,
          "internalType": "uint256",
          "name": "loanAdvertisementId",
          "type": "uint256"
        },
        {
          "indexed": false,
          "internalType": "bool",
          "name": "isAvailable",
          "type": "bool"
        },
        {
          "indexed": false,
          "internalType": "uint256",
          "name": "maxLoanDuration",
          "type": "uint256"
        },
        {
          "indexed": false,
          "internalType": "uint256",
          "name": "maxLoanAmount",
          "type": "uint256"
        },
        {
          "indexed": false,
          "internalType": "uint256",
          "name": "interestRate",
          "type": "uint256"
        }
      ],
      "name": "LoanAdvertisementUpdated",
      "type": "event"
    },
    {
      "anonymous": false,
      "inputs": [
        {
          "indexed": true,
          "internalType": "uint256",
          "name": "loanId",
          "type": "uint256"
        },
        {
          "indexed": true,
          "internalType": "address",
          "name": "borrower",
          "type": "address"
        },
        {
          "indexed": false,
          "internalType": "uint256",
          "name": "duration",
          "type": "uint256"
        },
        {
          "indexed": false,
          "internalType": "uint256",
          "name": "interestRate",
          "type": "uint256"
        },
        {
          "indexed": false,
          "internalType": "uint256",
          "name": "loanAmount",
          "type": "uint256"
        },
        {
          "indexed": false,
          "internalType": "uint64",
          "name": "collateralChainId",
          "type": "uint64"
        },
        {
          "indexed": false,
          "internalType": "address",
          "name": "collateralAddress",
          "type": "address"
        },
        {
          "indexed": false,
          "internalType": "uint256",
          "name": "collateralAmountOrId",
          "type": "uint256"
        },
        {
          "indexed": false,
          "internalType": "bool",
          "name": "collateralType",
          "type": "bool"
        }
      ],
      "name": "LoanBorrowed",
      "type": "event"
    },
    {
      "anonymous": false,
      "inputs": [
        {
          "indexed": true,
          "internalType": "uint256",
          "name": "loanId",
          "type": "uint256"
        },
        {
          "indexed": true,
          "internalType": "address",
          "name": "borrower",
          "type": "address"
        },
        {
          "indexed": true,
          "internalType": "address",
          "name": "liquidator",
          "type": "address"
        },
        {
          "indexed": false,
          "internalType": "uint256",
          "name": "loanAmount",
          "type": "uint256"
        },
        {
          "indexed": false,
          "internalType": "uint256",
          "name": "interestAmount",
          "type": "uint256"
        }
      ],
      "name": "LoanLiquidated",
      "type": "event"
    },
    {
      "anonymous": false,
      "inputs": [
        {
          "indexed": false,
          "internalType": "uint256",
          "name": "maxLoanDuration",
          "type": "uint256"
        },
        {
          "indexed": false,
          "internalType": "uint256",
          "name": "availableBorrowPowerPercent",
          "type": "uint256"
        },
        {
          "indexed": false,
          "internalType": "uint256",
          "name": "maxLoanAmountPercentPerBorrower",
          "type": "uint256"
        }
      ],
      "name": "LoanParametersUpdated",
      "type": "event"
    },
    {
      "anonymous": false,
      "inputs": [
        {
          "indexed": true,
          "internalType": "uint256",
          "name": "loanId",
          "type": "uint256"
        },
        {
          "indexed": true,
          "internalType": "address",
          "name": "borrower",
          "type": "address"
        },
        {
          "indexed": false,
          "internalType": "uint256",
          "name": "loanAmount",
          "type": "uint256"
        },
        {
          "indexed": false,
          "internalType": "uint256",
          "name": "interestAmount",
          "type": "uint256"
        }
      ],
      "name": "LoanRepaid",
      "type": "event"
    },
    {
      "anonymous": false,
      "inputs": [
        {
          "indexed": true,
          "internalType": "uint256",
          "name": "loanRequestId",
          "type": "uint256"
        },
        {
          "indexed": true,
          "internalType": "uint256",
          "name": "loanId",
          "type": "uint256"
        },
        {
          "indexed": true,
          "internalType": "address",
          "name": "borrower",
          "type": "address"
        },
        {
          "indexed": false,
          "internalType": "uint256",
          "name": "duration",
          "type": "uint256"
        },
        {
          "indexed": false,
          "internalType": "uint256",
          "name": "interestRate",
          "type": "uint256"
        },
        {
          "indexed": false,
          "internalType": "uint256",
          "name": "loanAmount",
          "type": "uint256"
        },
        {
          "indexed": false,
          "internalType": "uint64",
          "name": "collateralChainId",
          "type": "uint64"
        },
        {
          "indexed": false,
          "internalType": "address",
          "name": "collateralAddress",
          "type": "address"
        },
        {
          "indexed": false,
          "internalType": "uint256",
          "name": "collateralAmountOrId",
          "type": "uint256"
        },
        {
          "indexed": false,
          "internalType": "bool",
          "name": "collateralType",
          "type": "bool"
        }
      ],
      "name": "LoanRequestAuthorized",
      "type": "event"
    },
    {
      "anonymous": false,
      "inputs": [
        {
          "indexed": true,
          "internalType": "uint256",
          "name": "loanId",
          "type": "uint256"
        },
        {
          "indexed": false,
          "internalType": "uint256",
          "name": "startTimestamp",
          "type": "uint256"
        }
      ],
      "name": "LoanStarted",
      "type": "event"
    },
    {
      "inputs": [],
      "name": "LOAN_ADVERTISEMENT_BOOK",
      "outputs": [
        {
          "internalType": "contract IGhoSafeLoanAdvertisementBookSepolia",
          "name": "",
          "type": "address"
        }
      ],
      "stateMutability": "view",
      "type": "function"
    },
    {
      "inputs": [],
      "name": "USER_ACCESS_MANAGER",
      "outputs": [
        {
          "internalType": "contract IAccessManagerSepolia",
          "name": "",
          "type": "address"
        }
      ],
      "stateMutability": "view",
      "type": "function"
    },
    {
      "inputs": [],
      "name": "USER_LOAN_SAFE",
      "outputs": [
        {
          "internalType": "contract ILoanSafeSepolia",
          "name": "",
          "type": "address"
        }
      ],
      "stateMutability": "view",
      "type": "function"
    },
    {
      "inputs": [],
      "name": "USER_MAILBOX",
      "outputs": [
        {
          "internalType": "contract IMailboxSepolia",
          "name": "",
          "type": "address"
        }
      ],
      "stateMutability": "view",
      "type": "function"
    },
    {
      "inputs": [],
      "name": "USER_MESSENGER",
      "outputs": [
        {
          "internalType": "contract IMessengerSepolia",
          "name": "",
          "type": "address"
        }
      ],
      "stateMutability": "view",
      "type": "function"
    },
    {
      "inputs": [],
      "name": "USER_SAFE",
      "outputs": [
        {
          "internalType": "contract ISafeSepolia",
          "name": "",
          "type": "address"
        }
      ],
      "stateMutability": "view",
      "type": "function"
    },
    {
      "inputs": [
        {
          "internalType": "uint256",
          "name": "_loanRequestId",
          "type": "uint256"
        }
      ],
      "name": "authorizeLoan",
      "outputs": [],
      "stateMutability": "nonpayable",
      "type": "function"
    },
    {
      "inputs": [],
      "name": "availableBorrowPowerPercent",
      "outputs": [
        {
          "internalType": "uint256",
          "name": "",
          "type": "uint256"
        }
      ],
      "stateMutability": "view",
      "type": "function"
    },
    {
      "inputs": [
        {
          "internalType": "uint256",
          "name": "_loanId",
          "type": "uint256"
        }
      ],
      "name": "borrow",
      "outputs": [],
      "stateMutability": "nonpayable",
      "type": "function"
    },
    {
      "inputs": [
        {
          "internalType": "uint256",
          "name": "_loanId",
          "type": "uint256"
        }
      ],
      "name": "borrowWhithCrosschainCollateral",
      "outputs": [],
      "stateMutability": "nonpayable",
      "type": "function"
    },
    {
      "inputs": [],
      "name": "getAvailableBorrowPower",
      "outputs": [
        {
          "internalType": "uint256",
          "name": "availableBorrowPower",
          "type": "uint256"
        }
      ],
      "stateMutability": "view",
      "type": "function"
    },
    {
      "inputs": [
        {
          "internalType": "uint256",
          "name": "_loanId",
          "type": "uint256"
        }
      ],
      "name": "getLoanAdvertisementData",
      "outputs": [
        {
          "components": [
            {
              "internalType": "uint256",
              "name": "timestampLastUpdate",
              "type": "uint256"
            },
            {
              "internalType": "uint256",
              "name": "maxLoanAmount",
              "type": "uint256"
            },
            {
              "internalType": "uint256",
              "name": "maxDuration",
              "type": "uint256"
            },
            {
              "internalType": "uint256",
              "name": "interestRate",
              "type": "uint256"
            },
            {
              "internalType": "address",
              "name": "safeAddress",
              "type": "address"
            },
            {
              "internalType": "address",
              "name": "loanManagerAddress",
              "type": "address"
            },
            {
              "internalType": "bool",
              "name": "isAvailable",
              "type": "bool"
            }
          ],
          "internalType": "struct IGhoSafeLoanAdvertisementBookSepolia.LoanAdvertisement",
          "name": "loanAdvertisementData",
          "type": "tuple"
        }
      ],
      "stateMutability": "view",
      "type": "function"
    },
    {
      "inputs": [
        {
          "internalType": "uint256",
          "name": "index",
          "type": "uint256"
        }
      ],
      "name": "getLoanAdvertisementId",
      "outputs": [
        {
          "internalType": "uint256",
          "name": "",
          "type": "uint256"
        }
      ],
      "stateMutability": "view",
      "type": "function"
    },
    {
      "inputs": [],
      "name": "getLoanAdvertisementIds",
      "outputs": [
        {
          "internalType": "uint256[]",
          "name": "",
          "type": "uint256[]"
        }
      ],
      "stateMutability": "view",
      "type": "function"
    },
    {
      "inputs": [],
      "name": "getLoanAdvertisementsCount",
      "outputs": [
        {
          "internalType": "uint256",
          "name": "",
          "type": "uint256"
        }
      ],
      "stateMutability": "view",
      "type": "function"
    },
    {
      "inputs": [
        {
          "internalType": "uint256",
          "name": "_loanId",
          "type": "uint256"
        }
      ],
      "name": "getLoanData",
      "outputs": [
        {
          "components": [
            {
              "internalType": "uint256",
              "name": "loanId",
              "type": "uint256"
            },
            {
              "internalType": "uint256",
              "name": "loanRequestId",
              "type": "uint256"
            },
            {
              "internalType": "uint256",
              "name": "startTimestamp",
              "type": "uint256"
            },
            {
              "internalType": "uint256",
              "name": "duration",
              "type": "uint256"
            },
            {
              "internalType": "uint256",
              "name": "interestRate",
              "type": "uint256"
            },
            {
              "internalType": "uint256",
              "name": "loanAmount",
              "type": "uint256"
            },
            {
              "internalType": "uint256",
              "name": "collateralAmountOrId",
              "type": "uint256"
            },
            {
              "internalType": "uint64",
              "name": "collateralChainId",
              "type": "uint64"
            },
            {
              "internalType": "address",
              "name": "collateralAddress",
              "type": "address"
            },
            {
              "internalType": "bool",
              "name": "collateralType",
              "type": "bool"
            },
            {
              "internalType": "address",
              "name": "borrower",
              "type": "address"
            },
            {
              "internalType": "bool",
              "name": "isActive",
              "type": "bool"
            }
          ],
          "internalType": "struct ILoanManagerSepolia.Loan",
          "name": "loan",
          "type": "tuple"
        }
      ],
      "stateMutability": "view",
      "type": "function"
    },
    {
      "inputs": [],
      "name": "getMaxLoanAmountPerBorrower",
      "outputs": [
        {
          "internalType": "uint256",
          "name": "maxLoanAmountPerBorrower",
          "type": "uint256"
        }
      ],
      "stateMutability": "view",
      "type": "function"
    },
    {
      "inputs": [
        {
          "internalType": "uint256",
          "name": "_loanId",
          "type": "uint256"
        }
      ],
      "name": "getTotalInterest",
      "outputs": [
        {
          "internalType": "uint256",
          "name": "totalInterest",
          "type": "uint256"
        }
      ],
      "stateMutability": "view",
      "type": "function"
    },
    {
      "inputs": [
        {
          "internalType": "uint256",
          "name": "_loanId",
          "type": "uint256"
        }
      ],
      "name": "initBorrowWhithCrosschainCollateral",
      "outputs": [],
      "stateMutability": "nonpayable",
      "type": "function"
    },
    {
      "inputs": [],
      "name": "interestRate",
      "outputs": [
        {
          "internalType": "uint256",
          "name": "",
          "type": "uint256"
        }
      ],
      "stateMutability": "view",
      "type": "function"
    },
    {
      "inputs": [
        {
          "internalType": "uint256",
          "name": "_loanRequestId",
          "type": "uint256"
        }
      ],
      "name": "isRequestAlreadyAuthorized",
      "outputs": [
        {
          "internalType": "bool",
          "name": "isAlreadyAuthorized",
          "type": "bool"
        }
      ],
      "stateMutability": "view",
      "type": "function"
    },
    {
      "inputs": [
        {
          "internalType": "uint256",
          "name": "_loanId",
          "type": "uint256"
        },
        {
          "internalType": "address",
          "name": "_receiver",
          "type": "address"
        }
      ],
      "name": "liquidateLoan",
      "outputs": [],
      "stateMutability": "nonpayable",
      "type": "function"
    },
    {
      "inputs": [
        {
          "internalType": "uint256",
          "name": "_loanId",
          "type": "uint256"
        },
        {
          "internalType": "address",
          "name": "_receiver",
          "type": "address"
        }
      ],
      "name": "liquidateLoanWhithCrosschainCollateral",
      "outputs": [],
      "stateMutability": "nonpayable",
      "type": "function"
    },
    {
      "inputs": [],
      "name": "maxLoanAmountPercentPerBorrower",
      "outputs": [
        {
          "internalType": "uint256",
          "name": "",
          "type": "uint256"
        }
      ],
      "stateMutability": "view",
      "type": "function"
    },
    {
      "inputs": [],
      "name": "maxLoanDuration",
      "outputs": [
        {
          "internalType": "uint256",
          "name": "",
          "type": "uint256"
        }
      ],
      "stateMutability": "view",
      "type": "function"
    },
    {
      "inputs": [
        {
          "internalType": "uint64",
          "name": "",
          "type": "uint64"
        }
      ],
      "name": "messengers",
      "outputs": [
        {
          "internalType": "address",
          "name": "",
          "type": "address"
        }
      ],
      "stateMutability": "view",
      "type": "function"
    },
    {
      "inputs": [],
      "name": "publishLoanAdvertisement",
      "outputs": [],
      "stateMutability": "nonpayable",
      "type": "function"
    },
    {
      "inputs": [
        {
          "internalType": "uint256",
          "name": "_loanId",
          "type": "uint256"
        }
      ],
      "name": "repay",
      "outputs": [],
      "stateMutability": "nonpayable",
      "type": "function"
    },
    {
      "inputs": [
        {
          "internalType": "uint256",
          "name": "_loanId",
          "type": "uint256"
        }
      ],
      "name": "repayLoanCrosschainCollateral",
      "outputs": [],
      "stateMutability": "nonpayable",
      "type": "function"
    },
    {
      "inputs": [
        {
          "internalType": "uint256",
          "name": "_maxLoanDuration",
          "type": "uint256"
        },
        {
          "internalType": "uint256",
          "name": "_availableBorrowPowerPercent",
          "type": "uint256"
        },
        {
          "internalType": "uint256",
          "name": "_maxLoanAmountPercentPerBorrower",
          "type": "uint256"
        },
        {
          "internalType": "uint256",
          "name": "_interestRate",
          "type": "uint256"
        }
      ],
      "name": "setLoanParameters",
      "outputs": [],
      "stateMutability": "nonpayable",
      "type": "function"
    },
    {
      "inputs": [
        {
          "internalType": "uint64",
          "name": "_chainId",
          "type": "uint64"
        },
        {
          "internalType": "address",
          "name": "_messengerAddress",
          "type": "address"
        }
      ],
      "name": "setMessengerAddress",
      "outputs": [],
      "stateMutability": "nonpayable",
      "type": "function"
    },
    {
      "inputs": [
        {
          "internalType": "uint256",
          "name": "_loanAdvertisementId",
          "type": "uint256"
        },
        {
          "internalType": "bool",
          "name": "_isAvailable",
          "type": "bool"
        }
      ],
      "name": "updateLoanAdvertisementData",
      "outputs": [],
      "stateMutability": "nonpayable",
      "type": "function"
    }
  ],
  "bytecode": "0x6101406040523480156200001257600080fd5b506040516200538f3803806200538f83398101604081905262000035916200013d565b336080526001600160a01b0385811660a05284811660c0528316610120526040518590620000639062000108565b6001600160a01b039091168152602001604051809103906000f08015801562000090573d6000803e3d6000fd5b506001600160a01b031660e052604051829082908790620000b19062000116565b6001600160a01b03938416815291831660208301529091166040820152606001604051809103906000f080158015620000ee573d6000803e3d6000fd5b506001600160a01b03166101005250620001bd9350505050565b610bd08062002c9283390190565b611b2d806200386283390190565b6001600160a01b03811681146200013a57600080fd5b50565b600080600080600060a086880312156200015657600080fd5b8551620001638162000124565b6020870151909550620001768162000124565b6040870151909450620001898162000124565b60608701519093506200019c8162000124565b6080870151909250620001af8162000124565b809150509295509295909350565b60805160a05160c05160e05161010051610120516129cf620002c36000396000818161024e01528181610a4c01528181610dac01526111fa01526000818161041f0152818161065e01528181611b0a01528181611e1f0152611ff80152600081816103f80152818161089001528181611161015281816118c9015261191a015260008181610350015261147b0152600081816104f10152818161097501528181610cab015281816112ba015281816113d0015261174f015260008181610488015281816105bd0152818161085501528181610bb701528181610d7901528181611116015281816119bf01528181611bea01528181611d7a01526120ee01526129cf6000f3fe608060405234801561001057600080fd5b50600436106101f05760003560e01c8063807d0afb1161010f578063b7b0d311116100a2578063e2fff82911610071578063e2fff829146104ec578063f48a967a14610513578063f4d1e13f14610526578063f64b3fc01461053957600080fd5b8063b7b0d311146104aa578063bac079b4146104bd578063c5ebeaec146104c6578063c98a76d6146104d957600080fd5b8063a52dd219116100de578063a52dd2191461044a578063a62e8a9f1461045d578063b031db8614610470578063b400bfb71461048357600080fd5b8063807d0afb146103eb57806394ab121f146103f35780639e76c96d1461041a578063a4be77ee1461044157600080fd5b806351a224431161018757806379b2e89f1161015657806379b2e89f1461032f5780637c3a00fd146103425780637ef7b2e71461034b5780637f6634a71461037257600080fd5b806351a22443146102cb578063622fe39f146102d357806364337f41146102f357806370a4e1bf1461030657600080fd5b8063371fd8e6116101c3578063371fd8e614610288578063439e3f461461029b57806347eb6f49146102ae5780634c5bf429146102c357600080fd5b80630201cbc7146101f55780630df40eae1461020a578063253eba541461022657806330c2ed7e14610249575b600080fd5b61020861020336600461241c565b610541565b005b61021360015481565b6040519081526020015b60405180910390f35b61023961023436600461244c565b61073f565b604051901515815260200161021d565b6102707f000000000000000000000000000000000000000000000000000000000000000081565b6040516001600160a01b03909116815260200161021d565b61020861029636600461244c565b610780565b6102086102a9366004612473565b61094c565b6102b6610b0b565b60405161021d9190612498565b610213610ba0565b610208610c82565b6102e66102e136600461244c565b610e77565b60405161021d91906124dc565b61021361030136600461244c565b610fbd565b61027061031436600461259d565b6007602052600090815260409020546001600160a01b031681565b61020861033d36600461241c565b61109f565b61021360035481565b6102707f000000000000000000000000000000000000000000000000000000000000000081565b61038561038036600461244c565b611190565b60405161021d9190600060e08201905082518252602083015160208301526040830151604083015260608301516060830152608083015160018060a01b0380821660808501528060a08601511660a0850152505060c0830151151560c083015292915050565b610213611273565b6102707f000000000000000000000000000000000000000000000000000000000000000081565b6102707f000000000000000000000000000000000000000000000000000000000000000081565b61021360005481565b61021361045836600461244c565b611284565b61020861046b3660046125ba565b611291565b61020861047e36600461244c565b6113a7565b6102707f000000000000000000000000000000000000000000000000000000000000000081565b6102086104b83660046125ec565b611726565b61021360025481565b6102086104d436600461244c565b61181a565b6102086104e736600461244c565b611a79565b6102707f000000000000000000000000000000000000000000000000000000000000000081565b61020861052136600461244c565b611ca5565b61020861053436600461244c565b611e56565b6102136120d7565b6000828152600660205260409020600381015460028201546105639190612630565b42101561058b57604051636bcd5a6360e11b8152600481018490526024015b60405180910390fd5b60088101805460ff60a01b1916905560058101546105e29073c4bf5cbdabe595361438f8c6a187bdc330539c609033907f00000000000000000000000000000000000000000000000000000000000000009061219a565b6007818101546001600160401b0381166000818152602093845260409081902054815160c08101835288815260068701549581019590955260028583015260ff600160e01b850416151560608601526001600160a01b03600160401b9094048416608086015286841660a08601529051635dde677b60e11b81527f000000000000000000000000000000000000000000000000000000000000000084169463bbbccef69461069594931691600401612643565b600060405180830381600087803b1580156106af57600080fd5b505af11580156106c3573d6000803e3d6000fd5b505050506008810154600582015460048301546001600160a01b0385811693169186917f9950a0562c02382e2e840daa73082d5be7660ce37601f28fa4c84089c11e8a0691906127109061071790836126b2565b61072191906126c9565b604080519283526020830191909152015b60405180910390a4505050565b6000805b60085481101561077a576000818152600660205260409020600181015484900361077157600192505061077a565b50600101610743565b50919050565b60008181526006602052604090206008810154600160a01b900460ff166107bd57604051638db4d94d60e01b815260048101839052602401610582565b60088101546001600160a01b0316331461080157600881015460405163c7b393c960e01b81523360048201526001600160a01b039091166024820152604401610582565b60006127108260040154836005015461081a91906126b2565b61082491906126c9565b905060008183600501546108389190612630565b905061087a73c4bf5cbdabe595361438f8c6a187bdc330539c60337f00000000000000000000000000000000000000000000000000000000000000008461219a565b604051631e7046db60e01b8152600481018590527f00000000000000000000000000000000000000000000000000000000000000006001600160a01b031690631e7046db906024015b600060405180830381600087803b1580156108dd57600080fd5b505af11580156108f1573d6000803e3d6000fd5b5050505060088301805460ff60a01b1916905560058301546040805191825260208201849052339186917f553c9087bff5b534e499a66dac3fa9db2962cd252ea01165239755836ae5345e910160405180910390a350505050565b604051632474521560e21b815260008051602061297a83398151915260048201523360248201527f00000000000000000000000000000000000000000000000000000000000000006001600160a01b0316906391d1485490604401602060405180830381865afa1580156109c4573d6000803e3d6000fd5b505050506040513d601f19601f820116820180604052508101906109e891906126eb565b610a0757604051630d175fff60e31b8152336004820152602401610582565b6000610a11610ba0565b600054600354604051635204ee1d60e11b815260048101879052602481018490526044810192909252606482015283151560848201529091507f00000000000000000000000000000000000000000000000000000000000000006001600160a01b03169063a409dc3a9060a401600060405180830381600087803b158015610a9857600080fd5b505af1158015610aac573d6000803e3d6000fd5b5050600054600354604080518881528715156020820152908101929092526060820185905260808201527f176baa8506823dad86d30547ef1da020b7adbd4357cfbe3c8250fe640a4f9d72925060a001905060405180910390a1505050565b60606000610b1960046121fa565b6001600160401b03811115610b3057610b30612708565b604051908082528060200260200182016040528015610b59578160200160208202803683370190505b50905060005b610b6960046121fa565b81101561077a57610b7b600482612204565b828281518110610b8d57610b8d61271e565b6020908102919091010152600101610b5f565b6040516370a0823160e01b81526001600160a01b037f0000000000000000000000000000000000000000000000000000000000000000166004820152600090819073d4fea5bd40ce7d0f7b269678541ff0a95fcb4b68906370a0823190602401602060405180830381865afa158015610c1d573d6000803e3d6000fd5b505050506040513d601f19601f82011682018060405250810190610c419190612734565b90506000606460015483610c5591906126b2565b610c5f91906126c9565b9050606460025482610c7191906126b2565b610c7b91906126c9565b9250505090565b604051632474521560e21b815260008051602061297a83398151915260048201523360248201527f00000000000000000000000000000000000000000000000000000000000000006001600160a01b0316906391d1485490604401602060405180830381865afa158015610cfa573d6000803e3d6000fd5b505050506040513d601f19601f82011682018060405250810190610d1e91906126eb565b610d3d57604051630d175fff60e31b8152336004820152602401610582565b6000610d47610ba0565b60008054600354604051635df0d03b60e01b815260048101859052602481019290925260448201526001600160a01b037f00000000000000000000000000000000000000000000000000000000000000008116606483015230608483015292935090917f00000000000000000000000000000000000000000000000000000000000000001690635df0d03b9060a4016020604051808303816000875af1158015610df5573d6000803e3d6000fd5b505050506040513d601f19601f82011682018060405250810190610e199190612734565b9050610e26600482612210565b50600054600354604080518481526020810193909352820184905260608201527ffef22ca5312edf9ea30ab84bf1782d2214c755a8d3bc73cb6fcb806e9a80e48e9060800160405180910390a15050565b610efa6040518061018001604052806000815260200160008152602001600081526020016000815260200160008152602001600081526020016000815260200160006001600160401b0316815260200160006001600160a01b0316815260200160001515815260200160006001600160a01b031681526020016000151581525090565b50600090815260066020818152604092839020835161018081018552815481526001820154928101929092526002810154938201939093526003830154606082015260048301546080820152600583015460a08201529082015460c082015260078201546001600160401b03811660e08301526001600160a01b03600160401b8204811661010084015260ff600160e01b90920482161515610120840152600890930154928316610140830152600160a01b909204909116151561016082015290565b60008181526006602081815260408084208151610180810183528154815260018201549381019390935260028101549183019190915260038101546060830152600481015460808301819052600582015460a084018190529382015460c084015260078201546001600160401b03811660e08501526001600160a01b03600160401b8204811661010086015260ff600160e01b90920482161515610120860152600890930154928316610140850152600160a01b909204909116151561016083015290916127109161108e916126b2565b61109891906126c9565b9392505050565b6000828152600660205260409020600381015460028201546110c19190612630565b4210156110e457604051636bcd5a6360e11b815260048101849052602401610582565b60088101805460ff60a01b19169055600581015461113b9073c4bf5cbdabe595361438f8c6a187bdc330539c609033907f00000000000000000000000000000000000000000000000000000000000000009061219a565b60405163ac9cf4db60e01b8152600481018490526001600160a01b0383811660248301527f0000000000000000000000000000000000000000000000000000000000000000169063ac9cf4db90604401610695565b6111e46040518060e001604052806000815260200160008152602001600081526020016000815260200160006001600160a01b0316815260200160006001600160a01b031681526020016000151581525090565b604051637f6634a760e01b8152600481018390527f00000000000000000000000000000000000000000000000000000000000000006001600160a01b031690637f6634a79060240160e060405180830381865afa158015611249573d6000803e3d6000fd5b505050506040513d601f19601f8201168201806040525081019061126d9190612783565b92915050565b600061127f60046121fa565b905090565b600061126d600483612204565b604051632474521560e21b815260008051602061297a83398151915260048201523360248201527f00000000000000000000000000000000000000000000000000000000000000006001600160a01b0316906391d1485490604401602060405180830381865afa158015611309573d6000803e3d6000fd5b505050506040513d601f19601f8201168201806040525081019061132d91906126eb565b61134c57604051630d175fff60e31b8152336004820152602401610582565b600084905560018390556002829055600381905560408051858152602081018590529081018390527f134470e0ac0ddc6e2f8874560f57ce11176093ce7b6913c95fa3db12688beea39060600160405180910390a150505050565b604051632474521560e21b815260008051602061297a83398151915260048201523360248201527f00000000000000000000000000000000000000000000000000000000000000006001600160a01b0316906391d1485490604401602060405180830381865afa15801561141f573d6000803e3d6000fd5b505050506040513d601f19601f8201168201806040525081019061144391906126eb565b61146257604051630d175fff60e31b8152336004820152602401610582565b604051631b3b867160e01b8152600481018290526000907f00000000000000000000000000000000000000000000000000000000000000006001600160a01b031690631b3b86719060240160e060405180830381865afa1580156114ca573d6000803e3d6000fd5b505050506040513d601f19601f820116820180604052508101906114ee91906127ff565b60088054919250600091908261150383612865565b9190505590506040518061018001604052808281526020018481526020016000815260200183602001518152602001600354815260200183600001518152602001836040015181526020018360a001516001600160401b0316815260200183606001516001600160a01b031681526020018360c001511515815260200183608001516001600160a01b031681526020016000151581525060066000838152602001908152602001600020600082015181600001556020820151816001015560408201518160020155606082015181600301556080820151816004015560a0820151816005015560c0820151816006015560e08201518160070160006101000a8154816001600160401b0302191690836001600160401b031602179055506101008201518160070160086101000a8154816001600160a01b0302191690836001600160a01b0316021790555061012082015181600701601c6101000a81548160ff0219169083151502179055506101408201518160080160006101000a8154816001600160a01b0302191690836001600160a01b031602179055506101608201518160080160146101000a81548160ff02191690831515021790555090505081608001516001600160a01b031681847fc1f8132de989b30ab3c8787441461ac4dea436ced5c7f321f0192c6151793aa1856020015160035487600001518860a0015189606001518a604001518b60c00151604051610732979695949392919061287e565b604051632474521560e21b815260008051602061297a83398151915260048201523360248201527f00000000000000000000000000000000000000000000000000000000000000006001600160a01b0316906391d1485490604401602060405180830381865afa15801561179e573d6000803e3d6000fd5b505050506040513d601f19601f820116820180604052508101906117c291906126eb565b6117e157604051630d175fff60e31b8152336004820152602401610582565b6001600160401b0391909116600090815260076020526040902080546001600160a01b0319166001600160a01b03909216919091179055565b600081815260066020526040902060028101541561184e57604051636779a5d960e01b815260048101839052602401610582565b60088101546001600160a01b0316331461189257600881015460405163c7b393c960e01b81523360048201526001600160a01b039091166024820152604401610582565b6007810154600160e01b900460ff166118f357600681015460078201546118ee91600160401b9091046001600160a01b03169033907f00000000000000000000000000000000000000000000000000000000000000009061219a565b61198e565b60078101546006820154604051632142170760e11b81523360048201526001600160a01b037f0000000000000000000000000000000000000000000000000000000000000000811660248301526044820192909252600160401b90920416906342842e0e90606401600060405180830381600087803b15801561197557600080fd5b505af1158015611989573d6000803e3d6000fd5b505050505b600881015460058201546040516352eb00a360e01b81526001600160a01b03928316600482015260248101919091527f0000000000000000000000000000000000000000000000000000000000000000909116906352eb00a390604401600060405180830381600087803b158015611a0557600080fd5b505af1158015611a19573d6000803e3d6000fd5b5050426002840181905560088401805460ff60a01b1916600160a01b1790556040518593507f403a7b0a1d0aaf90fc432d8fbc7bef046b5df6600a52edd0c2aeb7d3772cfeeb9250611a6d91815260200190565b60405180910390a25050565b6000818152600660205260409020600281015415611aad57604051636779a5d960e01b815260048101839052602401610582565b60088101546001600160a01b03163314611af157600881015460405163c7b393c960e01b81523360048201526001600160a01b039091166024820152604401610582565b60405163622fe39f60e01b8152600481018390526000907f00000000000000000000000000000000000000000000000000000000000000006001600160a01b03169063622fe39f90602401608060405180830381865afa158015611b59573d6000803e3d6000fd5b505050506040513d601f19601f82011682018060405250810190611b7d91906128c2565b9050806040015160ff166000148015611b9857506060810151155b15611bb957604051636ae1d49d60e01b815260048101849052602401610582565b600882015460058301546040516352eb00a360e01b81526001600160a01b03928316600482015260248101919091527f0000000000000000000000000000000000000000000000000000000000000000909116906352eb00a390604401600060405180830381600087803b158015611c3057600080fd5b505af1158015611c44573d6000803e3d6000fd5b5050426002850181905560088501805460ff60a01b1916600160a01b1790556040518693507f403a7b0a1d0aaf90fc432d8fbc7bef046b5df6600a52edd0c2aeb7d3772cfeeb9250611c9891815260200190565b60405180910390a2505050565b60008181526006602052604090206008810154600160a01b900460ff16611ce257604051638db4d94d60e01b815260048101839052602401610582565b60088101546001600160a01b03163314611d2657600881015460405163c7b393c960e01b81523360048201526001600160a01b039091166024820152604401610582565b600061271082600401548360050154611d3f91906126b2565b611d4991906126c9565b90506000818360050154611d5d9190612630565b9050611d9f73c4bf5cbdabe595361438f8c6a187bdc330539c60337f00000000000000000000000000000000000000000000000000000000000000008461219a565b6007838101546001600160401b0381166000818152602093845260409081902054815160c08101835289815260068901549581019590955260018583015260ff600160e01b850416151560608601526001600160a01b03600160401b909404841660808601526008880154841660a08601529051635dde677b60e11b81527f000000000000000000000000000000000000000000000000000000000000000084169463bbbccef6946108c394931691600401612643565b6000818152600660208181526040928390208351610180810185528154815260018201549281019290925260028101549382018490526003810154606083015260048101546080830152600581015460a08301529182015460c082015260078201546001600160401b03811660e08301526001600160a01b03600160401b8204811661010084015260ff600160e01b90920482161515610120840152600890930154928316610140830152600160a01b90920490911615156101608201529015611f3657604051636779a5d960e01b815260048101839052602401610582565b6101408101516001600160a01b03163314611f7c5761014081015160405163c7b393c960e01b81523360048201526001600160a01b039091166024820152604401610582565b60e08101516001600160401b038116600090815260076020908152604080832054815160c080820184528882528701519381019390935282820193909352610120850151151560608301526101008501516001600160a01b039081166080840152610140860151811660a08401529051635dde677b60e11b81527f000000000000000000000000000000000000000000000000000000000000000082169463bbbccef6946120309491931691600401612643565b600060405180830381600087803b15801561204a57600080fd5b505af115801561205e573d6000803e3d6000fd5b505050508061014001516001600160a01b0316827f603c05de9ebb1e0a2af29b53c11f1962b081cefb4596e42eb74e550770a3dfa1836060015184608001518560a001518660e001518761010001518860c001518961012001516040516120cb979695949392919061287e565b60405180910390a35050565b6040516370a0823160e01b81526001600160a01b037f0000000000000000000000000000000000000000000000000000000000000000166004820152600090819073d4fea5bd40ce7d0f7b269678541ff0a95fcb4b68906370a0823190602401602060405180830381865afa158015612154573d6000803e3d6000fd5b505050506040513d601f19601f820116820180604052508101906121789190612734565b905060646001548261218a91906126b2565b61219491906126c9565b91505090565b604080516001600160a01b0385811660248301528416604482015260648082018490528251808303909101815260849091019091526020810180516001600160e01b03166323b872dd60e01b1790526121f490859061221c565b50505050565b600061126d825490565b60006110988383612284565b600061109883836122ae565b60006122316001600160a01b038416836122fd565b9050805160001415801561225657508080602001905181019061225491906126eb565b155b1561227f57604051635274afe760e01b81526001600160a01b0384166004820152602401610582565b505050565b600082600001828154811061229b5761229b61271e565b9060005260206000200154905092915050565b60008181526001830160205260408120546122f55750815460018181018455600084815260208082209093018490558454848252828601909352604090209190915561126d565b50600061126d565b60606110988383600084600080856001600160a01b03168486604051612323919061294a565b60006040518083038185875af1925050503d8060008114612360576040519150601f19603f3d011682016040523d82523d6000602084013e612365565b606091505b509150915061237586838361237f565b9695505050505050565b6060826123945761238f826123db565b611098565b81511580156123ab57506001600160a01b0384163b155b156123d457604051639996b31560e01b81526001600160a01b0385166004820152602401610582565b5080611098565b8051156123eb5780518082602001fd5b604051630a12f52160e11b815260040160405180910390fd5b50565b6001600160a01b038116811461240457600080fd5b6000806040838503121561242f57600080fd5b82359150602083013561244181612407565b809150509250929050565b60006020828403121561245e57600080fd5b5035919050565b801515811461240457600080fd5b6000806040838503121561248657600080fd5b82359150602083013561244181612465565b6020808252825182820181905260009190848201906040850190845b818110156124d0578351835292840192918401916001016124b4565b50909695505050505050565b600061018082019050825182526020830151602083015260408301516040830152606083015160608301526080830151608083015260a083015160a083015260c083015160c083015260e083015161253f60e08401826001600160401b03169052565b50610100838101516001600160a01b0390811691840191909152610120808501511515908401526101408085015190911690830152610160928301511515929091019190915290565b6001600160401b038116811461240457600080fd5b6000602082840312156125af57600080fd5b813561109881612588565b600080600080608085870312156125d057600080fd5b5050823594602084013594506040840135936060013592509050565b600080604083850312156125ff57600080fd5b823561260a81612588565b9150602083013561244181612407565b634e487b7160e01b600052601160045260246000fd5b8082018082111561126d5761126d61261a565b6000610100820190506001600160401b038516825260018060a01b038085166020840152835160408401526020840151606084015260ff60408501511660808401526060840151151560a08401528060808501511660c08401528060a08501511660e084015250949350505050565b808202811582820484141761126d5761126d61261a565b6000826126e657634e487b7160e01b600052601260045260246000fd5b500490565b6000602082840312156126fd57600080fd5b815161109881612465565b634e487b7160e01b600052604160045260246000fd5b634e487b7160e01b600052603260045260246000fd5b60006020828403121561274657600080fd5b5051919050565b60405160e081016001600160401b038111828210171561277d57634e487b7160e01b600052604160045260246000fd5b60405290565b600060e0828403121561279557600080fd5b61279d61274d565b8251815260208301516020820152604083015160408201526060830151606082015260808301516127cd81612407565b608082015260a08301516127e081612407565b60a082015260c08301516127f381612465565b60c08201529392505050565b600060e0828403121561281157600080fd5b61281961274d565b825181526020830151602082015260408301516040820152606083015161283f81612407565b6060820152608083015161285281612407565b608082015260a08301516127e081612588565b6000600182016128775761287761261a565b5060010190565b968752602087019590955260408601939093526001600160401b039190911660608501526001600160a01b0316608084015260a0830152151560c082015260e00190565b6000608082840312156128d457600080fd5b604051608081018181106001600160401b038211171561290457634e487b7160e01b600052604160045260246000fd5b80604052508251815260208301516020820152604083015160ff8116811461292b57600080fd5b6040820152606083015161293e81612465565b60608201529392505050565b6000825160005b8181101561296b5760208186018101518583015201612951565b50600092019182525091905056feb19546dff01e856fb3f010c267a7b1c60363cf8a4664e21cc89c26224620214ea2646970667358221220256374d4f3d056580ce63576bcfe9e21857b32834187c46aa964fa9ee71c692a64736f6c6343000817003360c060405234801561001057600080fd5b50604051610bd0380380610bd083398101604081905261002f91610044565b6001600160a01b03166080523360a052610074565b60006020828403121561005657600080fd5b81516001600160a01b038116811461006d57600080fd5b9392505050565b60805160a051610b156100bb6000396000818160e1015281816101780152818161031d0152818161037b015281816104c4015261051d015260006101330152610b156000f3fe608060405234801561001057600080fd5b50600436106100625760003560e01c806301b7053b14610067578063150b7a021461008f5780631e7046db146100c75780637a091063146100dc578063ac9cf4db1461011b578063e2fff8291461012e575b600080fd5b61007a610075366004610837565b610155565b60405190151581526020015b60405180910390f35b6100ae61009d366004610865565b630a85bd0160e11b95945050505050565b6040516001600160e01b03199091168152602001610086565b6100da6100d5366004610837565b610312565b005b6101037f000000000000000000000000000000000000000000000000000000000000000081565b6040516001600160a01b039091168152602001610086565b6100da610129366004610904565b6104b9565b6101037f000000000000000000000000000000000000000000000000000000000000000081565b60405163622fe39f60e01b81526004810182905260009081906001600160a01b037f0000000000000000000000000000000000000000000000000000000000000000169063622fe39f9060240161018060405180830381865afa1580156101c0573d6000803e3d6000fd5b505050506040513d601f19601f820116820180604052508101906101e491906109a4565b90508061016001511561030c57610120810151151560000361028e5761010081015160c08201516040516331a9108f60e11b8152600481019190915230916001600160a01b031690636352211e90602401602060405180830381865afa158015610252573d6000803e3d6000fd5b505050506040513d601f19601f820116820180604052508101906102769190610a5f565b6001600160a01b03160361028957600191505b61030c565b60c08101516101008201516040516370a0823160e01b81523060048201526001600160a01b03909116906370a0823190602401602060405180830381865afa1580156102de573d6000803e3d6000fd5b505050506040513d601f19601f820116820180604052508101906103029190610a7c565b1061030c57600191505b50919050565b336001600160a01b037f0000000000000000000000000000000000000000000000000000000000000000161461036257604051633733be5960e21b81523360048201526024015b60405180910390fd5b60405163622fe39f60e01b8152600481018290526000907f00000000000000000000000000000000000000000000000000000000000000006001600160a01b03169063622fe39f9060240161018060405180830381865afa1580156103cb573d6000803e3d6000fd5b505050506040513d601f19601f820116820180604052508101906103ef91906109a4565b9050806101600151156104b55761012081015115156000036104895761010081015161014082015160c0830151604051632142170760e11b81523060048201526001600160a01b03928316602482015260448101919091529116906342842e0e90606401600060405180830381600087803b15801561046d57600080fd5b505af1158015610481573d6000803e3d6000fd5b505050505050565b6104b58161014001518260c001518361010001516001600160a01b03166106519092919063ffffffff16565b5050565b336001600160a01b037f0000000000000000000000000000000000000000000000000000000000000000161461050457604051633733be5960e21b8152336004820152602401610359565b60405163622fe39f60e01b8152600481018390526000907f00000000000000000000000000000000000000000000000000000000000000006001600160a01b03169063622fe39f9060240161018060405180830381865afa15801561056d573d6000803e3d6000fd5b505050506040513d601f19601f8201168201806040525081019061059191906109a4565b905080610160015161064c5761012081015115156000036106255761010081015160c0820151604051632142170760e11b81523060048201526001600160a01b03858116602483015260448201929092529116906342842e0e90606401600060405180830381600087803b15801561060857600080fd5b505af115801561061c573d6000803e3d6000fd5b50505050505050565b61064c828260c001518361010001516001600160a01b03166106519092919063ffffffff16565b505050565b604080516001600160a01b03848116602483015260448083018590528351808403909101815260649092019092526020810180516001600160e01b031663a9059cbb60e01b17905261064c918591906000906106af908416836106fd565b905080516000141580156106d45750808060200190518101906106d29190610a95565b155b1561064c57604051635274afe760e01b81526001600160a01b0384166004820152602401610359565b606061070b83836000610712565b9392505050565b6060814710156107375760405163cd78605960e01b8152306004820152602401610359565b600080856001600160a01b031684866040516107539190610ab0565b60006040518083038185875af1925050503d8060008114610790576040519150601f19603f3d011682016040523d82523d6000602084013e610795565b606091505b50915091506107a58683836107af565b9695505050505050565b6060826107c4576107bf8261080b565b61070b565b81511580156107db57506001600160a01b0384163b155b1561080457604051639996b31560e01b81526001600160a01b0385166004820152602401610359565b508061070b565b80511561081b5780518082602001fd5b604051630a12f52160e11b815260040160405180910390fd5b50565b60006020828403121561084957600080fd5b5035919050565b6001600160a01b038116811461083457600080fd5b60008060008060006080868803121561087d57600080fd5b853561088881610850565b9450602086013561089881610850565b935060408601359250606086013567ffffffffffffffff808211156108bc57600080fd5b818801915088601f8301126108d057600080fd5b8135818111156108df57600080fd5b8960208285010111156108f157600080fd5b9699959850939650602001949392505050565b6000806040838503121561091757600080fd5b82359150602083013561092981610850565b809150509250929050565b604051610180810167ffffffffffffffff8111828210171561096657634e487b7160e01b600052604160045260246000fd5b60405290565b805167ffffffffffffffff8116811461098457600080fd5b919050565b805161098481610850565b8051801515811461098457600080fd5b600061018082840312156109b757600080fd5b6109bf610934565b825181526020830151602082015260408301516040820152606083015160608201526080830151608082015260a083015160a082015260c083015160c0820152610a0b60e0840161096c565b60e0820152610100610a1e818501610989565b90820152610120610a30848201610994565b90820152610140610a42848201610989565b90820152610160610a54848201610994565b908201529392505050565b600060208284031215610a7157600080fd5b815161070b81610850565b600060208284031215610a8e57600080fd5b5051919050565b600060208284031215610aa757600080fd5b61070b82610994565b6000825160005b81811015610ad15760208186018101518583015201610ab7565b50600092019182525091905056fea2646970667358221220aa70664b8ab5ca180e0fb9ea927e1933a53b36014fd486230e61c5924fe7adb064736f6c6343000817003360e06040523480156200001157600080fd5b5060405162001b2d38038062001b2d8339810160408190526200003491620000b2565b826001600160a01b03811662000064576040516335fdcccd60e21b81526000600482015260240160405180910390fd5b6001600160a01b03908116608052600580546001600160a01b031916938216939093179092553360a0521660c0525062000106565b6001600160a01b0381168114620000af57600080fd5b50565b600080600060608486031215620000c857600080fd5b8351620000d58162000099565b6020850151909350620000e88162000099565b6040850151909250620000fb8162000099565b809150509250925092565b60805160a05160c0516119cd6200016060003960008181610326015281816103bb0152818161067b01528181610c1a0152610d0001526000818161027501526107890152600081816102d701526105fe01526119cd6000f3fe608060405234801561001057600080fd5b50600436106100f55760003560e01c80637a09106311610097578063bbbccef611610066578063bbbccef6146102fb578063db04fa491461030e578063e2fff82914610321578063eab5b02c1461034857600080fd5b80637a0910631461027057806385572ffb146102af57806396d3b83d146102c2578063b0f479a1146102d557600080fd5b80635917d7c1116100d35780635917d7c11461015a5780636159ada11461017a578063622fe39f1461019d57806375c67c661461024d57600080fd5b806301ffc9a7146100fa5780633aeac4e1146101225780634030d52114610137575b600080fd5b61010d6101083660046110c5565b61035b565b60405190151581526020015b60405180910390f35b61013561013036600461110b565b610392565b005b61010d610145366004611160565b60026020526000908152604090205460ff1681565b61016d61016836600461117b565b610559565b60405161011991906111e4565b61010d6101883660046111f7565b60036020526000908152604090205460ff1681565b6102156101ab36600461117b565b604080516080808201835260008083526020808401829052838501829052606093840182905294815260048552839020835191820184528054825260018101549482019490945260029093015460ff80821693850193909352610100900490911615159082015290565b6040516101199190815181526020808301519082015260408083015160ff169082015260609182015115159181019190915260800190565b61010d61025b366004611160565b60016020526000908152604090205460ff1681565b6102977f000000000000000000000000000000000000000000000000000000000000000081565b6040516001600160a01b039091168152602001610119565b6101356102bd366004611214565b6105f3565b6101356102d036600461125c565b610652565b7f0000000000000000000000000000000000000000000000000000000000000000610297565b610135610309366004611288565b610738565b61013561031c36600461125c565b610bf1565b6102977f000000000000000000000000000000000000000000000000000000000000000081565b6101356103563660046112da565b610cd7565b60006001600160e01b031982166385572ffb60e01b148061038c57506001600160e01b031982166301ffc9a760e01b145b92915050565b604051632474521560e21b815260008051602061197883398151915260048201523360248201527f00000000000000000000000000000000000000000000000000000000000000006001600160a01b0316906391d1485490604401602060405180830381865afa15801561040a573d6000803e3d6000fd5b505050506040513d601f19601f8201168201806040525081019061042e91906112f8565b61045257604051630d175fff60e31b81523360048201526024015b60405180910390fd5b6040516370a0823160e01b81523060048201526000906001600160a01b038316906370a0823190602401602060405180830381865afa158015610499573d6000803e3d6000fd5b505050506040513d601f19601f820116820180604052508101906104bd9190611315565b9050806000036104e057604051630686827b60e51b815260040160405180910390fd5b60405163a9059cbb60e01b81526001600160a01b0384811660048301526024820183905283169063a9059cbb906044016020604051808303816000875af115801561052f573d6000803e3d6000fd5b505050506040513d601f19601f8201168201806040525081019061055391906112f8565b50505050565b600060208190529081526040902080546105729061132e565b80601f016020809104026020016040519081016040528092919081815260200182805461059e9061132e565b80156105eb5780601f106105c0576101008083540402835291602001916105eb565b820191906000526020600020905b8154815290600101906020018083116105ce57829003601f168201915b505050505081565b336001600160a01b037f0000000000000000000000000000000000000000000000000000000000000000161461063e576040516335fdcccd60e21b8152336004820152602401610449565b61064f61064a82611521565b610dbd565b50565b604051632474521560e21b815260008051602061197883398151915260048201523360248201527f00000000000000000000000000000000000000000000000000000000000000006001600160a01b0316906391d1485490604401602060405180830381865afa1580156106ca573d6000803e3d6000fd5b505050506040513d601f19601f820116820180604052508101906106ee91906112f8565b61070d57604051630d175fff60e31b8152336004820152602401610449565b6001600160401b03919091166000908152600160205260409020805460ff1916911515919091179055565b6001600160401b038316600090815260016020526040902054839060ff1661077e57604051630a503cdb60e01b81526001600160401b0382166004820152602401610449565b336001600160a01b037f000000000000000000000000000000000000000000000000000000000000000016146107c95760405163effcd4cf60e01b8152336004820152602401610449565b6000826040516020016107dc91906115dc565b60408051601f1981840301815291905260055490915060009061080b90869084906001600160a01b0316610fa1565b90506000306001600160a01b031663b0f479a16040518163ffffffff1660e01b8152600401602060405180830381865afa15801561084d573d6000803e3d6000fd5b505050506040513d601f19601f820116820180604052508101906108719190611656565b90506000816001600160a01b03166320487ded89856040518363ffffffff1660e01b81526004016108a3929190611673565b602060405180830381865afa1580156108c0573d6000803e3d6000fd5b505050506040513d601f19601f820116820180604052508101906108e49190611315565b6005546040516370a0823160e01b81523060048201529192506001600160a01b0316906370a0823190602401602060405180830381865afa15801561092d573d6000803e3d6000fd5b505050506040513d601f19601f820116820180604052508101906109519190611315565b8111156109e8576005546040516370a0823160e01b81523060048201526001600160a01b03909116906370a0823190602401602060405180830381865afa1580156109a0573d6000803e3d6000fd5b505050506040513d601f19601f820116820180604052508101906109c49190611315565b604051634787a10360e11b8152600481019190915260248101829052604401610449565b60055460405163095ea7b360e01b81526001600160a01b038481166004830152602482018490529091169063095ea7b3906044016020604051808303816000875af1158015610a3b573d6000803e3d6000fd5b505050506040513d601f19601f82011682018060405250810190610a5f91906112f8565b506040516396f4e9f960e01b81526000906001600160a01b038416906396f4e9f990610a91908c908890600401611673565b6020604051808303816000875af1158015610ab0573d6000803e3d6000fd5b505050506040513d601f19601f82011682018060405250810190610ad49190611315565b873560009081526004602052604090819020600101829055909150610aff906060890190890161174f565b8735600081815260046020908152604091829020600201805460ff191660ff9590951694909417909355909183917f2cc2a7651489ecbeeebe0862149ef3451d4001679efe808f5c8b7e4f1d6e0584918b0135908d90610b659060608e01908e0161174f565b610b7560808e0160608f0161176c565b8d6080016020810190610b8891906111f7565b8e60a0016020810190610b9b91906111f7565b604080519687526001600160401b03909516602087015260ff90931693850193909352151560608401526001600160a01b0391821660808401521660a082015260c00160405180910390a3505050505050505050565b604051632474521560e21b815260008051602061197883398151915260048201523360248201527f00000000000000000000000000000000000000000000000000000000000000006001600160a01b0316906391d1485490604401602060405180830381865afa158015610c69573d6000803e3d6000fd5b505050506040513d601f19601f82011682018060405250810190610c8d91906112f8565b610cac57604051630d175fff60e31b8152336004820152602401610449565b6001600160401b03919091166000908152600260205260409020805460ff1916911515919091179055565b604051632474521560e21b815260008051602061197883398151915260048201523360248201527f00000000000000000000000000000000000000000000000000000000000000006001600160a01b0316906391d1485490604401602060405180830381865afa158015610d4f573d6000803e3d6000fd5b505050506040513d601f19601f82011682018060405250810190610d7391906112f8565b610d9257604051630d175fff60e31b8152336004820152602401610449565b6001600160a01b03919091166000908152600360205260409020805460ff1916911515919091179055565b80602001518160400151806020019051810190610dda9190611656565b6001600160401b03821660009081526002602052604090205460ff16610e1e576040516326bfad9160e21b81526001600160401b0383166004820152602401610449565b6001600160a01b03811660009081526003602052604090205460ff16610e62576040516338c08ef960e11b81526001600160a01b0382166004820152602401610449565b60008360600151806020019051810190610e7c9190611789565b60408181015182516000908152600460209081528382206002908101805461ff00191661010095151595909502949094179093558085015185518352848320909301805460ff191660ff909416939093179092558751845182529290209190915560608601518051929350610ef6928101820191016117f1565b8451600090815260208190526040902090610f1190826118b8565b5083602001516001600160401b031684600001517f7e5507e9a8d7f61eafce00d842e19dbd90aca18232c89ca598779e2aabca768c8660400151806020019051810190610f5e9190611656565b845160208087015160408089015181516001600160a01b039690961686529285019390935260ff168383015215156060830152519081900360800190a350505050565b610fdc6040518060a0016040528060608152602001606081526020016060815260200160006001600160a01b03168152602001606081525090565b6040805160a081019091526001600160a01b03851660c08201528060e0810160408051808303601f190181529181529082526020808301879052815160008082529181018352929091019190611054565b604080518082019091526000808252602082015281526020019060019003908161102d5790505b508152602001836001600160a01b031681526020016110bb604051806020016040528062030d4081525060408051915160248084019190915281518084039091018152604490920190526020810180516001600160e01b03166397a657c960e01b17905290565b9052949350505050565b6000602082840312156110d757600080fd5b81356001600160e01b0319811681146110ef57600080fd5b9392505050565b6001600160a01b038116811461064f57600080fd5b6000806040838503121561111e57600080fd5b8235611129816110f6565b91506020830135611139816110f6565b809150509250929050565b80356001600160401b038116811461115b57600080fd5b919050565b60006020828403121561117257600080fd5b6110ef82611144565b60006020828403121561118d57600080fd5b5035919050565b60005b838110156111af578181015183820152602001611197565b50506000910152565b600081518084526111d0816020860160208601611194565b601f01601f19169290920160200192915050565b6020815260006110ef60208301846111b8565b60006020828403121561120957600080fd5b81356110ef816110f6565b60006020828403121561122657600080fd5b81356001600160401b0381111561123c57600080fd5b820160a081850312156110ef57600080fd5b801515811461064f57600080fd5b6000806040838503121561126f57600080fd5b61127883611144565b915060208301356111398161124e565b600080600083850361010081121561129f57600080fd5b6112a885611144565b935060208501356112b8816110f6565b925060c0603f19820112156112cc57600080fd5b506040840190509250925092565b600080604083850312156112ed57600080fd5b8235611278816110f6565b60006020828403121561130a57600080fd5b81516110ef8161124e565b60006020828403121561132757600080fd5b5051919050565b600181811c9082168061134257607f821691505b60208210810361136257634e487b7160e01b600052602260045260246000fd5b50919050565b634e487b7160e01b600052604160045260246000fd5b604080519081016001600160401b03811182821017156113a0576113a0611368565b60405290565b60405160a081016001600160401b03811182821017156113a0576113a0611368565b604051601f8201601f191681016001600160401b03811182821017156113f0576113f0611368565b604052919050565b60006001600160401b0382111561141157611411611368565b50601f01601f191660200190565b600082601f83011261143057600080fd5b813561144361143e826113f8565b6113c8565b81815284602083860101111561145857600080fd5b816020850160208301376000918101602001919091529392505050565b600082601f83011261148657600080fd5b813560206001600160401b038211156114a1576114a1611368565b6114af818360051b016113c8565b82815260069290921b840181019181810190868411156114ce57600080fd5b8286015b8481101561151657604081890312156114eb5760008081fd5b6114f361137e565b81356114fe816110f6565b815281850135858201528352918301916040016114d2565b509695505050505050565b600060a0823603121561153357600080fd5b61153b6113a6565b8235815261154b60208401611144565b602082015260408301356001600160401b038082111561156a57600080fd5b6115763683870161141f565b6040840152606085013591508082111561158f57600080fd5b61159b3683870161141f565b606084015260808501359150808211156115b457600080fd5b506115c136828601611475565b60808301525092915050565b60ff8116811461064f57600080fd5b813581526020808301359082015260c0810160408301356115fc816115cd565b60ff16604083015260608301356116128161124e565b151560608301526080830135611627816110f6565b6001600160a01b03908116608084015260a084013590611646826110f6565b80821660a0850152505092915050565b60006020828403121561166857600080fd5b81516110ef816110f6565b600060406001600160401b03851683526020604081850152845160a060408601526116a160e08601826111b8565b905081860151603f19808784030160608801526116be83836111b8565b6040890151888203830160808a01528051808352908601945060009350908501905b8084101561171257845180516001600160a01b03168352860151868301529385019360019390930192908601906116e0565b5060608901516001600160a01b031660a08901526080890151888203830160c08a0152955061174181876111b8565b9a9950505050505050505050565b60006020828403121561176157600080fd5b81356110ef816115cd565b60006020828403121561177e57600080fd5b81356110ef8161124e565b60006060828403121561179b57600080fd5b604051606081018181106001600160401b03821117156117bd576117bd611368565b6040528251815260208301516117d2816115cd565b602082015260408301516117e58161124e565b60408201529392505050565b60006020828403121561180357600080fd5b81516001600160401b0381111561181957600080fd5b8201601f8101841361182a57600080fd5b805161183861143e826113f8565b81815285602083850101111561184d57600080fd5b61185e826020830160208601611194565b95945050505050565b601f8211156118b3576000816000526020600020601f850160051c810160208610156118905750805b601f850160051c820191505b818110156118af5782815560010161189c565b5050505b505050565b81516001600160401b038111156118d1576118d1611368565b6118e5816118df845461132e565b84611867565b602080601f83116001811461191a57600084156119025750858301515b600019600386901b1c1916600185901b1785556118af565b600085815260208120601f198616915b828110156119495788860151825594840194600190910190840161192a565b50858210156119675787850151600019600388901b60f8161c191681555b5050505050600190811b0190555056feb19546dff01e856fb3f010c267a7b1c60363cf8a4664e21cc89c26224620214ea26469706673582212203896ca952670dcced1d98aecd061654968e6a3a8543a7d16e92783748abcac7a64736f6c63430008170033",
  "linkReferences": {},
  "deployedLinkReferences": {}
}