{
  "_format": "hh-sol-artifact-1",
  "contractName": "MessengerSepolia",
  "sourceName": "contracts/Sepolia/users/MessengerSepolia.sol",
  "abi": [
    {
      "inputs": [
        {
          "internalType": "address",
          "name": "_router",
          "type": "address"
        },
        {
          "internalType": "address",
          "name": "_link",
          "type": "address"
        },
        {
          "internalType": "contract IAccessManagerSepolia",
          "name": "_accessManager",
          "type": "address"
        }
      ],
      "stateMutability": "nonpayable",
      "type": "constructor"
    },
    {
      "inputs": [
        {
          "internalType": "uint64",
          "name": "destinationChainSelector",
          "type": "uint64"
        }
      ],
      "name": "DestinationChainNotAllowlisted",
      "type": "error"
    },
    {
      "inputs": [
        {
          "internalType": "address",
          "name": "router",
          "type": "address"
        }
      ],
      "name": "InvalidRouter",
      "type": "error"
    },
    {
      "inputs": [
        {
          "internalType": "uint256",
          "name": "currentBalance",
          "type": "uint256"
        },
        {
          "internalType": "uint256",
          "name": "calculatedFees",
          "type": "uint256"
        }
      ],
      "name": "NotEnoughBalance",
      "type": "error"
    },
    {
      "inputs": [],
      "name": "NothingToWithdraw",
      "type": "error"
    },
    {
      "inputs": [
        {
          "internalType": "address",
          "name": "sender",
          "type": "address"
        }
      ],
      "name": "OnlyLoanManagerCanCall",
      "type": "error"
    },
    {
      "inputs": [
        {
          "internalType": "address",
          "name": "sender",
          "type": "address"
        }
      ],
      "name": "OnlyOwnerCanCall",
      "type": "error"
    },
    {
      "inputs": [
        {
          "internalType": "address",
          "name": "sender",
          "type": "address"
        }
      ],
      "name": "SenderNotAllowlisted",
      "type": "error"
    },
    {
      "inputs": [
        {
          "internalType": "uint64",
          "name": "sourceChainSelector",
          "type": "uint64"
        }
      ],
      "name": "SourceChainNotAllowlisted",
      "type": "error"
    },
    {
      "anonymous": false,
      "inputs": [
        {
          "indexed": true,
          "internalType": "bytes32",
          "name": "messageId",
          "type": "bytes32"
        },
        {
          "indexed": true,
          "internalType": "uint64",
          "name": "sourceChainSelector",
          "type": "uint64"
        },
        {
          "indexed": false,
          "internalType": "address",
          "name": "sender",
          "type": "address"
        },
        {
          "indexed": false,
          "internalType": "uint256",
          "name": "loanId",
          "type": "uint256"
        },
        {
          "indexed": false,
          "internalType": "uint16",
          "name": "action",
          "type": "uint16"
        },
        {
          "indexed": false,
          "internalType": "bool",
          "name": "isSuccessful",
          "type": "bool"
        }
      ],
      "name": "MessageReceived",
      "type": "event"
    },
    {
      "anonymous": false,
      "inputs": [
        {
          "indexed": true,
          "internalType": "bytes32",
          "name": "messageId",
          "type": "bytes32"
        },
        {
          "indexed": true,
          "internalType": "uint256",
          "name": "loanId",
          "type": "uint256"
        },
        {
          "indexed": false,
          "internalType": "uint256",
          "name": "collateralIdOrAmount",
          "type": "uint256"
        },
        {
          "indexed": false,
          "internalType": "uint64",
          "name": "collateralChainId",
          "type": "uint64"
        },
        {
          "indexed": false,
          "internalType": "uint8",
          "name": "action",
          "type": "uint8"
        },
        {
          "indexed": false,
          "internalType": "bool",
          "name": "collateralType",
          "type": "bool"
        },
        {
          "indexed": false,
          "internalType": "address",
          "name": "collateralAddress",
          "type": "address"
        },
        {
          "indexed": false,
          "internalType": "address",
          "name": "borrower",
          "type": "address"
        }
      ],
      "name": "RequestSent",
      "type": "event"
    },
    {
      "inputs": [],
      "name": "USER_ACCESS_MANAGER",
      "outputs": [
        {
          "internalType": "contract IAccessManagerSepolia",
          "name": "",
          "type": "address"
        }
      ],
      "stateMutability": "view",
      "type": "function"
    },
    {
      "inputs": [],
      "name": "USER_LOAN_MANAGER",
      "outputs": [
        {
          "internalType": "contract ILoanManagerSepolia",
          "name": "",
          "type": "address"
        }
      ],
      "stateMutability": "view",
      "type": "function"
    },
    {
      "inputs": [
        {
          "internalType": "uint64",
          "name": "_destinationChainSelector",
          "type": "uint64"
        },
        {
          "internalType": "bool",
          "name": "_allowed",
          "type": "bool"
        }
      ],
      "name": "allowlistDestinationChain",
      "outputs": [],
      "stateMutability": "nonpayable",
      "type": "function"
    },
    {
      "inputs": [
        {
          "internalType": "address",
          "name": "_sender",
          "type": "address"
        },
        {
          "internalType": "bool",
          "name": "_allowed",
          "type": "bool"
        }
      ],
      "name": "allowlistSender",
      "outputs": [],
      "stateMutability": "nonpayable",
      "type": "function"
    },
    {
      "inputs": [
        {
          "internalType": "uint64",
          "name": "_sourceChainSelector",
          "type": "uint64"
        },
        {
          "internalType": "bool",
          "name": "_allowed",
          "type": "bool"
        }
      ],
      "name": "allowlistSourceChain",
      "outputs": [],
      "stateMutability": "nonpayable",
      "type": "function"
    },
    {
      "inputs": [
        {
          "internalType": "uint64",
          "name": "",
          "type": "uint64"
        }
      ],
      "name": "allowlistedDestinationChains",
      "outputs": [
        {
          "internalType": "bool",
          "name": "",
          "type": "bool"
        }
      ],
      "stateMutability": "view",
      "type": "function"
    },
    {
      "inputs": [
        {
          "internalType": "address",
          "name": "",
          "type": "address"
        }
      ],
      "name": "allowlistedSenders",
      "outputs": [
        {
          "internalType": "bool",
          "name": "",
          "type": "bool"
        }
      ],
      "stateMutability": "view",
      "type": "function"
    },
    {
      "inputs": [
        {
          "internalType": "uint64",
          "name": "",
          "type": "uint64"
        }
      ],
      "name": "allowlistedSourceChains",
      "outputs": [
        {
          "internalType": "bool",
          "name": "",
          "type": "bool"
        }
      ],
      "stateMutability": "view",
      "type": "function"
    },
    {
      "inputs": [
        {
          "components": [
            {
              "internalType": "bytes32",
              "name": "messageId",
              "type": "bytes32"
            },
            {
              "internalType": "uint64",
              "name": "sourceChainSelector",
              "type": "uint64"
            },
            {
              "internalType": "bytes",
              "name": "sender",
              "type": "bytes"
            },
            {
              "internalType": "bytes",
              "name": "data",
              "type": "bytes"
            },
            {
              "components": [
                {
                  "internalType": "address",
                  "name": "token",
                  "type": "address"
                },
                {
                  "internalType": "uint256",
                  "name": "amount",
                  "type": "uint256"
                }
              ],
              "internalType": "struct Client.EVMTokenAmount[]",
              "name": "destTokenAmounts",
              "type": "tuple[]"
            }
          ],
          "internalType": "struct Client.Any2EVMMessage",
          "name": "message",
          "type": "tuple"
        }
      ],
      "name": "ccipReceive",
      "outputs": [],
      "stateMutability": "nonpayable",
      "type": "function"
    },
    {
      "inputs": [
        {
          "internalType": "uint256",
          "name": "_loanId",
          "type": "uint256"
        }
      ],
      "name": "getLoanData",
      "outputs": [
        {
          "components": [
            {
              "internalType": "bytes32",
              "name": "lastReceivedMessageId",
              "type": "bytes32"
            },
            {
              "internalType": "bytes32",
              "name": "lastSentMessageId",
              "type": "bytes32"
            },
            {
              "internalType": "uint8",
              "name": "lastAction",
              "type": "uint8"
            },
            {
              "internalType": "bool",
              "name": "isSuccessful",
              "type": "bool"
            }
          ],
          "internalType": "struct IMessengerSepolia.LoanData",
          "name": "",
          "type": "tuple"
        }
      ],
      "stateMutability": "view",
      "type": "function"
    },
    {
      "inputs": [],
      "name": "getRouter",
      "outputs": [
        {
          "internalType": "address",
          "name": "",
          "type": "address"
        }
      ],
      "stateMutability": "view",
      "type": "function"
    },
    {
      "inputs": [
        {
          "internalType": "bytes32",
          "name": "",
          "type": "bytes32"
        }
      ],
      "name": "messageIdToText",
      "outputs": [
        {
          "internalType": "string",
          "name": "",
          "type": "string"
        }
      ],
      "stateMutability": "view",
      "type": "function"
    },
    {
      "inputs": [
        {
          "internalType": "uint64",
          "name": "_destinationChainSelector",
          "type": "uint64"
        },
        {
          "internalType": "address",
          "name": "_receiver",
          "type": "address"
        },
        {
          "components": [
            {
              "internalType": "uint256",
              "name": "loanId",
              "type": "uint256"
            },
            {
              "internalType": "uint256",
              "name": "collateralIdOrAmount",
              "type": "uint256"
            },
            {
              "internalType": "uint8",
              "name": "action",
              "type": "uint8"
            },
            {
              "internalType": "bool",
              "name": "collateralType",
              "type": "bool"
            },
            {
              "internalType": "address",
              "name": "collateralAddress",
              "type": "address"
            },
            {
              "internalType": "address",
              "name": "borrower",
              "type": "address"
            }
          ],
          "internalType": "struct IMessengerSepolia.Request",
          "name": "_collateralDepositRequest",
          "type": "tuple"
        }
      ],
      "name": "sendRequest",
      "outputs": [],
      "stateMutability": "nonpayable",
      "type": "function"
    },
    {
      "inputs": [
        {
          "internalType": "bytes4",
          "name": "interfaceId",
          "type": "bytes4"
        }
      ],
      "name": "supportsInterface",
      "outputs": [
        {
          "internalType": "bool",
          "name": "",
          "type": "bool"
        }
      ],
      "stateMutability": "pure",
      "type": "function"
    },
    {
      "inputs": [
        {
          "internalType": "address",
          "name": "_beneficiary",
          "type": "address"
        },
        {
          "internalType": "address",
          "name": "_token",
          "type": "address"
        }
      ],
      "name": "withdrawToken",
      "outputs": [],
      "stateMutability": "nonpayable",
      "type": "function"
    }
  ],
  "bytecode": "0x60e06040523480156200001157600080fd5b5060405162001b2d38038062001b2d8339810160408190526200003491620000b2565b826001600160a01b03811662000064576040516335fdcccd60e21b81526000600482015260240160405180910390fd5b6001600160a01b03908116608052600580546001600160a01b031916938216939093179092553360a0521660c0525062000106565b6001600160a01b0381168114620000af57600080fd5b50565b600080600060608486031215620000c857600080fd5b8351620000d58162000099565b6020850151909350620000e88162000099565b6040850151909250620000fb8162000099565b809150509250925092565b60805160a05160c0516119cd6200016060003960008181610326015281816103bb0152818161067b01528181610c1a0152610d0001526000818161027501526107890152600081816102d701526105fe01526119cd6000f3fe608060405234801561001057600080fd5b50600436106100f55760003560e01c80637a09106311610097578063bbbccef611610066578063bbbccef6146102fb578063db04fa491461030e578063e2fff82914610321578063eab5b02c1461034857600080fd5b80637a0910631461027057806385572ffb146102af57806396d3b83d146102c2578063b0f479a1146102d557600080fd5b80635917d7c1116100d35780635917d7c11461015a5780636159ada11461017a578063622fe39f1461019d57806375c67c661461024d57600080fd5b806301ffc9a7146100fa5780633aeac4e1146101225780634030d52114610137575b600080fd5b61010d6101083660046110c5565b61035b565b60405190151581526020015b60405180910390f35b61013561013036600461110b565b610392565b005b61010d610145366004611160565b60026020526000908152604090205460ff1681565b61016d61016836600461117b565b610559565b60405161011991906111e4565b61010d6101883660046111f7565b60036020526000908152604090205460ff1681565b6102156101ab36600461117b565b604080516080808201835260008083526020808401829052838501829052606093840182905294815260048552839020835191820184528054825260018101549482019490945260029093015460ff80821693850193909352610100900490911615159082015290565b6040516101199190815181526020808301519082015260408083015160ff169082015260609182015115159181019190915260800190565b61010d61025b366004611160565b60016020526000908152604090205460ff1681565b6102977f000000000000000000000000000000000000000000000000000000000000000081565b6040516001600160a01b039091168152602001610119565b6101356102bd366004611214565b6105f3565b6101356102d036600461125c565b610652565b7f0000000000000000000000000000000000000000000000000000000000000000610297565b610135610309366004611288565b610738565b61013561031c36600461125c565b610bf1565b6102977f000000000000000000000000000000000000000000000000000000000000000081565b6101356103563660046112da565b610cd7565b60006001600160e01b031982166385572ffb60e01b148061038c57506001600160e01b031982166301ffc9a760e01b145b92915050565b604051632474521560e21b815260008051602061197883398151915260048201523360248201527f00000000000000000000000000000000000000000000000000000000000000006001600160a01b0316906391d1485490604401602060405180830381865afa15801561040a573d6000803e3d6000fd5b505050506040513d601f19601f8201168201806040525081019061042e91906112f8565b61045257604051630d175fff60e31b81523360048201526024015b60405180910390fd5b6040516370a0823160e01b81523060048201526000906001600160a01b038316906370a0823190602401602060405180830381865afa158015610499573d6000803e3d6000fd5b505050506040513d601f19601f820116820180604052508101906104bd9190611315565b9050806000036104e057604051630686827b60e51b815260040160405180910390fd5b60405163a9059cbb60e01b81526001600160a01b0384811660048301526024820183905283169063a9059cbb906044016020604051808303816000875af115801561052f573d6000803e3d6000fd5b505050506040513d601f19601f8201168201806040525081019061055391906112f8565b50505050565b600060208190529081526040902080546105729061132e565b80601f016020809104026020016040519081016040528092919081815260200182805461059e9061132e565b80156105eb5780601f106105c0576101008083540402835291602001916105eb565b820191906000526020600020905b8154815290600101906020018083116105ce57829003601f168201915b505050505081565b336001600160a01b037f0000000000000000000000000000000000000000000000000000000000000000161461063e576040516335fdcccd60e21b8152336004820152602401610449565b61064f61064a82611521565b610dbd565b50565b604051632474521560e21b815260008051602061197883398151915260048201523360248201527f00000000000000000000000000000000000000000000000000000000000000006001600160a01b0316906391d1485490604401602060405180830381865afa1580156106ca573d6000803e3d6000fd5b505050506040513d601f19601f820116820180604052508101906106ee91906112f8565b61070d57604051630d175fff60e31b8152336004820152602401610449565b6001600160401b03919091166000908152600160205260409020805460ff1916911515919091179055565b6001600160401b038316600090815260016020526040902054839060ff1661077e57604051630a503cdb60e01b81526001600160401b0382166004820152602401610449565b336001600160a01b037f000000000000000000000000000000000000000000000000000000000000000016146107c95760405163effcd4cf60e01b8152336004820152602401610449565b6000826040516020016107dc91906115dc565b60408051601f1981840301815291905260055490915060009061080b90869084906001600160a01b0316610fa1565b90506000306001600160a01b031663b0f479a16040518163ffffffff1660e01b8152600401602060405180830381865afa15801561084d573d6000803e3d6000fd5b505050506040513d601f19601f820116820180604052508101906108719190611656565b90506000816001600160a01b03166320487ded89856040518363ffffffff1660e01b81526004016108a3929190611673565b602060405180830381865afa1580156108c0573d6000803e3d6000fd5b505050506040513d601f19601f820116820180604052508101906108e49190611315565b6005546040516370a0823160e01b81523060048201529192506001600160a01b0316906370a0823190602401602060405180830381865afa15801561092d573d6000803e3d6000fd5b505050506040513d601f19601f820116820180604052508101906109519190611315565b8111156109e8576005546040516370a0823160e01b81523060048201526001600160a01b03909116906370a0823190602401602060405180830381865afa1580156109a0573d6000803e3d6000fd5b505050506040513d601f19601f820116820180604052508101906109c49190611315565b604051634787a10360e11b8152600481019190915260248101829052604401610449565b60055460405163095ea7b360e01b81526001600160a01b038481166004830152602482018490529091169063095ea7b3906044016020604051808303816000875af1158015610a3b573d6000803e3d6000fd5b505050506040513d601f19601f82011682018060405250810190610a5f91906112f8565b506040516396f4e9f960e01b81526000906001600160a01b038416906396f4e9f990610a91908c908890600401611673565b6020604051808303816000875af1158015610ab0573d6000803e3d6000fd5b505050506040513d601f19601f82011682018060405250810190610ad49190611315565b873560009081526004602052604090819020600101829055909150610aff906060890190890161174f565b8735600081815260046020908152604091829020600201805460ff191660ff9590951694909417909355909183917f2cc2a7651489ecbeeebe0862149ef3451d4001679efe808f5c8b7e4f1d6e0584918b0135908d90610b659060608e01908e0161174f565b610b7560808e0160608f0161176c565b8d6080016020810190610b8891906111f7565b8e60a0016020810190610b9b91906111f7565b604080519687526001600160401b03909516602087015260ff90931693850193909352151560608401526001600160a01b0391821660808401521660a082015260c00160405180910390a3505050505050505050565b604051632474521560e21b815260008051602061197883398151915260048201523360248201527f00000000000000000000000000000000000000000000000000000000000000006001600160a01b0316906391d1485490604401602060405180830381865afa158015610c69573d6000803e3d6000fd5b505050506040513d601f19601f82011682018060405250810190610c8d91906112f8565b610cac57604051630d175fff60e31b8152336004820152602401610449565b6001600160401b03919091166000908152600260205260409020805460ff1916911515919091179055565b604051632474521560e21b815260008051602061197883398151915260048201523360248201527f00000000000000000000000000000000000000000000000000000000000000006001600160a01b0316906391d1485490604401602060405180830381865afa158015610d4f573d6000803e3d6000fd5b505050506040513d601f19601f82011682018060405250810190610d7391906112f8565b610d9257604051630d175fff60e31b8152336004820152602401610449565b6001600160a01b03919091166000908152600360205260409020805460ff1916911515919091179055565b80602001518160400151806020019051810190610dda9190611656565b6001600160401b03821660009081526002602052604090205460ff16610e1e576040516326bfad9160e21b81526001600160401b0383166004820152602401610449565b6001600160a01b03811660009081526003602052604090205460ff16610e62576040516338c08ef960e11b81526001600160a01b0382166004820152602401610449565b60008360600151806020019051810190610e7c9190611789565b60408181015182516000908152600460209081528382206002908101805461ff00191661010095151595909502949094179093558085015185518352848320909301805460ff191660ff909416939093179092558751845182529290209190915560608601518051929350610ef6928101820191016117f1565b8451600090815260208190526040902090610f1190826118b8565b5083602001516001600160401b031684600001517f7e5507e9a8d7f61eafce00d842e19dbd90aca18232c89ca598779e2aabca768c8660400151806020019051810190610f5e9190611656565b845160208087015160408089015181516001600160a01b039690961686529285019390935260ff168383015215156060830152519081900360800190a350505050565b610fdc6040518060a0016040528060608152602001606081526020016060815260200160006001600160a01b03168152602001606081525090565b6040805160a081019091526001600160a01b03851660c08201528060e0810160408051808303601f190181529181529082526020808301879052815160008082529181018352929091019190611054565b604080518082019091526000808252602082015281526020019060019003908161102d5790505b508152602001836001600160a01b031681526020016110bb604051806020016040528062030d4081525060408051915160248084019190915281518084039091018152604490920190526020810180516001600160e01b03166397a657c960e01b17905290565b9052949350505050565b6000602082840312156110d757600080fd5b81356001600160e01b0319811681146110ef57600080fd5b9392505050565b6001600160a01b038116811461064f57600080fd5b6000806040838503121561111e57600080fd5b8235611129816110f6565b91506020830135611139816110f6565b809150509250929050565b80356001600160401b038116811461115b57600080fd5b919050565b60006020828403121561117257600080fd5b6110ef82611144565b60006020828403121561118d57600080fd5b5035919050565b60005b838110156111af578181015183820152602001611197565b50506000910152565b600081518084526111d0816020860160208601611194565b601f01601f19169290920160200192915050565b6020815260006110ef60208301846111b8565b60006020828403121561120957600080fd5b81356110ef816110f6565b60006020828403121561122657600080fd5b81356001600160401b0381111561123c57600080fd5b820160a081850312156110ef57600080fd5b801515811461064f57600080fd5b6000806040838503121561126f57600080fd5b61127883611144565b915060208301356111398161124e565b600080600083850361010081121561129f57600080fd5b6112a885611144565b935060208501356112b8816110f6565b925060c0603f19820112156112cc57600080fd5b506040840190509250925092565b600080604083850312156112ed57600080fd5b8235611278816110f6565b60006020828403121561130a57600080fd5b81516110ef8161124e565b60006020828403121561132757600080fd5b5051919050565b600181811c9082168061134257607f821691505b60208210810361136257634e487b7160e01b600052602260045260246000fd5b50919050565b634e487b7160e01b600052604160045260246000fd5b604080519081016001600160401b03811182821017156113a0576113a0611368565b60405290565b60405160a081016001600160401b03811182821017156113a0576113a0611368565b604051601f8201601f191681016001600160401b03811182821017156113f0576113f0611368565b604052919050565b60006001600160401b0382111561141157611411611368565b50601f01601f191660200190565b600082601f83011261143057600080fd5b813561144361143e826113f8565b6113c8565b81815284602083860101111561145857600080fd5b816020850160208301376000918101602001919091529392505050565b600082601f83011261148657600080fd5b813560206001600160401b038211156114a1576114a1611368565b6114af818360051b016113c8565b82815260069290921b840181019181810190868411156114ce57600080fd5b8286015b8481101561151657604081890312156114eb5760008081fd5b6114f361137e565b81356114fe816110f6565b815281850135858201528352918301916040016114d2565b509695505050505050565b600060a0823603121561153357600080fd5b61153b6113a6565b8235815261154b60208401611144565b602082015260408301356001600160401b038082111561156a57600080fd5b6115763683870161141f565b6040840152606085013591508082111561158f57600080fd5b61159b3683870161141f565b606084015260808501359150808211156115b457600080fd5b506115c136828601611475565b60808301525092915050565b60ff8116811461064f57600080fd5b813581526020808301359082015260c0810160408301356115fc816115cd565b60ff16604083015260608301356116128161124e565b151560608301526080830135611627816110f6565b6001600160a01b03908116608084015260a084013590611646826110f6565b80821660a0850152505092915050565b60006020828403121561166857600080fd5b81516110ef816110f6565b600060406001600160401b03851683526020604081850152845160a060408601526116a160e08601826111b8565b905081860151603f19808784030160608801526116be83836111b8565b6040890151888203830160808a01528051808352908601945060009350908501905b8084101561171257845180516001600160a01b03168352860151868301529385019360019390930192908601906116e0565b5060608901516001600160a01b031660a08901526080890151888203830160c08a0152955061174181876111b8565b9a9950505050505050505050565b60006020828403121561176157600080fd5b81356110ef816115cd565b60006020828403121561177e57600080fd5b81356110ef8161124e565b60006060828403121561179b57600080fd5b604051606081018181106001600160401b03821117156117bd576117bd611368565b6040528251815260208301516117d2816115cd565b602082015260408301516117e58161124e565b60408201529392505050565b60006020828403121561180357600080fd5b81516001600160401b0381111561181957600080fd5b8201601f8101841361182a57600080fd5b805161183861143e826113f8565b81815285602083850101111561184d57600080fd5b61185e826020830160208601611194565b95945050505050565b601f8211156118b3576000816000526020600020601f850160051c810160208610156118905750805b601f850160051c820191505b818110156118af5782815560010161189c565b5050505b505050565b81516001600160401b038111156118d1576118d1611368565b6118e5816118df845461132e565b84611867565b602080601f83116001811461191a57600084156119025750858301515b600019600386901b1c1916600185901b1785556118af565b600085815260208120601f198616915b828110156119495788860151825594840194600190910190840161192a565b50858210156119675787850151600019600388901b60f8161c191681555b5050505050600190811b0190555056feb19546dff01e856fb3f010c267a7b1c60363cf8a4664e21cc89c26224620214ea26469706673582212203896ca952670dcced1d98aecd061654968e6a3a8543a7d16e92783748abcac7a64736f6c63430008170033",
  "linkReferences": {},
  "deployedLinkReferences": {}
}