{
  "_format": "hh-sol-artifact-1",
  "contractName": "GhoSafeAccessManagerSepolia",
  "sourceName": "contracts/Sepolia/protocol/GhoSafeAccessManagerSepolia.sol",
  "abi": [
    {
      "inputs": [],
      "stateMutability": "nonpayable",
      "type": "constructor"
    },
    {
      "inputs": [],
      "name": "AccessControlBadConfirmation",
      "type": "error"
    },
    {
      "inputs": [
        {
          "internalType": "uint48",
          "name": "schedule",
          "type": "uint48"
        }
      ],
      "name": "AccessControlEnforcedDefaultAdminDelay",
      "type": "error"
    },
    {
      "inputs": [],
      "name": "AccessControlEnforcedDefaultAdminRules",
      "type": "error"
    },
    {
      "inputs": [
        {
          "internalType": "address",
          "name": "defaultAdmin",
          "type": "address"
        }
      ],
      "name": "AccessControlInvalidDefaultAdmin",
      "type": "error"
    },
    {
      "inputs": [
        {
          "internalType": "address",
          "name": "account",
          "type": "address"
        },
        {
          "internalType": "bytes32",
          "name": "neededRole",
          "type": "bytes32"
        }
      ],
      "name": "AccessControlUnauthorizedAccount",
      "type": "error"
    },
    {
      "inputs": [
        {
          "internalType": "uint8",
          "name": "bits",
          "type": "uint8"
        },
        {
          "internalType": "uint256",
          "name": "value",
          "type": "uint256"
        }
      ],
      "name": "SafeCastOverflowedUintDowncast",
      "type": "error"
    },
    {
      "anonymous": false,
      "inputs": [],
      "name": "DefaultAdminDelayChangeCanceled",
      "type": "event"
    },
    {
      "anonymous": false,
      "inputs": [
        {
          "indexed": false,
          "internalType": "uint48",
          "name": "newDelay",
          "type": "uint48"
        },
        {
          "indexed": false,
          "internalType": "uint48",
          "name": "effectSchedule",
          "type": "uint48"
        }
      ],
      "name": "DefaultAdminDelayChangeScheduled",
      "type": "event"
    },
    {
      "anonymous": false,
      "inputs": [],
      "name": "DefaultAdminTransferCanceled",
      "type": "event"
    },
    {
      "anonymous": false,
      "inputs": [
        {
          "indexed": true,
          "internalType": "address",
          "name": "newAdmin",
          "type": "address"
        },
        {
          "indexed": false,
          "internalType": "uint48",
          "name": "acceptSchedule",
          "type": "uint48"
        }
      ],
      "name": "DefaultAdminTransferScheduled",
      "type": "event"
    },
    {
      "anonymous": false,
      "inputs": [
        {
          "indexed": true,
          "internalType": "bytes32",
          "name": "role",
          "type": "bytes32"
        },
        {
          "indexed": true,
          "internalType": "bytes32",
          "name": "previousAdminRole",
          "type": "bytes32"
        },
        {
          "indexed": true,
          "internalType": "bytes32",
          "name": "newAdminRole",
          "type": "bytes32"
        }
      ],
      "name": "RoleAdminChanged",
      "type": "event"
    },
    {
      "anonymous": false,
      "inputs": [
        {
          "indexed": true,
          "internalType": "bytes32",
          "name": "role",
          "type": "bytes32"
        },
        {
          "indexed": true,
          "internalType": "address",
          "name": "account",
          "type": "address"
        },
        {
          "indexed": true,
          "internalType": "address",
          "name": "sender",
          "type": "address"
        }
      ],
      "name": "RoleGranted",
      "type": "event"
    },
    {
      "anonymous": false,
      "inputs": [
        {
          "indexed": true,
          "internalType": "bytes32",
          "name": "role",
          "type": "bytes32"
        },
        {
          "indexed": true,
          "internalType": "address",
          "name": "account",
          "type": "address"
        },
        {
          "indexed": true,
          "internalType": "address",
          "name": "sender",
          "type": "address"
        }
      ],
      "name": "RoleRevoked",
      "type": "event"
    },
    {
      "inputs": [],
      "name": "ADMIN_ROLE",
      "outputs": [
        {
          "internalType": "bytes32",
          "name": "",
          "type": "bytes32"
        }
      ],
      "stateMutability": "view",
      "type": "function"
    },
    {
      "inputs": [],
      "name": "CREDIT_SCORE_OFFICER_ROLE",
      "outputs": [
        {
          "internalType": "bytes32",
          "name": "",
          "type": "bytes32"
        }
      ],
      "stateMutability": "view",
      "type": "function"
    },
    {
      "inputs": [],
      "name": "DEFAULT_ADMIN_ROLE",
      "outputs": [
        {
          "internalType": "bytes32",
          "name": "",
          "type": "bytes32"
        }
      ],
      "stateMutability": "view",
      "type": "function"
    },
    {
      "inputs": [],
      "name": "IS_WHITELISTED_ROLE",
      "outputs": [
        {
          "internalType": "bytes32",
          "name": "",
          "type": "bytes32"
        }
      ],
      "stateMutability": "view",
      "type": "function"
    },
    {
      "inputs": [],
      "name": "LOAN_PUBLISHER_ROLE",
      "outputs": [
        {
          "internalType": "bytes32",
          "name": "",
          "type": "bytes32"
        }
      ],
      "stateMutability": "view",
      "type": "function"
    },
    {
      "inputs": [],
      "name": "MINTER_ROLE",
      "outputs": [
        {
          "internalType": "bytes32",
          "name": "",
          "type": "bytes32"
        }
      ],
      "stateMutability": "view",
      "type": "function"
    },
    {
      "inputs": [],
      "name": "acceptDefaultAdminTransfer",
      "outputs": [],
      "stateMutability": "nonpayable",
      "type": "function"
    },
    {
      "inputs": [
        {
          "internalType": "address",
          "name": "newAdmin",
          "type": "address"
        }
      ],
      "name": "beginDefaultAdminTransfer",
      "outputs": [],
      "stateMutability": "nonpayable",
      "type": "function"
    },
    {
      "inputs": [],
      "name": "cancelDefaultAdminTransfer",
      "outputs": [],
      "stateMutability": "nonpayable",
      "type": "function"
    },
    {
      "inputs": [
        {
          "internalType": "uint48",
          "name": "newDelay",
          "type": "uint48"
        }
      ],
      "name": "changeDefaultAdminDelay",
      "outputs": [],
      "stateMutability": "nonpayable",
      "type": "function"
    },
    {
      "inputs": [],
      "name": "defaultAdmin",
      "outputs": [
        {
          "internalType": "address",
          "name": "",
          "type": "address"
        }
      ],
      "stateMutability": "view",
      "type": "function"
    },
    {
      "inputs": [],
      "name": "defaultAdminDelay",
      "outputs": [
        {
          "internalType": "uint48",
          "name": "",
          "type": "uint48"
        }
      ],
      "stateMutability": "view",
      "type": "function"
    },
    {
      "inputs": [],
      "name": "defaultAdminDelayIncreaseWait",
      "outputs": [
        {
          "internalType": "uint48",
          "name": "",
          "type": "uint48"
        }
      ],
      "stateMutability": "view",
      "type": "function"
    },
    {
      "inputs": [
        {
          "internalType": "bytes32",
          "name": "role",
          "type": "bytes32"
        }
      ],
      "name": "getRoleAdmin",
      "outputs": [
        {
          "internalType": "bytes32",
          "name": "",
          "type": "bytes32"
        }
      ],
      "stateMutability": "view",
      "type": "function"
    },
    {
      "inputs": [
        {
          "internalType": "bytes32",
          "name": "role",
          "type": "bytes32"
        },
        {
          "internalType": "address",
          "name": "account",
          "type": "address"
        }
      ],
      "name": "grantRole",
      "outputs": [],
      "stateMutability": "nonpayable",
      "type": "function"
    },
    {
      "inputs": [
        {
          "internalType": "bytes32",
          "name": "role",
          "type": "bytes32"
        },
        {
          "internalType": "address",
          "name": "account",
          "type": "address"
        }
      ],
      "name": "hasRole",
      "outputs": [
        {
          "internalType": "bool",
          "name": "",
          "type": "bool"
        }
      ],
      "stateMutability": "view",
      "type": "function"
    },
    {
      "inputs": [],
      "name": "owner",
      "outputs": [
        {
          "internalType": "address",
          "name": "",
          "type": "address"
        }
      ],
      "stateMutability": "view",
      "type": "function"
    },
    {
      "inputs": [],
      "name": "pendingDefaultAdmin",
      "outputs": [
        {
          "internalType": "address",
          "name": "newAdmin",
          "type": "address"
        },
        {
          "internalType": "uint48",
          "name": "schedule",
          "type": "uint48"
        }
      ],
      "stateMutability": "view",
      "type": "function"
    },
    {
      "inputs": [],
      "name": "pendingDefaultAdminDelay",
      "outputs": [
        {
          "internalType": "uint48",
          "name": "newDelay",
          "type": "uint48"
        },
        {
          "internalType": "uint48",
          "name": "schedule",
          "type": "uint48"
        }
      ],
      "stateMutability": "view",
      "type": "function"
    },
    {
      "inputs": [
        {
          "internalType": "bytes32",
          "name": "role",
          "type": "bytes32"
        },
        {
          "internalType": "address",
          "name": "account",
          "type": "address"
        }
      ],
      "name": "renounceRole",
      "outputs": [],
      "stateMutability": "nonpayable",
      "type": "function"
    },
    {
      "inputs": [
        {
          "internalType": "bytes32",
          "name": "role",
          "type": "bytes32"
        },
        {
          "internalType": "address",
          "name": "account",
          "type": "address"
        }
      ],
      "name": "revokeRole",
      "outputs": [],
      "stateMutability": "nonpayable",
      "type": "function"
    },
    {
      "inputs": [],
      "name": "rollbackDefaultAdminDelay",
      "outputs": [],
      "stateMutability": "nonpayable",
      "type": "function"
    },
    {
      "inputs": [
        {
          "internalType": "bytes4",
          "name": "interfaceId",
          "type": "bytes4"
        }
      ],
      "name": "supportsInterface",
      "outputs": [
        {
          "internalType": "bool",
          "name": "",
          "type": "bool"
        }
      ],
      "stateMutability": "view",
      "type": "function"
    }
  ],
  "bytecode": "0x608060405234801561001057600080fd5b506203f480338061003b57604051636116401160e11b81526000600482015260240160405180910390fd5b600180546001600160d01b0316600160d01b65ffffffffffff85160217905561006560008261006d565b505050610188565b6000826100cb5760006100886002546001600160a01b031690565b6001600160a01b0316146100af57604051631fe1e13d60e11b815260040160405180910390fd5b600280546001600160a01b0319166001600160a01b0384161790555b6100d583836100de565b90505b92915050565b6000828152602081815260408083206001600160a01b038516845290915281205460ff16610180576000838152602081815260408083206001600160a01b03861684529091529020805460ff191660011790556101383390565b6001600160a01b0316826001600160a01b0316847f2f8788117e7eff1d82e926ec794901d17c78024a50270940304540a733656f0d60405160405180910390a45060016100d8565b5060006100d8565b610dea806101976000396000f3fe608060405234801561001057600080fd5b506004361061014d5760003560e01c806384ef8ffc116100c3578063cc8463c81161007c578063cc8463c814610328578063cefc142914610330578063cf6eefb714610338578063d539139314610366578063d547741f1461038d578063d602b9fd146103a057600080fd5b806384ef8ffc146102925780638da5cb5b146102b757806391d14854146102bf57806395a525e8146102d2578063a1eda53c146102f9578063a217fddf1461032057600080fd5b80632f2ff15d116101155780632f2ff15d146101f857806336568abe1461020b5780636259ac721461021e578063634e93da14610245578063649a5ec71461025857806375b238fc1461026b57600080fd5b806301ffc9a714610152578063022d63fb1461017a57806302da7484146101965780630aa6220b146101cb578063248a9ca3146101d5575b600080fd5b610165610160366004610c8b565b6103a8565b60405190151581526020015b60405180910390f35b620697805b60405165ffffffffffff9091168152602001610171565b6101bd7f39c77d9939c25ecc449153d5a0f9430fc2a42f6c32ef28b87fb6b1118277197381565b604051908152602001610171565b6101d36103d3565b005b6101bd6101e3366004610cb5565b60009081526020819052604090206001015490565b6101d3610206366004610cea565b6103e9565b6101d3610219366004610cea565b610415565b6101bd7fcf2cb2eec3f039a92b3a949b6ee562343e7d67b0defbf0e3be7aee3c27e5a94681565b6101d3610253366004610d16565b6104c1565b6101d3610266366004610d31565b6104d5565b6101bd7fa49807205ce4d355092ef5a8a18f56e8913cf4a201fbe287825b095693c2177581565b6002546001600160a01b03165b6040516001600160a01b039091168152602001610171565b61029f6104e9565b6101656102cd366004610cea565b610502565b6101bd7fad68326f8888db4a16a1a0e2398b724e80fab86f81bd4f24970ba52a88642f1081565b61030161052b565b6040805165ffffffffffff938416815292909116602083015201610171565b6101bd600081565b61017f61057f565b6101d36105de565b61034061061e565b604080516001600160a01b03909316835265ffffffffffff909116602083015201610171565b6101bd7f9f2df0fed2c77648de5860a4cc508cd0818c85b8b8a1ab4ceeef8d981c8956a681565b6101d361039b366004610cea565b61063f565b6101d3610667565b60006001600160e01b031982166318a4c3c360e11b14806103cd57506103cd8261067a565b92915050565b60006103de816106af565b6103e66106b9565b50565b8161040757604051631fe1e13d60e11b815260040160405180910390fd5b61041182826106c6565b5050565b8115801561043057506002546001600160a01b038281169116145b156104b75760008061044061061e565b90925090506001600160a01b038216151580610462575065ffffffffffff8116155b8061047557504265ffffffffffff821610155b156104a2576040516319ca5ebb60e01b815265ffffffffffff821660048201526024015b60405180910390fd5b50506001805465ffffffffffff60a01b191690555b61041182826106f1565b60006104cc816106af565b61041182610729565b60006104e0816106af565b6104118261079c565b60006104fd6002546001600160a01b031690565b905090565b6000918252602082815260408084206001600160a01b0393909316845291905290205460ff1690565b600254600090600160d01b900465ffffffffffff16801515801561055757504265ffffffffffff821610155b61056357600080610577565b600254600160a01b900465ffffffffffff16815b915091509091565b600254600090600160d01b900465ffffffffffff1680151580156105aa57504265ffffffffffff8216105b6105c557600154600160d01b900465ffffffffffff166105d8565b600254600160a01b900465ffffffffffff165b91505090565b60006105e861061e565b509050336001600160a01b0382161461061657604051636116401160e11b8152336004820152602401610499565b6103e661080c565b6001546001600160a01b03811691600160a01b90910465ffffffffffff1690565b8161065d57604051631fe1e13d60e11b815260040160405180910390fd5b61041182826108a5565b6000610672816106af565b6103e66108ca565b60006001600160e01b03198216637965db0b60e01b14806103cd57506301ffc9a760e01b6001600160e01b03198316146103cd565b6103e681336108d5565b6106c460008061090e565b565b6000828152602081905260409020600101546106e1816106af565b6106eb83836109ce565b50505050565b6001600160a01b038116331461071a5760405163334bd91960e11b815260040160405180910390fd5b6107248282610a3d565b505050565b600061073361057f565b61073c42610a7a565b6107469190610d6f565b90506107528282610ab1565b60405165ffffffffffff821681526001600160a01b038316907f3377dc44241e779dd06afab5b788a35ca5f3b778836e2990bdb26a2a4b2e5ed69060200160405180910390a25050565b60006107a782610b30565b6107b042610a7a565b6107ba9190610d6f565b90506107c6828261090e565b6040805165ffffffffffff8085168252831660208201527ff1038c18cf84a56e432fdbfaf746924b7ea511dfe03a6506a0ceba4888788d9b910160405180910390a15050565b60008061081761061e565b9150915061082c8165ffffffffffff16151590565b158061084057504265ffffffffffff821610155b15610868576040516319ca5ebb60e01b815265ffffffffffff82166004820152602401610499565b610884600061087f6002546001600160a01b031690565b610a3d565b506108906000836109ce565b5050600180546001600160d01b031916905550565b6000828152602081905260409020600101546108c0816106af565b6106eb8383610a3d565b6106c4600080610ab1565b6108df8282610502565b6104115760405163e2517d3f60e01b81526001600160a01b038216600482015260248101839052604401610499565b600254600160d01b900465ffffffffffff168015610991574265ffffffffffff8216101561096757600254600180546001600160d01b0316600160a01b90920465ffffffffffff16600160d01b02919091179055610991565b6040517f2b1fa2edafe6f7b9e97c1a9e0c3660e645beb2dcaa2d45bdbf9beaf5472e1ec590600090a15b50600280546001600160a01b0316600160a01b65ffffffffffff948516026001600160d01b031617600160d01b9290931691909102919091179055565b600082610a2c5760006109e96002546001600160a01b031690565b6001600160a01b031614610a1057604051631fe1e13d60e11b815260040160405180910390fd5b600280546001600160a01b0319166001600160a01b0384161790555b610a368383610b78565b9392505050565b600082158015610a5a57506002546001600160a01b038381169116145b15610a7057600280546001600160a01b03191690555b610a368383610c0a565b600065ffffffffffff821115610aad576040516306dfcc6560e41b81526030600482015260248101839052604401610499565b5090565b6000610abb61061e565b6001805465ffffffffffff8616600160a01b026001600160d01b03199091166001600160a01b038816171790559150610afd90508165ffffffffffff16151590565b15610724576040517f8886ebfc4259abdbc16601dd8fb5678e54878f47b3c34836cfc51154a960510990600090a1505050565b600080610b3b61057f565b90508065ffffffffffff168365ffffffffffff1611610b6357610b5e8382610d95565b610a36565b610a3665ffffffffffff841662069780610c75565b6000610b848383610502565b610c02576000838152602081815260408083206001600160a01b03861684529091529020805460ff19166001179055610bba3390565b6001600160a01b0316826001600160a01b0316847f2f8788117e7eff1d82e926ec794901d17c78024a50270940304540a733656f0d60405160405180910390a45060016103cd565b5060006103cd565b6000610c168383610502565b15610c02576000838152602081815260408083206001600160a01b0386168085529252808320805460ff1916905551339286917ff6391f5c32d9c69d2a47ea670b442974b53935d1edc7fd64eb21e047a839171b9190a45060016103cd565b6000818310610c845781610a36565b5090919050565b600060208284031215610c9d57600080fd5b81356001600160e01b031981168114610a3657600080fd5b600060208284031215610cc757600080fd5b5035919050565b80356001600160a01b0381168114610ce557600080fd5b919050565b60008060408385031215610cfd57600080fd5b82359150610d0d60208401610cce565b90509250929050565b600060208284031215610d2857600080fd5b610a3682610cce565b600060208284031215610d4357600080fd5b813565ffffffffffff81168114610a3657600080fd5b634e487b7160e01b600052601160045260246000fd5b65ffffffffffff818116838216019080821115610d8e57610d8e610d59565b5092915050565b65ffffffffffff828116828216039080821115610d8e57610d8e610d5956fea26469706673582212206f0fe0c80680dabd80fe23187230d858dc0ebb14919526045e3857366b486fc364736f6c63430008170033",
  "linkReferences": {},
  "deployedLinkReferences": {}
}