{
  "_format": "hh-sol-artifact-1",
  "contractName": "GhoSafeIDSepolia",
  "sourceName": "contracts/Sepolia/protocol/GhoSafeIDSepolia.sol",
  "abi": [
    {
      "inputs": [
        {
          "internalType": "string",
          "name": "_name",
          "type": "string"
        },
        {
          "internalType": "string",
          "name": "_symbol",
          "type": "string"
        },
        {
          "internalType": "contract IGhoSafeAccessManagerSepolia",
          "name": "_accessManager",
          "type": "address"
        }
      ],
      "stateMutability": "nonpayable",
      "type": "constructor"
    },
    {
      "inputs": [
        {
          "internalType": "address",
          "name": "owner",
          "type": "address"
        }
      ],
      "name": "GhoSafeIdAlreadyMinted",
      "type": "error"
    },
    {
      "inputs": [
        {
          "internalType": "uint256",
          "name": "expected",
          "type": "uint256"
        },
        {
          "internalType": "uint256",
          "name": "actual",
          "type": "uint256"
        }
      ],
      "name": "InvalidArgumentsLength",
      "type": "error"
    },
    {
      "inputs": [
        {
          "internalType": "uint256",
          "name": "tokenId",
          "type": "uint256"
        }
      ],
      "name": "TokenDoesNotExist",
      "type": "error"
    },
    {
      "inputs": [],
      "name": "TransferNotAllowed",
      "type": "error"
    },
    {
      "inputs": [
        {
          "internalType": "address",
          "name": "caller",
          "type": "address"
        }
      ],
      "name": "UnauthorizedAccess",
      "type": "error"
    },
    {
      "anonymous": false,
      "inputs": [
        {
          "indexed": true,
          "internalType": "uint256",
          "name": "tokenId",
          "type": "uint256"
        },
        {
          "indexed": false,
          "internalType": "uint256",
          "name": "creditScore",
          "type": "uint256"
        }
      ],
      "name": "CreditScoreUpdated",
      "type": "event"
    },
    {
      "anonymous": false,
      "inputs": [
        {
          "indexed": true,
          "internalType": "uint256",
          "name": "tokenId",
          "type": "uint256"
        },
        {
          "indexed": true,
          "internalType": "address",
          "name": "owner",
          "type": "address"
        },
        {
          "indexed": false,
          "internalType": "uint256",
          "name": "creditScore",
          "type": "uint256"
        }
      ],
      "name": "GhoSafeIdMinted",
      "type": "event"
    },
    {
      "inputs": [
        {
          "internalType": "address",
          "name": "",
          "type": "address"
        },
        {
          "internalType": "uint256",
          "name": "",
          "type": "uint256"
        }
      ],
      "name": "approve",
      "outputs": [],
      "stateMutability": "pure",
      "type": "function"
    },
    {
      "inputs": [
        {
          "internalType": "address",
          "name": "_owner",
          "type": "address"
        }
      ],
      "name": "balanceOf",
      "outputs": [
        {
          "internalType": "uint256",
          "name": "balance",
          "type": "uint256"
        }
      ],
      "stateMutability": "view",
      "type": "function"
    },
    {
      "inputs": [
        {
          "internalType": "address[]",
          "name": "_to",
          "type": "address[]"
        },
        {
          "internalType": "uint256[]",
          "name": "_initialCreditScore",
          "type": "uint256[]"
        },
        {
          "internalType": "bytes[]",
          "name": "_tokenURI",
          "type": "bytes[]"
        }
      ],
      "name": "batchSafeMin",
      "outputs": [],
      "stateMutability": "nonpayable",
      "type": "function"
    },
    {
      "inputs": [
        {
          "internalType": "uint256",
          "name": "_tokenId",
          "type": "uint256"
        }
      ],
      "name": "creditScoreDataOf",
      "outputs": [
        {
          "components": [
            {
              "internalType": "uint256",
              "name": "loansCount",
              "type": "uint256"
            },
            {
              "internalType": "uint256",
              "name": "totalAmountBorrowed",
              "type": "uint256"
            },
            {
              "internalType": "uint256",
              "name": "totalAmountRepaid",
              "type": "uint256"
            },
            {
              "internalType": "uint256",
              "name": "creditScore",
              "type": "uint256"
            }
          ],
          "internalType": "struct IGhoSafeIDSepolia.CreditScoreData",
          "name": "creditScoreData",
          "type": "tuple"
        }
      ],
      "stateMutability": "view",
      "type": "function"
    },
    {
      "inputs": [
        {
          "internalType": "address",
          "name": "_owner",
          "type": "address"
        }
      ],
      "name": "ghoSafeIdOf",
      "outputs": [
        {
          "internalType": "uint256",
          "name": "tokenId",
          "type": "uint256"
        }
      ],
      "stateMutability": "view",
      "type": "function"
    },
    {
      "inputs": [
        {
          "internalType": "address",
          "name": "",
          "type": "address"
        },
        {
          "internalType": "address",
          "name": "",
          "type": "address"
        }
      ],
      "name": "isApprovedForAll",
      "outputs": [
        {
          "internalType": "bool",
          "name": "isApproved",
          "type": "bool"
        }
      ],
      "stateMutability": "pure",
      "type": "function"
    },
    {
      "inputs": [],
      "name": "name",
      "outputs": [
        {
          "internalType": "string",
          "name": "",
          "type": "string"
        }
      ],
      "stateMutability": "view",
      "type": "function"
    },
    {
      "inputs": [
        {
          "internalType": "uint256",
          "name": "_tokenId",
          "type": "uint256"
        }
      ],
      "name": "ownerOf",
      "outputs": [
        {
          "internalType": "address",
          "name": "owner",
          "type": "address"
        }
      ],
      "stateMutability": "view",
      "type": "function"
    },
    {
      "inputs": [
        {
          "internalType": "address",
          "name": "_to",
          "type": "address"
        },
        {
          "internalType": "uint256",
          "name": "_initialCreditScore",
          "type": "uint256"
        },
        {
          "internalType": "bytes",
          "name": "_tokenURI",
          "type": "bytes"
        }
      ],
      "name": "safeMint",
      "outputs": [],
      "stateMutability": "nonpayable",
      "type": "function"
    },
    {
      "inputs": [
        {
          "internalType": "address",
          "name": "",
          "type": "address"
        },
        {
          "internalType": "address",
          "name": "",
          "type": "address"
        },
        {
          "internalType": "uint256",
          "name": "",
          "type": "uint256"
        }
      ],
      "name": "safeTransferFrom",
      "outputs": [],
      "stateMutability": "pure",
      "type": "function"
    },
    {
      "inputs": [
        {
          "internalType": "address",
          "name": "",
          "type": "address"
        },
        {
          "internalType": "address",
          "name": "",
          "type": "address"
        },
        {
          "internalType": "uint256",
          "name": "",
          "type": "uint256"
        },
        {
          "internalType": "bytes",
          "name": "",
          "type": "bytes"
        }
      ],
      "name": "safeTransferFrom",
      "outputs": [],
      "stateMutability": "pure",
      "type": "function"
    },
    {
      "inputs": [
        {
          "internalType": "address",
          "name": "",
          "type": "address"
        },
        {
          "internalType": "bool",
          "name": "",
          "type": "bool"
        }
      ],
      "name": "setApprovalForAll",
      "outputs": [],
      "stateMutability": "pure",
      "type": "function"
    },
    {
      "inputs": [
        {
          "internalType": "bytes4",
          "name": "_interfaceId",
          "type": "bytes4"
        }
      ],
      "name": "supportsInterface",
      "outputs": [
        {
          "internalType": "bool",
          "name": "isSupported",
          "type": "bool"
        }
      ],
      "stateMutability": "view",
      "type": "function"
    },
    {
      "inputs": [],
      "name": "symbol",
      "outputs": [
        {
          "internalType": "string",
          "name": "",
          "type": "string"
        }
      ],
      "stateMutability": "view",
      "type": "function"
    },
    {
      "inputs": [
        {
          "internalType": "uint256",
          "name": "_tokenId",
          "type": "uint256"
        }
      ],
      "name": "tokenURI",
      "outputs": [
        {
          "internalType": "string",
          "name": "",
          "type": "string"
        }
      ],
      "stateMutability": "view",
      "type": "function"
    },
    {
      "inputs": [
        {
          "internalType": "address",
          "name": "",
          "type": "address"
        },
        {
          "internalType": "address",
          "name": "",
          "type": "address"
        },
        {
          "internalType": "uint256",
          "name": "",
          "type": "uint256"
        }
      ],
      "name": "transferFrom",
      "outputs": [],
      "stateMutability": "pure",
      "type": "function"
    },
    {
      "inputs": [
        {
          "internalType": "uint256",
          "name": "_tokenId",
          "type": "uint256"
        },
        {
          "internalType": "uint256",
          "name": "_newCreditScore",
          "type": "uint256"
        },
        {
          "internalType": "uint256",
          "name": "_loansCountIncrement",
          "type": "uint256"
        },
        {
          "internalType": "uint256",
          "name": "_totalAmountBorrowedIncrement",
          "type": "uint256"
        },
        {
          "internalType": "uint256",
          "name": "_totalAmountRepaidIncrement",
          "type": "uint256"
        }
      ],
      "name": "updateCreditScore",
      "outputs": [],
      "stateMutability": "nonpayable",
      "type": "function"
    }
  ],
  "bytecode": "0x60a06040523480156200001157600080fd5b50604051620018d2380380620018d283398101604081905262000034916200012f565b60016200004284826200024d565b5060026200005183826200024d565b506001600160a01b031660805250620003199050565b634e487b7160e01b600052604160045260246000fd5b600082601f8301126200008f57600080fd5b81516001600160401b0380821115620000ac57620000ac62000067565b604051601f8301601f19908116603f01168101908282118183101715620000d757620000d762000067565b8160405283815260209250866020858801011115620000f557600080fd5b600091505b83821015620001195785820183015181830184015290820190620000fa565b6000602085830101528094505050505092915050565b6000806000606084860312156200014557600080fd5b83516001600160401b03808211156200015d57600080fd5b6200016b878388016200007d565b945060208601519150808211156200018257600080fd5b5062000191868287016200007d565b604086015190935090506001600160a01b0381168114620001b157600080fd5b809150509250925092565b600181811c90821680620001d157607f821691505b602082108103620001f257634e487b7160e01b600052602260045260246000fd5b50919050565b601f82111562000248576000816000526020600020601f850160051c81016020861015620002235750805b601f850160051c820191505b8181101562000244578281556001016200022f565b5050505b505050565b81516001600160401b0381111562000269576200026962000067565b62000281816200027a8454620001bc565b84620001f8565b602080601f831160018114620002b95760008415620002a05750858301515b600019600386901b1c1916600185901b17855562000244565b600085815260208120601f198616915b82811015620002ea57888601518255948401946001909101908401620002c9565b5085821015620003095787850151600019600388901b60f8161c191681555b5050505050600190811b01905550565b60805161158f620003436000396000818161049d0152818161063001526107fd015261158f6000f3fe608060405234801561001057600080fd5b506004361061010b5760003560e01c806384ad21a6116100a2578063a22cb46511610071578063a22cb46514610210578063a5d318dd1461021e578063b88d4fde14610264578063c87b56dd14610272578063e985e9c51461028557600080fd5b806384ad21a6146101cf5780638832e6e3146101e25780638b86f232146101f557806395d89b411461020857600080fd5b8063336abacf116100de578063336abacf1461017057806342842e0e146101625780636352211e1461019157806370a08231146101bc57600080fd5b806301ffc9a71461011057806306fdde0314610138578063095ea7b31461014d57806323b872dd14610162575b600080fd5b61012361011e366004610e45565b61029b565b60405190151581526020015b60405180910390f35b6101406102d2565b60405161012f9190610e9a565b61016061015b366004610ee4565b610360565b005b61016061015b366004610f0e565b61018361017e366004610f4a565b610379565b60405190815260200161012f565b6101a461019f366004610f65565b6103c0565b6040516001600160a01b03909116815260200161012f565b6101836101ca366004610f4a565b6103f9565b6101606101dd366004610f7e565b61042a565b6101606101f0366004610fb9565b6105f5565b61016061020336600461108c565b6107c2565b610140610b3b565b61016061015b366004611137565b61023161022c366004610f65565b610b48565b60405161012f91908151815260208083015190820152604080830151908201526060918201519181019190915260800190565b61016061015b366004611184565b610140610280366004610f65565b610bf0565b610123610293366004611260565b600092915050565b60006001600160e01b03198216635b5e139f60e01b14806102cc57506301ffc9a760e01b6001600160e01b03198316145b92915050565b600180546102df90611293565b80601f016020809104026020016040519081016040528092919081815260200182805461030b90611293565b80156103585780601f1061032d57610100808354040283529160200191610358565b820191906000526020600020905b81548152906001019060200180831161033b57829003601f168201915b505050505081565b604051638cd22d1960e01b815260040160405180910390fd5b6001600160a01b038116600090815260046020526040812054908190036103bb5760405163c927e5bf60e01b8152600481018290526024015b60405180910390fd5b919050565b6000818152600360205260409020546001600160a01b0316806103bb5760405163c927e5bf60e01b8152600481018390526024016103b2565b6001600160a01b0381166000908152600460205260408120541561041e576001610421565b60005b60ff1692915050565b6000858152600360205260409020546001600160a01b03166104625760405163c927e5bf60e01b8152600481018690526024016103b2565b604051632474521560e21b81527fad68326f8888db4a16a1a0e2398b724e80fab86f81bd4f24970ba52a88642f1060048201523360248201527f00000000000000000000000000000000000000000000000000000000000000006001600160a01b0316906391d1485490604401602060405180830381865afa1580156104ec573d6000803e3d6000fd5b505050506040513d601f19601f8201168201806040525081019061051091906112cd565b61052f57604051633733be5960e21b81523360048201526024016103b2565b6000858152600560205260408120805485929061054d908490611300565b909155505060008581526005602052604081206001018054849290610573908490611300565b909155505060008581526005602052604081206002018054839290610599908490611300565b9091555050600085815260056020526040908190206003018590555185907fa327d338bc836383f6e1e88c1cc3f2453f57da29acdb8c91f12c591be40e00d7906105e69087815260200190565b60405180910390a25050505050565b604051632474521560e21b81527f9f2df0fed2c77648de5860a4cc508cd0818c85b8b8a1ab4ceeef8d981c8956a660048201523360248201527f00000000000000000000000000000000000000000000000000000000000000006001600160a01b0316906391d1485490604401602060405180830381865afa15801561067f573d6000803e3d6000fd5b505050506040513d601f19601f820116820180604052508101906106a391906112cd565b6106c257604051633733be5960e21b81523360048201526024016103b2565b6001600160a01b0384166000908152600460205260409020541561070457604051638de42d4360e01b81526001600160a01b03851660048201526024016103b2565b6000806000815461071490611313565b9182905550600081815260036020818152604080842080546001600160a01b0319166001600160a01b038c169081179091558452600482528084208590558484526005825280842090920188905560069052902090915061077683858361137d565b50846001600160a01b0316817f4f97ad43bce70085fae73efc40e2b85ed4422da1b4084248689d52b0180db43c866040516107b391815260200190565b60405180910390a35050505050565b604051632474521560e21b81527f9f2df0fed2c77648de5860a4cc508cd0818c85b8b8a1ab4ceeef8d981c8956a660048201523360248201527f00000000000000000000000000000000000000000000000000000000000000006001600160a01b0316906391d1485490604401602060405180830381865afa15801561084c573d6000803e3d6000fd5b505050506040513d601f19601f8201168201806040525081019061087091906112cd565b61088f57604051633733be5960e21b81523360048201526024016103b2565b8483146108b9576040516337dffdad60e21b815260048101849052602481018690526044016103b2565b8481146108e3576040516337dffdad60e21b815260048101829052602481018690526044016103b2565b60005b85811015610b3257600460008888848181106109045761090461143e565b90506020020160208101906109199190610f4a565b6001600160a01b03168152602081019190915260400160002054156109845786868281811061094a5761094a61143e565b905060200201602081019061095f9190610f4a565b604051638de42d4360e01b81526001600160a01b0390911660048201526024016103b2565b6000806000815461099490611313565b918290555090508787838181106109ad576109ad61143e565b90506020020160208101906109c29190610f4a565b600082815260036020526040812080546001600160a01b0319166001600160a01b03939093169290921790915581906004908a8a86818110610a0657610a0661143e565b9050602002016020810190610a1b9190610f4a565b6001600160a01b03168152602081019190915260400160002055858583818110610a4757610a4761143e565b905060200201356005600083815260200190815260200160002060030181905550838383818110610a7a57610a7a61143e565b9050602002810190610a8c9190611454565b600083815260066020526040902091610aa691908361137d565b50878783818110610ab957610ab961143e565b9050602002016020810190610ace9190610f4a565b6001600160a01b0316817f4f97ad43bce70085fae73efc40e2b85ed4422da1b4084248689d52b0180db43c888886818110610b0b57610b0b61143e565b90506020020135604051610b2191815260200190565b60405180910390a3506001016108e6565b50505050505050565b600280546102df90611293565b610b736040518060800160405280600081526020016000815260200160008152602001600081525090565b6000828152600360205260409020546001600160a01b0316610bab5760405163c927e5bf60e01b8152600481018390526024016103b2565b50600090815260056020908152604091829020825160808101845281548152600182015492810192909252600281015492820192909252600390910154606082015290565b6000818152600360205260409020546060906001600160a01b0316610c2b5760405163c927e5bf60e01b8152600481018390526024016103b2565b60008281526006602052604090208054610ccc9190610c4990611293565b80601f0160208091040260200160405190810160405280929190818152602001828054610c7590611293565b8015610cc25780601f10610c9757610100808354040283529160200191610cc2565b820191906000526020600020905b815481529060010190602001808311610ca557829003601f168201915b5050505050610cf2565b604051602001610cdc919061149b565b6040516020818303038152906040529050919050565b60608151600003610d1157505060408051602081019091526000815290565b600060405180606001604052806040815260200161151a6040913990506000600384516002610d409190611300565b610d4a91906114e0565b610d55906004611502565b67ffffffffffffffff811115610d6d57610d6d61116e565b6040519080825280601f01601f191660200182016040528015610d97576020820181803683370190505b509050600182016020820185865187015b80821015610e03576003820191508151603f8160121c168501518453600184019350603f81600c1c168501518453600184019350603f8160061c168501518453600184019350603f8116850151845350600183019250610da8565b5050600386510660018114610e1f5760028114610e3257610e3a565b603d6001830353603d6002830353610e3a565b603d60018303535b509195945050505050565b600060208284031215610e5757600080fd5b81356001600160e01b031981168114610e6f57600080fd5b9392505050565b60005b83811015610e91578181015183820152602001610e79565b50506000910152565b6020815260008251806020840152610eb9816040850160208701610e76565b601f01601f19169190910160400192915050565b80356001600160a01b03811681146103bb57600080fd5b60008060408385031215610ef757600080fd5b610f0083610ecd565b946020939093013593505050565b600080600060608486031215610f2357600080fd5b610f2c84610ecd565b9250610f3a60208501610ecd565b9150604084013590509250925092565b600060208284031215610f5c57600080fd5b610e6f82610ecd565b600060208284031215610f7757600080fd5b5035919050565b600080600080600060a08688031215610f9657600080fd5b505083359560208501359550604085013594606081013594506080013592509050565b60008060008060608587031215610fcf57600080fd5b610fd885610ecd565b935060208501359250604085013567ffffffffffffffff80821115610ffc57600080fd5b818701915087601f83011261101057600080fd5b81358181111561101f57600080fd5b88602082850101111561103157600080fd5b95989497505060200194505050565b60008083601f84011261105257600080fd5b50813567ffffffffffffffff81111561106a57600080fd5b6020830191508360208260051b850101111561108557600080fd5b9250929050565b600080600080600080606087890312156110a557600080fd5b863567ffffffffffffffff808211156110bd57600080fd5b6110c98a838b01611040565b909850965060208901359150808211156110e257600080fd5b6110ee8a838b01611040565b9096509450604089013591508082111561110757600080fd5b5061111489828a01611040565b979a9699509497509295939492505050565b801515811461113457600080fd5b50565b6000806040838503121561114a57600080fd5b61115383610ecd565b9150602083013561116381611126565b809150509250929050565b634e487b7160e01b600052604160045260246000fd5b6000806000806080858703121561119a57600080fd5b6111a385610ecd565b93506111b160208601610ecd565b925060408501359150606085013567ffffffffffffffff808211156111d557600080fd5b818701915087601f8301126111e957600080fd5b8135818111156111fb576111fb61116e565b604051601f8201601f19908116603f011681019083821181831017156112235761122361116e565b816040528281528a602084870101111561123c57600080fd5b82602086016020830137600060208483010152809550505050505092959194509250565b6000806040838503121561127357600080fd5b61127c83610ecd565b915061128a60208401610ecd565b90509250929050565b600181811c908216806112a757607f821691505b6020821081036112c757634e487b7160e01b600052602260045260246000fd5b50919050565b6000602082840312156112df57600080fd5b8151610e6f81611126565b634e487b7160e01b600052601160045260246000fd5b808201808211156102cc576102cc6112ea565b600060018201611325576113256112ea565b5060010190565b601f821115611378576000816000526020600020601f850160051c810160208610156113555750805b601f850160051c820191505b8181101561137457828155600101611361565b5050505b505050565b67ffffffffffffffff8311156113955761139561116e565b6113a9836113a38354611293565b8361132c565b6000601f8411600181146113dd57600085156113c55750838201355b600019600387901b1c1916600186901b178355611437565b600083815260209020601f19861690835b8281101561140e57868501358255602094850194600190920191016113ee565b508682101561142b5760001960f88860031b161c19848701351681555b505060018560011b0183555b5050505050565b634e487b7160e01b600052603260045260246000fd5b6000808335601e1984360301811261146b57600080fd5b83018035915067ffffffffffffffff82111561148657600080fd5b60200191503681900382131561108557600080fd5b7f646174613a6170706c69636174696f6e2f6a736f6e3b6261736536342c0000008152600082516114d381601d850160208701610e76565b91909101601d0192915050565b6000826114fd57634e487b7160e01b600052601260045260246000fd5b500490565b80820281158282048414176102cc576102cc6112ea56fe4142434445464748494a4b4c4d4e4f505152535455565758595a6162636465666768696a6b6c6d6e6f707172737475767778797a303132333435363738392b2fa264697066735822122098391a359821d6d9cf048d501580b7fe11d7414addaee68798160cff5fe3afef64736f6c63430008170033",
  "linkReferences": {},
  "deployedLinkReferences": {}
}