{
  "_format": "hh-sol-artifact-1",
  "contractName": "LoanSafeSepolia",
  "sourceName": "contracts/Sepolia/users/LoanSafeSepolia.sol",
  "abi": [
    {
      "inputs": [],
      "stateMutability": "nonpayable",
      "type": "constructor"
    },
    {
      "inputs": [
        {
          "internalType": "address",
          "name": "target",
          "type": "address"
        }
      ],
      "name": "AddressEmptyCode",
      "type": "error"
    },
    {
      "inputs": [
        {
          "internalType": "address",
          "name": "account",
          "type": "address"
        }
      ],
      "name": "AddressInsufficientBalance",
      "type": "error"
    },
    {
      "inputs": [],
      "name": "FailedInnerCall",
      "type": "error"
    },
    {
      "inputs": [
        {
          "internalType": "address",
          "name": "token",
          "type": "address"
        }
      ],
      "name": "SafeERC20FailedOperation",
      "type": "error"
    },
    {
      "inputs": [
        {
          "internalType": "address",
          "name": "caller",
          "type": "address"
        }
      ],
      "name": "UnauthorizedAccess",
      "type": "error"
    },
    {
      "anonymous": false,
      "inputs": [
        {
          "indexed": true,
          "internalType": "uint256",
          "name": "loanId",
          "type": "uint256"
        },
        {
          "indexed": false,
          "internalType": "uint256",
          "name": "startTimestamp",
          "type": "uint256"
        }
      ],
      "name": "LoanStarted",
      "type": "event"
    },
    {
      "inputs": [],
      "name": "USER_LOAN_MANAGER",
      "outputs": [
        {
          "internalType": "contract ILoanManagerSepolia",
          "name": "",
          "type": "address"
        }
      ],
      "stateMutability": "view",
      "type": "function"
    },
    {
      "inputs": [
        {
          "internalType": "uint256",
          "name": "_loanId",
          "type": "uint256"
        }
      ],
      "name": "checkLoanCollateral",
      "outputs": [
        {
          "internalType": "bool",
          "name": "isValid",
          "type": "bool"
        }
      ],
      "stateMutability": "view",
      "type": "function"
    },
    {
      "inputs": [
        {
          "internalType": "address",
          "name": "",
          "type": "address"
        },
        {
          "internalType": "address",
          "name": "",
          "type": "address"
        },
        {
          "internalType": "uint256",
          "name": "",
          "type": "uint256"
        },
        {
          "internalType": "bytes",
          "name": "",
          "type": "bytes"
        }
      ],
      "name": "onERC721Received",
      "outputs": [
        {
          "internalType": "bytes4",
          "name": "",
          "type": "bytes4"
        }
      ],
      "stateMutability": "pure",
      "type": "function"
    },
    {
      "inputs": [
        {
          "internalType": "uint256",
          "name": "_loanId",
          "type": "uint256"
        },
        {
          "internalType": "address",
          "name": "_receiver",
          "type": "address"
        }
      ],
      "name": "seizeCollateral",
      "outputs": [],
      "stateMutability": "nonpayable",
      "type": "function"
    },
    {
      "inputs": [
        {
          "internalType": "uint256",
          "name": "_loanId",
          "type": "uint256"
        }
      ],
      "name": "sendBackCollateral",
      "outputs": [],
      "stateMutability": "nonpayable",
      "type": "function"
    }
  ],
  "bytecode": "0x60a060405234801561001057600080fd5b5033608052608051610ae36100526000396000818160d601528181610146015281816102eb015281816103490152818161049201526104eb0152610ae36000f3fe608060405234801561001057600080fd5b50600436106100575760003560e01c806301b7053b1461005c578063150b7a02146100845780631e7046db146100bc5780637a091063146100d1578063ac9cf4db14610110575b600080fd5b61006f61006a366004610805565b610123565b60405190151581526020015b60405180910390f35b6100a3610092366004610833565b630a85bd0160e11b95945050505050565b6040516001600160e01b0319909116815260200161007b565b6100cf6100ca366004610805565b6102e0565b005b6100f87f000000000000000000000000000000000000000000000000000000000000000081565b6040516001600160a01b03909116815260200161007b565b6100cf61011e3660046108d2565b610487565b60405163622fe39f60e01b81526004810182905260009081906001600160a01b037f0000000000000000000000000000000000000000000000000000000000000000169063622fe39f9060240161018060405180830381865afa15801561018e573d6000803e3d6000fd5b505050506040513d601f19601f820116820180604052508101906101b29190610972565b9050806101600151156102da57610120810151151560000361025c5761010081015160c08201516040516331a9108f60e11b8152600481019190915230916001600160a01b031690636352211e90602401602060405180830381865afa158015610220573d6000803e3d6000fd5b505050506040513d601f19601f820116820180604052508101906102449190610a2d565b6001600160a01b03160361025757600191505b6102da565b60c08101516101008201516040516370a0823160e01b81523060048201526001600160a01b03909116906370a0823190602401602060405180830381865afa1580156102ac573d6000803e3d6000fd5b505050506040513d601f19601f820116820180604052508101906102d09190610a4a565b106102da57600191505b50919050565b336001600160a01b037f0000000000000000000000000000000000000000000000000000000000000000161461033057604051633733be5960e21b81523360048201526024015b60405180910390fd5b60405163622fe39f60e01b8152600481018290526000907f00000000000000000000000000000000000000000000000000000000000000006001600160a01b03169063622fe39f9060240161018060405180830381865afa158015610399573d6000803e3d6000fd5b505050506040513d601f19601f820116820180604052508101906103bd9190610972565b9050806101600151156104835761012081015115156000036104575761010081015161014082015160c0830151604051632142170760e11b81523060048201526001600160a01b03928316602482015260448101919091529116906342842e0e90606401600060405180830381600087803b15801561043b57600080fd5b505af115801561044f573d6000803e3d6000fd5b505050505050565b6104838161014001518260c001518361010001516001600160a01b031661061f9092919063ffffffff16565b5050565b336001600160a01b037f000000000000000000000000000000000000000000000000000000000000000016146104d257604051633733be5960e21b8152336004820152602401610327565b60405163622fe39f60e01b8152600481018390526000907f00000000000000000000000000000000000000000000000000000000000000006001600160a01b03169063622fe39f9060240161018060405180830381865afa15801561053b573d6000803e3d6000fd5b505050506040513d601f19601f8201168201806040525081019061055f9190610972565b905080610160015161061a5761012081015115156000036105f35761010081015160c0820151604051632142170760e11b81523060048201526001600160a01b03858116602483015260448201929092529116906342842e0e90606401600060405180830381600087803b1580156105d657600080fd5b505af11580156105ea573d6000803e3d6000fd5b50505050505050565b61061a828260c001518361010001516001600160a01b031661061f9092919063ffffffff16565b505050565b604080516001600160a01b03848116602483015260448083018590528351808403909101815260649092019092526020810180516001600160e01b031663a9059cbb60e01b17905261061a9185919060009061067d908416836106cb565b905080516000141580156106a25750808060200190518101906106a09190610a63565b155b1561061a57604051635274afe760e01b81526001600160a01b0384166004820152602401610327565b60606106d9838360006106e0565b9392505050565b6060814710156107055760405163cd78605960e01b8152306004820152602401610327565b600080856001600160a01b031684866040516107219190610a7e565b60006040518083038185875af1925050503d806000811461075e576040519150601f19603f3d011682016040523d82523d6000602084013e610763565b606091505b509150915061077386838361077d565b9695505050505050565b6060826107925761078d826107d9565b6106d9565b81511580156107a957506001600160a01b0384163b155b156107d257604051639996b31560e01b81526001600160a01b0385166004820152602401610327565b50806106d9565b8051156107e95780518082602001fd5b604051630a12f52160e11b815260040160405180910390fd5b50565b60006020828403121561081757600080fd5b5035919050565b6001600160a01b038116811461080257600080fd5b60008060008060006080868803121561084b57600080fd5b85356108568161081e565b945060208601356108668161081e565b935060408601359250606086013567ffffffffffffffff8082111561088a57600080fd5b818801915088601f83011261089e57600080fd5b8135818111156108ad57600080fd5b8960208285010111156108bf57600080fd5b9699959850939650602001949392505050565b600080604083850312156108e557600080fd5b8235915060208301356108f78161081e565b809150509250929050565b604051610180810167ffffffffffffffff8111828210171561093457634e487b7160e01b600052604160045260246000fd5b60405290565b805167ffffffffffffffff8116811461095257600080fd5b919050565b80516109528161081e565b8051801515811461095257600080fd5b6000610180828403121561098557600080fd5b61098d610902565b825181526020830151602082015260408301516040820152606083015160608201526080830151608082015260a083015160a082015260c083015160c08201526109d960e0840161093a565b60e08201526101006109ec818501610957565b908201526101206109fe848201610962565b90820152610140610a10848201610957565b90820152610160610a22848201610962565b908201529392505050565b600060208284031215610a3f57600080fd5b81516106d98161081e565b600060208284031215610a5c57600080fd5b5051919050565b600060208284031215610a7557600080fd5b6106d982610962565b6000825160005b81811015610a9f5760208186018101518583015201610a85565b50600092019182525091905056fea2646970667358221220852e91d8afdc2fc2ea45754205b2b9b99faf0a2ac9f4ff69c5836b6c61eaceab64736f6c63430008170033",
  "linkReferences": {},
  "deployedLinkReferences": {}
}