{
  "_format": "hh-sol-artifact-1",
  "contractName": "LoanManagerSepolia",
  "sourceName": "contracts/Sepolia/users/LoanManagerSepolia.sol",
  "abi": [
    {
      "inputs": [
        {
          "internalType": "contract IAccessManagerSepolia",
          "name": "_accessManager",
          "type": "address"
        },
        {
          "internalType": "address",
          "name": "_mailbox",
          "type": "address"
        },
        {
          "internalType": "address",
          "name": "_loanAdvertisementBook",
          "type": "address"
        },
        {
          "internalType": "address",
          "name": "_ghoToken",
          "type": "address"
        },
        {
          "internalType": "address",
          "name": "_debtGhoToken",
          "type": "address"
        },
        {
          "internalType": "address",
          "name": "_router",
          "type": "address"
        },
        {
          "internalType": "address",
          "name": "_link",
          "type": "address"
        }
      ],
      "stateMutability": "nonpayable",
      "type": "constructor"
    },
    {
      "inputs": [
        {
          "internalType": "address",
          "name": "target",
          "type": "address"
        }
      ],
      "name": "AddressEmptyCode",
      "type": "error"
    },
    {
      "inputs": [
        {
          "internalType": "address",
          "name": "account",
          "type": "address"
        }
      ],
      "name": "AddressInsufficientBalance",
      "type": "error"
    },
    {
      "inputs": [
        {
          "internalType": "uint256",
          "name": "loanId",
          "type": "uint256"
        }
      ],
      "name": "CollateralNotDeposited",
      "type": "error"
    },
    {
      "inputs": [],
      "name": "FailedInnerCall",
      "type": "error"
    },
    {
      "inputs": [
        {
          "internalType": "uint256",
          "name": "loanId",
          "type": "uint256"
        }
      ],
      "name": "LoanAlreadyBorrowed",
      "type": "error"
    },
    {
      "inputs": [
        {
          "internalType": "uint256",
          "name": "loanId",
          "type": "uint256"
        }
      ],
      "name": "LoanNotActive",
      "type": "error"
    },
    {
      "inputs": [
        {
          "internalType": "uint256",
          "name": "loanId",
          "type": "uint256"
        }
      ],
      "name": "LoanStillActive",
      "type": "error"
    },
    {
      "inputs": [
        {
          "internalType": "address",
          "name": "sender",
          "type": "address"
        }
      ],
      "name": "OnlyOwnerCanCall",
      "type": "error"
    },
    {
      "inputs": [],
      "name": "ReentrancyGuardReentrantCall",
      "type": "error"
    },
    {
      "inputs": [
        {
          "internalType": "address",
          "name": "token",
          "type": "address"
        }
      ],
      "name": "SafeERC20FailedOperation",
      "type": "error"
    },
    {
      "inputs": [
        {
          "internalType": "address",
          "name": "caller",
          "type": "address"
        }
      ],
      "name": "UnauthorizedAccess",
      "type": "error"
    },
    {
      "inputs": [
        {
          "internalType": "address",
          "name": "caller",
          "type": "address"
        },
        {
          "internalType": "address",
          "name": "borrower",
          "type": "address"
        }
      ],
      "name": "WrongBorrower",
      "type": "error"
    },
    {
      "anonymous": false,
      "inputs": [
        {
          "indexed": true,
          "internalType": "uint256",
          "name": "loanId",
          "type": "uint256"
        },
        {
          "indexed": true,
          "internalType": "address",
          "name": "borrower",
          "type": "address"
        },
        {
          "indexed": false,
          "internalType": "uint256",
          "name": "duration",
          "type": "uint256"
        },
        {
          "indexed": false,
          "internalType": "uint256",
          "name": "interestRate",
          "type": "uint256"
        },
        {
          "indexed": false,
          "internalType": "uint256",
          "name": "loanAmount",
          "type": "uint256"
        },
        {
          "indexed": false,
          "internalType": "uint64",
          "name": "collateralChainId",
          "type": "uint64"
        },
        {
          "indexed": false,
          "internalType": "address",
          "name": "collateralAddress",
          "type": "address"
        },
        {
          "indexed": false,
          "internalType": "uint256",
          "name": "collateralAmountOrId",
          "type": "uint256"
        },
        {
          "indexed": false,
          "internalType": "bool",
          "name": "collateralType",
          "type": "bool"
        }
      ],
      "name": "CrosschainLoanBorrowedInit",
      "type": "event"
    },
    {
      "anonymous": false,
      "inputs": [
        {
          "indexed": false,
          "internalType": "uint256",
          "name": "loanAdvertisementId",
          "type": "uint256"
        },
        {
          "indexed": false,
          "internalType": "uint256",
          "name": "maxLoanDuration",
          "type": "uint256"
        },
        {
          "indexed": false,
          "internalType": "uint256",
          "name": "maxLoanAmount",
          "type": "uint256"
        },
        {
          "indexed": false,
          "internalType": "uint256",
          "name": "interestRate",
          "type": "uint256"
        }
      ],
      "name": "LoanAdvertisementPublished",
      "type": "event"
    },
    {
      "anonymous": false,
      "inputs": [
        {
          "indexed": false,
          "internalType": "uint256",
          "name": "loanAdvertisementId",
          "type": "uint256"
        },
        {
          "indexed": false,
          "internalType": "bool",
          "name": "isAvailable",
          "type": "bool"
        },
        {
          "indexed": false,
          "internalType": "uint256",
          "name": "maxLoanDuration",
          "type": "uint256"
        },
        {
          "indexed": false,
          "internalType": "uint256",
          "name": "maxLoanAmount",
          "type": "uint256"
        },
        {
          "indexed": false,
          "internalType": "uint256",
          "name": "interestRate",
          "type": "uint256"
        }
      ],
      "name": "LoanAdvertisementUpdated",
      "type": "event"
    },
    {
      "anonymous": false,
      "inputs": [
        {
          "indexed": true,
          "internalType": "uint256",
          "name": "loanId",
          "type": "uint256"
        },
        {
          "indexed": true,
          "internalType": "address",
          "name": "borrower",
          "type": "address"
        },
        {
          "indexed": false,
          "internalType": "uint256",
          "name": "duration",
          "type": "uint256"
        },
        {
          "indexed": false,
          "internalType": "uint256",
          "name": "interestRate",
          "type": "uint256"
        },
        {
          "indexed": false,
          "internalType": "uint256",
          "name": "loanAmount",
          "type": "uint256"
        },
        {
          "indexed": false,
          "internalType": "uint64",
          "name": "collateralChainId",
          "type": "uint64"
        },
        {
          "indexed": false,
          "internalType": "address",
          "name": "collateralAddress",
          "type": "address"
        },
        {
          "indexed": false,
          "internalType": "uint256",
          "name": "collateralAmountOrId",
          "type": "uint256"
        },
        {
          "indexed": false,
          "internalType": "bool",
          "name": "collateralType",
          "type": "bool"
        }
      ],
      "name": "LoanBorrowed",
      "type": "event"
    },
    {
      "anonymous": false,
      "inputs": [
        {
          "indexed": true,
          "internalType": "uint256",
          "name": "loanId",
          "type": "uint256"
        },
        {
          "indexed": true,
          "internalType": "address",
          "name": "borrower",
          "type": "address"
        },
        {
          "indexed": true,
          "internalType": "address",
          "name": "liquidator",
          "type": "address"
        },
        {
          "indexed": false,
          "internalType": "uint256",
          "name": "loanAmount",
          "type": "uint256"
        },
        {
          "indexed": false,
          "internalType": "uint256",
          "name": "interestAmount",
          "type": "uint256"
        }
      ],
      "name": "LoanLiquidated",
      "type": "event"
    },
    {
      "anonymous": false,
      "inputs": [
        {
          "indexed": false,
          "internalType": "uint256",
          "name": "maxLoanDuration",
          "type": "uint256"
        },
        {
          "indexed": false,
          "internalType": "uint256",
          "name": "availableBorrowPowerPercent",
          "type": "uint256"
        },
        {
          "indexed": false,
          "internalType": "uint256",
          "name": "maxLoanAmountPercentPerBorrower",
          "type": "uint256"
        }
      ],
      "name": "LoanParametersUpdated",
      "type": "event"
    },
    {
      "anonymous": false,
      "inputs": [
        {
          "indexed": true,
          "internalType": "uint256",
          "name": "loanId",
          "type": "uint256"
        },
        {
          "indexed": true,
          "internalType": "address",
          "name": "borrower",
          "type": "address"
        },
        {
          "indexed": false,
          "internalType": "uint256",
          "name": "loanAmount",
          "type": "uint256"
        },
        {
          "indexed": false,
          "internalType": "uint256",
          "name": "interestAmount",
          "type": "uint256"
        }
      ],
      "name": "LoanRepaid",
      "type": "event"
    },
    {
      "anonymous": false,
      "inputs": [
        {
          "indexed": true,
          "internalType": "uint256",
          "name": "loanRequestId",
          "type": "uint256"
        },
        {
          "indexed": true,
          "internalType": "uint256",
          "name": "loanId",
          "type": "uint256"
        },
        {
          "indexed": true,
          "internalType": "address",
          "name": "borrower",
          "type": "address"
        },
        {
          "indexed": false,
          "internalType": "uint256",
          "name": "duration",
          "type": "uint256"
        },
        {
          "indexed": false,
          "internalType": "uint256",
          "name": "interestRate",
          "type": "uint256"
        },
        {
          "indexed": false,
          "internalType": "uint256",
          "name": "loanAmount",
          "type": "uint256"
        },
        {
          "indexed": false,
          "internalType": "uint64",
          "name": "collateralChainId",
          "type": "uint64"
        },
        {
          "indexed": false,
          "internalType": "address",
          "name": "collateralAddress",
          "type": "address"
        },
        {
          "indexed": false,
          "internalType": "uint256",
          "name": "collateralAmountOrId",
          "type": "uint256"
        },
        {
          "indexed": false,
          "internalType": "bool",
          "name": "collateralType",
          "type": "bool"
        }
      ],
      "name": "LoanRequestAuthorized",
      "type": "event"
    },
    {
      "anonymous": false,
      "inputs": [
        {
          "indexed": true,
          "internalType": "uint256",
          "name": "loanId",
          "type": "uint256"
        },
        {
          "indexed": false,
          "internalType": "uint256",
          "name": "startTimestamp",
          "type": "uint256"
        }
      ],
      "name": "LoanStarted",
      "type": "event"
    },
    {
      "inputs": [],
      "name": "LOAN_ADVERTISEMENT_BOOK",
      "outputs": [
        {
          "internalType": "contract IGhoSafeLoanAdvertisementBookSepolia",
          "name": "",
          "type": "address"
        }
      ],
      "stateMutability": "view",
      "type": "function"
    },
    {
      "inputs": [],
      "name": "USER_ACCESS_MANAGER",
      "outputs": [
        {
          "internalType": "contract IAccessManagerSepolia",
          "name": "",
          "type": "address"
        }
      ],
      "stateMutability": "view",
      "type": "function"
    },
    {
      "inputs": [],
      "name": "USER_LOAN_SAFE",
      "outputs": [
        {
          "internalType": "contract ILoanSafeSepolia",
          "name": "",
          "type": "address"
        }
      ],
      "stateMutability": "view",
      "type": "function"
    },
    {
      "inputs": [],
      "name": "USER_MAILBOX",
      "outputs": [
        {
          "internalType": "contract IMailboxSepolia",
          "name": "",
          "type": "address"
        }
      ],
      "stateMutability": "view",
      "type": "function"
    },
    {
      "inputs": [],
      "name": "USER_MESSENGER",
      "outputs": [
        {
          "internalType": "contract IMessengerSepolia",
          "name": "",
          "type": "address"
        }
      ],
      "stateMutability": "view",
      "type": "function"
    },
    {
      "inputs": [],
      "name": "USER_SAFE",
      "outputs": [
        {
          "internalType": "contract ISafeSepolia",
          "name": "",
          "type": "address"
        }
      ],
      "stateMutability": "view",
      "type": "function"
    },
    {
      "inputs": [
        {
          "internalType": "uint256",
          "name": "_loanRequestId",
          "type": "uint256"
        }
      ],
      "name": "authorizeLoan",
      "outputs": [],
      "stateMutability": "nonpayable",
      "type": "function"
    },
    {
      "inputs": [],
      "name": "availableBorrowPowerPercent",
      "outputs": [
        {
          "internalType": "uint256",
          "name": "",
          "type": "uint256"
        }
      ],
      "stateMutability": "view",
      "type": "function"
    },
    {
      "inputs": [
        {
          "internalType": "uint256",
          "name": "_loanId",
          "type": "uint256"
        }
      ],
      "name": "borrow",
      "outputs": [],
      "stateMutability": "nonpayable",
      "type": "function"
    },
    {
      "inputs": [
        {
          "internalType": "uint256",
          "name": "_loanId",
          "type": "uint256"
        }
      ],
      "name": "borrowWhithCrosschainCollateral",
      "outputs": [],
      "stateMutability": "nonpayable",
      "type": "function"
    },
    {
      "inputs": [],
      "name": "getAvailableBorrowPower",
      "outputs": [
        {
          "internalType": "uint256",
          "name": "availableBorrowPower",
          "type": "uint256"
        }
      ],
      "stateMutability": "view",
      "type": "function"
    },
    {
      "inputs": [
        {
          "internalType": "uint256",
          "name": "_loanId",
          "type": "uint256"
        }
      ],
      "name": "getLoanAdvertisementData",
      "outputs": [
        {
          "components": [
            {
              "internalType": "uint256",
              "name": "timestampLastUpdate",
              "type": "uint256"
            },
            {
              "internalType": "uint256",
              "name": "maxLoanAmount",
              "type": "uint256"
            },
            {
              "internalType": "uint256",
              "name": "maxDuration",
              "type": "uint256"
            },
            {
              "internalType": "uint256",
              "name": "interestRate",
              "type": "uint256"
            },
            {
              "internalType": "address",
              "name": "safeAddress",
              "type": "address"
            },
            {
              "internalType": "address",
              "name": "loanManagerAddress",
              "type": "address"
            },
            {
              "internalType": "bool",
              "name": "isAvailable",
              "type": "bool"
            }
          ],
          "internalType": "struct IGhoSafeLoanAdvertisementBookSepolia.LoanAdvertisement",
          "name": "loanAdvertisementData",
          "type": "tuple"
        }
      ],
      "stateMutability": "view",
      "type": "function"
    },
    {
      "inputs": [
        {
          "internalType": "uint256",
          "name": "index",
          "type": "uint256"
        }
      ],
      "name": "getLoanAdvertisementId",
      "outputs": [
        {
          "internalType": "uint256",
          "name": "",
          "type": "uint256"
        }
      ],
      "stateMutability": "view",
      "type": "function"
    },
    {
      "inputs": [],
      "name": "getLoanAdvertisementIds",
      "outputs": [
        {
          "internalType": "uint256[]",
          "name": "",
          "type": "uint256[]"
        }
      ],
      "stateMutability": "view",
      "type": "function"
    },
    {
      "inputs": [],
      "name": "getLoanAdvertisementsCount",
      "outputs": [
        {
          "internalType": "uint256",
          "name": "",
          "type": "uint256"
        }
      ],
      "stateMutability": "view",
      "type": "function"
    },
    {
      "inputs": [
        {
          "internalType": "uint256",
          "name": "_loanId",
          "type": "uint256"
        }
      ],
      "name": "getLoanData",
      "outputs": [
        {
          "components": [
            {
              "internalType": "uint256",
              "name": "loanId",
              "type": "uint256"
            },
            {
              "internalType": "uint256",
              "name": "loanRequestId",
              "type": "uint256"
            },
            {
              "internalType": "uint256",
              "name": "startTimestamp",
              "type": "uint256"
            },
            {
              "internalType": "uint256",
              "name": "duration",
              "type": "uint256"
            },
            {
              "internalType": "uint256",
              "name": "interestRate",
              "type": "uint256"
            },
            {
              "internalType": "uint256",
              "name": "loanAmount",
              "type": "uint256"
            },
            {
              "internalType": "uint256",
              "name": "collateralAmountOrId",
              "type": "uint256"
            },
            {
              "internalType": "uint64",
              "name": "collateralChainId",
              "type": "uint64"
            },
            {
              "internalType": "address",
              "name": "collateralAddress",
              "type": "address"
            },
            {
              "internalType": "bool",
              "name": "collateralType",
              "type": "bool"
            },
            {
              "internalType": "address",
              "name": "borrower",
              "type": "address"
            },
            {
              "internalType": "bool",
              "name": "isActive",
              "type": "bool"
            }
          ],
          "internalType": "struct ILoanManagerSepolia.Loan",
          "name": "loan",
          "type": "tuple"
        }
      ],
      "stateMutability": "view",
      "type": "function"
    },
    {
      "inputs": [],
      "name": "getMaxLoanAmountPerBorrower",
      "outputs": [
        {
          "internalType": "uint256",
          "name": "maxLoanAmountPerBorrower",
          "type": "uint256"
        }
      ],
      "stateMutability": "view",
      "type": "function"
    },
    {
      "inputs": [
        {
          "internalType": "uint256",
          "name": "_loanId",
          "type": "uint256"
        }
      ],
      "name": "getRemainingLoanTime",
      "outputs": [
        {
          "internalType": "uint256",
          "name": "remainingLoanTime",
          "type": "uint256"
        }
      ],
      "stateMutability": "view",
      "type": "function"
    },
    {
      "inputs": [
        {
          "internalType": "uint256",
          "name": "_loanId",
          "type": "uint256"
        }
      ],
      "name": "getTotalInterest",
      "outputs": [
        {
          "internalType": "uint256",
          "name": "totalInterest",
          "type": "uint256"
        },
        {
          "internalType": "uint256",
          "name": "loanAmountWithInterest",
          "type": "uint256"
        }
      ],
      "stateMutability": "view",
      "type": "function"
    },
    {
      "inputs": [
        {
          "internalType": "uint256",
          "name": "_loanId",
          "type": "uint256"
        }
      ],
      "name": "initBorrowWhithCrosschainCollateral",
      "outputs": [],
      "stateMutability": "nonpayable",
      "type": "function"
    },
    {
      "inputs": [],
      "name": "interestRate",
      "outputs": [
        {
          "internalType": "uint256",
          "name": "",
          "type": "uint256"
        }
      ],
      "stateMutability": "view",
      "type": "function"
    },
    {
      "inputs": [
        {
          "internalType": "uint256",
          "name": "_loanRequestId",
          "type": "uint256"
        }
      ],
      "name": "isRequestAlreadyAuthorized",
      "outputs": [
        {
          "internalType": "bool",
          "name": "isAlreadyAuthorized",
          "type": "bool"
        }
      ],
      "stateMutability": "view",
      "type": "function"
    },
    {
      "inputs": [
        {
          "internalType": "uint256",
          "name": "_loanId",
          "type": "uint256"
        },
        {
          "internalType": "address",
          "name": "_receiver",
          "type": "address"
        }
      ],
      "name": "liquidateLoan",
      "outputs": [],
      "stateMutability": "nonpayable",
      "type": "function"
    },
    {
      "inputs": [
        {
          "internalType": "uint256",
          "name": "_loanId",
          "type": "uint256"
        },
        {
          "internalType": "address",
          "name": "_receiver",
          "type": "address"
        }
      ],
      "name": "liquidateLoanWhithCrosschainCollateral",
      "outputs": [],
      "stateMutability": "nonpayable",
      "type": "function"
    },
    {
      "inputs": [],
      "name": "maxLoanAmountPercentPerBorrower",
      "outputs": [
        {
          "internalType": "uint256",
          "name": "",
          "type": "uint256"
        }
      ],
      "stateMutability": "view",
      "type": "function"
    },
    {
      "inputs": [],
      "name": "maxLoanDuration",
      "outputs": [
        {
          "internalType": "uint256",
          "name": "",
          "type": "uint256"
        }
      ],
      "stateMutability": "view",
      "type": "function"
    },
    {
      "inputs": [
        {
          "internalType": "uint64",
          "name": "",
          "type": "uint64"
        }
      ],
      "name": "messengers",
      "outputs": [
        {
          "internalType": "address",
          "name": "",
          "type": "address"
        }
      ],
      "stateMutability": "view",
      "type": "function"
    },
    {
      "inputs": [],
      "name": "publishLoanAdvertisement",
      "outputs": [],
      "stateMutability": "nonpayable",
      "type": "function"
    },
    {
      "inputs": [
        {
          "internalType": "uint256",
          "name": "_loanId",
          "type": "uint256"
        }
      ],
      "name": "repay",
      "outputs": [],
      "stateMutability": "nonpayable",
      "type": "function"
    },
    {
      "inputs": [
        {
          "internalType": "uint256",
          "name": "_loanId",
          "type": "uint256"
        }
      ],
      "name": "repayLoanCrosschainCollateral",
      "outputs": [],
      "stateMutability": "nonpayable",
      "type": "function"
    },
    {
      "inputs": [
        {
          "internalType": "uint256",
          "name": "_maxLoanDuration",
          "type": "uint256"
        },
        {
          "internalType": "uint256",
          "name": "_availableBorrowPowerPercent",
          "type": "uint256"
        },
        {
          "internalType": "uint256",
          "name": "_maxLoanAmountPercentPerBorrower",
          "type": "uint256"
        },
        {
          "internalType": "uint256",
          "name": "_interestRate",
          "type": "uint256"
        }
      ],
      "name": "setLoanParameters",
      "outputs": [],
      "stateMutability": "nonpayable",
      "type": "function"
    },
    {
      "inputs": [
        {
          "internalType": "uint64",
          "name": "_chainId",
          "type": "uint64"
        },
        {
          "internalType": "address",
          "name": "_messengerAddress",
          "type": "address"
        }
      ],
      "name": "setMessengerAddress",
      "outputs": [],
      "stateMutability": "nonpayable",
      "type": "function"
    },
    {
      "inputs": [
        {
          "internalType": "uint256",
          "name": "_loanAdvertisementId",
          "type": "uint256"
        },
        {
          "internalType": "bool",
          "name": "_isAvailable",
          "type": "bool"
        }
      ],
      "name": "updateLoanAdvertisementData",
      "outputs": [],
      "stateMutability": "nonpayable",
      "type": "function"
    }
  ],
  "bytecode": "0x6101806040523480156200001257600080fd5b50604051620054a3380380620054a3833981016040819052620000359162000140565b60016000556001600160a01b0380851661016052838116610140523360805287811660a05286811660c05285166101205260405162000074906200010b565b604051809103906000f08015801562000091573d6000803e3d6000fd5b506001600160a01b031660e052604051829082908990620000b29062000119565b6001600160a01b03938416815291831660208301529091166040820152606001604051809103906000f080158015620000ef573d6000803e3d6000fd5b506001600160a01b03166101005250620001eb95505050505050565b610b35806200301583390190565b6119598062003b4a83390190565b6001600160a01b03811681146200013d57600080fd5b50565b600080600080600080600060e0888a0312156200015c57600080fd5b8751620001698162000127565b60208901519097506200017c8162000127565b60408901519096506200018f8162000127565b6060890151909550620001a28162000127565b6080890151909450620001b58162000127565b60a0890151909350620001c88162000127565b60c0890151909250620001db8162000127565b8091505092959891949750929550565b60805160a05160c05160e05161010051610120516101405161016051612ce462000331600039600081816105e8015281816108f00152818161135f0152612011015260008181610e1101526123e801526000818161025901528181610c7901528181610fea0152611468015260008181610452015281816106af01528181611da0015281816120d901526122be01526000818161042b0152818161094e015281816113cf01528181611b540152611bf001526000818161038301526116e901526000818161052401528181610b9f01528181610ee6015281816115280152818161163e01526119ca0152600081816104bb0152818161060d0152818161074501528181610913015281816109ea01528181610de401528181610fb60152818161138401528181611c4601528181611e800152818161203401526123bb0152612ce46000f3fe608060405234801561001057600080fd5b50600436106101fb5760003560e01c80637f6634a71161011a578063b400bfb7116100ad578063c98a76d61161007c578063c98a76d61461050c578063e2fff8291461051f578063f48a967a14610546578063f4d1e13f14610559578063f64b3fc01461056c57600080fd5b8063b400bfb7146104b6578063b7b0d311146104dd578063bac079b4146104f0578063c5ebeaec146104f957600080fd5b8063a4be77ee116100e9578063a4be77ee14610474578063a52dd2191461047d578063a62e8a9f14610490578063b031db86146104a357600080fd5b80637f6634a7146103a5578063807d0afb1461041e57806394ab121f146104265780639e76c96d1461044d57600080fd5b80634c5bf4291161019257806370a4e1bf1161016157806370a4e1bf1461033957806379b2e89f146103625780637c3a00fd146103755780637ef7b2e71461037e57600080fd5b80634c5bf429146102e157806351a22443146102e9578063622fe39f146102f157806364337f411461031157600080fd5b8063371fd8e6116101ce578063371fd8e6146102935780633b089a44146102a6578063439e3f46146102b957806347eb6f49146102cc57600080fd5b80630201cbc7146102005780630df40eae14610215578063253eba541461023157806330c2ed7e14610254575b600080fd5b61021361020e36600461271e565b610574565b005b61021e60025481565b6040519081526020015b60405180910390f35b61024461023f36600461274e565b610824565b6040519015158152602001610228565b61027b7f000000000000000000000000000000000000000000000000000000000000000081565b6040516001600160a01b039091168152602001610228565b6102136102a136600461274e565b610865565b61021e6102b436600461274e565b610a9a565b6102136102c7366004612775565b610b76565b6102d4610d38565b604051610228919061279a565b61021e610dcd565b610213610ebd565b6103046102ff36600461274e565b6110b5565b60405161022891906127de565b61032461031f36600461274e565b6111fb565b60408051928352602083019190915201610228565b61027b61034736600461289f565b6008602052600090815260409020546001600160a01b031681565b61021361037036600461271e565b6112f0565b61021e60045481565b61027b7f000000000000000000000000000000000000000000000000000000000000000081565b6103b86103b336600461274e565b6113fe565b6040516102289190600060e08201905082518252602083015160208301526040830151604083015260608301516060830152608083015160018060a01b0380821660808501528060a08601511660a0850152505060c0830151151560c083015292915050565b61021e6114e1565b61027b7f000000000000000000000000000000000000000000000000000000000000000081565b61027b7f000000000000000000000000000000000000000000000000000000000000000081565b61021e60015481565b61021e61048b36600461274e565b6114f2565b61021361049e3660046128bc565b6114ff565b6102136104b136600461274e565b611615565b61027b7f000000000000000000000000000000000000000000000000000000000000000081565b6102136104eb3660046128ee565b6119a1565b61021e60035481565b61021361050736600461274e565b611a95565b61021361051a36600461274e565b611d07565b61027b7f000000000000000000000000000000000000000000000000000000000000000081565b61021361055436600461274e565b611f42565b61021361056736600461274e565b612114565b61021e6123a4565b61057c612475565b60008281526007602052604090206003810154600282015461059e9190612932565b4210156105c657604051636bcd5a6360e11b8152600481018490526024015b60405180910390fd5b60088101805460ff60a01b191690556005810154610632906001600160a01b037f0000000000000000000000000000000000000000000000000000000000000000169033907f00000000000000000000000000000000000000000000000000000000000000009061249f565b60078101546001600160401b03811660008181526008602090815260409182902054825160c08101845288815260068701549281019290925260028284015260ff600160e01b860416151560608301526001600160a01b03600160401b9095048516608083015286851660a08301529151635dde677b60e11b81527f000000000000000000000000000000000000000000000000000000000000000085169463bbbccef6946106e8949093911691600401612945565b600060405180830381600087803b15801561070257600080fd5b505af1158015610716573d6000803e3d6000fd5b5050505060088101546040516352eb00a360e01b81526001600160a01b039182166004820152600060248201527f0000000000000000000000000000000000000000000000000000000000000000909116906352eb00a390604401600060405180830381600087803b15801561078b57600080fd5b505af115801561079f573d6000803e3d6000fd5b505050506008810154600582015460048301546001600160a01b0385811693169186917f9950a0562c02382e2e840daa73082d5be7660ce37601f28fa4c84089c11e8a069190612710906107f390836129b4565b6107fd91906129cb565b6040805192835260208301919091520160405180910390a4506108206001600055565b5050565b6000805b60095481101561085f576000818152600760205260409020600181015484900361085657600192505061085f565b50600101610828565b50919050565b61086d612475565b60008181526007602052604090206008810154600160a01b900460ff166108aa57604051638db4d94d60e01b8152600481018390526024016105bd565b6000612710826004015483600501546108c391906129b4565b6108cd91906129cb565b905060008183600501546108e19190612932565b90506109386001600160a01b037f000000000000000000000000000000000000000000000000000000000000000016337f00000000000000000000000000000000000000000000000000000000000000008461249f565b604051631e7046db60e01b8152600481018590527f00000000000000000000000000000000000000000000000000000000000000006001600160a01b031690631e7046db906024015b600060405180830381600087803b15801561099b57600080fd5b505af11580156109af573d6000803e3d6000fd5b5050505060088301805460ff60a01b1981169091556040516352eb00a360e01b81526001600160a01b039182166004820152600060248201527f0000000000000000000000000000000000000000000000000000000000000000909116906352eb00a390604401600060405180830381600087803b158015610a3057600080fd5b505af1158015610a44573d6000803e3d6000fd5b5050506005840154604080519182526020820185905233925086917f553c9087bff5b534e499a66dac3fa9db2962cd252ea01165239755836ae5345e910160405180910390a3505050610a976001600055565b50565b600081815260076020818152604080842081516101808101835281548152600182015493810193909352600281015491830182905260038101546060840181905260048201546080850152600582015460a0850152600682015460c0850152938101546001600160401b03811660e08501526001600160a01b03600160401b8204811661010086015260ff600160e01b90920482161515610120860152600890920154918216610140850152600160a01b90910416151561016083015290914291610b659190612932565b610b6f91906129ed565b9392505050565b604051632474521560e21b8152600080516020612c8f83398151915260048201523360248201527f00000000000000000000000000000000000000000000000000000000000000006001600160a01b0316906391d1485490604401602060405180830381865afa158015610bee573d6000803e3d6000fd5b505050506040513d601f19601f82011682018060405250810190610c129190612a00565b610c3157604051630d175fff60e31b81523360048201526024016105bd565b6000610c3b610dcd565b60015460048054604051635204ee1d60e11b8152918201879052602482018490526044820192909252606481019190915283151560848201529091507f00000000000000000000000000000000000000000000000000000000000000006001600160a01b03169063a409dc3a9060a401600060405180830381600087803b158015610cc557600080fd5b505af1158015610cd9573d6000803e3d6000fd5b5050600154600454604080518881528715156020820152908101929092526060820185905260808201527f176baa8506823dad86d30547ef1da020b7adbd4357cfbe3c8250fe640a4f9d72925060a001905060405180910390a1505050565b60606000610d4660056124ff565b6001600160401b03811115610d5d57610d5d612a1d565b604051908082528060200260200182016040528015610d86578160200160208202803683370190505b50905060005b610d9660056124ff565b81101561085f57610da8600582612509565b828281518110610dba57610dba612a33565b6020908102919091010152600101610d8c565b6040516370a0823160e01b81526001600160a01b037f00000000000000000000000000000000000000000000000000000000000000008116600483015260009182917f000000000000000000000000000000000000000000000000000000000000000016906370a0823190602401602060405180830381865afa158015610e58573d6000803e3d6000fd5b505050506040513d601f19601f82011682018060405250810190610e7c9190612a49565b90506000606460025483610e9091906129b4565b610e9a91906129cb565b9050606460035482610eac91906129b4565b610eb691906129cb565b9250505090565b604051632474521560e21b8152600080516020612c8f83398151915260048201523360248201527f00000000000000000000000000000000000000000000000000000000000000006001600160a01b0316906391d1485490604401602060405180830381865afa158015610f35573d6000803e3d6000fd5b505050506040513d601f19601f82011682018060405250810190610f599190612a00565b610f7857604051630d175fff60e31b81523360048201526024016105bd565b6000610f82610dcd565b60015460048054604051635df0d03b60e01b8152918201849052602482019290925260448101919091526001600160a01b037f0000000000000000000000000000000000000000000000000000000000000000811660648301523060848301529192506000917f00000000000000000000000000000000000000000000000000000000000000001690635df0d03b9060a4016020604051808303816000875af1158015611033573d6000803e3d6000fd5b505050506040513d601f19601f820116820180604052508101906110579190612a49565b9050611064600582612515565b50600154600454604080518481526020810193909352820184905260608201527ffef22ca5312edf9ea30ab84bf1782d2214c755a8d3bc73cb6fcb806e9a80e48e9060800160405180910390a15050565b6111386040518061018001604052806000815260200160008152602001600081526020016000815260200160008152602001600081526020016000815260200160006001600160401b0316815260200160006001600160a01b0316815260200160001515815260200160006001600160a01b031681526020016000151581525090565b50600090815260076020818152604092839020835161018081018552815481526001820154928101929092526002810154938201939093526003830154606082015260048301546080820152600583015460a0820152600683015460c0820152908201546001600160401b03811660e08301526001600160a01b03600160401b8204811661010084015260ff600160e01b90920482161515610120840152600890930154928316610140830152600160a01b909204909116151561016082015290565b60008181526007602081815260408084208151610180810183528154815260018201549381019390935260028101549183019190915260038101546060830152600481015460808301819052600582015460a08401819052600683015460c0850152938201546001600160401b03811660e08501526001600160a01b03600160401b8204811661010086015260ff600160e01b90920482161515610120860152600890930154928316610140850152600160a01b90920490911615156101608301528392612710916112cc916129b4565b6112d691906129cb565b9250828160a001516112e89190612932565b915050915091565b6112f8612475565b60008281526007602052604090206003810154600282015461131a9190612932565b42101561133d57604051636bcd5a6360e11b8152600481018490526024016105bd565b60088101805460ff60a01b1916905560058101546113a9906001600160a01b037f0000000000000000000000000000000000000000000000000000000000000000169033907f00000000000000000000000000000000000000000000000000000000000000009061249f565b60405163ac9cf4db60e01b8152600481018490526001600160a01b0383811660248301527f0000000000000000000000000000000000000000000000000000000000000000169063ac9cf4db906044016106e8565b6114526040518060e001604052806000815260200160008152602001600081526020016000815260200160006001600160a01b0316815260200160006001600160a01b031681526020016000151581525090565b604051637f6634a760e01b8152600481018390527f00000000000000000000000000000000000000000000000000000000000000006001600160a01b031690637f6634a79060240160e060405180830381865afa1580156114b7573d6000803e3d6000fd5b505050506040513d601f19601f820116820180604052508101906114db9190612a98565b92915050565b60006114ed60056124ff565b905090565b60006114db600583612509565b604051632474521560e21b8152600080516020612c8f83398151915260048201523360248201527f00000000000000000000000000000000000000000000000000000000000000006001600160a01b0316906391d1485490604401602060405180830381865afa158015611577573d6000803e3d6000fd5b505050506040513d601f19601f8201168201806040525081019061159b9190612a00565b6115ba57604051630d175fff60e31b81523360048201526024016105bd565b600184905560028390556003829055600481905560408051858152602081018590529081018390527f134470e0ac0ddc6e2f8874560f57ce11176093ce7b6913c95fa3db12688beea39060600160405180910390a150505050565b604051632474521560e21b8152600080516020612c8f83398151915260048201523360248201527f00000000000000000000000000000000000000000000000000000000000000006001600160a01b0316906391d1485490604401602060405180830381865afa15801561168d573d6000803e3d6000fd5b505050506040513d601f19601f820116820180604052508101906116b19190612a00565b6116d057604051630d175fff60e31b81523360048201526024016105bd565b604051631b3b867160e01b8152600481018290526000907f00000000000000000000000000000000000000000000000000000000000000006001600160a01b031690631b3b86719060240160e060405180830381865afa158015611738573d6000803e3d6000fd5b505050506040513d601f19601f8201168201806040525081019061175c9190612b14565b60098054919250600091908261177183612b7a565b9190505590506040518061018001604052808281526020018481526020016000815260200183602001518152602001600454815260200183600001518152602001836040015181526020018360a001516001600160401b0316815260200183606001516001600160a01b031681526020018360c001511515815260200183608001516001600160a01b031681526020016000151581525060076000838152602001908152602001600020600082015181600001556020820151816001015560408201518160020155606082015181600301556080820151816004015560a0820151816005015560c0820151816006015560e08201518160070160006101000a8154816001600160401b0302191690836001600160401b031602179055506101008201518160070160086101000a8154816001600160a01b0302191690836001600160a01b0316021790555061012082015181600701601c6101000a81548160ff0219169083151502179055506101408201518160080160006101000a8154816001600160a01b0302191690836001600160a01b031602179055506101608201518160080160146101000a81548160ff02191690831515021790555090505081608001516001600160a01b031681847fc1f8132de989b30ab3c8787441461ac4dea436ced5c7f321f0192c6151793aa1856020015160045487600001518860a0015189606001518a604001518b60c001516040516119949796959493929190612b93565b60405180910390a4505050565b604051632474521560e21b8152600080516020612c8f83398151915260048201523360248201527f00000000000000000000000000000000000000000000000000000000000000006001600160a01b0316906391d1485490604401602060405180830381865afa158015611a19573d6000803e3d6000fd5b505050506040513d601f19601f82011682018060405250810190611a3d9190612a00565b611a5c57604051630d175fff60e31b81523360048201526024016105bd565b6001600160401b0391909116600090815260086020526040902080546001600160a01b0319166001600160a01b03909216919091179055565b611a9d612475565b6000818152600760205260409020600281015415611ad157604051636779a5d960e01b8152600481018390526024016105bd565b60088101546001600160a01b03163314611b1557600881015460405163c7b393c960e01b81523360048201526001600160a01b0390911660248201526044016105bd565b6007810154600160e01b900460ff161515600003611bcc5760078101546006820154604051632142170760e11b81523360048201526001600160a01b037f0000000000000000000000000000000000000000000000000000000000000000811660248301526044820192909252600160401b90920416906342842e0e90606401600060405180830381600087803b158015611baf57600080fd5b505af1158015611bc3573d6000803e3d6000fd5b50505050611c15565b60068101546007820154611c1591600160401b9091046001600160a01b03169033907f00000000000000000000000000000000000000000000000000000000000000009061249f565b600881015460058201546040516352eb00a360e01b81526001600160a01b03928316600482015260248101919091527f0000000000000000000000000000000000000000000000000000000000000000909116906352eb00a390604401600060405180830381600087803b158015611c8c57600080fd5b505af1158015611ca0573d6000803e3d6000fd5b5050426002840181905560088401805460ff60a01b1916600160a01b1790556040518593507f403a7b0a1d0aaf90fc432d8fbc7bef046b5df6600a52edd0c2aeb7d3772cfeeb9250611cf491815260200190565b60405180910390a250610a976001600055565b611d0f612475565b6000818152600760205260409020600281015415611d4357604051636779a5d960e01b8152600481018390526024016105bd565b60088101546001600160a01b03163314611d8757600881015460405163c7b393c960e01b81523360048201526001600160a01b0390911660248201526044016105bd565b60405163622fe39f60e01b8152600481018390526000907f00000000000000000000000000000000000000000000000000000000000000006001600160a01b03169063622fe39f90602401608060405180830381865afa158015611def573d6000803e3d6000fd5b505050506040513d601f19601f82011682018060405250810190611e139190612bd7565b9050806040015160ff166000148015611e2e57506060810151155b15611e4f57604051636ae1d49d60e01b8152600481018490526024016105bd565b600882015460058301546040516352eb00a360e01b81526001600160a01b03928316600482015260248101919091527f0000000000000000000000000000000000000000000000000000000000000000909116906352eb00a390604401600060405180830381600087803b158015611ec657600080fd5b505af1158015611eda573d6000803e3d6000fd5b5050426002850181905560088501805460ff60a01b1916600160a01b1790556040518693507f403a7b0a1d0aaf90fc432d8fbc7bef046b5df6600a52edd0c2aeb7d3772cfeeb9250611f2e91815260200190565b60405180910390a25050610a976001600055565b611f4a612475565b60008181526007602052604090206008810154600160a01b900460ff16611f8757604051638db4d94d60e01b8152600481018390526024016105bd565b60088101546001600160a01b03163314611fcb57600881015460405163c7b393c960e01b81523360048201526001600160a01b0390911660248201526044016105bd565b600061271082600401548360050154611fe491906129b4565b611fee91906129cb565b905060008183600501546120029190612932565b90506120596001600160a01b037f000000000000000000000000000000000000000000000000000000000000000016337f00000000000000000000000000000000000000000000000000000000000000008461249f565b60078301546001600160401b03811660008181526008602081815260409283902054835160c0810185528a815260068a01549281019290925260018285015260ff600160e01b870416151560608301526001600160a01b03600160401b9096048616608083015291880154851660a08201529151635dde677b60e11b81527f000000000000000000000000000000000000000000000000000000000000000085169463bbbccef6946109819490939190911691600401612945565b61211c612475565b6000818152600760208181526040928390208351610180810185528154815260018201549281019290925260028101549382018490526003810154606083015260048101546080830152600581015460a0830152600681015460c0830152918201546001600160401b03811660e08301526001600160a01b03600160401b8204811661010084015260ff600160e01b90920482161515610120840152600890930154928316610140830152600160a01b909204909116151561016082015290156121fc57604051636779a5d960e01b8152600481018390526024016105bd565b6101408101516001600160a01b031633146122425761014081015160405163c7b393c960e01b81523360048201526001600160a01b0390911660248201526044016105bd565b60e08101516001600160401b038116600090815260086020908152604080832054815160c080820184528882528701519381019390935282820193909352610120850151151560608301526101008501516001600160a01b039081166080840152610140860151811660a08401529051635dde677b60e11b81527f000000000000000000000000000000000000000000000000000000000000000082169463bbbccef6946122f69491931691600401612945565b600060405180830381600087803b15801561231057600080fd5b505af1158015612324573d6000803e3d6000fd5b505050508061014001516001600160a01b0316827f603c05de9ebb1e0a2af29b53c11f1962b081cefb4596e42eb74e550770a3dfa1836060015184608001518560a001518660e001518761010001518860c001518961012001516040516123919796959493929190612b93565b60405180910390a350610a976001600055565b6040516370a0823160e01b81526001600160a01b037f00000000000000000000000000000000000000000000000000000000000000008116600483015260009182917f000000000000000000000000000000000000000000000000000000000000000016906370a0823190602401602060405180830381865afa15801561242f573d6000803e3d6000fd5b505050506040513d601f19601f820116820180604052508101906124539190612a49565b905060646002548261246591906129b4565b61246f91906129cb565b91505090565b60026000540361249857604051633ee5aeb560e01b815260040160405180910390fd5b6002600055565b604080516001600160a01b0385811660248301528416604482015260648082018490528251808303909101815260849091019091526020810180516001600160e01b03166323b872dd60e01b1790526124f9908590612521565b50505050565b60006114db825490565b6000610b6f8383612589565b6000610b6f83836125b3565b60006125366001600160a01b03841683612602565b9050805160001415801561255b5750808060200190518101906125599190612a00565b155b1561258457604051635274afe760e01b81526001600160a01b03841660048201526024016105bd565b505050565b60008260000182815481106125a0576125a0612a33565b9060005260206000200154905092915050565b60008181526001830160205260408120546125fa575081546001818101845560008481526020808220909301849055845484825282860190935260409020919091556114db565b5060006114db565b6060610b6f8383600084600080856001600160a01b031684866040516126289190612c5f565b60006040518083038185875af1925050503d8060008114612665576040519150601f19603f3d011682016040523d82523d6000602084013e61266a565b606091505b509150915061267a868383612684565b9695505050505050565b60608261269957612694826126e0565b610b6f565b81511580156126b057506001600160a01b0384163b155b156126d957604051639996b31560e01b81526001600160a01b03851660048201526024016105bd565b5080610b6f565b8051156126f05780518082602001fd5b604051630a12f52160e11b815260040160405180910390fd5b6001600160a01b0381168114610a9757600080fd5b6000806040838503121561273157600080fd5b82359150602083013561274381612709565b809150509250929050565b60006020828403121561276057600080fd5b5035919050565b8015158114610a9757600080fd5b6000806040838503121561278857600080fd5b82359150602083013561274381612767565b6020808252825182820181905260009190848201906040850190845b818110156127d2578351835292840192918401916001016127b6565b50909695505050505050565b600061018082019050825182526020830151602083015260408301516040830152606083015160608301526080830151608083015260a083015160a083015260c083015160c083015260e083015161284160e08401826001600160401b03169052565b50610100838101516001600160a01b0390811691840191909152610120808501511515908401526101408085015190911690830152610160928301511515929091019190915290565b6001600160401b0381168114610a9757600080fd5b6000602082840312156128b157600080fd5b8135610b6f8161288a565b600080600080608085870312156128d257600080fd5b5050823594602084013594506040840135936060013592509050565b6000806040838503121561290157600080fd5b823561290c8161288a565b9150602083013561274381612709565b634e487b7160e01b600052601160045260246000fd5b808201808211156114db576114db61291c565b6000610100820190506001600160401b038516825260018060a01b038085166020840152835160408401526020840151606084015260ff60408501511660808401526060840151151560a08401528060808501511660c08401528060a08501511660e084015250949350505050565b80820281158282048414176114db576114db61291c565b6000826129e857634e487b7160e01b600052601260045260246000fd5b500490565b818103818111156114db576114db61291c565b600060208284031215612a1257600080fd5b8151610b6f81612767565b634e487b7160e01b600052604160045260246000fd5b634e487b7160e01b600052603260045260246000fd5b600060208284031215612a5b57600080fd5b5051919050565b60405160e081016001600160401b0381118282101715612a9257634e487b7160e01b600052604160045260246000fd5b60405290565b600060e08284031215612aaa57600080fd5b612ab2612a62565b825181526020830151602082015260408301516040820152606083015160608201526080830151612ae281612709565b608082015260a0830151612af581612709565b60a082015260c0830151612b0881612767565b60c08201529392505050565b600060e08284031215612b2657600080fd5b612b2e612a62565b8251815260208301516020820152604083015160408201526060830151612b5481612709565b60608201526080830151612b6781612709565b608082015260a0830151612af58161288a565b600060018201612b8c57612b8c61291c565b5060010190565b968752602087019590955260408601939093526001600160401b039190911660608501526001600160a01b0316608084015260a0830152151560c082015260e00190565b600060808284031215612be957600080fd5b604051608081018181106001600160401b0382111715612c1957634e487b7160e01b600052604160045260246000fd5b80604052508251815260208301516020820152604083015160ff81168114612c4057600080fd5b60408201526060830151612c5381612767565b60608201529392505050565b6000825160005b81811015612c805760208186018101518583015201612c66565b50600092019182525091905056feb19546dff01e856fb3f010c267a7b1c60363cf8a4664e21cc89c26224620214ea2646970667358221220374e873872e8920e8133c7df9a0dee107ce7b2a609d9e644762458439ffbc14364736f6c6343000817003360a060405234801561001057600080fd5b5033608052608051610ae36100526000396000818160d601528181610146015281816102eb015281816103490152818161049201526104eb0152610ae36000f3fe608060405234801561001057600080fd5b50600436106100575760003560e01c806301b7053b1461005c578063150b7a02146100845780631e7046db146100bc5780637a091063146100d1578063ac9cf4db14610110575b600080fd5b61006f61006a366004610805565b610123565b60405190151581526020015b60405180910390f35b6100a3610092366004610833565b630a85bd0160e11b95945050505050565b6040516001600160e01b0319909116815260200161007b565b6100cf6100ca366004610805565b6102e0565b005b6100f87f000000000000000000000000000000000000000000000000000000000000000081565b6040516001600160a01b03909116815260200161007b565b6100cf61011e3660046108d2565b610487565b60405163622fe39f60e01b81526004810182905260009081906001600160a01b037f0000000000000000000000000000000000000000000000000000000000000000169063622fe39f9060240161018060405180830381865afa15801561018e573d6000803e3d6000fd5b505050506040513d601f19601f820116820180604052508101906101b29190610972565b9050806101600151156102da57610120810151151560000361025c5761010081015160c08201516040516331a9108f60e11b8152600481019190915230916001600160a01b031690636352211e90602401602060405180830381865afa158015610220573d6000803e3d6000fd5b505050506040513d601f19601f820116820180604052508101906102449190610a2d565b6001600160a01b03160361025757600191505b6102da565b60c08101516101008201516040516370a0823160e01b81523060048201526001600160a01b03909116906370a0823190602401602060405180830381865afa1580156102ac573d6000803e3d6000fd5b505050506040513d601f19601f820116820180604052508101906102d09190610a4a565b106102da57600191505b50919050565b336001600160a01b037f0000000000000000000000000000000000000000000000000000000000000000161461033057604051633733be5960e21b81523360048201526024015b60405180910390fd5b60405163622fe39f60e01b8152600481018290526000907f00000000000000000000000000000000000000000000000000000000000000006001600160a01b03169063622fe39f9060240161018060405180830381865afa158015610399573d6000803e3d6000fd5b505050506040513d601f19601f820116820180604052508101906103bd9190610972565b9050806101600151156104835761012081015115156000036104575761010081015161014082015160c0830151604051632142170760e11b81523060048201526001600160a01b03928316602482015260448101919091529116906342842e0e90606401600060405180830381600087803b15801561043b57600080fd5b505af115801561044f573d6000803e3d6000fd5b505050505050565b6104838161014001518260c001518361010001516001600160a01b031661061f9092919063ffffffff16565b5050565b336001600160a01b037f000000000000000000000000000000000000000000000000000000000000000016146104d257604051633733be5960e21b8152336004820152602401610327565b60405163622fe39f60e01b8152600481018390526000907f00000000000000000000000000000000000000000000000000000000000000006001600160a01b03169063622fe39f9060240161018060405180830381865afa15801561053b573d6000803e3d6000fd5b505050506040513d601f19601f8201168201806040525081019061055f9190610972565b905080610160015161061a5761012081015115156000036105f35761010081015160c0820151604051632142170760e11b81523060048201526001600160a01b03858116602483015260448201929092529116906342842e0e90606401600060405180830381600087803b1580156105d657600080fd5b505af11580156105ea573d6000803e3d6000fd5b50505050505050565b61061a828260c001518361010001516001600160a01b031661061f9092919063ffffffff16565b505050565b604080516001600160a01b03848116602483015260448083018590528351808403909101815260649092019092526020810180516001600160e01b031663a9059cbb60e01b17905261061a9185919060009061067d908416836106cb565b905080516000141580156106a25750808060200190518101906106a09190610a63565b155b1561061a57604051635274afe760e01b81526001600160a01b0384166004820152602401610327565b60606106d9838360006106e0565b9392505050565b6060814710156107055760405163cd78605960e01b8152306004820152602401610327565b600080856001600160a01b031684866040516107219190610a7e565b60006040518083038185875af1925050503d806000811461075e576040519150601f19603f3d011682016040523d82523d6000602084013e610763565b606091505b509150915061077386838361077d565b9695505050505050565b6060826107925761078d826107d9565b6106d9565b81511580156107a957506001600160a01b0384163b155b156107d257604051639996b31560e01b81526001600160a01b0385166004820152602401610327565b50806106d9565b8051156107e95780518082602001fd5b604051630a12f52160e11b815260040160405180910390fd5b50565b60006020828403121561081757600080fd5b5035919050565b6001600160a01b038116811461080257600080fd5b60008060008060006080868803121561084b57600080fd5b85356108568161081e565b945060208601356108668161081e565b935060408601359250606086013567ffffffffffffffff8082111561088a57600080fd5b818801915088601f83011261089e57600080fd5b8135818111156108ad57600080fd5b8960208285010111156108bf57600080fd5b9699959850939650602001949392505050565b600080604083850312156108e557600080fd5b8235915060208301356108f78161081e565b809150509250929050565b604051610180810167ffffffffffffffff8111828210171561093457634e487b7160e01b600052604160045260246000fd5b60405290565b805167ffffffffffffffff8116811461095257600080fd5b919050565b80516109528161081e565b8051801515811461095257600080fd5b6000610180828403121561098557600080fd5b61098d610902565b825181526020830151602082015260408301516040820152606083015160608201526080830151608082015260a083015160a082015260c083015160c08201526109d960e0840161093a565b60e08201526101006109ec818501610957565b908201526101206109fe848201610962565b90820152610140610a10848201610957565b90820152610160610a22848201610962565b908201529392505050565b600060208284031215610a3f57600080fd5b81516106d98161081e565b600060208284031215610a5c57600080fd5b5051919050565b600060208284031215610a7557600080fd5b6106d982610962565b6000825160005b81811015610a9f5760208186018101518583015201610a85565b50600092019182525091905056fea2646970667358221220852e91d8afdc2fc2ea45754205b2b9b99faf0a2ac9f4ff69c5836b6c61eaceab64736f6c6343000817003360e06040523480156200001157600080fd5b5060405162001959380380620019598339810160408190526200003491620000b2565b826001600160a01b03811662000064576040516335fdcccd60e21b81526000600482015260240160405180910390fd5b6001600160a01b03908116608052600580546001600160a01b031916938216939093179092553360a0521660c0525062000106565b6001600160a01b0381168114620000af57600080fd5b50565b600080600060608486031215620000c857600080fd5b8351620000d58162000099565b6020850151909350620000e88162000099565b6040850151909250620000fb8162000099565b809150509250925092565b60805160a05160c0516117f96200016060003960008181610326015281816103bb0152818161067b01528181610c1a0152610d0001526000818161027501526107890152600081816102d701526105fe01526117f96000f3fe608060405234801561001057600080fd5b50600436106100f55760003560e01c80637a09106311610097578063bbbccef611610066578063bbbccef6146102fb578063db04fa491461030e578063e2fff82914610321578063eab5b02c1461034857600080fd5b80637a0910631461027057806385572ffb146102af57806396d3b83d146102c2578063b0f479a1146102d557600080fd5b80635917d7c1116100d35780635917d7c11461015a5780636159ada11461017a578063622fe39f1461019d57806375c67c661461024d57600080fd5b806301ffc9a7146100fa5780633aeac4e1146101225780634030d52114610137575b600080fd5b61010d61010836600461108f565b61035b565b60405190151581526020015b60405180910390f35b6101356101303660046110d5565b610392565b005b61010d61014536600461112a565b60026020526000908152604090205460ff1681565b61016d610168366004611145565b610559565b60405161011991906111a4565b61010d6101883660046111b7565b60036020526000908152604090205460ff1681565b6102156101ab366004611145565b604080516080808201835260008083526020808401829052838501829052606093840182905294815260048552839020835191820184528054825260018101549482019490945260029093015460ff80821693850193909352610100900490911615159082015290565b6040516101199190815181526020808301519082015260408083015160ff169082015260609182015115159181019190915260800190565b61010d61025b36600461112a565b60016020526000908152604090205460ff1681565b6102977f000000000000000000000000000000000000000000000000000000000000000081565b6040516001600160a01b039091168152602001610119565b6101356102bd3660046111d4565b6105f3565b6101356102d036600461121c565b610652565b7f0000000000000000000000000000000000000000000000000000000000000000610297565b610135610309366004611248565b610738565b61013561031c36600461121c565b610bf1565b6102977f000000000000000000000000000000000000000000000000000000000000000081565b61013561035636600461129a565b610cd7565b60006001600160e01b031982166385572ffb60e01b148061038c57506001600160e01b031982166301ffc9a760e01b145b92915050565b604051632474521560e21b81526000805160206117a483398151915260048201523360248201527f00000000000000000000000000000000000000000000000000000000000000006001600160a01b0316906391d1485490604401602060405180830381865afa15801561040a573d6000803e3d6000fd5b505050506040513d601f19601f8201168201806040525081019061042e91906112b8565b61045257604051630d175fff60e31b81523360048201526024015b60405180910390fd5b6040516370a0823160e01b81523060048201526000906001600160a01b038316906370a0823190602401602060405180830381865afa158015610499573d6000803e3d6000fd5b505050506040513d601f19601f820116820180604052508101906104bd91906112d5565b9050806000036104e057604051630686827b60e51b815260040160405180910390fd5b60405163a9059cbb60e01b81526001600160a01b0384811660048301526024820183905283169063a9059cbb906044016020604051808303816000875af115801561052f573d6000803e3d6000fd5b505050506040513d601f19601f8201168201806040525081019061055391906112b8565b50505050565b60006020819052908152604090208054610572906112ee565b80601f016020809104026020016040519081016040528092919081815260200182805461059e906112ee565b80156105eb5780601f106105c0576101008083540402835291602001916105eb565b820191906000526020600020905b8154815290600101906020018083116105ce57829003601f168201915b505050505081565b336001600160a01b037f0000000000000000000000000000000000000000000000000000000000000000161461063e576040516335fdcccd60e21b8152336004820152602401610449565b61064f61064a826114d3565b610dbd565b50565b604051632474521560e21b81526000805160206117a483398151915260048201523360248201527f00000000000000000000000000000000000000000000000000000000000000006001600160a01b0316906391d1485490604401602060405180830381865afa1580156106ca573d6000803e3d6000fd5b505050506040513d601f19601f820116820180604052508101906106ee91906112b8565b61070d57604051630d175fff60e31b8152336004820152602401610449565b6001600160401b03919091166000908152600160205260409020805460ff1916911515919091179055565b6001600160401b038316600090815260016020526040902054839060ff1661077e57604051630a503cdb60e01b81526001600160401b0382166004820152602401610449565b336001600160a01b037f000000000000000000000000000000000000000000000000000000000000000016146107c95760405163effcd4cf60e01b8152336004820152602401610449565b6000826040516020016107dc919061158e565b60408051601f1981840301815291905260055490915060009061080b90869084906001600160a01b0316610f6b565b90506000306001600160a01b031663b0f479a16040518163ffffffff1660e01b8152600401602060405180830381865afa15801561084d573d6000803e3d6000fd5b505050506040513d601f19601f820116820180604052508101906108719190611608565b90506000816001600160a01b03166320487ded89856040518363ffffffff1660e01b81526004016108a3929190611625565b602060405180830381865afa1580156108c0573d6000803e3d6000fd5b505050506040513d601f19601f820116820180604052508101906108e491906112d5565b6005546040516370a0823160e01b81523060048201529192506001600160a01b0316906370a0823190602401602060405180830381865afa15801561092d573d6000803e3d6000fd5b505050506040513d601f19601f8201168201806040525081019061095191906112d5565b8111156109e8576005546040516370a0823160e01b81523060048201526001600160a01b03909116906370a0823190602401602060405180830381865afa1580156109a0573d6000803e3d6000fd5b505050506040513d601f19601f820116820180604052508101906109c491906112d5565b604051634787a10360e11b8152600481019190915260248101829052604401610449565b60055460405163095ea7b360e01b81526001600160a01b038481166004830152602482018490529091169063095ea7b3906044016020604051808303816000875af1158015610a3b573d6000803e3d6000fd5b505050506040513d601f19601f82011682018060405250810190610a5f91906112b8565b506040516396f4e9f960e01b81526000906001600160a01b038416906396f4e9f990610a91908c908890600401611625565b6020604051808303816000875af1158015610ab0573d6000803e3d6000fd5b505050506040513d601f19601f82011682018060405250810190610ad491906112d5565b873560009081526004602052604090819020600101829055909150610aff9060608901908901611701565b8735600081815260046020908152604091829020600201805460ff191660ff9590951694909417909355909183917f2cc2a7651489ecbeeebe0862149ef3451d4001679efe808f5c8b7e4f1d6e0584918b0135908d90610b659060608e01908e01611701565b610b7560808e0160608f0161171e565b8d6080016020810190610b8891906111b7565b8e60a0016020810190610b9b91906111b7565b604080519687526001600160401b03909516602087015260ff90931693850193909352151560608401526001600160a01b0391821660808401521660a082015260c00160405180910390a3505050505050505050565b604051632474521560e21b81526000805160206117a483398151915260048201523360248201527f00000000000000000000000000000000000000000000000000000000000000006001600160a01b0316906391d1485490604401602060405180830381865afa158015610c69573d6000803e3d6000fd5b505050506040513d601f19601f82011682018060405250810190610c8d91906112b8565b610cac57604051630d175fff60e31b8152336004820152602401610449565b6001600160401b03919091166000908152600260205260409020805460ff1916911515919091179055565b604051632474521560e21b81526000805160206117a483398151915260048201523360248201527f00000000000000000000000000000000000000000000000000000000000000006001600160a01b0316906391d1485490604401602060405180830381865afa158015610d4f573d6000803e3d6000fd5b505050506040513d601f19601f82011682018060405250810190610d7391906112b8565b610d9257604051630d175fff60e31b8152336004820152602401610449565b6001600160a01b03919091166000908152600360205260409020805460ff1916911515919091179055565b80602001518160400151806020019051810190610dda9190611608565b6001600160401b03821660009081526002602052604090205460ff16610e1e576040516326bfad9160e21b81526001600160401b0383166004820152602401610449565b6001600160a01b03811660009081526003602052604090205460ff16610e62576040516338c08ef960e11b81526001600160a01b0382166004820152602401610449565b60008360600151806020019051810190610e7c919061173b565b60408181015182516000908152600460209081528382206002908101805461ff00191661010095151595909502949094179093558085015185518352848320909301805460ff191660ff9094169390931790925587518451825290839020558681015187519288015180519495506001600160401b03909116937f7e5507e9a8d7f61eafce00d842e19dbd90aca18232c89ca598779e2aabca768c92610f289291820181019101611608565b845160208087015160408089015181516001600160a01b039690961686529285019390935260ff168383015215156060830152519081900360800190a350505050565b610fa66040518060a0016040528060608152602001606081526020016060815260200160006001600160a01b03168152602001606081525090565b6040805160a081019091526001600160a01b03851660c08201528060e0810160408051808303601f19018152918152908252602080830187905281516000808252918101835292909101919061101e565b6040805180820190915260008082526020820152815260200190600190039081610ff75790505b508152602001836001600160a01b03168152602001611085604051806020016040528062030d4081525060408051915160248084019190915281518084039091018152604490920190526020810180516001600160e01b03166397a657c960e01b17905290565b9052949350505050565b6000602082840312156110a157600080fd5b81356001600160e01b0319811681146110b957600080fd5b9392505050565b6001600160a01b038116811461064f57600080fd5b600080604083850312156110e857600080fd5b82356110f3816110c0565b91506020830135611103816110c0565b809150509250929050565b80356001600160401b038116811461112557600080fd5b919050565b60006020828403121561113c57600080fd5b6110b98261110e565b60006020828403121561115757600080fd5b5035919050565b6000815180845260005b8181101561118457602081850181015186830182015201611168565b506000602082860101526020601f19601f83011685010191505092915050565b6020815260006110b9602083018461115e565b6000602082840312156111c957600080fd5b81356110b9816110c0565b6000602082840312156111e657600080fd5b81356001600160401b038111156111fc57600080fd5b820160a081850312156110b957600080fd5b801515811461064f57600080fd5b6000806040838503121561122f57600080fd5b6112388361110e565b915060208301356111038161120e565b600080600083850361010081121561125f57600080fd5b6112688561110e565b93506020850135611278816110c0565b925060c0603f198201121561128c57600080fd5b506040840190509250925092565b600080604083850312156112ad57600080fd5b8235611238816110c0565b6000602082840312156112ca57600080fd5b81516110b98161120e565b6000602082840312156112e757600080fd5b5051919050565b600181811c9082168061130257607f821691505b60208210810361132257634e487b7160e01b600052602260045260246000fd5b50919050565b634e487b7160e01b600052604160045260246000fd5b604080519081016001600160401b038111828210171561136057611360611328565b60405290565b60405160a081016001600160401b038111828210171561136057611360611328565b604051601f8201601f191681016001600160401b03811182821017156113b0576113b0611328565b604052919050565b600082601f8301126113c957600080fd5b81356001600160401b038111156113e2576113e2611328565b6113f5601f8201601f1916602001611388565b81815284602083860101111561140a57600080fd5b816020850160208301376000918101602001919091529392505050565b600082601f83011261143857600080fd5b813560206001600160401b0382111561145357611453611328565b611461818360051b01611388565b82815260069290921b8401810191818101908684111561148057600080fd5b8286015b848110156114c8576040818903121561149d5760008081fd5b6114a561133e565b81356114b0816110c0565b81528185013585820152835291830191604001611484565b509695505050505050565b600060a082360312156114e557600080fd5b6114ed611366565b823581526114fd6020840161110e565b602082015260408301356001600160401b038082111561151c57600080fd5b611528368387016113b8565b6040840152606085013591508082111561154157600080fd5b61154d368387016113b8565b6060840152608085013591508082111561156657600080fd5b5061157336828601611427565b60808301525092915050565b60ff8116811461064f57600080fd5b813581526020808301359082015260c0810160408301356115ae8161157f565b60ff16604083015260608301356115c48161120e565b1515606083015260808301356115d9816110c0565b6001600160a01b03908116608084015260a0840135906115f8826110c0565b80821660a0850152505092915050565b60006020828403121561161a57600080fd5b81516110b9816110c0565b600060406001600160401b03851683526020604081850152845160a0604086015261165360e086018261115e565b905081860151603f1980878403016060880152611670838361115e565b6040890151888203830160808a01528051808352908601945060009350908501905b808410156116c457845180516001600160a01b0316835286015186830152938501936001939093019290860190611692565b5060608901516001600160a01b031660a08901526080890151888203830160c08a015295506116f3818761115e565b9a9950505050505050505050565b60006020828403121561171357600080fd5b81356110b98161157f565b60006020828403121561173057600080fd5b81356110b98161120e565b60006060828403121561174d57600080fd5b604051606081018181106001600160401b038211171561176f5761176f611328565b6040528251815260208301516117848161157f565b602082015260408301516117978161120e565b6040820152939250505056feb19546dff01e856fb3f010c267a7b1c60363cf8a4664e21cc89c26224620214ea26469706673582212203510eb053fad8fdf63db191a577bfc2445649df7a7212c94dcd1b1a243c7cbf664736f6c63430008170033",
  "linkReferences": {},
  "deployedLinkReferences": {}
}