{
  "_format": "hh-sol-artifact-1",
  "contractName": "LoanSafeMumbai",
  "sourceName": "contracts/Mumbai/users/LoanSafeMumbai.sol",
  "abi": [
    {
      "inputs": [
        {
          "internalType": "address",
          "name": "_router",
          "type": "address"
        },
        {
          "internalType": "address",
          "name": "_link",
          "type": "address"
        }
      ],
      "stateMutability": "nonpayable",
      "type": "constructor"
    },
    {
      "inputs": [
        {
          "internalType": "address",
          "name": "target",
          "type": "address"
        }
      ],
      "name": "AddressEmptyCode",
      "type": "error"
    },
    {
      "inputs": [
        {
          "internalType": "address",
          "name": "account",
          "type": "address"
        }
      ],
      "name": "AddressInsufficientBalance",
      "type": "error"
    },
    {
      "inputs": [],
      "name": "FailedInnerCall",
      "type": "error"
    },
    {
      "inputs": [
        {
          "internalType": "address",
          "name": "token",
          "type": "address"
        }
      ],
      "name": "SafeERC20FailedOperation",
      "type": "error"
    },
    {
      "inputs": [
        {
          "internalType": "address",
          "name": "caller",
          "type": "address"
        }
      ],
      "name": "UnauthorizedAccess",
      "type": "error"
    },
    {
      "anonymous": false,
      "inputs": [
        {
          "indexed": true,
          "internalType": "uint256",
          "name": "loanId",
          "type": "uint256"
        },
        {
          "indexed": false,
          "internalType": "uint256",
          "name": "startTimestamp",
          "type": "uint256"
        }
      ],
      "name": "LoanStarted",
      "type": "event"
    },
    {
      "inputs": [],
      "name": "USER_ACCESS_MANAGER",
      "outputs": [
        {
          "internalType": "contract IAccessManagerMumbai",
          "name": "",
          "type": "address"
        }
      ],
      "stateMutability": "view",
      "type": "function"
    },
    {
      "inputs": [],
      "name": "USER_MESSENGER",
      "outputs": [
        {
          "internalType": "contract IMessengerMumbai",
          "name": "",
          "type": "address"
        }
      ],
      "stateMutability": "view",
      "type": "function"
    },
    {
      "inputs": [
        {
          "internalType": "uint256",
          "name": "_loanId",
          "type": "uint256"
        }
      ],
      "name": "checkLoanCollateral",
      "outputs": [
        {
          "internalType": "bool",
          "name": "isValid",
          "type": "bool"
        }
      ],
      "stateMutability": "view",
      "type": "function"
    },
    {
      "inputs": [
        {
          "internalType": "address",
          "name": "",
          "type": "address"
        },
        {
          "internalType": "address",
          "name": "",
          "type": "address"
        },
        {
          "internalType": "uint256",
          "name": "",
          "type": "uint256"
        },
        {
          "internalType": "bytes",
          "name": "",
          "type": "bytes"
        }
      ],
      "name": "onERC721Received",
      "outputs": [
        {
          "internalType": "bytes4",
          "name": "",
          "type": "bytes4"
        }
      ],
      "stateMutability": "pure",
      "type": "function"
    },
    {
      "inputs": [
        {
          "internalType": "uint256",
          "name": "_loanId",
          "type": "uint256"
        },
        {
          "internalType": "address",
          "name": "_receiver",
          "type": "address"
        }
      ],
      "name": "seizeCollateral",
      "outputs": [],
      "stateMutability": "nonpayable",
      "type": "function"
    },
    {
      "inputs": [
        {
          "internalType": "uint256",
          "name": "_loanId",
          "type": "uint256"
        }
      ],
      "name": "sendBackCollateral",
      "outputs": [],
      "stateMutability": "nonpayable",
      "type": "function"
    },
    {
      "inputs": [
        {
          "internalType": "uint256",
          "name": "_loanId",
          "type": "uint256"
        },
        {
          "internalType": "uint256",
          "name": "_collateralAmountOrId",
          "type": "uint256"
        },
        {
          "internalType": "bool",
          "name": "_collateralType",
          "type": "bool"
        },
        {
          "internalType": "address",
          "name": "_collateralAddress",
          "type": "address"
        },
        {
          "internalType": "address",
          "name": "_borrower",
          "type": "address"
        }
      ],
      "name": "setLoanData",
      "outputs": [],
      "stateMutability": "nonpayable",
      "type": "function"
    }
  ],
  "bytecode": "0x60c060405234801561001057600080fd5b506040516139c93803806139c983398101604081905261002f9161010e565b3360405161003c906100d8565b6001600160a01b039091168152602001604051809103906000f080158015610068573d6000803e3d6000fd5b506001600160a01b0316608081905260405183918391610087906100e5565b6001600160a01b03938416815291831660208301529091166040820152606001604051809103906000f0801580156100c3573d6000803e3d6000fd5b506001600160a01b031660a052506101419050565b61102b80610bc983390190565b611dd580611bf483390190565b80516001600160a01b038116811461010957600080fd5b919050565b6000806040838503121561012157600080fd5b61012a836100f2565b9150610138602084016100f2565b90509250929050565b60805160a051610a4e61017b6000396000818161010f015281816102f2015281816104360152610517015260006101610152610a4e6000f3fe608060405234801561001057600080fd5b506004361061007d5760003560e01c8063696810b01161005b578063696810b0146100f75780639e76c96d1461010a578063ac9cf4db14610149578063e2fff8291461015c57600080fd5b806301b7053b14610082578063150b7a02146100aa5780631e7046db146100e2575b600080fd5b61009561009036600461082c565b610183565b60405190151581526020015b60405180910390f35b6100c96100b836600461085a565b630a85bd0160e11b95945050505050565b6040516001600160e01b031990911681526020016100a1565b6100f56100f036600461082c565b6102e7565b005b6100f5610105366004610907565b61042b565b6101317f000000000000000000000000000000000000000000000000000000000000000081565b6040516001600160a01b0390911681526020016100a1565b6100f5610157366004610966565b61050c565b6101317f000000000000000000000000000000000000000000000000000000000000000081565b600081815260208181526040808320815160808101835281548152600182015460ff811615159482018590526001600160a01b03610100909104811693820193909352600290910154909116606082015290820361026757604081810151825191516331a9108f60e11b8152600481019290925230916001600160a01b0390911690636352211e90602401602060405180830381865afa15801561022b573d6000803e3d6000fd5b505050506040513d601f19601f8201168201806040525081019061024f9190610996565b6001600160a01b03160361026257600191505b6102e1565b805160408083015190516370a0823160e01b81523060048201526001600160a01b03909116906370a0823190602401602060405180830381865afa1580156102b3573d6000803e3d6000fd5b505050506040513d601f19601f820116820180604052508101906102d791906109b3565b106102e157600191505b50919050565b336001600160a01b037f0000000000000000000000000000000000000000000000000000000000000000161461033757604051633733be5960e21b81523360048201526024015b60405180910390fd5b600081815260208181526040808320815160808101835281548152600182015460ff811615159482018590526001600160a01b036101009091048116938201939093526002909101549091166060820152910361040657604081810151606083015183519251632142170760e11b81523060048201526001600160a01b039182166024820152604481019390935216906342842e0e90606401600060405180830381600087803b1580156103ea57600080fd5b505af11580156103fe573d6000803e3d6000fd5b505050505050565b606081015181516040830151610427926001600160a01b0390911691610646565b5050565b336001600160a01b037f0000000000000000000000000000000000000000000000000000000000000000161461047657604051633733be5960e21b815233600482015260240161032e565b6040805160808101825294855292151560208086019182526001600160a01b0393841686860190815292841660608701908152600097885290879052939095209351845593516001840180549551831661010002610100600160a81b0319921515929092166001600160a81b031990961695909517179093555160029091018054919092166001600160a01b0319909116179055565b336001600160a01b037f0000000000000000000000000000000000000000000000000000000000000000161461055757604051633733be5960e21b815233600482015260240161032e565b600082815260208181526040808320815160808101835281548152600182015460ff811615159482018590526001600160a01b03610100909104811693820193909352600290910154909116606082015291036106235760408181015182519151632142170760e11b81523060048201526001600160a01b03858116602483015260448201939093529116906342842e0e90606401600060405180830381600087803b15801561060657600080fd5b505af115801561061a573d6000803e3d6000fd5b50505050505050565b80516040820151610641916001600160a01b03909116908490610646565b505050565b604080516001600160a01b03848116602483015260448083018590528351808403909101815260649092019092526020810180516001600160e01b031663a9059cbb60e01b179052610641918591906000906106a4908416836106f2565b905080516000141580156106c95750808060200190518101906106c791906109cc565b155b1561064157604051635274afe760e01b81526001600160a01b038416600482015260240161032e565b606061070083836000610707565b9392505050565b60608147101561072c5760405163cd78605960e01b815230600482015260240161032e565b600080856001600160a01b0316848660405161074891906109e9565b60006040518083038185875af1925050503d8060008114610785576040519150601f19603f3d011682016040523d82523d6000602084013e61078a565b606091505b509150915061079a8683836107a4565b9695505050505050565b6060826107b9576107b482610800565b610700565b81511580156107d057506001600160a01b0384163b155b156107f957604051639996b31560e01b81526001600160a01b038516600482015260240161032e565b5080610700565b8051156108105780518082602001fd5b604051630a12f52160e11b815260040160405180910390fd5b50565b60006020828403121561083e57600080fd5b5035919050565b6001600160a01b038116811461082957600080fd5b60008060008060006080868803121561087257600080fd5b853561087d81610845565b9450602086013561088d81610845565b935060408601359250606086013567ffffffffffffffff808211156108b157600080fd5b818801915088601f8301126108c557600080fd5b8135818111156108d457600080fd5b8960208285010111156108e657600080fd5b9699959850939650602001949392505050565b801515811461082957600080fd5b600080600080600060a0868803121561091f57600080fd5b85359450602086013593506040860135610938816108f9565b9250606086013561094881610845565b9150608086013561095881610845565b809150509295509295909350565b6000806040838503121561097957600080fd5b82359150602083013561098b81610845565b809150509250929050565b6000602082840312156109a857600080fd5b815161070081610845565b6000602082840312156109c557600080fd5b5051919050565b6000602082840312156109de57600080fd5b8151610700816108f9565b6000825160005b81811015610a0a57602081860181015185830152016109f0565b50600092019182525091905056fea26469706673582212207c436101e61d51e727c91d24644387f5f835e8ff0dc51eafa290bdfb056499e464736f6c6343000817003360806040523480156200001157600080fd5b506040516200102b3803806200102b8339810160408190526200003491620001ec565b6203f48033806200005f57604051636116401160e11b81526000600482015260240160405180910390fd5b600180546001600160d01b0316600160d01b65ffffffffffff8516021790556200008b600082620000c8565b505050620000c07fb19546dff01e856fb3f010c267a7b1c60363cf8a4664e21cc89c26224620214e82620000c860201b60201c565b50506200021e565b60008262000129576000620000e56002546001600160a01b031690565b6001600160a01b0316146200010d57604051631fe1e13d60e11b815260040160405180910390fd5b600280546001600160a01b0319166001600160a01b0384161790555b6200013583836200013e565b90505b92915050565b6000828152602081815260408083206001600160a01b038516845290915281205460ff16620001e3576000838152602081815260408083206001600160a01b03861684529091529020805460ff191660011790556200019a3390565b6001600160a01b0316826001600160a01b0316847f2f8788117e7eff1d82e926ec794901d17c78024a50270940304540a733656f0d60405160405180910390a450600162000138565b50600062000138565b600060208284031215620001ff57600080fd5b81516001600160a01b03811681146200021757600080fd5b9392505050565b610dfd806200022e6000396000f3fe608060405234801561001057600080fd5b50600436106101375760003560e01c80638da5cb5b116100b8578063cc8463c81161007c578063cc8463c81461029c578063cefc1429146102a4578063cf6eefb7146102ac578063d547741f146102da578063d602b9fd146102ed578063e58378bb146102f557600080fd5b80638da5cb5b1461023f57806391d14854146102475780639c5bdeb41461025a578063a1eda53c1461026d578063a217fddf1461029457600080fd5b806336568abe116100ff57806336568abe146101ce578063397a8bab146101e1578063634e93da146101f4578063649a5ec71461020757806384ef8ffc1461021a57600080fd5b806301ffc9a71461013c578063022d63fb146101645780630aa6220b14610180578063248a9ca31461018a5780632f2ff15d146101bb575b600080fd5b61014f61014a366004610c9e565b61031c565b60405190151581526020015b60405180910390f35b620697805b60405165ffffffffffff909116815260200161015b565b610188610347565b005b6101ad610198366004610cc8565b60009081526020819052604090206001015490565b60405190815260200161015b565b6101886101c9366004610cfd565b61035d565b6101886101dc366004610cfd565b610389565b6101886101ef366004610d29565b610435565b610188610202366004610d29565b610495565b610188610215366004610d44565b6104a9565b6002546001600160a01b03165b6040516001600160a01b03909116815260200161015b565b6102276104bd565b61014f610255366004610cfd565b6104d6565b610188610268366004610d29565b6104ff565b61027561053e565b6040805165ffffffffffff93841681529290911660208301520161015b565b6101ad600081565b610169610592565b6101886105f1565b6102b4610631565b604080516001600160a01b03909316835265ffffffffffff90911660208301520161015b565b6101886102e8366004610cfd565b610652565b61018861067a565b6101ad7fb19546dff01e856fb3f010c267a7b1c60363cf8a4664e21cc89c26224620214e81565b60006001600160e01b031982166318a4c3c360e11b148061034157506103418261068d565b92915050565b6000610352816106c2565b61035a6106cc565b50565b8161037b57604051631fe1e13d60e11b815260040160405180910390fd5b61038582826106d9565b5050565b811580156103a457506002546001600160a01b038281169116145b1561042b576000806103b4610631565b90925090506001600160a01b0382161515806103d6575065ffffffffffff8116155b806103e957504265ffffffffffff821610155b15610416576040516319ca5ebb60e01b815265ffffffffffff821660048201526024015b60405180910390fd5b50506001805465ffffffffffff60a01b191690555b6103858282610704565b6104406000336104d6565b61046b57335b604051633733be5960e21b81526001600160a01b03909116600482015260240161040d565b6103857fb19546dff01e856fb3f010c267a7b1c60363cf8a4664e21cc89c26224620214e8261073c565b60006104a0816106c2565b610385826107ab565b60006104b4816106c2565b6103858261081e565b60006104d16002546001600160a01b031690565b905090565b6000918252602082815260408084206001600160a01b0393909316845291905290205460ff1690565b61050a6000336104d6565b6105145733610446565b6103857fb19546dff01e856fb3f010c267a7b1c60363cf8a4664e21cc89c26224620214e8261088e565b600254600090600160d01b900465ffffffffffff16801515801561056a57504265ffffffffffff821610155b6105765760008061058a565b600254600160a01b900465ffffffffffff16815b915091509091565b600254600090600160d01b900465ffffffffffff1680151580156105bd57504265ffffffffffff8216105b6105d857600154600160d01b900465ffffffffffff166105eb565b600254600160a01b900465ffffffffffff165b91505090565b60006105fb610631565b509050336001600160a01b0382161461062957604051636116401160e11b815233600482015260240161040d565b61035a6108cb565b6001546001600160a01b03811691600160a01b90910465ffffffffffff1690565b8161067057604051631fe1e13d60e11b815260040160405180910390fd5b6103858282610964565b6000610685816106c2565b61035a610989565b60006001600160e01b03198216637965db0b60e01b148061034157506301ffc9a760e01b6001600160e01b0319831614610341565b61035a8133610994565b6106d76000806109cd565b565b6000828152602081905260409020600101546106f4816106c2565b6106fe838361073c565b50505050565b6001600160a01b038116331461072d5760405163334bd91960e11b815260040160405180910390fd5b610737828261088e565b505050565b60008261079a5760006107576002546001600160a01b031690565b6001600160a01b03161461077e57604051631fe1e13d60e11b815260040160405180910390fd5b600280546001600160a01b0319166001600160a01b0384161790555b6107a48383610a8d565b9392505050565b60006107b5610592565b6107be42610b1f565b6107c89190610d82565b90506107d48282610b56565b60405165ffffffffffff821681526001600160a01b038316907f3377dc44241e779dd06afab5b788a35ca5f3b778836e2990bdb26a2a4b2e5ed69060200160405180910390a25050565b600061082982610bd5565b61083242610b1f565b61083c9190610d82565b905061084882826109cd565b6040805165ffffffffffff8085168252831660208201527ff1038c18cf84a56e432fdbfaf746924b7ea511dfe03a6506a0ceba4888788d9b910160405180910390a15050565b6000821580156108ab57506002546001600160a01b038381169116145b156108c157600280546001600160a01b03191690555b6107a48383610c1d565b6000806108d6610631565b915091506108eb8165ffffffffffff16151590565b15806108ff57504265ffffffffffff821610155b15610927576040516319ca5ebb60e01b815265ffffffffffff8216600482015260240161040d565b610943600061093e6002546001600160a01b031690565b61088e565b5061094f60008361073c565b5050600180546001600160d01b031916905550565b60008281526020819052604090206001015461097f816106c2565b6106fe838361088e565b6106d7600080610b56565b61099e82826104d6565b6103855760405163e2517d3f60e01b81526001600160a01b03821660048201526024810183905260440161040d565b600254600160d01b900465ffffffffffff168015610a50574265ffffffffffff82161015610a2657600254600180546001600160d01b0316600160a01b90920465ffffffffffff16600160d01b02919091179055610a50565b6040517f2b1fa2edafe6f7b9e97c1a9e0c3660e645beb2dcaa2d45bdbf9beaf5472e1ec590600090a15b50600280546001600160a01b0316600160a01b65ffffffffffff948516026001600160d01b031617600160d01b9290931691909102919091179055565b6000610a9983836104d6565b610b17576000838152602081815260408083206001600160a01b03861684529091529020805460ff19166001179055610acf3390565b6001600160a01b0316826001600160a01b0316847f2f8788117e7eff1d82e926ec794901d17c78024a50270940304540a733656f0d60405160405180910390a4506001610341565b506000610341565b600065ffffffffffff821115610b52576040516306dfcc6560e41b8152603060048201526024810183905260440161040d565b5090565b6000610b60610631565b6001805465ffffffffffff8616600160a01b026001600160d01b03199091166001600160a01b038816171790559150610ba290508165ffffffffffff16151590565b15610737576040517f8886ebfc4259abdbc16601dd8fb5678e54878f47b3c34836cfc51154a960510990600090a1505050565b600080610be0610592565b90508065ffffffffffff168365ffffffffffff1611610c0857610c038382610da8565b6107a4565b6107a465ffffffffffff841662069780610c88565b6000610c2983836104d6565b15610b17576000838152602081815260408083206001600160a01b0386168085529252808320805460ff1916905551339286917ff6391f5c32d9c69d2a47ea670b442974b53935d1edc7fd64eb21e047a839171b9190a4506001610341565b6000818310610c9757816107a4565b5090919050565b600060208284031215610cb057600080fd5b81356001600160e01b0319811681146107a457600080fd5b600060208284031215610cda57600080fd5b5035919050565b80356001600160a01b0381168114610cf857600080fd5b919050565b60008060408385031215610d1057600080fd5b82359150610d2060208401610ce1565b90509250929050565b600060208284031215610d3b57600080fd5b6107a482610ce1565b600060208284031215610d5657600080fd5b813565ffffffffffff811681146107a457600080fd5b634e487b7160e01b600052601160045260246000fd5b65ffffffffffff818116838216019080821115610da157610da1610d6c565b5092915050565b65ffffffffffff828116828216039080821115610da157610da1610d6c56fea2646970667358221220c36070782f9f907d858ba221be0b0b6a4afb52ec24bd9206da2a6c75cae4c8ab64736f6c6343000817003360e06040523480156200001157600080fd5b5060405162001dd538038062001dd58339810160408190526200003491620000b2565b826001600160a01b03811662000064576040516335fdcccd60e21b81526000600482015260240160405180910390fd5b6001600160a01b03908116608052600480546001600160a01b031916938216939093179092551660a052503360c05262000106565b6001600160a01b0381168114620000af57600080fd5b50565b600080600060608486031215620000c857600080fd5b8351620000d58162000099565b6020850151909350620000e88162000099565b6040850151909250620000fb8162000099565b809150509250925092565b60805160a05160c051611c44620001916000396000818161028e01528181610aa60152818161106a015281816111020152818161117d015281816111f0015261128a015260008181610319015281816103f90152818161083c015281816109fe01528181610b9501528181610c7b0152610d610152600081816102dd0152610b180152611c446000f3fe608060405234801561001057600080fd5b50600436106100f55760003560e01c806375c67c6611610097578063b0f479a111610066578063b0f479a1146102db578063db04fa4914610301578063e2fff82914610314578063eab5b02c1461033b57600080fd5b806375c67c661461025357806385572ffb1461027657806394ab121f1461028957806396d3b83d146102c857600080fd5b80634030d521116100d35780634030d5211461014a5780636159ada11461016d578063622fe39f146101905780636d6efa291461024057600080fd5b806301ffc9a7146100fa57806313e32554146101225780633aeac4e114610137575b600080fd5b61010d61010836600461159c565b61034e565b60405190151581526020015b60405180910390f35b6101356101303660046115f7565b610385565b005b610135610145366004611637565b610813565b61010d610158366004611670565b60016020526000908152604090205460ff1681565b61010d61017b36600461168b565b60026020526000908152604090205460ff1681565b61020861019e3660046116a8565b604080516080808201835260008083526020808401829052838501829052606093840182905294815260038552839020835191820184528054825260018101549482019490945260029093015460ff80821693850193909352610100900490911615159082015290565b6040516101199190815181526020808301519082015260408083015160ff169082015260609182015115159181019190915260800190565b61013561024e3660046116a8565b6109d5565b61010d610261366004611670565b60006020819052908152604090205460ff1681565b6101356102843660046116c1565b610b0d565b6102b07f000000000000000000000000000000000000000000000000000000000000000081565b6040516001600160a01b039091168152602001610119565b6101356102d6366004611709565b610b6c565b7f00000000000000000000000000000000000000000000000000000000000000006102b0565b61013561030f366004611709565b610c52565b6102b07f000000000000000000000000000000000000000000000000000000000000000081565b610135610349366004611735565b610d38565b60006001600160e01b031982166385572ffb60e01b148061037f57506001600160e01b031982166301ffc9a760e01b145b92915050565b6001600160401b038316600090815260208190526040902054839060ff166103d057604051630a503cdb60e01b81526001600160401b03821660048201526024015b60405180910390fd5b604051632474521560e21b8152600080516020611bef83398151915260048201523360248201527f00000000000000000000000000000000000000000000000000000000000000006001600160a01b0316906391d1485490604401602060405180830381865afa158015610448573d6000803e3d6000fd5b505050506040513d601f19601f8201168201806040525081019061046c9190611753565b61048b5760405163effcd4cf60e01b81523360048201526024016103c7565b60008381526003602090815260408083208151608080820184528254825260018301548286015260029092015460ff808216838601908152610100909204811615156060808501918252865180820188528c8152935183168489019081529151151593870193845286519788018c90529051909116868601529051151585820152835180860390910181529390910190915260045490929061053990869084906001600160a01b0316610e1e565b90506000306001600160a01b031663b0f479a16040518163ffffffff1660e01b8152600401602060405180830381865afa15801561057b573d6000803e3d6000fd5b505050506040513d601f19601f8201168201806040525081019061059f919061177b565b90506000816001600160a01b03166320487ded8a856040518363ffffffff1660e01b81526004016105d19291906117e8565b602060405180830381865afa1580156105ee573d6000803e3d6000fd5b505050506040513d601f19601f8201168201806040525081019061061291906118c4565b600480546040516370a0823160e01b815230928101929092529192506001600160a01b03909116906370a0823190602401602060405180830381865afa158015610660573d6000803e3d6000fd5b505050506040513d601f19601f8201168201806040525081019061068491906118c4565b81111561071c57600480546040516370a0823160e01b815230928101929092526001600160a01b0316906370a0823190602401602060405180830381865afa1580156106d4573d6000803e3d6000fd5b505050506040513d601f19601f820116820180604052508101906106f891906118c4565b604051634787a10360e11b81526004810191909152602481018290526044016103c7565b6004805460405163095ea7b360e01b81526001600160a01b03858116938201939093526024810184905291169063095ea7b3906044016020604051808303816000875af1158015610771573d6000803e3d6000fd5b505050506040513d601f19601f820116820180604052508101906107959190611753565b506040516396f4e9f960e01b81526001600160a01b038316906396f4e9f9906107c4908c9087906004016117e8565b6020604051808303816000875af11580156107e3573d6000803e3d6000fd5b505050506040513d601f19601f8201168201806040525081019061080791906118c4565b50505050505050505050565b604051632474521560e21b8152600080516020611bef83398151915260048201523360248201527f00000000000000000000000000000000000000000000000000000000000000006001600160a01b0316906391d1485490604401602060405180830381865afa15801561088b573d6000803e3d6000fd5b505050506040513d601f19601f820116820180604052508101906108af9190611753565b6108ce57604051630d175fff60e31b81523360048201526024016103c7565b6040516370a0823160e01b81523060048201526000906001600160a01b038316906370a0823190602401602060405180830381865afa158015610915573d6000803e3d6000fd5b505050506040513d601f19601f8201168201806040525081019061093991906118c4565b90508060000361095c57604051630686827b60e51b815260040160405180910390fd5b60405163a9059cbb60e01b81526001600160a01b0384811660048301526024820183905283169063a9059cbb906044016020604051808303816000875af11580156109ab573d6000803e3d6000fd5b505050506040513d601f19601f820116820180604052508101906109cf9190611753565b50505050565b604051632474521560e21b8152600080516020611bef83398151915260048201523360248201527f00000000000000000000000000000000000000000000000000000000000000006001600160a01b0316906391d1485490604401602060405180830381865afa158015610a4d573d6000803e3d6000fd5b505050506040513d601f19601f82011682018060405250810190610a719190611753565b610a9057604051630d175fff60e31b81523360048201526024016103c7565b604051631e7046db60e01b8152600481018290527f00000000000000000000000000000000000000000000000000000000000000006001600160a01b031690631e7046db90602401600060405180830381600087803b158015610af257600080fd5b505af1158015610b06573d6000803e3d6000fd5b5050505050565b336001600160a01b037f00000000000000000000000000000000000000000000000000000000000000001614610b58576040516335fdcccd60e21b81523360048201526024016103c7565b610b69610b6482611a88565b610f44565b50565b604051632474521560e21b8152600080516020611bef83398151915260048201523360248201527f00000000000000000000000000000000000000000000000000000000000000006001600160a01b0316906391d1485490604401602060405180830381865afa158015610be4573d6000803e3d6000fd5b505050506040513d601f19601f82011682018060405250810190610c089190611753565b610c2757604051630d175fff60e31b81523360048201526024016103c7565b6001600160401b03919091166000908152602081905260409020805460ff1916911515919091179055565b604051632474521560e21b8152600080516020611bef83398151915260048201523360248201527f00000000000000000000000000000000000000000000000000000000000000006001600160a01b0316906391d1485490604401602060405180830381865afa158015610cca573d6000803e3d6000fd5b505050506040513d601f19601f82011682018060405250810190610cee9190611753565b610d0d57604051630d175fff60e31b81523360048201526024016103c7565b6001600160401b03919091166000908152600160205260409020805460ff1916911515919091179055565b604051632474521560e21b8152600080516020611bef83398151915260048201523360248201527f00000000000000000000000000000000000000000000000000000000000000006001600160a01b0316906391d1485490604401602060405180830381865afa158015610db0573d6000803e3d6000fd5b505050506040513d601f19601f82011682018060405250810190610dd49190611753565b610df357604051630d175fff60e31b81523360048201526024016103c7565b6001600160a01b03919091166000908152600260205260409020805460ff1916911515919091179055565b610e596040518060a0016040528060608152602001606081526020016060815260200160006001600160a01b03168152602001606081525090565b6040805160a081019091526001600160a01b03851660c08201528060e0810160408051808303601f190181529181529082526020808301879052815160008082529181018352929091019190610ed1565b6040805180820190915260008082526020820152815260200190600190039081610eaa5790505b508152602001836001600160a01b03168152602001610f38604051806020016040528062030d4081525060408051915160248084019190915281518084039091018152604490920190526020810180516001600160e01b03166397a657c960e01b17905290565b905290505b9392505050565b80602001518160400151806020019051810190610f61919061177b565b6001600160401b03821660009081526001602052604090205460ff16610fa5576040516326bfad9160e21b81526001600160401b03831660048201526024016103c7565b6001600160a01b03811660009081526002602052604090205460ff16610fe9576040516338c08ef960e11b81526001600160a01b03821660048201526024016103c7565b60008084606001518060200190518101906110049190611b34565b9050806040015160ff166000036111c857805160208201516060830151608084015160a0850151604051630696810b60e41b81526004810195909552602485019390935290151560448401526001600160a01b03908116606484015290811660848301527f0000000000000000000000000000000000000000000000000000000000000000169063696810b09060a401600060405180830381600087803b1580156110ae57600080fd5b505af11580156110c2573d6000803e3d6000fd5b505050506060810151151560000361117357608081015160a08201516020830151604051632142170760e11b81526001600160a01b0392831660048201527f00000000000000000000000000000000000000000000000000000000000000008316602482015260448101919091529116906342842e0e90606401600060405180830381600087803b15801561115657600080fd5b505af115801561116a573d6000803e3d6000fd5b505050506111bf565b6111bf8160a001517f0000000000000000000000000000000000000000000000000000000000000000836020015184608001516001600160a01b03166113dc909392919063ffffffff16565b60019150611306565b806040015160ff1660010361125d578051604051631e7046db60e01b815260048101919091527f00000000000000000000000000000000000000000000000000000000000000006001600160a01b031690631e7046db90602401600060405180830381600087803b15801561123c57600080fd5b505af1158015611250573d6000803e3d6000fd5b5050505060019150611306565b806040015160ff1660020361130657805160a082015160405163ac9cf4db60e01b81526001600160a01b037f0000000000000000000000000000000000000000000000000000000000000000169263ac9cf4db926112cf926004019182526001600160a01b0316602082015260400190565b600060405180830381600087803b1580156112e957600080fd5b505af11580156112fd573d6000803e3d6000fd5b50505050600191505b84602001516001600160401b031685600001517f4d89d3da9f11174e0c7489a47200c09676f0cf9252477f5a12205eaea81851648760400151806020019051810190611352919061177b565b845160408087015181516001600160a01b039094168452602084019290925260ff90911690820152851515606082015260800160405180910390a36040818101518251600090815260036020528281206002908101805460ff191660ff9094169390931790925592518352912001805461ff00191661010092151592909202919091179055505050565b604080516001600160a01b038581166024830152848116604483015260648083018590528351808403909101815260849092019092526020810180516001600160e01b03166323b872dd60e01b1790526109cf9186919060009061144290841683611495565b905080516000141580156114675750808060200190518101906114659190611753565b155b1561149057604051635274afe760e01b81526001600160a01b03841660048201526024016103c7565b505050565b6060610f3d8383600084600080856001600160a01b031684866040516114bb9190611bd2565b60006040518083038185875af1925050503d80600081146114f8576040519150601f19603f3d011682016040523d82523d6000602084013e6114fd565b606091505b509150915061150d868383611517565b9695505050505050565b60608261152c5761152782611573565b610f3d565b815115801561154357506001600160a01b0384163b155b1561156c57604051639996b31560e01b81526001600160a01b03851660048201526024016103c7565b5080610f3d565b8051156115835780518082602001fd5b604051630a12f52160e11b815260040160405180910390fd5b6000602082840312156115ae57600080fd5b81356001600160e01b031981168114610f3d57600080fd5b80356001600160401b03811681146115dd57600080fd5b919050565b6001600160a01b0381168114610b6957600080fd5b60008060006060848603121561160c57600080fd5b611615846115c6565b925060208401359150604084013561162c816115e2565b809150509250925092565b6000806040838503121561164a57600080fd5b8235611655816115e2565b91506020830135611665816115e2565b809150509250929050565b60006020828403121561168257600080fd5b610f3d826115c6565b60006020828403121561169d57600080fd5b8135610f3d816115e2565b6000602082840312156116ba57600080fd5b5035919050565b6000602082840312156116d357600080fd5b81356001600160401b038111156116e957600080fd5b820160a08185031215610f3d57600080fd5b8015158114610b6957600080fd5b6000806040838503121561171c57600080fd5b611725836115c6565b91506020830135611665816116fb565b6000806040838503121561174857600080fd5b8235611725816115e2565b60006020828403121561176557600080fd5b8151610f3d816116fb565b80516115dd816115e2565b60006020828403121561178d57600080fd5b8151610f3d816115e2565b60005b838110156117b357818101518382015260200161179b565b50506000910152565b600081518084526117d4816020860160208601611798565b601f01601f19169290920160200192915050565b600060406001600160401b03851683526020604081850152845160a0604086015261181660e08601826117bc565b905081860151603f198087840301606088015261183383836117bc565b6040890151888203830160808a01528051808352908601945060009350908501905b8084101561188757845180516001600160a01b0316835286015186830152938501936001939093019290860190611855565b5060608901516001600160a01b031660a08901526080890151888203830160c08a015295506118b681876117bc565b9a9950505050505050505050565b6000602082840312156118d657600080fd5b5051919050565b634e487b7160e01b600052604160045260246000fd5b604080519081016001600160401b0381118282101715611915576119156118dd565b60405290565b60405160a081016001600160401b0381118282101715611915576119156118dd565b604051601f8201601f191681016001600160401b0381118282101715611965576119656118dd565b604052919050565b600082601f83011261197e57600080fd5b81356001600160401b03811115611997576119976118dd565b6119aa601f8201601f191660200161193d565b8181528460208386010111156119bf57600080fd5b816020850160208301376000918101602001919091529392505050565b600082601f8301126119ed57600080fd5b813560206001600160401b03821115611a0857611a086118dd565b611a16818360051b0161193d565b82815260069290921b84018101918181019086841115611a3557600080fd5b8286015b84811015611a7d5760408189031215611a525760008081fd5b611a5a6118f3565b8135611a65816115e2565b81528185013585820152835291830191604001611a39565b509695505050505050565b600060a08236031215611a9a57600080fd5b611aa261191b565b82358152611ab2602084016115c6565b602082015260408301356001600160401b0380821115611ad157600080fd5b611add3683870161196d565b60408401526060850135915080821115611af657600080fd5b611b023683870161196d565b60608401526080850135915080821115611b1b57600080fd5b50611b28368286016119dc565b60808301525092915050565b600060c08284031215611b4657600080fd5b60405160c081018181106001600160401b0382111715611b6857611b686118dd565b80604052508251815260208301516020820152604083015160ff81168114611b8f57600080fd5b60408201526060830151611ba2816116fb565b60608201526080830151611bb5816115e2565b6080820152611bc660a08401611770565b60a08201529392505050565b60008251611be4818460208701611798565b919091019291505056feb19546dff01e856fb3f010c267a7b1c60363cf8a4664e21cc89c26224620214ea2646970667358221220bbb1e17256edff2847b255640112781ea4fc17610095379f6d8f976b64e56be364736f6c63430008170033",
  "linkReferences": {},
  "deployedLinkReferences": {}
}