{
  "_format": "hh-sol-artifact-1",
  "contractName": "MailboxSepolia",
  "sourceName": "contracts/Sepolia/users/MailboxSepolia.sol",
  "abi": [
    {
      "inputs": [
        {
          "internalType": "address",
          "name": "_ghoSafeId",
          "type": "address"
        }
      ],
      "stateMutability": "nonpayable",
      "type": "constructor"
    },
    {
      "inputs": [
        {
          "internalType": "address",
          "name": "caller",
          "type": "address"
        }
      ],
      "name": "NoGhoSafeIDFound",
      "type": "error"
    },
    {
      "anonymous": false,
      "inputs": [
        {
          "indexed": true,
          "internalType": "uint256",
          "name": "loanRequestId",
          "type": "uint256"
        },
        {
          "indexed": true,
          "internalType": "address",
          "name": "borrower",
          "type": "address"
        },
        {
          "indexed": false,
          "internalType": "uint256",
          "name": "collateralAmountOrId",
          "type": "uint256"
        },
        {
          "indexed": false,
          "internalType": "address",
          "name": "collateralAddress",
          "type": "address"
        },
        {
          "indexed": false,
          "internalType": "uint64",
          "name": "collateralChainId",
          "type": "uint64"
        },
        {
          "indexed": false,
          "internalType": "bool",
          "name": "collateralType",
          "type": "bool"
        },
        {
          "indexed": false,
          "internalType": "uint256",
          "name": "amountToBorrow",
          "type": "uint256"
        },
        {
          "indexed": false,
          "internalType": "uint256",
          "name": "loanDuration",
          "type": "uint256"
        }
      ],
      "name": "LoanRequestCreated",
      "type": "event"
    },
    {
      "inputs": [],
      "name": "SAFE_ADDRESS",
      "outputs": [
        {
          "internalType": "address",
          "name": "",
          "type": "address"
        }
      ],
      "stateMutability": "view",
      "type": "function"
    },
    {
      "inputs": [
        {
          "internalType": "uint256",
          "name": "_loanRequestId",
          "type": "uint256"
        }
      ],
      "name": "getLoanRequest",
      "outputs": [
        {
          "components": [
            {
              "internalType": "uint256",
              "name": "amountToBorrow",
              "type": "uint256"
            },
            {
              "internalType": "uint256",
              "name": "loanDuration",
              "type": "uint256"
            },
            {
              "internalType": "uint256",
              "name": "collateralAmountOrId",
              "type": "uint256"
            },
            {
              "internalType": "address",
              "name": "collateralAddress",
              "type": "address"
            },
            {
              "internalType": "address",
              "name": "borrower",
              "type": "address"
            },
            {
              "internalType": "uint64",
              "name": "collateralChainId",
              "type": "uint64"
            },
            {
              "internalType": "bool",
              "name": "collateralType",
              "type": "bool"
            }
          ],
          "internalType": "struct IMailboxSepolia.LoanRequest",
          "name": "loanRequestData",
          "type": "tuple"
        }
      ],
      "stateMutability": "view",
      "type": "function"
    },
    {
      "inputs": [
        {
          "internalType": "uint256",
          "name": "_collateralAmountOrId",
          "type": "uint256"
        },
        {
          "internalType": "address",
          "name": "_collateralAddress",
          "type": "address"
        },
        {
          "internalType": "bool",
          "name": "_collateralType",
          "type": "bool"
        },
        {
          "internalType": "uint64",
          "name": "_collateralChainId",
          "type": "uint64"
        },
        {
          "internalType": "uint256",
          "name": "_amountToBorrow",
          "type": "uint256"
        },
        {
          "internalType": "uint256",
          "name": "_loanDuration",
          "type": "uint256"
        }
      ],
      "name": "loanRequest",
      "outputs": [
        {
          "internalType": "uint256",
          "name": "loanRequestId",
          "type": "uint256"
        }
      ],
      "stateMutability": "nonpayable",
      "type": "function"
    },
    {
      "inputs": [
        {
          "internalType": "uint256",
          "name": "",
          "type": "uint256"
        }
      ],
      "name": "loanRequests",
      "outputs": [
        {
          "internalType": "uint256",
          "name": "amountToBorrow",
          "type": "uint256"
        },
        {
          "internalType": "uint256",
          "name": "loanDuration",
          "type": "uint256"
        },
        {
          "internalType": "uint256",
          "name": "collateralAmountOrId",
          "type": "uint256"
        },
        {
          "internalType": "address",
          "name": "collateralAddress",
          "type": "address"
        },
        {
          "internalType": "address",
          "name": "borrower",
          "type": "address"
        },
        {
          "internalType": "uint64",
          "name": "collateralChainId",
          "type": "uint64"
        },
        {
          "internalType": "bool",
          "name": "collateralType",
          "type": "bool"
        }
      ],
      "stateMutability": "view",
      "type": "function"
    },
    {
      "inputs": [],
      "name": "loanRequestsCounter",
      "outputs": [
        {
          "internalType": "uint256",
          "name": "",
          "type": "uint256"
        }
      ],
      "stateMutability": "view",
      "type": "function"
    }
  ],
  "bytecode": "0x60c060405234801561001057600080fd5b506040516106e73803806106e783398101604081905261002f91610044565b6001600160a01b03166080523360a052610074565b60006020828403121561005657600080fd5b81516001600160a01b038116811461006d57600080fd5b9392505050565b60805160a05161064e61009960003960006101c6015260006102d2015261064e6000f3fe608060405234801561001057600080fd5b50600436106100575760003560e01c80631b3b86711461005c5780631f5553b9146101a057806385d38f80146101c1578063a5a305ad14610200578063d1b332f414610209575b600080fd5b61012761006a36600461053c565b6040805160e081018252600080825260208201819052918101829052606081018290526080810182905260a0810182905260c081019190915250600090815260016020818152604092839020835160e08101855281548152928101549183019190915260028101549282019290925260038201546001600160a01b0390811660608301526004909201549182166080820152600160a01b820467ffffffffffffffff1660a0820152600160e01b90910460ff16151560c082015290565b6040516101979190600060e082019050825182526020830151602083015260408301516040830152606083015160018060a01b038082166060850152806080860151166080850152505067ffffffffffffffff60a08401511660a083015260c0830151151560c083015292915050565b60405180910390f35b6101b36101ae366004610555565b6102ba565b604051908152602001610197565b6101e87f000000000000000000000000000000000000000000000000000000000000000081565b6040516001600160a01b039091168152602001610197565b6101b360005481565b61027061021736600461053c565b600160208190526000918252604090912080549181015460028201546003830154600490930154919290916001600160a01b0391821691811690600160a01b810467ffffffffffffffff1690600160e01b900460ff1687565b604080519788526020880196909652948601939093526001600160a01b03918216606086015216608084015267ffffffffffffffff1660a0830152151560c082015260e001610197565b6040516370a0823160e01b81523360048201526000907f00000000000000000000000000000000000000000000000000000000000000006001600160a01b0316906370a0823190602401602060405180830381865afa158015610321573d6000803e3d6000fd5b505050506040513d601f19601f8201168201806040525081019061034591906105d8565b60000361036b57604051639289acb760e01b815233600482015260240160405180910390fd5b60008054908061037a836105f1565b9190505590506040518060e00160405280848152602001838152602001888152602001876001600160a01b03168152602001336001600160a01b031681526020018567ffffffffffffffff1681526020018615158152506001600083815260200190815260200160002060008201518160000155602082015181600101556040820151816002015560608201518160030160006101000a8154816001600160a01b0302191690836001600160a01b0316021790555060808201518160040160006101000a8154816001600160a01b0302191690836001600160a01b0316021790555060a08201518160040160146101000a81548167ffffffffffffffff021916908367ffffffffffffffff16021790555060c082015181600401601c6101000a81548160ff021916908315150217905550905050336001600160a01b0316817f2969aea605a1559060563ed9fd9b0637c7ccdca1704a3b0f7e736dfb222843f28989888a898960405161052a969594939291909586526001600160a01b0394909416602086015267ffffffffffffffff92909216604085015215156060840152608083015260a082015260c00190565b60405180910390a39695505050505050565b60006020828403121561054e57600080fd5b5035919050565b60008060008060008060c0878903121561056e57600080fd5b8635955060208701356001600160a01b038116811461058c57600080fd5b9450604087013580151581146105a157600080fd5b9350606087013567ffffffffffffffff811681146105be57600080fd5b9598949750929560808101359460a0909101359350915050565b6000602082840312156105ea57600080fd5b5051919050565b60006001820161061157634e487b7160e01b600052601160045260246000fd5b506001019056fea2646970667358221220dfc082375cc505bec85f5a995150e4a27735c881fecfddc2e420d30813496ee464736f6c63430008170033",
  "linkReferences": {},
  "deployedLinkReferences": {}
}