{
  "_format": "hh-sol-artifact-1",
  "contractName": "MessengerMumbai",
  "sourceName": "contracts/Mumbai/users/MessengerMumbai.sol",
  "abi": [
    {
      "inputs": [
        {
          "internalType": "address",
          "name": "_router",
          "type": "address"
        },
        {
          "internalType": "address",
          "name": "_link",
          "type": "address"
        },
        {
          "internalType": "contract IAccessManagerMumbai",
          "name": "_accessManager",
          "type": "address"
        }
      ],
      "stateMutability": "nonpayable",
      "type": "constructor"
    },
    {
      "inputs": [
        {
          "internalType": "address",
          "name": "target",
          "type": "address"
        }
      ],
      "name": "AddressEmptyCode",
      "type": "error"
    },
    {
      "inputs": [
        {
          "internalType": "address",
          "name": "account",
          "type": "address"
        }
      ],
      "name": "AddressInsufficientBalance",
      "type": "error"
    },
    {
      "inputs": [
        {
          "internalType": "uint64",
          "name": "destinationChainSelector",
          "type": "uint64"
        }
      ],
      "name": "DestinationChainNotAllowlisted",
      "type": "error"
    },
    {
      "inputs": [],
      "name": "FailedInnerCall",
      "type": "error"
    },
    {
      "inputs": [
        {
          "internalType": "address",
          "name": "router",
          "type": "address"
        }
      ],
      "name": "InvalidRouter",
      "type": "error"
    },
    {
      "inputs": [
        {
          "internalType": "uint256",
          "name": "currentBalance",
          "type": "uint256"
        },
        {
          "internalType": "uint256",
          "name": "calculatedFees",
          "type": "uint256"
        }
      ],
      "name": "NotEnoughBalance",
      "type": "error"
    },
    {
      "inputs": [],
      "name": "NothingToWithdraw",
      "type": "error"
    },
    {
      "inputs": [
        {
          "internalType": "address",
          "name": "sender",
          "type": "address"
        }
      ],
      "name": "OnlyLoanManagerCanCall",
      "type": "error"
    },
    {
      "inputs": [
        {
          "internalType": "address",
          "name": "sender",
          "type": "address"
        }
      ],
      "name": "OnlyOwnerCanCall",
      "type": "error"
    },
    {
      "inputs": [
        {
          "internalType": "address",
          "name": "token",
          "type": "address"
        }
      ],
      "name": "SafeERC20FailedOperation",
      "type": "error"
    },
    {
      "inputs": [
        {
          "internalType": "address",
          "name": "sender",
          "type": "address"
        }
      ],
      "name": "SenderNotAllowlisted",
      "type": "error"
    },
    {
      "inputs": [
        {
          "internalType": "uint64",
          "name": "sourceChainSelector",
          "type": "uint64"
        }
      ],
      "name": "SourceChainNotAllowlisted",
      "type": "error"
    },
    {
      "anonymous": false,
      "inputs": [
        {
          "indexed": true,
          "internalType": "bytes32",
          "name": "messageId",
          "type": "bytes32"
        },
        {
          "indexed": true,
          "internalType": "uint64",
          "name": "sourceChainSelector",
          "type": "uint64"
        },
        {
          "indexed": false,
          "internalType": "address",
          "name": "sender",
          "type": "address"
        },
        {
          "indexed": false,
          "internalType": "uint256",
          "name": "loanId",
          "type": "uint256"
        },
        {
          "indexed": false,
          "internalType": "uint8",
          "name": "action",
          "type": "uint8"
        },
        {
          "indexed": false,
          "internalType": "bool",
          "name": "isSuccessful",
          "type": "bool"
        }
      ],
      "name": "MessageReceived",
      "type": "event"
    },
    {
      "anonymous": false,
      "inputs": [
        {
          "indexed": true,
          "internalType": "bytes32",
          "name": "messageId",
          "type": "bytes32"
        },
        {
          "indexed": true,
          "internalType": "uint256",
          "name": "loanId",
          "type": "uint256"
        },
        {
          "indexed": false,
          "internalType": "uint256",
          "name": "collateralIdOrAmount",
          "type": "uint256"
        },
        {
          "indexed": false,
          "internalType": "uint64",
          "name": "collateralChainId",
          "type": "uint64"
        },
        {
          "indexed": false,
          "internalType": "uint8",
          "name": "action",
          "type": "uint8"
        },
        {
          "indexed": false,
          "internalType": "bool",
          "name": "collateralType",
          "type": "bool"
        },
        {
          "indexed": false,
          "internalType": "address",
          "name": "collateralAddress",
          "type": "address"
        },
        {
          "indexed": false,
          "internalType": "address",
          "name": "borrower",
          "type": "address"
        }
      ],
      "name": "RequestSent",
      "type": "event"
    },
    {
      "inputs": [],
      "name": "USER_ACCESS_MANAGER",
      "outputs": [
        {
          "internalType": "contract IAccessManagerMumbai",
          "name": "",
          "type": "address"
        }
      ],
      "stateMutability": "view",
      "type": "function"
    },
    {
      "inputs": [],
      "name": "USER_LOAN_SAFE",
      "outputs": [
        {
          "internalType": "contract ILoanSafeMumbai",
          "name": "",
          "type": "address"
        }
      ],
      "stateMutability": "view",
      "type": "function"
    },
    {
      "inputs": [
        {
          "internalType": "uint64",
          "name": "_destinationChainSelector",
          "type": "uint64"
        },
        {
          "internalType": "bool",
          "name": "_allowed",
          "type": "bool"
        }
      ],
      "name": "allowlistDestinationChain",
      "outputs": [],
      "stateMutability": "nonpayable",
      "type": "function"
    },
    {
      "inputs": [
        {
          "internalType": "address",
          "name": "_sender",
          "type": "address"
        },
        {
          "internalType": "bool",
          "name": "_allowed",
          "type": "bool"
        }
      ],
      "name": "allowlistSender",
      "outputs": [],
      "stateMutability": "nonpayable",
      "type": "function"
    },
    {
      "inputs": [
        {
          "internalType": "uint64",
          "name": "_sourceChainSelector",
          "type": "uint64"
        },
        {
          "internalType": "bool",
          "name": "_allowed",
          "type": "bool"
        }
      ],
      "name": "allowlistSourceChain",
      "outputs": [],
      "stateMutability": "nonpayable",
      "type": "function"
    },
    {
      "inputs": [
        {
          "internalType": "uint64",
          "name": "",
          "type": "uint64"
        }
      ],
      "name": "allowlistedDestinationChains",
      "outputs": [
        {
          "internalType": "bool",
          "name": "",
          "type": "bool"
        }
      ],
      "stateMutability": "view",
      "type": "function"
    },
    {
      "inputs": [
        {
          "internalType": "address",
          "name": "",
          "type": "address"
        }
      ],
      "name": "allowlistedSenders",
      "outputs": [
        {
          "internalType": "bool",
          "name": "",
          "type": "bool"
        }
      ],
      "stateMutability": "view",
      "type": "function"
    },
    {
      "inputs": [
        {
          "internalType": "uint64",
          "name": "",
          "type": "uint64"
        }
      ],
      "name": "allowlistedSourceChains",
      "outputs": [
        {
          "internalType": "bool",
          "name": "",
          "type": "bool"
        }
      ],
      "stateMutability": "view",
      "type": "function"
    },
    {
      "inputs": [
        {
          "components": [
            {
              "internalType": "bytes32",
              "name": "messageId",
              "type": "bytes32"
            },
            {
              "internalType": "uint64",
              "name": "sourceChainSelector",
              "type": "uint64"
            },
            {
              "internalType": "bytes",
              "name": "sender",
              "type": "bytes"
            },
            {
              "internalType": "bytes",
              "name": "data",
              "type": "bytes"
            },
            {
              "components": [
                {
                  "internalType": "address",
                  "name": "token",
                  "type": "address"
                },
                {
                  "internalType": "uint256",
                  "name": "amount",
                  "type": "uint256"
                }
              ],
              "internalType": "struct Client.EVMTokenAmount[]",
              "name": "destTokenAmounts",
              "type": "tuple[]"
            }
          ],
          "internalType": "struct Client.Any2EVMMessage",
          "name": "message",
          "type": "tuple"
        }
      ],
      "name": "ccipReceive",
      "outputs": [],
      "stateMutability": "nonpayable",
      "type": "function"
    },
    {
      "inputs": [
        {
          "internalType": "uint256",
          "name": "_loanId",
          "type": "uint256"
        }
      ],
      "name": "getLoanData",
      "outputs": [
        {
          "components": [
            {
              "internalType": "bytes32",
              "name": "lastReceivedMessageId",
              "type": "bytes32"
            },
            {
              "internalType": "bytes32",
              "name": "lastSentMessageId",
              "type": "bytes32"
            },
            {
              "internalType": "uint8",
              "name": "lastAction",
              "type": "uint8"
            },
            {
              "internalType": "bool",
              "name": "isSuccessful",
              "type": "bool"
            }
          ],
          "internalType": "struct IMessengerMumbai.LoanData",
          "name": "",
          "type": "tuple"
        }
      ],
      "stateMutability": "view",
      "type": "function"
    },
    {
      "inputs": [],
      "name": "getRouter",
      "outputs": [
        {
          "internalType": "address",
          "name": "",
          "type": "address"
        }
      ],
      "stateMutability": "view",
      "type": "function"
    },
    {
      "inputs": [
        {
          "internalType": "uint256",
          "name": "_loanId",
          "type": "uint256"
        }
      ],
      "name": "rescueCollateral",
      "outputs": [],
      "stateMutability": "nonpayable",
      "type": "function"
    },
    {
      "inputs": [
        {
          "internalType": "uint64",
          "name": "_destinationChainSelector",
          "type": "uint64"
        },
        {
          "internalType": "uint256",
          "name": "_loanId",
          "type": "uint256"
        },
        {
          "internalType": "address",
          "name": "_receiver",
          "type": "address"
        }
      ],
      "name": "sendData",
      "outputs": [],
      "stateMutability": "nonpayable",
      "type": "function"
    },
    {
      "inputs": [
        {
          "internalType": "bytes4",
          "name": "interfaceId",
          "type": "bytes4"
        }
      ],
      "name": "supportsInterface",
      "outputs": [
        {
          "internalType": "bool",
          "name": "",
          "type": "bool"
        }
      ],
      "stateMutability": "pure",
      "type": "function"
    },
    {
      "inputs": [
        {
          "internalType": "address",
          "name": "_beneficiary",
          "type": "address"
        },
        {
          "internalType": "address",
          "name": "_token",
          "type": "address"
        }
      ],
      "name": "withdrawToken",
      "outputs": [],
      "stateMutability": "nonpayable",
      "type": "function"
    }
  ],
  "bytecode": "0x60e06040523480156200001157600080fd5b5060405162001dd538038062001dd58339810160408190526200003491620000b2565b826001600160a01b03811662000064576040516335fdcccd60e21b81526000600482015260240160405180910390fd5b6001600160a01b03908116608052600480546001600160a01b031916938216939093179092551660a052503360c05262000106565b6001600160a01b0381168114620000af57600080fd5b50565b600080600060608486031215620000c857600080fd5b8351620000d58162000099565b6020850151909350620000e88162000099565b6040850151909250620000fb8162000099565b809150509250925092565b60805160a05160c051611c44620001916000396000818161028e01528181610aa60152818161106a015281816111020152818161117d015281816111f0015261128a015260008181610319015281816103f90152818161083c015281816109fe01528181610b9501528181610c7b0152610d610152600081816102dd0152610b180152611c446000f3fe608060405234801561001057600080fd5b50600436106100f55760003560e01c806375c67c6611610097578063b0f479a111610066578063b0f479a1146102db578063db04fa4914610301578063e2fff82914610314578063eab5b02c1461033b57600080fd5b806375c67c661461025357806385572ffb1461027657806394ab121f1461028957806396d3b83d146102c857600080fd5b80634030d521116100d35780634030d5211461014a5780636159ada11461016d578063622fe39f146101905780636d6efa291461024057600080fd5b806301ffc9a7146100fa57806313e32554146101225780633aeac4e114610137575b600080fd5b61010d61010836600461159c565b61034e565b60405190151581526020015b60405180910390f35b6101356101303660046115f7565b610385565b005b610135610145366004611637565b610813565b61010d610158366004611670565b60016020526000908152604090205460ff1681565b61010d61017b36600461168b565b60026020526000908152604090205460ff1681565b61020861019e3660046116a8565b604080516080808201835260008083526020808401829052838501829052606093840182905294815260038552839020835191820184528054825260018101549482019490945260029093015460ff80821693850193909352610100900490911615159082015290565b6040516101199190815181526020808301519082015260408083015160ff169082015260609182015115159181019190915260800190565b61013561024e3660046116a8565b6109d5565b61010d610261366004611670565b60006020819052908152604090205460ff1681565b6101356102843660046116c1565b610b0d565b6102b07f000000000000000000000000000000000000000000000000000000000000000081565b6040516001600160a01b039091168152602001610119565b6101356102d6366004611709565b610b6c565b7f00000000000000000000000000000000000000000000000000000000000000006102b0565b61013561030f366004611709565b610c52565b6102b07f000000000000000000000000000000000000000000000000000000000000000081565b610135610349366004611735565b610d38565b60006001600160e01b031982166385572ffb60e01b148061037f57506001600160e01b031982166301ffc9a760e01b145b92915050565b6001600160401b038316600090815260208190526040902054839060ff166103d057604051630a503cdb60e01b81526001600160401b03821660048201526024015b60405180910390fd5b604051632474521560e21b8152600080516020611bef83398151915260048201523360248201527f00000000000000000000000000000000000000000000000000000000000000006001600160a01b0316906391d1485490604401602060405180830381865afa158015610448573d6000803e3d6000fd5b505050506040513d601f19601f8201168201806040525081019061046c9190611753565b61048b5760405163effcd4cf60e01b81523360048201526024016103c7565b60008381526003602090815260408083208151608080820184528254825260018301548286015260029092015460ff808216838601908152610100909204811615156060808501918252865180820188528c8152935183168489019081529151151593870193845286519788018c90529051909116868601529051151585820152835180860390910181529390910190915260045490929061053990869084906001600160a01b0316610e1e565b90506000306001600160a01b031663b0f479a16040518163ffffffff1660e01b8152600401602060405180830381865afa15801561057b573d6000803e3d6000fd5b505050506040513d601f19601f8201168201806040525081019061059f919061177b565b90506000816001600160a01b03166320487ded8a856040518363ffffffff1660e01b81526004016105d19291906117e8565b602060405180830381865afa1580156105ee573d6000803e3d6000fd5b505050506040513d601f19601f8201168201806040525081019061061291906118c4565b600480546040516370a0823160e01b815230928101929092529192506001600160a01b03909116906370a0823190602401602060405180830381865afa158015610660573d6000803e3d6000fd5b505050506040513d601f19601f8201168201806040525081019061068491906118c4565b81111561071c57600480546040516370a0823160e01b815230928101929092526001600160a01b0316906370a0823190602401602060405180830381865afa1580156106d4573d6000803e3d6000fd5b505050506040513d601f19601f820116820180604052508101906106f891906118c4565b604051634787a10360e11b81526004810191909152602481018290526044016103c7565b6004805460405163095ea7b360e01b81526001600160a01b03858116938201939093526024810184905291169063095ea7b3906044016020604051808303816000875af1158015610771573d6000803e3d6000fd5b505050506040513d601f19601f820116820180604052508101906107959190611753565b506040516396f4e9f960e01b81526001600160a01b038316906396f4e9f9906107c4908c9087906004016117e8565b6020604051808303816000875af11580156107e3573d6000803e3d6000fd5b505050506040513d601f19601f8201168201806040525081019061080791906118c4565b50505050505050505050565b604051632474521560e21b8152600080516020611bef83398151915260048201523360248201527f00000000000000000000000000000000000000000000000000000000000000006001600160a01b0316906391d1485490604401602060405180830381865afa15801561088b573d6000803e3d6000fd5b505050506040513d601f19601f820116820180604052508101906108af9190611753565b6108ce57604051630d175fff60e31b81523360048201526024016103c7565b6040516370a0823160e01b81523060048201526000906001600160a01b038316906370a0823190602401602060405180830381865afa158015610915573d6000803e3d6000fd5b505050506040513d601f19601f8201168201806040525081019061093991906118c4565b90508060000361095c57604051630686827b60e51b815260040160405180910390fd5b60405163a9059cbb60e01b81526001600160a01b0384811660048301526024820183905283169063a9059cbb906044016020604051808303816000875af11580156109ab573d6000803e3d6000fd5b505050506040513d601f19601f820116820180604052508101906109cf9190611753565b50505050565b604051632474521560e21b8152600080516020611bef83398151915260048201523360248201527f00000000000000000000000000000000000000000000000000000000000000006001600160a01b0316906391d1485490604401602060405180830381865afa158015610a4d573d6000803e3d6000fd5b505050506040513d601f19601f82011682018060405250810190610a719190611753565b610a9057604051630d175fff60e31b81523360048201526024016103c7565b604051631e7046db60e01b8152600481018290527f00000000000000000000000000000000000000000000000000000000000000006001600160a01b031690631e7046db90602401600060405180830381600087803b158015610af257600080fd5b505af1158015610b06573d6000803e3d6000fd5b5050505050565b336001600160a01b037f00000000000000000000000000000000000000000000000000000000000000001614610b58576040516335fdcccd60e21b81523360048201526024016103c7565b610b69610b6482611a88565b610f44565b50565b604051632474521560e21b8152600080516020611bef83398151915260048201523360248201527f00000000000000000000000000000000000000000000000000000000000000006001600160a01b0316906391d1485490604401602060405180830381865afa158015610be4573d6000803e3d6000fd5b505050506040513d601f19601f82011682018060405250810190610c089190611753565b610c2757604051630d175fff60e31b81523360048201526024016103c7565b6001600160401b03919091166000908152602081905260409020805460ff1916911515919091179055565b604051632474521560e21b8152600080516020611bef83398151915260048201523360248201527f00000000000000000000000000000000000000000000000000000000000000006001600160a01b0316906391d1485490604401602060405180830381865afa158015610cca573d6000803e3d6000fd5b505050506040513d601f19601f82011682018060405250810190610cee9190611753565b610d0d57604051630d175fff60e31b81523360048201526024016103c7565b6001600160401b03919091166000908152600160205260409020805460ff1916911515919091179055565b604051632474521560e21b8152600080516020611bef83398151915260048201523360248201527f00000000000000000000000000000000000000000000000000000000000000006001600160a01b0316906391d1485490604401602060405180830381865afa158015610db0573d6000803e3d6000fd5b505050506040513d601f19601f82011682018060405250810190610dd49190611753565b610df357604051630d175fff60e31b81523360048201526024016103c7565b6001600160a01b03919091166000908152600260205260409020805460ff1916911515919091179055565b610e596040518060a0016040528060608152602001606081526020016060815260200160006001600160a01b03168152602001606081525090565b6040805160a081019091526001600160a01b03851660c08201528060e0810160408051808303601f190181529181529082526020808301879052815160008082529181018352929091019190610ed1565b6040805180820190915260008082526020820152815260200190600190039081610eaa5790505b508152602001836001600160a01b03168152602001610f38604051806020016040528062030d4081525060408051915160248084019190915281518084039091018152604490920190526020810180516001600160e01b03166397a657c960e01b17905290565b905290505b9392505050565b80602001518160400151806020019051810190610f61919061177b565b6001600160401b03821660009081526001602052604090205460ff16610fa5576040516326bfad9160e21b81526001600160401b03831660048201526024016103c7565b6001600160a01b03811660009081526002602052604090205460ff16610fe9576040516338c08ef960e11b81526001600160a01b03821660048201526024016103c7565b60008084606001518060200190518101906110049190611b34565b9050806040015160ff166000036111c857805160208201516060830151608084015160a0850151604051630696810b60e41b81526004810195909552602485019390935290151560448401526001600160a01b03908116606484015290811660848301527f0000000000000000000000000000000000000000000000000000000000000000169063696810b09060a401600060405180830381600087803b1580156110ae57600080fd5b505af11580156110c2573d6000803e3d6000fd5b505050506060810151151560000361117357608081015160a08201516020830151604051632142170760e11b81526001600160a01b0392831660048201527f00000000000000000000000000000000000000000000000000000000000000008316602482015260448101919091529116906342842e0e90606401600060405180830381600087803b15801561115657600080fd5b505af115801561116a573d6000803e3d6000fd5b505050506111bf565b6111bf8160a001517f0000000000000000000000000000000000000000000000000000000000000000836020015184608001516001600160a01b03166113dc909392919063ffffffff16565b60019150611306565b806040015160ff1660010361125d578051604051631e7046db60e01b815260048101919091527f00000000000000000000000000000000000000000000000000000000000000006001600160a01b031690631e7046db90602401600060405180830381600087803b15801561123c57600080fd5b505af1158015611250573d6000803e3d6000fd5b5050505060019150611306565b806040015160ff1660020361130657805160a082015160405163ac9cf4db60e01b81526001600160a01b037f0000000000000000000000000000000000000000000000000000000000000000169263ac9cf4db926112cf926004019182526001600160a01b0316602082015260400190565b600060405180830381600087803b1580156112e957600080fd5b505af11580156112fd573d6000803e3d6000fd5b50505050600191505b84602001516001600160401b031685600001517f4d89d3da9f11174e0c7489a47200c09676f0cf9252477f5a12205eaea81851648760400151806020019051810190611352919061177b565b845160408087015181516001600160a01b039094168452602084019290925260ff90911690820152851515606082015260800160405180910390a36040818101518251600090815260036020528281206002908101805460ff191660ff9094169390931790925592518352912001805461ff00191661010092151592909202919091179055505050565b604080516001600160a01b038581166024830152848116604483015260648083018590528351808403909101815260849092019092526020810180516001600160e01b03166323b872dd60e01b1790526109cf9186919060009061144290841683611495565b905080516000141580156114675750808060200190518101906114659190611753565b155b1561149057604051635274afe760e01b81526001600160a01b03841660048201526024016103c7565b505050565b6060610f3d8383600084600080856001600160a01b031684866040516114bb9190611bd2565b60006040518083038185875af1925050503d80600081146114f8576040519150601f19603f3d011682016040523d82523d6000602084013e6114fd565b606091505b509150915061150d868383611517565b9695505050505050565b60608261152c5761152782611573565b610f3d565b815115801561154357506001600160a01b0384163b155b1561156c57604051639996b31560e01b81526001600160a01b03851660048201526024016103c7565b5080610f3d565b8051156115835780518082602001fd5b604051630a12f52160e11b815260040160405180910390fd5b6000602082840312156115ae57600080fd5b81356001600160e01b031981168114610f3d57600080fd5b80356001600160401b03811681146115dd57600080fd5b919050565b6001600160a01b0381168114610b6957600080fd5b60008060006060848603121561160c57600080fd5b611615846115c6565b925060208401359150604084013561162c816115e2565b809150509250925092565b6000806040838503121561164a57600080fd5b8235611655816115e2565b91506020830135611665816115e2565b809150509250929050565b60006020828403121561168257600080fd5b610f3d826115c6565b60006020828403121561169d57600080fd5b8135610f3d816115e2565b6000602082840312156116ba57600080fd5b5035919050565b6000602082840312156116d357600080fd5b81356001600160401b038111156116e957600080fd5b820160a08185031215610f3d57600080fd5b8015158114610b6957600080fd5b6000806040838503121561171c57600080fd5b611725836115c6565b91506020830135611665816116fb565b6000806040838503121561174857600080fd5b8235611725816115e2565b60006020828403121561176557600080fd5b8151610f3d816116fb565b80516115dd816115e2565b60006020828403121561178d57600080fd5b8151610f3d816115e2565b60005b838110156117b357818101518382015260200161179b565b50506000910152565b600081518084526117d4816020860160208601611798565b601f01601f19169290920160200192915050565b600060406001600160401b03851683526020604081850152845160a0604086015261181660e08601826117bc565b905081860151603f198087840301606088015261183383836117bc565b6040890151888203830160808a01528051808352908601945060009350908501905b8084101561188757845180516001600160a01b0316835286015186830152938501936001939093019290860190611855565b5060608901516001600160a01b031660a08901526080890151888203830160c08a015295506118b681876117bc565b9a9950505050505050505050565b6000602082840312156118d657600080fd5b5051919050565b634e487b7160e01b600052604160045260246000fd5b604080519081016001600160401b0381118282101715611915576119156118dd565b60405290565b60405160a081016001600160401b0381118282101715611915576119156118dd565b604051601f8201601f191681016001600160401b0381118282101715611965576119656118dd565b604052919050565b600082601f83011261197e57600080fd5b81356001600160401b03811115611997576119976118dd565b6119aa601f8201601f191660200161193d565b8181528460208386010111156119bf57600080fd5b816020850160208301376000918101602001919091529392505050565b600082601f8301126119ed57600080fd5b813560206001600160401b03821115611a0857611a086118dd565b611a16818360051b0161193d565b82815260069290921b84018101918181019086841115611a3557600080fd5b8286015b84811015611a7d5760408189031215611a525760008081fd5b611a5a6118f3565b8135611a65816115e2565b81528185013585820152835291830191604001611a39565b509695505050505050565b600060a08236031215611a9a57600080fd5b611aa261191b565b82358152611ab2602084016115c6565b602082015260408301356001600160401b0380821115611ad157600080fd5b611add3683870161196d565b60408401526060850135915080821115611af657600080fd5b611b023683870161196d565b60608401526080850135915080821115611b1b57600080fd5b50611b28368286016119dc565b60808301525092915050565b600060c08284031215611b4657600080fd5b60405160c081018181106001600160401b0382111715611b6857611b686118dd565b80604052508251815260208301516020820152604083015160ff81168114611b8f57600080fd5b60408201526060830151611ba2816116fb565b60608201526080830151611bb5816115e2565b6080820152611bc660a08401611770565b60a08201529392505050565b60008251611be4818460208701611798565b919091019291505056feb19546dff01e856fb3f010c267a7b1c60363cf8a4664e21cc89c26224620214ea2646970667358221220bbb1e17256edff2847b255640112781ea4fc17610095379f6d8f976b64e56be364736f6c63430008170033",
  "linkReferences": {},
  "deployedLinkReferences": {}
}