{
  "_format": "hh-sol-artifact-1",
  "contractName": "SafeSepolia",
  "sourceName": "contracts/Sepolia/users/SafeSepolia.sol",
  "abi": [
    {
      "inputs": [
        {
          "internalType": "address",
          "name": "_ghoSafeIDSepolia",
          "type": "address"
        },
        {
          "internalType": "address",
          "name": "_loanAdvertisementBook",
          "type": "address"
        },
        {
          "internalType": "uint16",
          "name": "_referralCode",
          "type": "uint16"
        },
        {
          "internalType": "address",
          "name": "_ghoToken",
          "type": "address"
        },
        {
          "internalType": "address",
          "name": "_debtGhoToken",
          "type": "address"
        },
        {
          "internalType": "address",
          "name": "_pool",
          "type": "address"
        },
        {
          "internalType": "address",
          "name": "_router",
          "type": "address"
        },
        {
          "internalType": "address",
          "name": "_link",
          "type": "address"
        },
        {
          "internalType": "address",
          "name": "_owner",
          "type": "address"
        }
      ],
      "stateMutability": "nonpayable",
      "type": "constructor"
    },
    {
      "inputs": [
        {
          "internalType": "bytes",
          "name": "data",
          "type": "bytes"
        }
      ],
      "name": "ETHTtransferFailed",
      "type": "error"
    },
    {
      "inputs": [
        {
          "internalType": "address",
          "name": "token",
          "type": "address"
        },
        {
          "internalType": "uint256",
          "name": "amount",
          "type": "uint256"
        },
        {
          "internalType": "uint256",
          "name": "balance",
          "type": "uint256"
        }
      ],
      "name": "NotEnoughBalance",
      "type": "error"
    },
    {
      "inputs": [
        {
          "internalType": "address",
          "name": "caller",
          "type": "address"
        }
      ],
      "name": "UnauthorizedAccess",
      "type": "error"
    },
    {
      "anonymous": false,
      "inputs": [
        {
          "indexed": true,
          "internalType": "address",
          "name": "delegatee",
          "type": "address"
        },
        {
          "indexed": false,
          "internalType": "uint256",
          "name": "amount",
          "type": "uint256"
        }
      ],
      "name": "CreditDelegateApproved",
      "type": "event"
    },
    {
      "anonymous": false,
      "inputs": [
        {
          "indexed": true,
          "internalType": "address",
          "name": "token",
          "type": "address"
        },
        {
          "indexed": false,
          "internalType": "uint256",
          "name": "amount",
          "type": "uint256"
        },
        {
          "indexed": true,
          "internalType": "address",
          "name": "to",
          "type": "address"
        }
      ],
      "name": "ERC20WithdrawnFromSafe",
      "type": "event"
    },
    {
      "anonymous": false,
      "inputs": [
        {
          "indexed": false,
          "internalType": "uint256",
          "name": "amount",
          "type": "uint256"
        },
        {
          "indexed": true,
          "internalType": "address",
          "name": "to",
          "type": "address"
        }
      ],
      "name": "ETHWithdrawnFromSafe",
      "type": "event"
    },
    {
      "anonymous": false,
      "inputs": [
        {
          "indexed": true,
          "internalType": "address",
          "name": "owner",
          "type": "address"
        }
      ],
      "name": "OwnerAdded",
      "type": "event"
    },
    {
      "anonymous": false,
      "inputs": [
        {
          "indexed": true,
          "internalType": "address",
          "name": "owner",
          "type": "address"
        }
      ],
      "name": "OwnerRemoved",
      "type": "event"
    },
    {
      "anonymous": false,
      "inputs": [
        {
          "indexed": false,
          "internalType": "uint256",
          "name": "amount",
          "type": "uint256"
        },
        {
          "indexed": true,
          "internalType": "address",
          "name": "from",
          "type": "address"
        }
      ],
      "name": "ReceivedETH",
      "type": "event"
    },
    {
      "anonymous": false,
      "inputs": [
        {
          "indexed": true,
          "internalType": "address",
          "name": "token",
          "type": "address"
        },
        {
          "indexed": false,
          "internalType": "uint256",
          "name": "amount",
          "type": "uint256"
        }
      ],
      "name": "TokenBorrowedFromAave",
      "type": "event"
    },
    {
      "anonymous": false,
      "inputs": [
        {
          "indexed": true,
          "internalType": "address",
          "name": "token",
          "type": "address"
        },
        {
          "indexed": false,
          "internalType": "uint256",
          "name": "amount",
          "type": "uint256"
        }
      ],
      "name": "TokenRepaidToAave",
      "type": "event"
    },
    {
      "anonymous": false,
      "inputs": [
        {
          "indexed": true,
          "internalType": "address",
          "name": "token",
          "type": "address"
        },
        {
          "indexed": false,
          "internalType": "uint256",
          "name": "amount",
          "type": "uint256"
        }
      ],
      "name": "TokenSuppliedToAave",
      "type": "event"
    },
    {
      "anonymous": false,
      "inputs": [
        {
          "indexed": true,
          "internalType": "address",
          "name": "token",
          "type": "address"
        },
        {
          "indexed": false,
          "internalType": "uint256",
          "name": "amount",
          "type": "uint256"
        }
      ],
      "name": "TokenWithdrawnFromAave",
      "type": "event"
    },
    {
      "stateMutability": "payable",
      "type": "fallback"
    },
    {
      "inputs": [],
      "name": "REFERRAL_CODE",
      "outputs": [
        {
          "internalType": "uint16",
          "name": "",
          "type": "uint16"
        }
      ],
      "stateMutability": "view",
      "type": "function"
    },
    {
      "inputs": [],
      "name": "USER_ACCESS_MANAGER",
      "outputs": [
        {
          "internalType": "contract IAccessManagerSepolia",
          "name": "",
          "type": "address"
        }
      ],
      "stateMutability": "view",
      "type": "function"
    },
    {
      "inputs": [],
      "name": "USER_LOAN_MANAGER_ADDRESS",
      "outputs": [
        {
          "internalType": "address",
          "name": "",
          "type": "address"
        }
      ],
      "stateMutability": "view",
      "type": "function"
    },
    {
      "inputs": [],
      "name": "USER_MAILBOX_ADDRESS",
      "outputs": [
        {
          "internalType": "address",
          "name": "",
          "type": "address"
        }
      ],
      "stateMutability": "view",
      "type": "function"
    },
    {
      "inputs": [
        {
          "internalType": "address",
          "name": "_owner",
          "type": "address"
        }
      ],
      "name": "addOwner",
      "outputs": [],
      "stateMutability": "nonpayable",
      "type": "function"
    },
    {
      "inputs": [
        {
          "internalType": "address",
          "name": "_delegatee",
          "type": "address"
        },
        {
          "internalType": "uint256",
          "name": "_amount",
          "type": "uint256"
        }
      ],
      "name": "approveDelegateCreditGho",
      "outputs": [],
      "stateMutability": "nonpayable",
      "type": "function"
    },
    {
      "inputs": [
        {
          "internalType": "address",
          "name": "_token",
          "type": "address"
        },
        {
          "internalType": "uint256",
          "name": "_amount",
          "type": "uint256"
        },
        {
          "internalType": "uint256",
          "name": "_interestRateMode",
          "type": "uint256"
        }
      ],
      "name": "borrowFromAave",
      "outputs": [],
      "stateMutability": "nonpayable",
      "type": "function"
    },
    {
      "inputs": [
        {
          "internalType": "uint256",
          "name": "_amount",
          "type": "uint256"
        }
      ],
      "name": "borrowGho",
      "outputs": [],
      "stateMutability": "nonpayable",
      "type": "function"
    },
    {
      "inputs": [
        {
          "internalType": "address[]",
          "name": "_tokens",
          "type": "address[]"
        }
      ],
      "name": "getSafeBalances",
      "outputs": [
        {
          "internalType": "uint256[]",
          "name": "balances",
          "type": "uint256[]"
        }
      ],
      "stateMutability": "view",
      "type": "function"
    },
    {
      "inputs": [
        {
          "internalType": "address",
          "name": "_owner",
          "type": "address"
        }
      ],
      "name": "removeOwner",
      "outputs": [],
      "stateMutability": "nonpayable",
      "type": "function"
    },
    {
      "inputs": [
        {
          "internalType": "uint256",
          "name": "_amount",
          "type": "uint256"
        }
      ],
      "name": "repayGho",
      "outputs": [],
      "stateMutability": "nonpayable",
      "type": "function"
    },
    {
      "inputs": [
        {
          "internalType": "address",
          "name": "_token",
          "type": "address"
        },
        {
          "internalType": "uint256",
          "name": "_amount",
          "type": "uint256"
        },
        {
          "internalType": "uint256",
          "name": "_rateMode",
          "type": "uint256"
        }
      ],
      "name": "repayToAave",
      "outputs": [],
      "stateMutability": "nonpayable",
      "type": "function"
    },
    {
      "inputs": [
        {
          "internalType": "address",
          "name": "_token",
          "type": "address"
        },
        {
          "internalType": "uint256",
          "name": "_amount",
          "type": "uint256"
        }
      ],
      "name": "supplyToAave",
      "outputs": [],
      "stateMutability": "nonpayable",
      "type": "function"
    },
    {
      "inputs": [
        {
          "internalType": "address payable",
          "name": "_to",
          "type": "address"
        },
        {
          "internalType": "uint256",
          "name": "_amount",
          "type": "uint256"
        }
      ],
      "name": "withdrawETHFromSafe",
      "outputs": [],
      "stateMutability": "payable",
      "type": "function"
    },
    {
      "inputs": [
        {
          "internalType": "address",
          "name": "_token",
          "type": "address"
        },
        {
          "internalType": "uint256",
          "name": "_amount",
          "type": "uint256"
        }
      ],
      "name": "withdrawFromAave",
      "outputs": [],
      "stateMutability": "nonpayable",
      "type": "function"
    },
    {
      "inputs": [
        {
          "internalType": "address payable",
          "name": "_to",
          "type": "address"
        },
        {
          "internalType": "address",
          "name": "_token",
          "type": "address"
        },
        {
          "internalType": "uint256",
          "name": "_amount",
          "type": "uint256"
        }
      ],
      "name": "withdrawFromSafe",
      "outputs": [],
      "stateMutability": "nonpayable",
      "type": "function"
    },
    {
      "stateMutability": "payable",
      "type": "receive"
    }
  ],
  "bytecode": "0x6101606040523480156200001257600080fd5b5060405162008c1738038062008c178339810160408190526200003591620001c7565b80604051620000449062000180565b6001600160a01b039091168152602001604051809103906000f08015801562000071573d6000803e3d6000fd5b506001600160a01b031660e05260405189906200008e906200018e565b6001600160a01b039091168152602001604051809103906000f080158015620000bb573d6000803e3d6000fd5b506001600160a01b0316610120816001600160a01b03168152505060e051610120518988888787604051620000f0906200019c565b6001600160a01b03978816815295871660208701529386166040860152918516606085015284166080840152831660a083015290911660c082015260e001604051809103906000f0801580156200014b573d6000803e3d6000fd5b506001600160a01b039081166101005261ffff90971661014052505050831660805290821660a0521660c052506200028a9050565b61102b806200206283390190565b6106e7806200308d83390190565b6154a3806200377483390190565b80516001600160a01b0381168114620001c257600080fd5b919050565b60008060008060008060008060006101208a8c031215620001e757600080fd5b620001f28a620001aa565b98506200020260208b01620001aa565b975060408a015161ffff811681146200021a57600080fd5b96506200022a60608b01620001aa565b95506200023a60808b01620001aa565b94506200024a60a08b01620001aa565b93506200025a60c08b01620001aa565b92506200026a60e08b01620001aa565b91506200027b6101008b01620001aa565b90509295985092959850929598565b60805160a05160c05160e051610100516101205161014051611cb9620003a96000396000818161019a015281816106450152818161081e015261193f015260006102d301526000818161035f0152610ab701526000818161039301528181610411015281816104c7015281816105830152818161073f0152818161093901528181610cec01528181610f7b0152818161102c015281816110e8015281816113130152818161159e015261174a01526000610b1d0152600081816107e8015281816108ac015281816113eb01528181611470015261151c0152600081816106720152818161084e015281816109f70152818161119101528181611241015281816113bc015281816114ac0152818161189301526119660152611cb96000f3fe6080604052600436106100f75760003560e01c80637065cb481161008a578063d5c8c1a011610059578063d5c8c1a01461034d578063e2fff82914610381578063e371aa22146103b5578063f964711b146103c857610134565b80637065cb48146102a157806376878ebb146102c15780638f7073be1461030d578063970a52b01461032d57610134565b8063487ede04116100c6578063487ede041461021457806352eb00a314610234578063530ada5a14610254578063638181b31461028157610134565b8063173825d9146101665780633583849a146101885780633fd8c992146101d45780634769d36b146101f457610134565b366101345760405134815233907f8896b78bee3425f51a871baaeba673d465e036b59282c65dece71c53e9078b62906020015b60405180910390a2005b60405134815233907f8896b78bee3425f51a871baaeba673d465e036b59282c65dece71c53e9078b629060200161012a565b34801561017257600080fd5b50610186610181366004611a15565b6103e8565b005b34801561019457600080fd5b506101bc7f000000000000000000000000000000000000000000000000000000000000000081565b60405161ffff90911681526020015b60405180910390f35b3480156101e057600080fd5b506101866101ef366004611a39565b61055a565b34801561020057600080fd5b5061018661020f366004611a6e565b610716565b34801561022057600080fd5b5061018661022f366004611a87565b610910565b34801561024057600080fd5b5061018661024f366004611a87565b610aac565b34801561026057600080fd5b5061027461026f366004611ab3565b610bb4565b6040516101cb9190611b28565b34801561028d57600080fd5b5061018661029c366004611b6c565b610cc3565b3480156102ad57600080fd5b506101866102bc366004611a15565b610f52565b3480156102cd57600080fd5b506102f57f000000000000000000000000000000000000000000000000000000000000000081565b6040516001600160a01b0390911681526020016101cb565b34801561031957600080fd5b50610186610328366004611a39565b6110bf565b34801561033957600080fd5b50610186610348366004611a6e565b6112ea565b34801561035957600080fd5b506102f57f000000000000000000000000000000000000000000000000000000000000000081565b34801561038d57600080fd5b506102f57f000000000000000000000000000000000000000000000000000000000000000081565b6101866103c3366004611a87565b611575565b3480156103d457600080fd5b506101866103e3366004611a87565b611721565b604051632474521560e21b8152600080516020611c6483398151915260048201523360248201527f00000000000000000000000000000000000000000000000000000000000000006001600160a01b0316906391d1485490604401602060405180830381865afa158015610460573d6000803e3d6000fd5b505050506040513d601f19601f820116820180604052508101906104849190611bad565b6104a857604051633733be5960e21b81523360048201526024015b60405180910390fd5b604051632716f7ad60e21b81526001600160a01b0382811660048301527f00000000000000000000000000000000000000000000000000000000000000001690639c5bdeb490602401600060405180830381600087803b15801561050b57600080fd5b505af115801561051f573d6000803e3d6000fd5b50506040516001600160a01b03841692507f58619076adf5bb0943d100ef88d52d7c3fd691b19d3a9071b555b651fbf418da9150600090a250565b604051632474521560e21b8152600080516020611c6483398151915260048201523360248201527f00000000000000000000000000000000000000000000000000000000000000006001600160a01b0316906391d1485490604401602060405180830381865afa1580156105d2573d6000803e3d6000fd5b505050506040513d601f19601f820116820180604052508101906105f69190611bad565b61061557604051633733be5960e21b815233600482015260240161049f565b60405163a415bcad60e01b81526001600160a01b038481166004830152602482018490526044820183905261ffff7f00000000000000000000000000000000000000000000000000000000000000001660648301523060848301527f0000000000000000000000000000000000000000000000000000000000000000169063a415bcad9060a401600060405180830381600087803b1580156106b657600080fd5b505af11580156106ca573d6000803e3d6000fd5b50505050826001600160a01b03167f8b2e69af5d0f812e8aa27147468f28ff71ec055b28822bc4ca66c744ad583b318360405161070991815260200190565b60405180910390a2505050565b604051632474521560e21b8152600080516020611c6483398151915260048201523360248201527f00000000000000000000000000000000000000000000000000000000000000006001600160a01b0316906391d1485490604401602060405180830381865afa15801561078e573d6000803e3d6000fd5b505050506040513d601f19601f820116820180604052508101906107b29190611bad565b6107d157604051633733be5960e21b815233600482015260240161049f565b60405163a415bcad60e01b81526001600160a01b037f00000000000000000000000000000000000000000000000000000000000000008116600483015260248201839052600260448301527f000000000000000000000000000000000000000000000000000000000000000061ffff1660648301523060848301527f0000000000000000000000000000000000000000000000000000000000000000169063a415bcad9060a401600060405180830381600087803b15801561089257600080fd5b505af11580156108a6573d6000803e3d6000fd5b505050507f00000000000000000000000000000000000000000000000000000000000000006001600160a01b03167f8b2e69af5d0f812e8aa27147468f28ff71ec055b28822bc4ca66c744ad583b318260405161090591815260200190565b60405180910390a250565b604051632474521560e21b8152600080516020611c6483398151915260048201523360248201527f00000000000000000000000000000000000000000000000000000000000000006001600160a01b0316906391d1485490604401602060405180830381865afa158015610988573d6000803e3d6000fd5b505050506040513d601f19601f820116820180604052508101906109ac9190611bad565b6109cb57604051633733be5960e21b815233600482015260240161049f565b604051631a4ca37b60e21b81526001600160a01b038381166004830152602482018390523060448301527f000000000000000000000000000000000000000000000000000000000000000016906369328dec906064016020604051808303816000875af1158015610a40573d6000803e3d6000fd5b505050506040513d601f19601f82011682018060405250810190610a649190611bcf565b50816001600160a01b03167f945c3b2ab3acdd0d9231c146b13ebe44f4f39b3cf65d6d67808118c9e436146b82604051610aa091815260200190565b60405180910390a25050565b336001600160a01b037f00000000000000000000000000000000000000000000000000000000000000001614610af757604051633733be5960e21b815233600482015260240161049f565b604051630c04a8a160e41b81526001600160a01b038381166004830152602482018390527f0000000000000000000000000000000000000000000000000000000000000000169063c04a8a1090604401600060405180830381600087803b158015610b6157600080fd5b505af1158015610b75573d6000803e3d6000fd5b50505050816001600160a01b03167f800e1fdc7a7ff328f894ab006cf57c9e224d378a6ed06a97d7894a949b18d4b582604051610aa091815260200190565b60608167ffffffffffffffff811115610bcf57610bcf611be8565b604051908082528060200260200182016040528015610bf8578160200160208202803683370190505b50905060005b82811015610cbc57838382818110610c1857610c18611bfe565b9050602002016020810190610c2d9190611a15565b6040516370a0823160e01b81523060048201526001600160a01b0391909116906370a0823190602401602060405180830381865afa158015610c73573d6000803e3d6000fd5b505050506040513d601f19601f82011682018060405250810190610c979190611bcf565b828281518110610ca957610ca9611bfe565b6020908102919091010152600101610bfe565b5092915050565b604051632474521560e21b8152600080516020611c6483398151915260048201523360248201527f00000000000000000000000000000000000000000000000000000000000000006001600160a01b0316906391d1485490604401602060405180830381865afa158015610d3b573d6000803e3d6000fd5b505050506040513d601f19601f82011682018060405250810190610d5f9190611bad565b610d7e57604051633733be5960e21b815233600482015260240161049f565b6040516370a0823160e01b815230600482015281906001600160a01b038416906370a0823190602401602060405180830381865afa158015610dc4573d6000803e3d6000fd5b505050506040513d601f19601f82011682018060405250810190610de89190611bcf565b1015610e8c576040516370a0823160e01b8152306004820152829082906001600160a01b038316906370a08231906024015b602060405180830381865afa158015610e37573d6000803e3d6000fd5b505050506040513d601f19601f82011682018060405250810190610e5b9190611bcf565b60405162eb9b8760e61b81526001600160a01b0390931660048401526024830191909152604482015260640161049f565b60405163a9059cbb60e01b81526001600160a01b0384811660048301526024820183905283169063a9059cbb906044016020604051808303816000875af1158015610edb573d6000803e3d6000fd5b505050506040513d601f19601f82011682018060405250810190610eff9190611bad565b50826001600160a01b0316826001600160a01b03167fda3b4ed9c4aa8e8357ddf75f4eca29a990b129f9f9cde598963b1f14a196ebb983604051610f4591815260200190565b60405180910390a3505050565b604051632474521560e21b8152600080516020611c6483398151915260048201523360248201527f00000000000000000000000000000000000000000000000000000000000000006001600160a01b0316906391d1485490604401602060405180830381865afa158015610fca573d6000803e3d6000fd5b505050506040513d601f19601f82011682018060405250810190610fee9190611bad565b61100d57604051633733be5960e21b815233600482015260240161049f565b60405163397a8bab60e01b81526001600160a01b0382811660048301527f0000000000000000000000000000000000000000000000000000000000000000169063397a8bab90602401600060405180830381600087803b15801561107057600080fd5b505af1158015611084573d6000803e3d6000fd5b50506040516001600160a01b03841692507f994a936646fe87ffe4f1e469d3d6aa417d6b855598397f323de5b449f765f0c39150600090a250565b604051632474521560e21b8152600080516020611c6483398151915260048201523360248201527f00000000000000000000000000000000000000000000000000000000000000006001600160a01b0316906391d1485490604401602060405180830381865afa158015611137573d6000803e3d6000fd5b505050506040513d601f19601f8201168201806040525081019061115b9190611bad565b61117a57604051633733be5960e21b815233600482015260240161049f565b60405163095ea7b360e01b81526001600160a01b037f0000000000000000000000000000000000000000000000000000000000000000811660048301526024820184905284169063095ea7b3906044016020604051808303816000875af11580156111e9573d6000803e3d6000fd5b505050506040513d601f19601f8201168201806040525081019061120d9190611bad565b5060405163573ade8160e01b81526001600160a01b03848116600483015260248201849052604482018390523060648301527f0000000000000000000000000000000000000000000000000000000000000000169063573ade81906084016020604051808303816000875af115801561128a573d6000803e3d6000fd5b505050506040513d601f19601f820116820180604052508101906112ae9190611bcf565b50826001600160a01b03167ff01596bfb877bede5ef96e3d3d1d2e2823cadba79814dbc4b615fa39aed409818360405161070991815260200190565b604051632474521560e21b8152600080516020611c6483398151915260048201523360248201527f00000000000000000000000000000000000000000000000000000000000000006001600160a01b0316906391d1485490604401602060405180830381865afa158015611362573d6000803e3d6000fd5b505050506040513d601f19601f820116820180604052508101906113869190611bad565b6113a557604051633733be5960e21b815233600482015260240161049f565b60405163095ea7b360e01b81526001600160a01b037f000000000000000000000000000000000000000000000000000000000000000081166004830152602482018390527f0000000000000000000000000000000000000000000000000000000000000000169063095ea7b3906044016020604051808303816000875af1158015611434573d6000803e3d6000fd5b505050506040513d601f19601f820116820180604052508101906114589190611bad565b5060405163573ade8160e01b81526001600160a01b037f00000000000000000000000000000000000000000000000000000000000000008116600483015260248201839052600260448301523060648301527f0000000000000000000000000000000000000000000000000000000000000000169063573ade81906084016020604051808303816000875af11580156114f5573d6000803e3d6000fd5b505050506040513d601f19601f820116820180604052508101906115199190611bcf565b507f00000000000000000000000000000000000000000000000000000000000000006001600160a01b03167ff01596bfb877bede5ef96e3d3d1d2e2823cadba79814dbc4b615fa39aed409818260405161090591815260200190565b604051632474521560e21b8152600080516020611c6483398151915260048201523360248201527f00000000000000000000000000000000000000000000000000000000000000006001600160a01b0316906391d1485490604401602060405180830381865afa1580156115ed573d6000803e3d6000fd5b505050506040513d601f19601f820116820180604052508101906116119190611bad565b61163057604051633733be5960e21b815233600482015260240161049f565b804710156116605760405162eb9b8760e61b8152600060048201526024810182905247604482015260640161049f565b600080836001600160a01b03168360405160006040518083038185875af1925050503d80600081146116ae576040519150601f19603f3d011682016040523d82523d6000602084013e6116b3565b606091505b5091509150816116d85780604051637b5915d360e11b815260040161049f9190611c14565b836001600160a01b03167fb121b9f323a25ff676670f214a9dd304cc044406c4a5d73ffb9f40fb051125548460405161171391815260200190565b60405180910390a250505050565b604051632474521560e21b8152600080516020611c6483398151915260048201523360248201527f00000000000000000000000000000000000000000000000000000000000000006001600160a01b0316906391d1485490604401602060405180830381865afa158015611799573d6000803e3d6000fd5b505050506040513d601f19601f820116820180604052508101906117bd9190611bad565b6117dc57604051633733be5960e21b815233600482015260240161049f565b6040516370a0823160e01b815230600482015281906001600160a01b038416906370a0823190602401602060405180830381865afa158015611822573d6000803e3d6000fd5b505050506040513d601f19601f820116820180604052508101906118469190611bcf565b101561187c576040516370a0823160e01b8152306004820152829082906001600160a01b038316906370a0823190602401610e1a565b60405163095ea7b360e01b81526001600160a01b037f0000000000000000000000000000000000000000000000000000000000000000811660048301526024820183905283169063095ea7b3906044016020604051808303816000875af11580156118eb573d6000803e3d6000fd5b505050506040513d601f19601f8201168201806040525081019061190f9190611bad565b5060405163617ba03760e01b81526001600160a01b0383811660048301526024820183905230604483015261ffff7f00000000000000000000000000000000000000000000000000000000000000001660648301527f0000000000000000000000000000000000000000000000000000000000000000169063617ba03790608401600060405180830381600087803b1580156119aa57600080fd5b505af11580156119be573d6000803e3d6000fd5b50505050816001600160a01b03167f15830ad89052cd588c4c4f5bf9d998ce3337effc05c54cef8a8bc2ecc47c845982604051610aa091815260200190565b6001600160a01b0381168114611a1257600080fd5b50565b600060208284031215611a2757600080fd5b8135611a32816119fd565b9392505050565b600080600060608486031215611a4e57600080fd5b8335611a59816119fd565b95602085013595506040909401359392505050565b600060208284031215611a8057600080fd5b5035919050565b60008060408385031215611a9a57600080fd5b8235611aa5816119fd565b946020939093013593505050565b60008060208385031215611ac657600080fd5b823567ffffffffffffffff80821115611ade57600080fd5b818501915085601f830112611af257600080fd5b813581811115611b0157600080fd5b8660208260051b8501011115611b1657600080fd5b60209290920196919550909350505050565b6020808252825182820181905260009190848201906040850190845b81811015611b6057835183529284019291840191600101611b44565b50909695505050505050565b600080600060608486031215611b8157600080fd5b8335611b8c816119fd565b92506020840135611b9c816119fd565b929592945050506040919091013590565b600060208284031215611bbf57600080fd5b81518015158114611a3257600080fd5b600060208284031215611be157600080fd5b5051919050565b634e487b7160e01b600052604160045260246000fd5b634e487b7160e01b600052603260045260246000fd5b60006020808352835180602085015260005b81811015611c4257858101830151858201604001528201611c26565b506000604082860101526040601f19601f830116850101925050509291505056feb19546dff01e856fb3f010c267a7b1c60363cf8a4664e21cc89c26224620214ea2646970667358221220566af532b03a14fbf439690c3636e197a1f653dd9486ed4f7173b93c4beeb82164736f6c6343000817003360806040523480156200001157600080fd5b506040516200102b3803806200102b8339810160408190526200003491620001ec565b6203f48033806200005f57604051636116401160e11b81526000600482015260240160405180910390fd5b600180546001600160d01b0316600160d01b65ffffffffffff8516021790556200008b600082620000c8565b505050620000c07fb19546dff01e856fb3f010c267a7b1c60363cf8a4664e21cc89c26224620214e82620000c860201b60201c565b50506200021e565b60008262000129576000620000e56002546001600160a01b031690565b6001600160a01b0316146200010d57604051631fe1e13d60e11b815260040160405180910390fd5b600280546001600160a01b0319166001600160a01b0384161790555b6200013583836200013e565b90505b92915050565b6000828152602081815260408083206001600160a01b038516845290915281205460ff16620001e3576000838152602081815260408083206001600160a01b03861684529091529020805460ff191660011790556200019a3390565b6001600160a01b0316826001600160a01b0316847f2f8788117e7eff1d82e926ec794901d17c78024a50270940304540a733656f0d60405160405180910390a450600162000138565b50600062000138565b600060208284031215620001ff57600080fd5b81516001600160a01b03811681146200021757600080fd5b9392505050565b610dfd806200022e6000396000f3fe608060405234801561001057600080fd5b50600436106101375760003560e01c80638da5cb5b116100b8578063cc8463c81161007c578063cc8463c81461029c578063cefc1429146102a4578063cf6eefb7146102ac578063d547741f146102da578063d602b9fd146102ed578063e58378bb146102f557600080fd5b80638da5cb5b1461023f57806391d14854146102475780639c5bdeb41461025a578063a1eda53c1461026d578063a217fddf1461029457600080fd5b806336568abe116100ff57806336568abe146101ce578063397a8bab146101e1578063634e93da146101f4578063649a5ec71461020757806384ef8ffc1461021a57600080fd5b806301ffc9a71461013c578063022d63fb146101645780630aa6220b14610180578063248a9ca31461018a5780632f2ff15d146101bb575b600080fd5b61014f61014a366004610c9e565b61031c565b60405190151581526020015b60405180910390f35b620697805b60405165ffffffffffff909116815260200161015b565b610188610347565b005b6101ad610198366004610cc8565b60009081526020819052604090206001015490565b60405190815260200161015b565b6101886101c9366004610cfd565b61035d565b6101886101dc366004610cfd565b610389565b6101886101ef366004610d29565b610435565b610188610202366004610d29565b610495565b610188610215366004610d44565b6104a9565b6002546001600160a01b03165b6040516001600160a01b03909116815260200161015b565b6102276104bd565b61014f610255366004610cfd565b6104d6565b610188610268366004610d29565b6104ff565b61027561053e565b6040805165ffffffffffff93841681529290911660208301520161015b565b6101ad600081565b610169610592565b6101886105f1565b6102b4610631565b604080516001600160a01b03909316835265ffffffffffff90911660208301520161015b565b6101886102e8366004610cfd565b610652565b61018861067a565b6101ad7fb19546dff01e856fb3f010c267a7b1c60363cf8a4664e21cc89c26224620214e81565b60006001600160e01b031982166318a4c3c360e11b148061034157506103418261068d565b92915050565b6000610352816106c2565b61035a6106cc565b50565b8161037b57604051631fe1e13d60e11b815260040160405180910390fd5b61038582826106d9565b5050565b811580156103a457506002546001600160a01b038281169116145b1561042b576000806103b4610631565b90925090506001600160a01b0382161515806103d6575065ffffffffffff8116155b806103e957504265ffffffffffff821610155b15610416576040516319ca5ebb60e01b815265ffffffffffff821660048201526024015b60405180910390fd5b50506001805465ffffffffffff60a01b191690555b6103858282610704565b6104406000336104d6565b61046b57335b604051633733be5960e21b81526001600160a01b03909116600482015260240161040d565b6103857fb19546dff01e856fb3f010c267a7b1c60363cf8a4664e21cc89c26224620214e8261073c565b60006104a0816106c2565b610385826107ab565b60006104b4816106c2565b6103858261081e565b60006104d16002546001600160a01b031690565b905090565b6000918252602082815260408084206001600160a01b0393909316845291905290205460ff1690565b61050a6000336104d6565b6105145733610446565b6103857fb19546dff01e856fb3f010c267a7b1c60363cf8a4664e21cc89c26224620214e8261088e565b600254600090600160d01b900465ffffffffffff16801515801561056a57504265ffffffffffff821610155b6105765760008061058a565b600254600160a01b900465ffffffffffff16815b915091509091565b600254600090600160d01b900465ffffffffffff1680151580156105bd57504265ffffffffffff8216105b6105d857600154600160d01b900465ffffffffffff166105eb565b600254600160a01b900465ffffffffffff165b91505090565b60006105fb610631565b509050336001600160a01b0382161461062957604051636116401160e11b815233600482015260240161040d565b61035a6108cb565b6001546001600160a01b03811691600160a01b90910465ffffffffffff1690565b8161067057604051631fe1e13d60e11b815260040160405180910390fd5b6103858282610964565b6000610685816106c2565b61035a610989565b60006001600160e01b03198216637965db0b60e01b148061034157506301ffc9a760e01b6001600160e01b0319831614610341565b61035a8133610994565b6106d76000806109cd565b565b6000828152602081905260409020600101546106f4816106c2565b6106fe838361073c565b50505050565b6001600160a01b038116331461072d5760405163334bd91960e11b815260040160405180910390fd5b610737828261088e565b505050565b60008261079a5760006107576002546001600160a01b031690565b6001600160a01b03161461077e57604051631fe1e13d60e11b815260040160405180910390fd5b600280546001600160a01b0319166001600160a01b0384161790555b6107a48383610a8d565b9392505050565b60006107b5610592565b6107be42610b1f565b6107c89190610d82565b90506107d48282610b56565b60405165ffffffffffff821681526001600160a01b038316907f3377dc44241e779dd06afab5b788a35ca5f3b778836e2990bdb26a2a4b2e5ed69060200160405180910390a25050565b600061082982610bd5565b61083242610b1f565b61083c9190610d82565b905061084882826109cd565b6040805165ffffffffffff8085168252831660208201527ff1038c18cf84a56e432fdbfaf746924b7ea511dfe03a6506a0ceba4888788d9b910160405180910390a15050565b6000821580156108ab57506002546001600160a01b038381169116145b156108c157600280546001600160a01b03191690555b6107a48383610c1d565b6000806108d6610631565b915091506108eb8165ffffffffffff16151590565b15806108ff57504265ffffffffffff821610155b15610927576040516319ca5ebb60e01b815265ffffffffffff8216600482015260240161040d565b610943600061093e6002546001600160a01b031690565b61088e565b5061094f60008361073c565b5050600180546001600160d01b031916905550565b60008281526020819052604090206001015461097f816106c2565b6106fe838361088e565b6106d7600080610b56565b61099e82826104d6565b6103855760405163e2517d3f60e01b81526001600160a01b03821660048201526024810183905260440161040d565b600254600160d01b900465ffffffffffff168015610a50574265ffffffffffff82161015610a2657600254600180546001600160d01b0316600160a01b90920465ffffffffffff16600160d01b02919091179055610a50565b6040517f2b1fa2edafe6f7b9e97c1a9e0c3660e645beb2dcaa2d45bdbf9beaf5472e1ec590600090a15b50600280546001600160a01b0316600160a01b65ffffffffffff948516026001600160d01b031617600160d01b9290931691909102919091179055565b6000610a9983836104d6565b610b17576000838152602081815260408083206001600160a01b03861684529091529020805460ff19166001179055610acf3390565b6001600160a01b0316826001600160a01b0316847f2f8788117e7eff1d82e926ec794901d17c78024a50270940304540a733656f0d60405160405180910390a4506001610341565b506000610341565b600065ffffffffffff821115610b52576040516306dfcc6560e41b8152603060048201526024810183905260440161040d565b5090565b6000610b60610631565b6001805465ffffffffffff8616600160a01b026001600160d01b03199091166001600160a01b038816171790559150610ba290508165ffffffffffff16151590565b15610737576040517f8886ebfc4259abdbc16601dd8fb5678e54878f47b3c34836cfc51154a960510990600090a1505050565b600080610be0610592565b90508065ffffffffffff168365ffffffffffff1611610c0857610c038382610da8565b6107a4565b6107a465ffffffffffff841662069780610c88565b6000610c2983836104d6565b15610b17576000838152602081815260408083206001600160a01b0386168085529252808320805460ff1916905551339286917ff6391f5c32d9c69d2a47ea670b442974b53935d1edc7fd64eb21e047a839171b9190a4506001610341565b6000818310610c9757816107a4565b5090919050565b600060208284031215610cb057600080fd5b81356001600160e01b0319811681146107a457600080fd5b600060208284031215610cda57600080fd5b5035919050565b80356001600160a01b0381168114610cf857600080fd5b919050565b60008060408385031215610d1057600080fd5b82359150610d2060208401610ce1565b90509250929050565b600060208284031215610d3b57600080fd5b6107a482610ce1565b600060208284031215610d5657600080fd5b813565ffffffffffff811681146107a457600080fd5b634e487b7160e01b600052601160045260246000fd5b65ffffffffffff818116838216019080821115610da157610da1610d6c565b5092915050565b65ffffffffffff828116828216039080821115610da157610da1610d6c56fea2646970667358221220d2b3086393a5a3ca869c087498bb05552bef58ba2e6f8f2672409cc8580026c164736f6c6343000817003360c060405234801561001057600080fd5b506040516106e73803806106e783398101604081905261002f91610044565b6001600160a01b03166080523360a052610074565b60006020828403121561005657600080fd5b81516001600160a01b038116811461006d57600080fd5b9392505050565b60805160a05161064e61009960003960006101c6015260006102d2015261064e6000f3fe608060405234801561001057600080fd5b50600436106100575760003560e01c80631b3b86711461005c5780631f5553b9146101a057806385d38f80146101c1578063a5a305ad14610200578063d1b332f414610209575b600080fd5b61012761006a36600461053c565b6040805160e081018252600080825260208201819052918101829052606081018290526080810182905260a0810182905260c081019190915250600090815260016020818152604092839020835160e08101855281548152928101549183019190915260028101549282019290925260038201546001600160a01b0390811660608301526004909201549182166080820152600160a01b820467ffffffffffffffff1660a0820152600160e01b90910460ff16151560c082015290565b6040516101979190600060e082019050825182526020830151602083015260408301516040830152606083015160018060a01b038082166060850152806080860151166080850152505067ffffffffffffffff60a08401511660a083015260c0830151151560c083015292915050565b60405180910390f35b6101b36101ae366004610555565b6102ba565b604051908152602001610197565b6101e87f000000000000000000000000000000000000000000000000000000000000000081565b6040516001600160a01b039091168152602001610197565b6101b360005481565b61027061021736600461053c565b600160208190526000918252604090912080549181015460028201546003830154600490930154919290916001600160a01b0391821691811690600160a01b810467ffffffffffffffff1690600160e01b900460ff1687565b604080519788526020880196909652948601939093526001600160a01b03918216606086015216608084015267ffffffffffffffff1660a0830152151560c082015260e001610197565b6040516370a0823160e01b81523360048201526000907f00000000000000000000000000000000000000000000000000000000000000006001600160a01b0316906370a0823190602401602060405180830381865afa158015610321573d6000803e3d6000fd5b505050506040513d601f19601f8201168201806040525081019061034591906105d8565b60000361036b57604051639289acb760e01b815233600482015260240160405180910390fd5b60008054908061037a836105f1565b9190505590506040518060e00160405280848152602001838152602001888152602001876001600160a01b03168152602001336001600160a01b031681526020018567ffffffffffffffff1681526020018615158152506001600083815260200190815260200160002060008201518160000155602082015181600101556040820151816002015560608201518160030160006101000a8154816001600160a01b0302191690836001600160a01b0316021790555060808201518160040160006101000a8154816001600160a01b0302191690836001600160a01b0316021790555060a08201518160040160146101000a81548167ffffffffffffffff021916908367ffffffffffffffff16021790555060c082015181600401601c6101000a81548160ff021916908315150217905550905050336001600160a01b0316817f2969aea605a1559060563ed9fd9b0637c7ccdca1704a3b0f7e736dfb222843f28989888a898960405161052a969594939291909586526001600160a01b0394909416602086015267ffffffffffffffff92909216604085015215156060840152608083015260a082015260c00190565b60405180910390a39695505050505050565b60006020828403121561054e57600080fd5b5035919050565b60008060008060008060c0878903121561056e57600080fd5b8635955060208701356001600160a01b038116811461058c57600080fd5b9450604087013580151581146105a157600080fd5b9350606087013567ffffffffffffffff811681146105be57600080fd5b9598949750929560808101359460a0909101359350915050565b6000602082840312156105ea57600080fd5b5051919050565b60006001820161061157634e487b7160e01b600052601160045260246000fd5b506001019056fea2646970667358221220dfc082375cc505bec85f5a995150e4a27735c881fecfddc2e420d30813496ee464736f6c634300081700336101806040523480156200001257600080fd5b50604051620054a3380380620054a3833981016040819052620000359162000140565b60016000556001600160a01b0380851661016052838116610140523360805287811660a05286811660c05285166101205260405162000074906200010b565b604051809103906000f08015801562000091573d6000803e3d6000fd5b506001600160a01b031660e052604051829082908990620000b29062000119565b6001600160a01b03938416815291831660208301529091166040820152606001604051809103906000f080158015620000ef573d6000803e3d6000fd5b506001600160a01b03166101005250620001eb95505050505050565b610b35806200301583390190565b6119598062003b4a83390190565b6001600160a01b03811681146200013d57600080fd5b50565b600080600080600080600060e0888a0312156200015c57600080fd5b8751620001698162000127565b60208901519097506200017c8162000127565b60408901519096506200018f8162000127565b6060890151909550620001a28162000127565b6080890151909450620001b58162000127565b60a0890151909350620001c88162000127565b60c0890151909250620001db8162000127565b8091505092959891949750929550565b60805160a05160c05160e05161010051610120516101405161016051612ce462000331600039600081816105e8015281816108f00152818161135f0152612011015260008181610e1101526123e801526000818161025901528181610c7901528181610fea0152611468015260008181610452015281816106af01528181611da0015281816120d901526122be01526000818161042b0152818161094e015281816113cf01528181611b540152611bf001526000818161038301526116e901526000818161052401528181610b9f01528181610ee6015281816115280152818161163e01526119ca0152600081816104bb0152818161060d0152818161074501528181610913015281816109ea01528181610de401528181610fb60152818161138401528181611c4601528181611e800152818161203401526123bb0152612ce46000f3fe608060405234801561001057600080fd5b50600436106101fb5760003560e01c80637f6634a71161011a578063b400bfb7116100ad578063c98a76d61161007c578063c98a76d61461050c578063e2fff8291461051f578063f48a967a14610546578063f4d1e13f14610559578063f64b3fc01461056c57600080fd5b8063b400bfb7146104b6578063b7b0d311146104dd578063bac079b4146104f0578063c5ebeaec146104f957600080fd5b8063a4be77ee116100e9578063a4be77ee14610474578063a52dd2191461047d578063a62e8a9f14610490578063b031db86146104a357600080fd5b80637f6634a7146103a5578063807d0afb1461041e57806394ab121f146104265780639e76c96d1461044d57600080fd5b80634c5bf4291161019257806370a4e1bf1161016157806370a4e1bf1461033957806379b2e89f146103625780637c3a00fd146103755780637ef7b2e71461037e57600080fd5b80634c5bf429146102e157806351a22443146102e9578063622fe39f146102f157806364337f411461031157600080fd5b8063371fd8e6116101ce578063371fd8e6146102935780633b089a44146102a6578063439e3f46146102b957806347eb6f49146102cc57600080fd5b80630201cbc7146102005780630df40eae14610215578063253eba541461023157806330c2ed7e14610254575b600080fd5b61021361020e36600461271e565b610574565b005b61021e60025481565b6040519081526020015b60405180910390f35b61024461023f36600461274e565b610824565b6040519015158152602001610228565b61027b7f000000000000000000000000000000000000000000000000000000000000000081565b6040516001600160a01b039091168152602001610228565b6102136102a136600461274e565b610865565b61021e6102b436600461274e565b610a9a565b6102136102c7366004612775565b610b76565b6102d4610d38565b604051610228919061279a565b61021e610dcd565b610213610ebd565b6103046102ff36600461274e565b6110b5565b60405161022891906127de565b61032461031f36600461274e565b6111fb565b60408051928352602083019190915201610228565b61027b61034736600461289f565b6008602052600090815260409020546001600160a01b031681565b61021361037036600461271e565b6112f0565b61021e60045481565b61027b7f000000000000000000000000000000000000000000000000000000000000000081565b6103b86103b336600461274e565b6113fe565b6040516102289190600060e08201905082518252602083015160208301526040830151604083015260608301516060830152608083015160018060a01b0380821660808501528060a08601511660a0850152505060c0830151151560c083015292915050565b61021e6114e1565b61027b7f000000000000000000000000000000000000000000000000000000000000000081565b61027b7f000000000000000000000000000000000000000000000000000000000000000081565b61021e60015481565b61021e61048b36600461274e565b6114f2565b61021361049e3660046128bc565b6114ff565b6102136104b136600461274e565b611615565b61027b7f000000000000000000000000000000000000000000000000000000000000000081565b6102136104eb3660046128ee565b6119a1565b61021e60035481565b61021361050736600461274e565b611a95565b61021361051a36600461274e565b611d07565b61027b7f000000000000000000000000000000000000000000000000000000000000000081565b61021361055436600461274e565b611f42565b61021361056736600461274e565b612114565b61021e6123a4565b61057c612475565b60008281526007602052604090206003810154600282015461059e9190612932565b4210156105c657604051636bcd5a6360e11b8152600481018490526024015b60405180910390fd5b60088101805460ff60a01b191690556005810154610632906001600160a01b037f0000000000000000000000000000000000000000000000000000000000000000169033907f00000000000000000000000000000000000000000000000000000000000000009061249f565b60078101546001600160401b03811660008181526008602090815260409182902054825160c08101845288815260068701549281019290925260028284015260ff600160e01b860416151560608301526001600160a01b03600160401b9095048516608083015286851660a08301529151635dde677b60e11b81527f000000000000000000000000000000000000000000000000000000000000000085169463bbbccef6946106e8949093911691600401612945565b600060405180830381600087803b15801561070257600080fd5b505af1158015610716573d6000803e3d6000fd5b5050505060088101546040516352eb00a360e01b81526001600160a01b039182166004820152600060248201527f0000000000000000000000000000000000000000000000000000000000000000909116906352eb00a390604401600060405180830381600087803b15801561078b57600080fd5b505af115801561079f573d6000803e3d6000fd5b505050506008810154600582015460048301546001600160a01b0385811693169186917f9950a0562c02382e2e840daa73082d5be7660ce37601f28fa4c84089c11e8a069190612710906107f390836129b4565b6107fd91906129cb565b6040805192835260208301919091520160405180910390a4506108206001600055565b5050565b6000805b60095481101561085f576000818152600760205260409020600181015484900361085657600192505061085f565b50600101610828565b50919050565b61086d612475565b60008181526007602052604090206008810154600160a01b900460ff166108aa57604051638db4d94d60e01b8152600481018390526024016105bd565b6000612710826004015483600501546108c391906129b4565b6108cd91906129cb565b905060008183600501546108e19190612932565b90506109386001600160a01b037f000000000000000000000000000000000000000000000000000000000000000016337f00000000000000000000000000000000000000000000000000000000000000008461249f565b604051631e7046db60e01b8152600481018590527f00000000000000000000000000000000000000000000000000000000000000006001600160a01b031690631e7046db906024015b600060405180830381600087803b15801561099b57600080fd5b505af11580156109af573d6000803e3d6000fd5b5050505060088301805460ff60a01b1981169091556040516352eb00a360e01b81526001600160a01b039182166004820152600060248201527f0000000000000000000000000000000000000000000000000000000000000000909116906352eb00a390604401600060405180830381600087803b158015610a3057600080fd5b505af1158015610a44573d6000803e3d6000fd5b5050506005840154604080519182526020820185905233925086917f553c9087bff5b534e499a66dac3fa9db2962cd252ea01165239755836ae5345e910160405180910390a3505050610a976001600055565b50565b600081815260076020818152604080842081516101808101835281548152600182015493810193909352600281015491830182905260038101546060840181905260048201546080850152600582015460a0850152600682015460c0850152938101546001600160401b03811660e08501526001600160a01b03600160401b8204811661010086015260ff600160e01b90920482161515610120860152600890920154918216610140850152600160a01b90910416151561016083015290914291610b659190612932565b610b6f91906129ed565b9392505050565b604051632474521560e21b8152600080516020612c8f83398151915260048201523360248201527f00000000000000000000000000000000000000000000000000000000000000006001600160a01b0316906391d1485490604401602060405180830381865afa158015610bee573d6000803e3d6000fd5b505050506040513d601f19601f82011682018060405250810190610c129190612a00565b610c3157604051630d175fff60e31b81523360048201526024016105bd565b6000610c3b610dcd565b60015460048054604051635204ee1d60e11b8152918201879052602482018490526044820192909252606481019190915283151560848201529091507f00000000000000000000000000000000000000000000000000000000000000006001600160a01b03169063a409dc3a9060a401600060405180830381600087803b158015610cc557600080fd5b505af1158015610cd9573d6000803e3d6000fd5b5050600154600454604080518881528715156020820152908101929092526060820185905260808201527f176baa8506823dad86d30547ef1da020b7adbd4357cfbe3c8250fe640a4f9d72925060a001905060405180910390a1505050565b60606000610d4660056124ff565b6001600160401b03811115610d5d57610d5d612a1d565b604051908082528060200260200182016040528015610d86578160200160208202803683370190505b50905060005b610d9660056124ff565b81101561085f57610da8600582612509565b828281518110610dba57610dba612a33565b6020908102919091010152600101610d8c565b6040516370a0823160e01b81526001600160a01b037f00000000000000000000000000000000000000000000000000000000000000008116600483015260009182917f000000000000000000000000000000000000000000000000000000000000000016906370a0823190602401602060405180830381865afa158015610e58573d6000803e3d6000fd5b505050506040513d601f19601f82011682018060405250810190610e7c9190612a49565b90506000606460025483610e9091906129b4565b610e9a91906129cb565b9050606460035482610eac91906129b4565b610eb691906129cb565b9250505090565b604051632474521560e21b8152600080516020612c8f83398151915260048201523360248201527f00000000000000000000000000000000000000000000000000000000000000006001600160a01b0316906391d1485490604401602060405180830381865afa158015610f35573d6000803e3d6000fd5b505050506040513d601f19601f82011682018060405250810190610f599190612a00565b610f7857604051630d175fff60e31b81523360048201526024016105bd565b6000610f82610dcd565b60015460048054604051635df0d03b60e01b8152918201849052602482019290925260448101919091526001600160a01b037f0000000000000000000000000000000000000000000000000000000000000000811660648301523060848301529192506000917f00000000000000000000000000000000000000000000000000000000000000001690635df0d03b9060a4016020604051808303816000875af1158015611033573d6000803e3d6000fd5b505050506040513d601f19601f820116820180604052508101906110579190612a49565b9050611064600582612515565b50600154600454604080518481526020810193909352820184905260608201527ffef22ca5312edf9ea30ab84bf1782d2214c755a8d3bc73cb6fcb806e9a80e48e9060800160405180910390a15050565b6111386040518061018001604052806000815260200160008152602001600081526020016000815260200160008152602001600081526020016000815260200160006001600160401b0316815260200160006001600160a01b0316815260200160001515815260200160006001600160a01b031681526020016000151581525090565b50600090815260076020818152604092839020835161018081018552815481526001820154928101929092526002810154938201939093526003830154606082015260048301546080820152600583015460a0820152600683015460c0820152908201546001600160401b03811660e08301526001600160a01b03600160401b8204811661010084015260ff600160e01b90920482161515610120840152600890930154928316610140830152600160a01b909204909116151561016082015290565b60008181526007602081815260408084208151610180810183528154815260018201549381019390935260028101549183019190915260038101546060830152600481015460808301819052600582015460a08401819052600683015460c0850152938201546001600160401b03811660e08501526001600160a01b03600160401b8204811661010086015260ff600160e01b90920482161515610120860152600890930154928316610140850152600160a01b90920490911615156101608301528392612710916112cc916129b4565b6112d691906129cb565b9250828160a001516112e89190612932565b915050915091565b6112f8612475565b60008281526007602052604090206003810154600282015461131a9190612932565b42101561133d57604051636bcd5a6360e11b8152600481018490526024016105bd565b60088101805460ff60a01b1916905560058101546113a9906001600160a01b037f0000000000000000000000000000000000000000000000000000000000000000169033907f00000000000000000000000000000000000000000000000000000000000000009061249f565b60405163ac9cf4db60e01b8152600481018490526001600160a01b0383811660248301527f0000000000000000000000000000000000000000000000000000000000000000169063ac9cf4db906044016106e8565b6114526040518060e001604052806000815260200160008152602001600081526020016000815260200160006001600160a01b0316815260200160006001600160a01b031681526020016000151581525090565b604051637f6634a760e01b8152600481018390527f00000000000000000000000000000000000000000000000000000000000000006001600160a01b031690637f6634a79060240160e060405180830381865afa1580156114b7573d6000803e3d6000fd5b505050506040513d601f19601f820116820180604052508101906114db9190612a98565b92915050565b60006114ed60056124ff565b905090565b60006114db600583612509565b604051632474521560e21b8152600080516020612c8f83398151915260048201523360248201527f00000000000000000000000000000000000000000000000000000000000000006001600160a01b0316906391d1485490604401602060405180830381865afa158015611577573d6000803e3d6000fd5b505050506040513d601f19601f8201168201806040525081019061159b9190612a00565b6115ba57604051630d175fff60e31b81523360048201526024016105bd565b600184905560028390556003829055600481905560408051858152602081018590529081018390527f134470e0ac0ddc6e2f8874560f57ce11176093ce7b6913c95fa3db12688beea39060600160405180910390a150505050565b604051632474521560e21b8152600080516020612c8f83398151915260048201523360248201527f00000000000000000000000000000000000000000000000000000000000000006001600160a01b0316906391d1485490604401602060405180830381865afa15801561168d573d6000803e3d6000fd5b505050506040513d601f19601f820116820180604052508101906116b19190612a00565b6116d057604051630d175fff60e31b81523360048201526024016105bd565b604051631b3b867160e01b8152600481018290526000907f00000000000000000000000000000000000000000000000000000000000000006001600160a01b031690631b3b86719060240160e060405180830381865afa158015611738573d6000803e3d6000fd5b505050506040513d601f19601f8201168201806040525081019061175c9190612b14565b60098054919250600091908261177183612b7a565b9190505590506040518061018001604052808281526020018481526020016000815260200183602001518152602001600454815260200183600001518152602001836040015181526020018360a001516001600160401b0316815260200183606001516001600160a01b031681526020018360c001511515815260200183608001516001600160a01b031681526020016000151581525060076000838152602001908152602001600020600082015181600001556020820151816001015560408201518160020155606082015181600301556080820151816004015560a0820151816005015560c0820151816006015560e08201518160070160006101000a8154816001600160401b0302191690836001600160401b031602179055506101008201518160070160086101000a8154816001600160a01b0302191690836001600160a01b0316021790555061012082015181600701601c6101000a81548160ff0219169083151502179055506101408201518160080160006101000a8154816001600160a01b0302191690836001600160a01b031602179055506101608201518160080160146101000a81548160ff02191690831515021790555090505081608001516001600160a01b031681847fc1f8132de989b30ab3c8787441461ac4dea436ced5c7f321f0192c6151793aa1856020015160045487600001518860a0015189606001518a604001518b60c001516040516119949796959493929190612b93565b60405180910390a4505050565b604051632474521560e21b8152600080516020612c8f83398151915260048201523360248201527f00000000000000000000000000000000000000000000000000000000000000006001600160a01b0316906391d1485490604401602060405180830381865afa158015611a19573d6000803e3d6000fd5b505050506040513d601f19601f82011682018060405250810190611a3d9190612a00565b611a5c57604051630d175fff60e31b81523360048201526024016105bd565b6001600160401b0391909116600090815260086020526040902080546001600160a01b0319166001600160a01b03909216919091179055565b611a9d612475565b6000818152600760205260409020600281015415611ad157604051636779a5d960e01b8152600481018390526024016105bd565b60088101546001600160a01b03163314611b1557600881015460405163c7b393c960e01b81523360048201526001600160a01b0390911660248201526044016105bd565b6007810154600160e01b900460ff161515600003611bcc5760078101546006820154604051632142170760e11b81523360048201526001600160a01b037f0000000000000000000000000000000000000000000000000000000000000000811660248301526044820192909252600160401b90920416906342842e0e90606401600060405180830381600087803b158015611baf57600080fd5b505af1158015611bc3573d6000803e3d6000fd5b50505050611c15565b60068101546007820154611c1591600160401b9091046001600160a01b03169033907f00000000000000000000000000000000000000000000000000000000000000009061249f565b600881015460058201546040516352eb00a360e01b81526001600160a01b03928316600482015260248101919091527f0000000000000000000000000000000000000000000000000000000000000000909116906352eb00a390604401600060405180830381600087803b158015611c8c57600080fd5b505af1158015611ca0573d6000803e3d6000fd5b5050426002840181905560088401805460ff60a01b1916600160a01b1790556040518593507f403a7b0a1d0aaf90fc432d8fbc7bef046b5df6600a52edd0c2aeb7d3772cfeeb9250611cf491815260200190565b60405180910390a250610a976001600055565b611d0f612475565b6000818152600760205260409020600281015415611d4357604051636779a5d960e01b8152600481018390526024016105bd565b60088101546001600160a01b03163314611d8757600881015460405163c7b393c960e01b81523360048201526001600160a01b0390911660248201526044016105bd565b60405163622fe39f60e01b8152600481018390526000907f00000000000000000000000000000000000000000000000000000000000000006001600160a01b03169063622fe39f90602401608060405180830381865afa158015611def573d6000803e3d6000fd5b505050506040513d601f19601f82011682018060405250810190611e139190612bd7565b9050806040015160ff166000148015611e2e57506060810151155b15611e4f57604051636ae1d49d60e01b8152600481018490526024016105bd565b600882015460058301546040516352eb00a360e01b81526001600160a01b03928316600482015260248101919091527f0000000000000000000000000000000000000000000000000000000000000000909116906352eb00a390604401600060405180830381600087803b158015611ec657600080fd5b505af1158015611eda573d6000803e3d6000fd5b5050426002850181905560088501805460ff60a01b1916600160a01b1790556040518693507f403a7b0a1d0aaf90fc432d8fbc7bef046b5df6600a52edd0c2aeb7d3772cfeeb9250611f2e91815260200190565b60405180910390a25050610a976001600055565b611f4a612475565b60008181526007602052604090206008810154600160a01b900460ff16611f8757604051638db4d94d60e01b8152600481018390526024016105bd565b60088101546001600160a01b03163314611fcb57600881015460405163c7b393c960e01b81523360048201526001600160a01b0390911660248201526044016105bd565b600061271082600401548360050154611fe491906129b4565b611fee91906129cb565b905060008183600501546120029190612932565b90506120596001600160a01b037f000000000000000000000000000000000000000000000000000000000000000016337f00000000000000000000000000000000000000000000000000000000000000008461249f565b60078301546001600160401b03811660008181526008602081815260409283902054835160c0810185528a815260068a01549281019290925260018285015260ff600160e01b870416151560608301526001600160a01b03600160401b9096048616608083015291880154851660a08201529151635dde677b60e11b81527f000000000000000000000000000000000000000000000000000000000000000085169463bbbccef6946109819490939190911691600401612945565b61211c612475565b6000818152600760208181526040928390208351610180810185528154815260018201549281019290925260028101549382018490526003810154606083015260048101546080830152600581015460a0830152600681015460c0830152918201546001600160401b03811660e08301526001600160a01b03600160401b8204811661010084015260ff600160e01b90920482161515610120840152600890930154928316610140830152600160a01b909204909116151561016082015290156121fc57604051636779a5d960e01b8152600481018390526024016105bd565b6101408101516001600160a01b031633146122425761014081015160405163c7b393c960e01b81523360048201526001600160a01b0390911660248201526044016105bd565b60e08101516001600160401b038116600090815260086020908152604080832054815160c080820184528882528701519381019390935282820193909352610120850151151560608301526101008501516001600160a01b039081166080840152610140860151811660a08401529051635dde677b60e11b81527f000000000000000000000000000000000000000000000000000000000000000082169463bbbccef6946122f69491931691600401612945565b600060405180830381600087803b15801561231057600080fd5b505af1158015612324573d6000803e3d6000fd5b505050508061014001516001600160a01b0316827f603c05de9ebb1e0a2af29b53c11f1962b081cefb4596e42eb74e550770a3dfa1836060015184608001518560a001518660e001518761010001518860c001518961012001516040516123919796959493929190612b93565b60405180910390a350610a976001600055565b6040516370a0823160e01b81526001600160a01b037f00000000000000000000000000000000000000000000000000000000000000008116600483015260009182917f000000000000000000000000000000000000000000000000000000000000000016906370a0823190602401602060405180830381865afa15801561242f573d6000803e3d6000fd5b505050506040513d601f19601f820116820180604052508101906124539190612a49565b905060646002548261246591906129b4565b61246f91906129cb565b91505090565b60026000540361249857604051633ee5aeb560e01b815260040160405180910390fd5b6002600055565b604080516001600160a01b0385811660248301528416604482015260648082018490528251808303909101815260849091019091526020810180516001600160e01b03166323b872dd60e01b1790526124f9908590612521565b50505050565b60006114db825490565b6000610b6f8383612589565b6000610b6f83836125b3565b60006125366001600160a01b03841683612602565b9050805160001415801561255b5750808060200190518101906125599190612a00565b155b1561258457604051635274afe760e01b81526001600160a01b03841660048201526024016105bd565b505050565b60008260000182815481106125a0576125a0612a33565b9060005260206000200154905092915050565b60008181526001830160205260408120546125fa575081546001818101845560008481526020808220909301849055845484825282860190935260409020919091556114db565b5060006114db565b6060610b6f8383600084600080856001600160a01b031684866040516126289190612c5f565b60006040518083038185875af1925050503d8060008114612665576040519150601f19603f3d011682016040523d82523d6000602084013e61266a565b606091505b509150915061267a868383612684565b9695505050505050565b60608261269957612694826126e0565b610b6f565b81511580156126b057506001600160a01b0384163b155b156126d957604051639996b31560e01b81526001600160a01b03851660048201526024016105bd565b5080610b6f565b8051156126f05780518082602001fd5b604051630a12f52160e11b815260040160405180910390fd5b6001600160a01b0381168114610a9757600080fd5b6000806040838503121561273157600080fd5b82359150602083013561274381612709565b809150509250929050565b60006020828403121561276057600080fd5b5035919050565b8015158114610a9757600080fd5b6000806040838503121561278857600080fd5b82359150602083013561274381612767565b6020808252825182820181905260009190848201906040850190845b818110156127d2578351835292840192918401916001016127b6565b50909695505050505050565b600061018082019050825182526020830151602083015260408301516040830152606083015160608301526080830151608083015260a083015160a083015260c083015160c083015260e083015161284160e08401826001600160401b03169052565b50610100838101516001600160a01b0390811691840191909152610120808501511515908401526101408085015190911690830152610160928301511515929091019190915290565b6001600160401b0381168114610a9757600080fd5b6000602082840312156128b157600080fd5b8135610b6f8161288a565b600080600080608085870312156128d257600080fd5b5050823594602084013594506040840135936060013592509050565b6000806040838503121561290157600080fd5b823561290c8161288a565b9150602083013561274381612709565b634e487b7160e01b600052601160045260246000fd5b808201808211156114db576114db61291c565b6000610100820190506001600160401b038516825260018060a01b038085166020840152835160408401526020840151606084015260ff60408501511660808401526060840151151560a08401528060808501511660c08401528060a08501511660e084015250949350505050565b80820281158282048414176114db576114db61291c565b6000826129e857634e487b7160e01b600052601260045260246000fd5b500490565b818103818111156114db576114db61291c565b600060208284031215612a1257600080fd5b8151610b6f81612767565b634e487b7160e01b600052604160045260246000fd5b634e487b7160e01b600052603260045260246000fd5b600060208284031215612a5b57600080fd5b5051919050565b60405160e081016001600160401b0381118282101715612a9257634e487b7160e01b600052604160045260246000fd5b60405290565b600060e08284031215612aaa57600080fd5b612ab2612a62565b825181526020830151602082015260408301516040820152606083015160608201526080830151612ae281612709565b608082015260a0830151612af581612709565b60a082015260c0830151612b0881612767565b60c08201529392505050565b600060e08284031215612b2657600080fd5b612b2e612a62565b8251815260208301516020820152604083015160408201526060830151612b5481612709565b60608201526080830151612b6781612709565b608082015260a0830151612af58161288a565b600060018201612b8c57612b8c61291c565b5060010190565b968752602087019590955260408601939093526001600160401b039190911660608501526001600160a01b0316608084015260a0830152151560c082015260e00190565b600060808284031215612be957600080fd5b604051608081018181106001600160401b0382111715612c1957634e487b7160e01b600052604160045260246000fd5b80604052508251815260208301516020820152604083015160ff81168114612c4057600080fd5b60408201526060830151612c5381612767565b60608201529392505050565b6000825160005b81811015612c805760208186018101518583015201612c66565b50600092019182525091905056feb19546dff01e856fb3f010c267a7b1c60363cf8a4664e21cc89c26224620214ea2646970667358221220374e873872e8920e8133c7df9a0dee107ce7b2a609d9e644762458439ffbc14364736f6c6343000817003360a060405234801561001057600080fd5b5033608052608051610ae36100526000396000818160d601528181610146015281816102eb015281816103490152818161049201526104eb0152610ae36000f3fe608060405234801561001057600080fd5b50600436106100575760003560e01c806301b7053b1461005c578063150b7a02146100845780631e7046db146100bc5780637a091063146100d1578063ac9cf4db14610110575b600080fd5b61006f61006a366004610805565b610123565b60405190151581526020015b60405180910390f35b6100a3610092366004610833565b630a85bd0160e11b95945050505050565b6040516001600160e01b0319909116815260200161007b565b6100cf6100ca366004610805565b6102e0565b005b6100f87f000000000000000000000000000000000000000000000000000000000000000081565b6040516001600160a01b03909116815260200161007b565b6100cf61011e3660046108d2565b610487565b60405163622fe39f60e01b81526004810182905260009081906001600160a01b037f0000000000000000000000000000000000000000000000000000000000000000169063622fe39f9060240161018060405180830381865afa15801561018e573d6000803e3d6000fd5b505050506040513d601f19601f820116820180604052508101906101b29190610972565b9050806101600151156102da57610120810151151560000361025c5761010081015160c08201516040516331a9108f60e11b8152600481019190915230916001600160a01b031690636352211e90602401602060405180830381865afa158015610220573d6000803e3d6000fd5b505050506040513d601f19601f820116820180604052508101906102449190610a2d565b6001600160a01b03160361025757600191505b6102da565b60c08101516101008201516040516370a0823160e01b81523060048201526001600160a01b03909116906370a0823190602401602060405180830381865afa1580156102ac573d6000803e3d6000fd5b505050506040513d601f19601f820116820180604052508101906102d09190610a4a565b106102da57600191505b50919050565b336001600160a01b037f0000000000000000000000000000000000000000000000000000000000000000161461033057604051633733be5960e21b81523360048201526024015b60405180910390fd5b60405163622fe39f60e01b8152600481018290526000907f00000000000000000000000000000000000000000000000000000000000000006001600160a01b03169063622fe39f9060240161018060405180830381865afa158015610399573d6000803e3d6000fd5b505050506040513d601f19601f820116820180604052508101906103bd9190610972565b9050806101600151156104835761012081015115156000036104575761010081015161014082015160c0830151604051632142170760e11b81523060048201526001600160a01b03928316602482015260448101919091529116906342842e0e90606401600060405180830381600087803b15801561043b57600080fd5b505af115801561044f573d6000803e3d6000fd5b505050505050565b6104838161014001518260c001518361010001516001600160a01b031661061f9092919063ffffffff16565b5050565b336001600160a01b037f000000000000000000000000000000000000000000000000000000000000000016146104d257604051633733be5960e21b8152336004820152602401610327565b60405163622fe39f60e01b8152600481018390526000907f00000000000000000000000000000000000000000000000000000000000000006001600160a01b03169063622fe39f9060240161018060405180830381865afa15801561053b573d6000803e3d6000fd5b505050506040513d601f19601f8201168201806040525081019061055f9190610972565b905080610160015161061a5761012081015115156000036105f35761010081015160c0820151604051632142170760e11b81523060048201526001600160a01b03858116602483015260448201929092529116906342842e0e90606401600060405180830381600087803b1580156105d657600080fd5b505af11580156105ea573d6000803e3d6000fd5b50505050505050565b61061a828260c001518361010001516001600160a01b031661061f9092919063ffffffff16565b505050565b604080516001600160a01b03848116602483015260448083018590528351808403909101815260649092019092526020810180516001600160e01b031663a9059cbb60e01b17905261061a9185919060009061067d908416836106cb565b905080516000141580156106a25750808060200190518101906106a09190610a63565b155b1561061a57604051635274afe760e01b81526001600160a01b0384166004820152602401610327565b60606106d9838360006106e0565b9392505050565b6060814710156107055760405163cd78605960e01b8152306004820152602401610327565b600080856001600160a01b031684866040516107219190610a7e565b60006040518083038185875af1925050503d806000811461075e576040519150601f19603f3d011682016040523d82523d6000602084013e610763565b606091505b509150915061077386838361077d565b9695505050505050565b6060826107925761078d826107d9565b6106d9565b81511580156107a957506001600160a01b0384163b155b156107d257604051639996b31560e01b81526001600160a01b0385166004820152602401610327565b50806106d9565b8051156107e95780518082602001fd5b604051630a12f52160e11b815260040160405180910390fd5b50565b60006020828403121561081757600080fd5b5035919050565b6001600160a01b038116811461080257600080fd5b60008060008060006080868803121561084b57600080fd5b85356108568161081e565b945060208601356108668161081e565b935060408601359250606086013567ffffffffffffffff8082111561088a57600080fd5b818801915088601f83011261089e57600080fd5b8135818111156108ad57600080fd5b8960208285010111156108bf57600080fd5b9699959850939650602001949392505050565b600080604083850312156108e557600080fd5b8235915060208301356108f78161081e565b809150509250929050565b604051610180810167ffffffffffffffff8111828210171561093457634e487b7160e01b600052604160045260246000fd5b60405290565b805167ffffffffffffffff8116811461095257600080fd5b919050565b80516109528161081e565b8051801515811461095257600080fd5b6000610180828403121561098557600080fd5b61098d610902565b825181526020830151602082015260408301516040820152606083015160608201526080830151608082015260a083015160a082015260c083015160c08201526109d960e0840161093a565b60e08201526101006109ec818501610957565b908201526101206109fe848201610962565b90820152610140610a10848201610957565b90820152610160610a22848201610962565b908201529392505050565b600060208284031215610a3f57600080fd5b81516106d98161081e565b600060208284031215610a5c57600080fd5b5051919050565b600060208284031215610a7557600080fd5b6106d982610962565b6000825160005b81811015610a9f5760208186018101518583015201610a85565b50600092019182525091905056fea2646970667358221220852e91d8afdc2fc2ea45754205b2b9b99faf0a2ac9f4ff69c5836b6c61eaceab64736f6c6343000817003360e06040523480156200001157600080fd5b5060405162001959380380620019598339810160408190526200003491620000b2565b826001600160a01b03811662000064576040516335fdcccd60e21b81526000600482015260240160405180910390fd5b6001600160a01b03908116608052600580546001600160a01b031916938216939093179092553360a0521660c0525062000106565b6001600160a01b0381168114620000af57600080fd5b50565b600080600060608486031215620000c857600080fd5b8351620000d58162000099565b6020850151909350620000e88162000099565b6040850151909250620000fb8162000099565b809150509250925092565b60805160a05160c0516117f96200016060003960008181610326015281816103bb0152818161067b01528181610c1a0152610d0001526000818161027501526107890152600081816102d701526105fe01526117f96000f3fe608060405234801561001057600080fd5b50600436106100f55760003560e01c80637a09106311610097578063bbbccef611610066578063bbbccef6146102fb578063db04fa491461030e578063e2fff82914610321578063eab5b02c1461034857600080fd5b80637a0910631461027057806385572ffb146102af57806396d3b83d146102c2578063b0f479a1146102d557600080fd5b80635917d7c1116100d35780635917d7c11461015a5780636159ada11461017a578063622fe39f1461019d57806375c67c661461024d57600080fd5b806301ffc9a7146100fa5780633aeac4e1146101225780634030d52114610137575b600080fd5b61010d61010836600461108f565b61035b565b60405190151581526020015b60405180910390f35b6101356101303660046110d5565b610392565b005b61010d61014536600461112a565b60026020526000908152604090205460ff1681565b61016d610168366004611145565b610559565b60405161011991906111a4565b61010d6101883660046111b7565b60036020526000908152604090205460ff1681565b6102156101ab366004611145565b604080516080808201835260008083526020808401829052838501829052606093840182905294815260048552839020835191820184528054825260018101549482019490945260029093015460ff80821693850193909352610100900490911615159082015290565b6040516101199190815181526020808301519082015260408083015160ff169082015260609182015115159181019190915260800190565b61010d61025b36600461112a565b60016020526000908152604090205460ff1681565b6102977f000000000000000000000000000000000000000000000000000000000000000081565b6040516001600160a01b039091168152602001610119565b6101356102bd3660046111d4565b6105f3565b6101356102d036600461121c565b610652565b7f0000000000000000000000000000000000000000000000000000000000000000610297565b610135610309366004611248565b610738565b61013561031c36600461121c565b610bf1565b6102977f000000000000000000000000000000000000000000000000000000000000000081565b61013561035636600461129a565b610cd7565b60006001600160e01b031982166385572ffb60e01b148061038c57506001600160e01b031982166301ffc9a760e01b145b92915050565b604051632474521560e21b81526000805160206117a483398151915260048201523360248201527f00000000000000000000000000000000000000000000000000000000000000006001600160a01b0316906391d1485490604401602060405180830381865afa15801561040a573d6000803e3d6000fd5b505050506040513d601f19601f8201168201806040525081019061042e91906112b8565b61045257604051630d175fff60e31b81523360048201526024015b60405180910390fd5b6040516370a0823160e01b81523060048201526000906001600160a01b038316906370a0823190602401602060405180830381865afa158015610499573d6000803e3d6000fd5b505050506040513d601f19601f820116820180604052508101906104bd91906112d5565b9050806000036104e057604051630686827b60e51b815260040160405180910390fd5b60405163a9059cbb60e01b81526001600160a01b0384811660048301526024820183905283169063a9059cbb906044016020604051808303816000875af115801561052f573d6000803e3d6000fd5b505050506040513d601f19601f8201168201806040525081019061055391906112b8565b50505050565b60006020819052908152604090208054610572906112ee565b80601f016020809104026020016040519081016040528092919081815260200182805461059e906112ee565b80156105eb5780601f106105c0576101008083540402835291602001916105eb565b820191906000526020600020905b8154815290600101906020018083116105ce57829003601f168201915b505050505081565b336001600160a01b037f0000000000000000000000000000000000000000000000000000000000000000161461063e576040516335fdcccd60e21b8152336004820152602401610449565b61064f61064a826114d3565b610dbd565b50565b604051632474521560e21b81526000805160206117a483398151915260048201523360248201527f00000000000000000000000000000000000000000000000000000000000000006001600160a01b0316906391d1485490604401602060405180830381865afa1580156106ca573d6000803e3d6000fd5b505050506040513d601f19601f820116820180604052508101906106ee91906112b8565b61070d57604051630d175fff60e31b8152336004820152602401610449565b6001600160401b03919091166000908152600160205260409020805460ff1916911515919091179055565b6001600160401b038316600090815260016020526040902054839060ff1661077e57604051630a503cdb60e01b81526001600160401b0382166004820152602401610449565b336001600160a01b037f000000000000000000000000000000000000000000000000000000000000000016146107c95760405163effcd4cf60e01b8152336004820152602401610449565b6000826040516020016107dc919061158e565b60408051601f1981840301815291905260055490915060009061080b90869084906001600160a01b0316610f6b565b90506000306001600160a01b031663b0f479a16040518163ffffffff1660e01b8152600401602060405180830381865afa15801561084d573d6000803e3d6000fd5b505050506040513d601f19601f820116820180604052508101906108719190611608565b90506000816001600160a01b03166320487ded89856040518363ffffffff1660e01b81526004016108a3929190611625565b602060405180830381865afa1580156108c0573d6000803e3d6000fd5b505050506040513d601f19601f820116820180604052508101906108e491906112d5565b6005546040516370a0823160e01b81523060048201529192506001600160a01b0316906370a0823190602401602060405180830381865afa15801561092d573d6000803e3d6000fd5b505050506040513d601f19601f8201168201806040525081019061095191906112d5565b8111156109e8576005546040516370a0823160e01b81523060048201526001600160a01b03909116906370a0823190602401602060405180830381865afa1580156109a0573d6000803e3d6000fd5b505050506040513d601f19601f820116820180604052508101906109c491906112d5565b604051634787a10360e11b8152600481019190915260248101829052604401610449565b60055460405163095ea7b360e01b81526001600160a01b038481166004830152602482018490529091169063095ea7b3906044016020604051808303816000875af1158015610a3b573d6000803e3d6000fd5b505050506040513d601f19601f82011682018060405250810190610a5f91906112b8565b506040516396f4e9f960e01b81526000906001600160a01b038416906396f4e9f990610a91908c908890600401611625565b6020604051808303816000875af1158015610ab0573d6000803e3d6000fd5b505050506040513d601f19601f82011682018060405250810190610ad491906112d5565b873560009081526004602052604090819020600101829055909150610aff9060608901908901611701565b8735600081815260046020908152604091829020600201805460ff191660ff9590951694909417909355909183917f2cc2a7651489ecbeeebe0862149ef3451d4001679efe808f5c8b7e4f1d6e0584918b0135908d90610b659060608e01908e01611701565b610b7560808e0160608f0161171e565b8d6080016020810190610b8891906111b7565b8e60a0016020810190610b9b91906111b7565b604080519687526001600160401b03909516602087015260ff90931693850193909352151560608401526001600160a01b0391821660808401521660a082015260c00160405180910390a3505050505050505050565b604051632474521560e21b81526000805160206117a483398151915260048201523360248201527f00000000000000000000000000000000000000000000000000000000000000006001600160a01b0316906391d1485490604401602060405180830381865afa158015610c69573d6000803e3d6000fd5b505050506040513d601f19601f82011682018060405250810190610c8d91906112b8565b610cac57604051630d175fff60e31b8152336004820152602401610449565b6001600160401b03919091166000908152600260205260409020805460ff1916911515919091179055565b604051632474521560e21b81526000805160206117a483398151915260048201523360248201527f00000000000000000000000000000000000000000000000000000000000000006001600160a01b0316906391d1485490604401602060405180830381865afa158015610d4f573d6000803e3d6000fd5b505050506040513d601f19601f82011682018060405250810190610d7391906112b8565b610d9257604051630d175fff60e31b8152336004820152602401610449565b6001600160a01b03919091166000908152600360205260409020805460ff1916911515919091179055565b80602001518160400151806020019051810190610dda9190611608565b6001600160401b03821660009081526002602052604090205460ff16610e1e576040516326bfad9160e21b81526001600160401b0383166004820152602401610449565b6001600160a01b03811660009081526003602052604090205460ff16610e62576040516338c08ef960e11b81526001600160a01b0382166004820152602401610449565b60008360600151806020019051810190610e7c919061173b565b60408181015182516000908152600460209081528382206002908101805461ff00191661010095151595909502949094179093558085015185518352848320909301805460ff191660ff9094169390931790925587518451825290839020558681015187519288015180519495506001600160401b03909116937f7e5507e9a8d7f61eafce00d842e19dbd90aca18232c89ca598779e2aabca768c92610f289291820181019101611608565b845160208087015160408089015181516001600160a01b039690961686529285019390935260ff168383015215156060830152519081900360800190a350505050565b610fa66040518060a0016040528060608152602001606081526020016060815260200160006001600160a01b03168152602001606081525090565b6040805160a081019091526001600160a01b03851660c08201528060e0810160408051808303601f19018152918152908252602080830187905281516000808252918101835292909101919061101e565b6040805180820190915260008082526020820152815260200190600190039081610ff75790505b508152602001836001600160a01b03168152602001611085604051806020016040528062030d4081525060408051915160248084019190915281518084039091018152604490920190526020810180516001600160e01b03166397a657c960e01b17905290565b9052949350505050565b6000602082840312156110a157600080fd5b81356001600160e01b0319811681146110b957600080fd5b9392505050565b6001600160a01b038116811461064f57600080fd5b600080604083850312156110e857600080fd5b82356110f3816110c0565b91506020830135611103816110c0565b809150509250929050565b80356001600160401b038116811461112557600080fd5b919050565b60006020828403121561113c57600080fd5b6110b98261110e565b60006020828403121561115757600080fd5b5035919050565b6000815180845260005b8181101561118457602081850181015186830182015201611168565b506000602082860101526020601f19601f83011685010191505092915050565b6020815260006110b9602083018461115e565b6000602082840312156111c957600080fd5b81356110b9816110c0565b6000602082840312156111e657600080fd5b81356001600160401b038111156111fc57600080fd5b820160a081850312156110b957600080fd5b801515811461064f57600080fd5b6000806040838503121561122f57600080fd5b6112388361110e565b915060208301356111038161120e565b600080600083850361010081121561125f57600080fd5b6112688561110e565b93506020850135611278816110c0565b925060c0603f198201121561128c57600080fd5b506040840190509250925092565b600080604083850312156112ad57600080fd5b8235611238816110c0565b6000602082840312156112ca57600080fd5b81516110b98161120e565b6000602082840312156112e757600080fd5b5051919050565b600181811c9082168061130257607f821691505b60208210810361132257634e487b7160e01b600052602260045260246000fd5b50919050565b634e487b7160e01b600052604160045260246000fd5b604080519081016001600160401b038111828210171561136057611360611328565b60405290565b60405160a081016001600160401b038111828210171561136057611360611328565b604051601f8201601f191681016001600160401b03811182821017156113b0576113b0611328565b604052919050565b600082601f8301126113c957600080fd5b81356001600160401b038111156113e2576113e2611328565b6113f5601f8201601f1916602001611388565b81815284602083860101111561140a57600080fd5b816020850160208301376000918101602001919091529392505050565b600082601f83011261143857600080fd5b813560206001600160401b0382111561145357611453611328565b611461818360051b01611388565b82815260069290921b8401810191818101908684111561148057600080fd5b8286015b848110156114c8576040818903121561149d5760008081fd5b6114a561133e565b81356114b0816110c0565b81528185013585820152835291830191604001611484565b509695505050505050565b600060a082360312156114e557600080fd5b6114ed611366565b823581526114fd6020840161110e565b602082015260408301356001600160401b038082111561151c57600080fd5b611528368387016113b8565b6040840152606085013591508082111561154157600080fd5b61154d368387016113b8565b6060840152608085013591508082111561156657600080fd5b5061157336828601611427565b60808301525092915050565b60ff8116811461064f57600080fd5b813581526020808301359082015260c0810160408301356115ae8161157f565b60ff16604083015260608301356115c48161120e565b1515606083015260808301356115d9816110c0565b6001600160a01b03908116608084015260a0840135906115f8826110c0565b80821660a0850152505092915050565b60006020828403121561161a57600080fd5b81516110b9816110c0565b600060406001600160401b03851683526020604081850152845160a0604086015261165360e086018261115e565b905081860151603f1980878403016060880152611670838361115e565b6040890151888203830160808a01528051808352908601945060009350908501905b808410156116c457845180516001600160a01b0316835286015186830152938501936001939093019290860190611692565b5060608901516001600160a01b031660a08901526080890151888203830160c08a015295506116f3818761115e565b9a9950505050505050505050565b60006020828403121561171357600080fd5b81356110b98161157f565b60006020828403121561173057600080fd5b81356110b98161120e565b60006060828403121561174d57600080fd5b604051606081018181106001600160401b038211171561176f5761176f611328565b6040528251815260208301516117848161157f565b602082015260408301516117978161120e565b6040820152939250505056feb19546dff01e856fb3f010c267a7b1c60363cf8a4664e21cc89c26224620214ea26469706673582212203510eb053fad8fdf63db191a577bfc2445649df7a7212c94dcd1b1a243c7cbf664736f6c63430008170033",
  "linkReferences": {},
  "deployedLinkReferences": {}
}